{
  "_format": "hh-sol-artifact-1",
  "contractName": "BlsVerify",
  "sourceName": "contracts/BlsVerify.sol",
  "abi": [
    {
      "inputs": [],
      "stateMutability": "nonpayable",
      "type": "constructor"
    },
    {
      "inputs": [
        {
          "internalType": "bytes32",
          "name": "_bytes32",
          "type": "bytes32"
        }
      ],
      "name": "bytes32ToHexString",
      "outputs": [
        {
          "internalType": "string",
          "name": "",
          "type": "string"
        }
      ],
      "stateMutability": "pure",
      "type": "function"
    },
    {
      "inputs": [
        {
          "internalType": "bytes",
          "name": "domain",
          "type": "bytes"
        },
        {
          "internalType": "bytes",
          "name": "message",
          "type": "bytes"
        }
      ],
      "name": "hashToPoint",
      "outputs": [
        {
          "internalType": "uint256[2]",
          "name": "",
          "type": "uint256[2]"
        }
      ],
      "stateMutability": "view",
      "type": "function"
    },
    {
      "inputs": [
        {
          "internalType": "uint256[2]",
          "name": "signature",
          "type": "uint256[2]"
        },
        {
          "internalType": "uint256[4]",
          "name": "pubkey",
          "type": "uint256[4]"
        },
        {
          "internalType": "uint256[2]",
          "name": "message",
          "type": "uint256[2]"
        }
      ],
      "name": "verifySignature",
      "outputs": [
        {
          "internalType": "bool",
          "name": "",
          "type": "bool"
        }
      ],
      "stateMutability": "view",
      "type": "function"
    },
    {
      "inputs": [
        {
          "internalType": "string",
          "name": "first",
          "type": "string"
        },
        {
          "internalType": "string",
          "name": "second",
          "type": "string"
        }
      ],
      "name": "works",
      "outputs": [
        {
          "internalType": "bool",
          "name": "",
          "type": "bool"
        }
      ],
      "stateMutability": "pure",
      "type": "function"
    }
  ],
  "bytecode": "0x608060405234801561001057600080fd5b50612175806100206000396000f3fe608060405234801561001057600080fd5b506004361061004b5760003560e01c80620d66e014610050578063145dad8b1461007857806354894f581461008b578063c68b3787146100ab575b600080fd5b61006361005e366004611de0565b6100cb565b60405190151581526020015b60405180910390f35b610063610086366004611f0d565b6102d0565b61009e610099366004611f0d565b610304565b60405161006f9190611f71565b6100be6100b9366004611fa2565b6103b4565b60405161006f919061200b565b600080604051806101800160405280866000600281106100ed576100ed612025565b602002015181526020018660016002811061010a5761010a612025565b602002015181526020017f198e9393920d483a7260bfb731fb5d25f1aa493335a9e71297e485b7aef312c281526020017f1800deef121f1e76426a00665e5c4479674322d4f75edadd46debd5cd992f6ed81526020017f275dc4a288d1afb3cbb1ac09187524c7db36395df7be3b99e673b13a075a65ec81526020017f1d9befcd05a5323e6da4d435f3b617cdb3af83285c2df711ef39c01571827f9d8152602001846000600281106101bf576101bf612025565b60200201518152602001846001600281106101dc576101dc612025565b60200201518152602001856001600481106101f9576101f9612025565b602002015181526020018560006004811061021657610216612025565b602002015181526020018560036004811061023357610233612025565b602002015181526020018560026004811061025057610250612025565b602002015190529050610261611d00565b60006020826101808560086107d05a03fa9050808061027c57fe5b50806102c35760405162461bcd60e51b8152602060048201526011602482015270696e76616c6964207369676e617475726560781b60448201526064015b60405180910390fd5b5051151595945050505050565b60006102fa60405180604001604052806005815260200164257320257360d81b8152508484610574565b5060015b92915050565b61030c611d1e565b600061031884846105c0565b9050600061032c82825b602002015161067b565b9050600061033b836001610322565b9050610345611d3c565b825181526020808401518282015282516040808401919091529083015160608301526000908460808460066107d05a03fa9050808061038057fe5b50806103a85760405162461bcd60e51b815260206004820152600060248201526044016102ba565b50919695505050505050565b604080516042808252608082019092526060916000919060208201818036833701905050905060006040518060400160405280601081526020016f181899199a1a9b1b9c1cb0b131b232b360811b8152509050600360fc1b8260008151811061041f5761041f612025565b60200101906001600160f81b031916908160001a905350600f60fb1b8260018151811061044e5761044e612025565b60200101906001600160f81b031916908160001a90535060005b602081101561056b57600085826020811061048557610485612025565b845191901a91508390600483901c60ff169081106104a5576104a5612025565b01602001516001600160f81b031916846104c0846002612051565b6104cb906002612068565b815181106104db576104db612025565b60200101906001600160f81b031916908160001a9053508281600f1660ff168151811061050a5761050a612025565b01602001516001600160f81b03191684610525846002612051565b610530906003612068565b8151811061054057610540612025565b60200101906001600160f81b031916908160001a9053505080806105639061207b565b915050610468565b50909392505050565b6105bb83838360405160240161058c93929190612094565b60408051601f198184030181529190526020810180516001600160e01b0316632ced7cef60e01b179052610a46565b505050565b6105c8611d1e565b60006105d48484610a52565b9050600080600080601885016001600160c01b0381511693506030860190506001600160c01b03815116945060008051602061212083398151915285600080516020612120833981519152600160c01b870908604887015160608801516001600160c01b039081169750169450925060008051602061212083398151915290508481600160c01b860908604080518082019091529283526020830152509695505050505050565b610683611d1e565b60008051602061212083398151915282106106ec5760405162461bcd60e51b815260206004820152602360248201527f6d6170546f506f696e7446543a20696e76616c6964206669656c6420656c656d604482015262195b9d60ea1b60648201526084016102ba565b8160006106f882610d5e565b905060006000805160206121208339815191528384099050600080516020612120833981519152600482089050600060008051602061212083398151915277b3c4d79d41a91759a9e4c7e359b6b89eaec68e62effffffd850990506000600080516020612120833981519152838309905061077281610e2f565b90506000805160206121208339815191528283099150600080516020612120833981519152818309915060008051602061212083398151915282860991506000805160206121208339815191526107d7836000805160206121208339815191526120d7565b7759e26bcea0d48bacd4f263f1acdb5c4f5763473177fffffe08945060008051602061212083398151915285860991506000805160206121208339815191528583099150600080516020612120833981519152600383089150600061083b83610e3a565b9093509050801561088457841561086757610864836000805160206121208339815191526120d7565b92505b505060408051808201909152938452602084015250909392505050565b600080516020612120833981519152600187086108af906000805160206121208339815191526120d7565b9550600080516020612120833981519152868709925060008051602061212083398151915286840992506000805160206121208339815191526003840892506108f783610e3a565b9093509050801561092057841561086757610864836000805160206121208339815191526120d7565b6000805160206121208339815191528485099550600080516020612120833981519152868709955060008051602061212083398151915282870995506000805160206121208339815191528287099550600080516020612120833981519152600187089550600080516020612120833981519152868709925060008051602061212083398151915286840992506000805160206121208339815191526003840892506109cb83610e3a565b909350905080610a285760405162461bcd60e51b815260206004820152602260248201527f424c533a20626164206674206d617070696e6720696d706c656d656e7461746960448201526137b760f11b60648201526084016102ba565b841561086757610864836000805160206121208339815191526120d7565b610a4f81610e63565b50565b81516060906101008110610aa85760405162461bcd60e51b815260206004820152601a60248201527f424c533a20696e76616c696420646f6d61696e206c656e67746800000000000060448201526064016102ba565b82516000610ab68284612068565b610ac1906040612068565b610acc906004612068565b67ffffffffffffffff811115610ae457610ae4611d5a565b6040519080825280601f01601f191660200182016040528015610b0e576020820181803683370190505b5060408051606080825260808201909252919250600091906020820181803683370190505090506060820160005b84811015610b565760208189018101518383015201610b3c565b508301600081536001016060815360010160008153600181019050602088015181528481019050848153506000600283604051610b9391906120ea565b602060405180830381855afa158015610bb0573d6000803e3d6000fd5b5050506040513d601f19601f82011682018060405250810190610bd39190612106565b90506000610be2866022612068565b945084845281602085015260016040850153602089015160418501528560418701850153600284604051610c1691906120ea565b602060405180830381855afa158015610c33573d6000803e3d6000fd5b5050506040513d601f19601f82011682018060405250810190610c569190612106565b90508060208401528082188060208601525060026040850153602089015160418501528560418701850153600284604051610c9191906120ea565b602060405180830381855afa158015610cae573d6000803e3d6000fd5b5050506040513d601f19601f82011682018060405250810190610cd19190612106565b90508060408401528082188060208601525060036040850153602089015160418501528560418701850153600284604051610d0c91906120ea565b602060405180830381855afa158015610d29573d6000803e3d6000fd5b5050506040513d601f19601f82011682018060405250810190610d4c9190612106565b60608401525090979650505050505050565b60008060405160208152602080820152602060408201528360608201527f183227397098d014dc2822db40c0ac2ecbc0b548b438e5469e10460b6c3e7ea3608082015260008051602061212083398151915260a082015260208160c08360056107d05a03fa90516001149250905080610e285760405162461bcd60e51b815260206004820152602660248201527f424c533a2069734e6f6e526573696475654650206d6f646578702063616c6c2060448201526519985a5b195960d21b60648201526084016102ba565b5015919050565b60006102fe82610e84565b600080610e46836115cb565b915082600080516020612120833981519152838409149050915091565b60006a636f6e736f6c652e6c6f679050600080835160208501845afa505050565b60006000805160206121208339815191528083840991508083830981838209828283098385830984848309858484098684850997508684840987858409945087898a09985087898a09985087898a09985087898a09985087898a09985087878a09985087898a09985087898a09985087898a099850878a8a09985087898a09985087898a09985087898a09985087898a099850878a8a09985087898a09985087898a09985087898a09985087898a09985087898a09985087848a09985087898a09985087898a09985087898a09985087898a09985087898a09985087848a09985087898a09985087898a09985087898a099850878a8a09985087898a09985087898a09985087898a09985087898a09985087848a09985087898a09985087898a09985087898a09985087898a09985087898a099850878a8a09985087898a09985087898a09985087898a09985087898a09985087878a09985087898a09985087898a09985087898a09985087898a09985087898a09985087898a09985087898a09985087818a09985087898a09985087898a09985087898a09985087898a09985087898a09985087898a09985087898a09985087898a09985087898a09985087898a09985087868a09985087898a09985087898a09985087898a09985087898a09985087878a09985087898a09985087898a09985087898a09985087898a09985087848a09985087898a09985087898a09985087898a09985087898a09985087898a09985087898a09985087898a09985087868a09985087898a09985087898a09985087898a09985087898a09985087898a09985087898a099850878a8a09985087898a09985087898a09985087898a09985087898a09985087898a09985087898a09985087898a09985087828a09985087898a09985087898a09985087898a09985087898a09985087898a09985087818a09985087898a09985087898a09985087898a09985087868a09985087898a09985087898a09985087898a09985087898a09985087898a09985087898a09985087898a09985087898a09985087878a09985087898a09985087898a09985087898a09985087898a09985087898a09985087898a09985087898a09985087898a09985087898a09985087868a09985087898a09985087898a09985087898a09985087878a09985087898a09985087898a09985087898a09985087898a09985087898a09985087898a09985087898a09985087898a09985087828a09985087898a09985087898a09985087898a09985087898a09985087828a09985087898a09985087898a09985087898a09985087898a09985087898a09985087868a09985087898a09985087898a09985087898a09985087848a09985087898a09985087898a09985087898a09985087898a09985087898a09985087898a09985087898a09985087898a09985087898a09985087898a09985087828a09985087898a09985087898a09985087898a09985087898a09985087868a09985087898a09985087898a09985087898a09985087898a09985087898a09985087838a09985087898a09985087898a09985087898a09985087898a09985087898a09985087898a09985087898a09985087828a09985087898a09985087898a099850878a8a09985087898a09985087898a09985087898a09985087898a09985087898a09985087898a09985087898a09985087848a09985087898a09985087898a09985087898a09985087898a09985087898a09985087898a09985087848a09985087898a09985087898a09985087898a09985087898a09985087898a09985087868a09985087898a09985087898a099850878a8a09985087898a09985087898a09985087898a09985087898a09985087898a09985087898a09985087898a09985087818a09985050868889099750868889099750868889099750868889099750868889099750868889099750868489099750868889099750868889099750868889099750868889099750868889099750868989099750868889099750868889099750868889099750868889099750868889099750868889099750868989099750868889099750868889099750868889099750868889099750868889099750868689099750868889099750868889099750868889099750868889099750868889099750868889099750868889099750868889099750868889099750868189099750508587880996508587880996508587880996508585880996508587880996508587880996508587880996508585880996508587880996508587880996508587880996508587880996508587880996508587880996508587880996508587880996508583880996508587880996508587880996508587880996508587880996508581880996505050838586099450838586099450838586099450838586099450838186099450508284850993508284850993508284850993508281850993508284850993508284850993508285850993508284850993508284850993508284850993508284850993508284850993508284850993508281850995945050505050565b60006000805160206121208339815191528083840991508083830981838209828283098385830984848309858484098684850997508684840987858409945087898a09985087898a09985087898a09985087898a09985087898a09985087878a09985087898a09985087898a09985087898a099850878a8a09985087898a09985087898a09985087898a09985087898a099850878a8a09985087898a09985087898a09985087898a09985087898a09985087898a09985087848a09985087898a09985087898a09985087898a09985087898a09985087898a09985087848a09985087898a09985087898a09985087898a099850878a8a09985087898a09985087898a09985087898a09985087898a09985087848a09985087898a09985087898a09985087898a09985087898a09985087898a099850878a8a09985087898a09985087898a09985087898a09985087898a09985087878a09985087898a09985087898a09985087898a09985087898a09985087898a09985087898a09985087898a09985087818a09985087898a09985087898a09985087898a09985087898a09985087898a09985087898a09985087898a09985087898a09985087898a09985087898a09985087868a09985087898a09985087898a09985087898a09985087898a09985087878a09985087898a09985087898a09985087898a09985087898a09985087848a09985087898a09985087898a09985087898a09985087898a09985087898a09985087898a09985087898a09985087868a09985087898a09985087898a09985087898a09985087898a09985087898a09985087898a099850878a8a09985087898a09985087898a09985087898a09985087898a09985087898a09985087898a09985087898a09985087828a09985087898a09985087898a09985087898a09985087898a09985087898a09985087818a09985087898a09985087898a09985087898a09985087868a09985087898a09985087898a09985087898a09985087898a09985087898a09985087898a09985087898a09985087898a09985087878a09985087898a09985087898a09985087898a09985087898a09985087898a09985087898a09985087898a09985087898a09985087898a09985087868a09985087898a09985087898a09985087898a09985087878a09985087898a09985087898a09985087898a09985087898a09985087898a09985087898a09985087898a09985087898a09985087828a09985087898a09985087898a09985087898a09985087898a09985087828a09985087898a09985087898a09985087898a09985087898a09985087898a09985087868a09985087898a09985087898a09985087898a09985087848a09985087898a09985087898a09985087898a09985087898a09985087898a09985087898a09985087898a09985087898a09985087898a09985087898a09985087828a09985087898a09985087898a09985087898a09985087898a09985087868a09985087898a09985087898a09985087898a09985087898a09985087898a09985087838a09985087898a09985087898a09985087898a09985087898a09985087898a09985087898a09985087898a09985087828a09985087898a09985087898a099850878a8a09985087898a09985087898a09985087898a09985087898a09985087898a09985087898a09985087898a09985087848a09985087898a09985087898a09985087898a09985087898a09985087898a09985087898a09985087848a09985087898a09985087898a09985087898a09985087898a09985087898a09985087868a09985087898a09985087898a099850878a8a09985087898a09985087898a09985087898a09985087898a09985087898a09985087898a09985087898a09985087818a09985050868889099750868889099750868889099750868889099750868889099750868889099750868489099750868889099750868889099750868889099750868889099750868889099750868989099750868889099750868889099750868889099750868889099750868889099750868889099750868989099750868889099750868889099750868889099750868889099750868889099750868689099750868889099750868889099750868889099750868889099750868889099750868889099750868889099750868889099750868889099750868189099750508587880996508587880996508587880996508585880996508587880996508587880996508587880996508585880996508587880996508587880996508587880996508587880996508587880996508587880996508587880996508587880996508583880996508587880996508587880996508587880996508587880996508581880996508587880996508587880996508587880996508587880996508583880996508587880996508587880996508587880996508584880996508587880996508587880996508587880996508587880996508587880996508581880996505050505050808283099392505050565b60405180602001604052806001906020820280368337509192915050565b60405180604001604052806002906020820280368337509192915050565b60405180608001604052806004906020820280368337509192915050565b634e487b7160e01b600052604160045260246000fd5b600082601f830112611d8157600080fd5b6040516040810181811067ffffffffffffffff82111715611da457611da4611d5a565b8060405250806040840185811115611dbb57600080fd5b845b81811015611dd5578035835260209283019201611dbd565b509195945050505050565b60008060006101008486031215611df657600080fd5b611e008585611d70565b925084605f850112611e1157600080fd5b6040516080810181811067ffffffffffffffff82111715611e3457611e34611d5a565b6040528060c0860187811115611e4957600080fd5b604087015b81811015611e66578035835260209283019201611e4e565b50829450611e748882611d70565b93505050509250925092565b600082601f830112611e9157600080fd5b813567ffffffffffffffff80821115611eac57611eac611d5a565b604051601f8301601f19908116603f01168101908282118183101715611ed457611ed4611d5a565b81604052838152866020858801011115611eed57600080fd5b836020870160208301376000602085830101528094505050505092915050565b60008060408385031215611f2057600080fd5b823567ffffffffffffffff80821115611f3857600080fd5b611f4486838701611e80565b93506020850135915080821115611f5a57600080fd5b50611f6785828601611e80565b9150509250929050565b60408101818360005b6002811015611f99578151835260209283019290910190600101611f7a565b50505092915050565b600060208284031215611fb457600080fd5b5035919050565b60005b83811015611fd6578181015183820152602001611fbe565b50506000910152565b60008151808452611ff7816020860160208601611fbb565b601f01601f19169290920160200192915050565b60208152600061201e6020830184611fdf565b9392505050565b634e487b7160e01b600052603260045260246000fd5b634e487b7160e01b600052601160045260246000fd5b80820281158282048414176102fe576102fe61203b565b808201808211156102fe576102fe61203b565b60006001820161208d5761208d61203b565b5060010190565b6060815260006120a76060830186611fdf565b82810360208401526120b98186611fdf565b905082810360408401526120cd8185611fdf565b9695505050505050565b818103818111156102fe576102fe61203b565b600082516120fc818460208701611fbb565b9190910192915050565b60006020828403121561211857600080fd5b505191905056fe30644e72e131a029b85045b68181585d97816a916871ca8d3c208c16d87cfd47a2646970667358221220bfb4b1bd991c85b4d1e0d02621ed2d044ebac5ff819b1c539e6811459562633964736f6c63430008140033",
  "linkReferences": {},
  "deployedLinkReferences": {}
}