{
  "_format": "hh-sol-artifact-1",
  "contractName": "BlsVerify",
  "sourceName": "contracts/BlsVerify.sol",
  "abi": [
    {
      "inputs": [],
      "stateMutability": "nonpayable",
      "type": "constructor"
    },
    {
      "inputs": [
        {
          "internalType": "bytes32",
          "name": "_bytes32",
          "type": "bytes32"
        }
      ],
      "name": "bytes32ToHexString",
      "outputs": [
        {
          "internalType": "string",
          "name": "",
          "type": "string"
        }
      ],
      "stateMutability": "pure",
      "type": "function"
    },
    {
      "inputs": [
        {
          "internalType": "bytes",
          "name": "message",
          "type": "bytes"
        }
      ],
      "name": "hashToPoint",
      "outputs": [
        {
          "internalType": "uint256[2]",
          "name": "",
          "type": "uint256[2]"
        }
      ],
      "stateMutability": "view",
      "type": "function"
    },
    {
      "inputs": [
        {
          "internalType": "uint256[2]",
          "name": "signature",
          "type": "uint256[2]"
        },
        {
          "internalType": "uint256[4]",
          "name": "pubkey",
          "type": "uint256[4]"
        },
        {
          "internalType": "uint256[2]",
          "name": "message",
          "type": "uint256[2]"
        }
      ],
      "name": "verifySignature",
      "outputs": [
        {
          "internalType": "bool",
          "name": "",
          "type": "bool"
        }
      ],
      "stateMutability": "view",
      "type": "function"
    },
    {
      "inputs": [
        {
          "internalType": "string",
          "name": "first",
          "type": "string"
        },
        {
          "internalType": "string",
          "name": "second",
          "type": "string"
        }
      ],
      "name": "works",
      "outputs": [
        {
          "internalType": "bool",
          "name": "",
          "type": "bool"
        }
      ],
      "stateMutability": "pure",
      "type": "function"
    }
  ],
  "bytecode": "0x6080604052348015600f57600080fd5b506121c08061001f6000396000f3fe608060405234801561001057600080fd5b506004361061004b5760003560e01c80620d66e014610050578063145dad8b146100785780633033cc511461008b578063c68b3787146100ab575b600080fd5b61006361005e366004611e15565b6100cb565b60405190151581526020015b60405180910390f35b610063610086366004611f22565b6102d0565b61009e610099366004611f8b565b610304565b60405161006f9190611fdc565b6100be6100b936600461200d565b6103e8565b60405161006f9190612076565b600080604051806101800160405280866000600281106100ed576100ed612089565b602002015181526020018660016002811061010a5761010a612089565b602002015181526020017f198e9393920d483a7260bfb731fb5d25f1aa493335a9e71297e485b7aef312c281526020017f1800deef121f1e76426a00665e5c4479674322d4f75edadd46debd5cd992f6ed81526020017f275dc4a288d1afb3cbb1ac09187524c7db36395df7be3b99e673b13a075a65ec81526020017f1d9befcd05a5323e6da4d435f3b617cdb3af83285c2df711ef39c01571827f9d8152602001846000600281106101bf576101bf612089565b60200201518152602001846001600281106101dc576101dc612089565b60200201518152602001856001600481106101f9576101f9612089565b602002015181526020018560006004811061021657610216612089565b602002015181526020018560036004811061023357610233612089565b602002015181526020018560026004811061025057610250612089565b602002015190529050610261611d29565b60006020826101808560086107d05a03fa9050808061027c57fe5b50806102c35760405162461bcd60e51b8152602060048201526011602482015270696e76616c6964207369676e617475726560781b60448201526064015b60405180910390fd5b5051151595945050505050565b60006102fa60405180604001604052806005815260200164257320257360d81b815250848461059d565b5060015b92915050565b61030c611d47565b600061034d6040518060400160405280601f81526020017f424e535f5349475f424e533235365f584d443a5348412d3235365f5353575500815250846105e9565b9050600061036182825b60200201516106a4565b90506000610370836001610357565b905061037a611d65565b825181526020808401518282015282516040808401919091529083015160608301526000908460808460066107d05a03fa905080806103b557fe5b50806103dd5760405162461bcd60e51b815260206004820152600060248201526044016102ba565b509195945050505050565b604080516042808252608082019092526060916000919060208201818036833701905050905060006040518060400160405280601081526020016f181899199a1a9b1b9c1cb0b131b232b360811b8152509050600360fc1b8260008151811061045357610453612089565b60200101906001600160f81b031916908160001a905350600f60fb1b8260018151811061048257610482612089565b60200101906001600160f81b031916908160001a90535060005b60208110156105945760008582602081106104b9576104b9612089565b845191901a91508390600483901c60ff169081106104d9576104d9612089565b01602001516001600160f81b031916846104f48460026120b5565b6104ff9060026120cc565b8151811061050f5761050f612089565b60200101906001600160f81b031916908160001a9053508281600f1660ff168151811061053e5761053e612089565b01602001516001600160f81b031916846105598460026120b5565b6105649060036120cc565b8151811061057457610574612089565b60200101906001600160f81b031916908160001a9053505060010161049c565b50909392505050565b6105e48383836040516024016105b5939291906120df565b60408051601f198184030181529190526020810180516001600160e01b0316632ced7cef60e01b179052610a6f565b505050565b6105f1611d47565b60006105fd8484610a7b565b9050600080600080601885016001600160c01b0381511693506030860190506001600160c01b03815116945060008051602061216b8339815191528560008051602061216b833981519152600160c01b870908604887015160608801516001600160c01b039081169750169450925060008051602061216b83398151915290508481600160c01b860908604080518082019091529283526020830152509695505050505050565b6106ac611d47565b60008051602061216b83398151915282106107155760405162461bcd60e51b815260206004820152602360248201527f6d6170546f506f696e7446543a20696e76616c6964206669656c6420656c656d604482015262195b9d60ea1b60648201526084016102ba565b81600061072182610d87565b9050600060008051602061216b833981519152838409905060008051602061216b833981519152600482089050600060008051602061216b83398151915277b3c4d79d41a91759a9e4c7e359b6b89eaec68e62effffffd85099050600060008051602061216b833981519152838309905061079b81610e58565b905060008051602061216b833981519152828309915060008051602061216b833981519152818309915060008051602061216b833981519152828609915060008051602061216b8339815191526108008360008051602061216b833981519152612122565b7759e26bcea0d48bacd4f263f1acdb5c4f5763473177fffffe08945060008051602061216b833981519152858609915060008051602061216b833981519152858309915060008051602061216b833981519152600383089150600061086483610e63565b909350905080156108ad5784156108905761088d8360008051602061216b833981519152612122565b92505b505060408051808201909152938452602084015250909392505050565b60008051602061216b833981519152600187086108d89060008051602061216b833981519152612122565b955060008051602061216b833981519152868709925060008051602061216b833981519152868409925060008051602061216b83398151915260038408925061092083610e63565b909350905080156109495784156108905761088d8360008051602061216b833981519152612122565b60008051602061216b833981519152848509955060008051602061216b833981519152868709955060008051602061216b833981519152828709955060008051602061216b833981519152828709955060008051602061216b83398151915260018708955060008051602061216b833981519152868709925060008051602061216b833981519152868409925060008051602061216b8339815191526003840892506109f483610e63565b909350905080610a515760405162461bcd60e51b815260206004820152602260248201527f424c533a20626164206674206d617070696e6720696d706c656d656e7461746960448201526137b760f11b60648201526084016102ba565b84156108905761088d8360008051602061216b833981519152612122565b610a7881610e8c565b50565b81516060906101008110610ad15760405162461bcd60e51b815260206004820152601a60248201527f424c533a20696e76616c696420646f6d61696e206c656e67746800000000000060448201526064016102ba565b82516000610adf82846120cc565b610aea9060406120cc565b610af59060046120cc565b67ffffffffffffffff811115610b0d57610b0d611d83565b6040519080825280601f01601f191660200182016040528015610b37576020820181803683370190505b5060408051606080825260808201909252919250600091906020820181803683370190505090506060820160005b84811015610b7f5760208189018101518383015201610b65565b508301600081536001016060815360010160008153600181019050602088015181528481019050848153506000600283604051610bbc9190612135565b602060405180830381855afa158015610bd9573d6000803e3d6000fd5b5050506040513d601f19601f82011682018060405250810190610bfc9190612151565b90506000610c0b8660226120cc565b945084845281602085015260016040850153602089015160418501528560418701850153600284604051610c3f9190612135565b602060405180830381855afa158015610c5c573d6000803e3d6000fd5b5050506040513d601f19601f82011682018060405250810190610c7f9190612151565b90508060208401528082188060208601525060026040850153602089015160418501528560418701850153600284604051610cba9190612135565b602060405180830381855afa158015610cd7573d6000803e3d6000fd5b5050506040513d601f19601f82011682018060405250810190610cfa9190612151565b90508060408401528082188060208601525060036040850153602089015160418501528560418701850153600284604051610d359190612135565b602060405180830381855afa158015610d52573d6000803e3d6000fd5b5050506040513d601f19601f82011682018060405250810190610d759190612151565b60608401525090979650505050505050565b60008060405160208152602080820152602060408201528360608201527f183227397098d014dc2822db40c0ac2ecbc0b548b438e5469e10460b6c3e7ea3608082015260008051602061216b83398151915260a082015260208160c08360056107d05a03fa90516001149250905080610e515760405162461bcd60e51b815260206004820152602660248201527f424c533a2069734e6f6e526573696475654650206d6f646578702063616c6c2060448201526519985a5b195960d21b60648201526084016102ba565b5015919050565b60006102fe82610ead565b600080610e6f836115f4565b91508260008051602061216b833981519152838409149050915091565b60006a636f6e736f6c652e6c6f679050600080835160208501845afa505050565b600060008051602061216b8339815191528083840991508083830981838209828283098385830984848309858484098684850997508684840987858409945087898a09985087898a09985087898a09985087898a09985087898a09985087878a09985087898a09985087898a09985087898a099850878a8a09985087898a09985087898a09985087898a09985087898a099850878a8a09985087898a09985087898a09985087898a09985087898a09985087898a09985087848a09985087898a09985087898a09985087898a09985087898a09985087898a09985087848a09985087898a09985087898a09985087898a099850878a8a09985087898a09985087898a09985087898a09985087898a09985087848a09985087898a09985087898a09985087898a09985087898a09985087898a099850878a8a09985087898a09985087898a09985087898a09985087898a09985087878a09985087898a09985087898a09985087898a09985087898a09985087898a09985087898a09985087898a09985087818a09985087898a09985087898a09985087898a09985087898a09985087898a09985087898a09985087898a09985087898a09985087898a09985087898a09985087868a09985087898a09985087898a09985087898a09985087898a09985087878a09985087898a09985087898a09985087898a09985087898a09985087848a09985087898a09985087898a09985087898a09985087898a09985087898a09985087898a09985087898a09985087868a09985087898a09985087898a09985087898a09985087898a09985087898a09985087898a099850878a8a09985087898a09985087898a09985087898a09985087898a09985087898a09985087898a09985087898a09985087828a09985087898a09985087898a09985087898a09985087898a09985087898a09985087818a09985087898a09985087898a09985087898a09985087868a09985087898a09985087898a09985087898a09985087898a09985087898a09985087898a09985087898a09985087898a09985087878a09985087898a09985087898a09985087898a09985087898a09985087898a09985087898a09985087898a09985087898a09985087898a09985087868a09985087898a09985087898a09985087898a09985087878a09985087898a09985087898a09985087898a09985087898a09985087898a09985087898a09985087898a09985087898a09985087828a09985087898a09985087898a09985087898a09985087898a09985087828a09985087898a09985087898a09985087898a09985087898a09985087898a09985087868a09985087898a09985087898a09985087898a09985087848a09985087898a09985087898a09985087898a09985087898a09985087898a09985087898a09985087898a09985087898a09985087898a09985087898a09985087828a09985087898a09985087898a09985087898a09985087898a09985087868a09985087898a09985087898a09985087898a09985087898a09985087898a09985087838a09985087898a09985087898a09985087898a09985087898a09985087898a09985087898a09985087898a09985087828a09985087898a09985087898a099850878a8a09985087898a09985087898a09985087898a09985087898a09985087898a09985087898a09985087898a09985087848a09985087898a09985087898a09985087898a09985087898a09985087898a09985087898a09985087848a09985087898a09985087898a09985087898a09985087898a09985087898a09985087868a09985087898a09985087898a099850878a8a09985087898a09985087898a09985087898a09985087898a09985087898a09985087898a09985087898a09985087818a09985050868889099750868889099750868889099750868889099750868889099750868889099750868489099750868889099750868889099750868889099750868889099750868889099750868989099750868889099750868889099750868889099750868889099750868889099750868889099750868989099750868889099750868889099750868889099750868889099750868889099750868689099750868889099750868889099750868889099750868889099750868889099750868889099750868889099750868889099750868889099750868189099750508587880996508587880996508587880996508585880996508587880996508587880996508587880996508585880996508587880996508587880996508587880996508587880996508587880996508587880996508587880996508587880996508583880996508587880996508587880996508587880996508587880996508581880996505050838586099450838586099450838586099450838586099450838186099450508284850993508284850993508284850993508281850993508284850993508284850993508285850993508284850993508284850993508284850993508284850993508284850993508284850993508281850995945050505050565b600060008051602061216b8339815191528083840991508083830981838209828283098385830984848309858484098684850997508684840987858409945087898a09985087898a09985087898a09985087898a09985087898a09985087878a09985087898a09985087898a09985087898a099850878a8a09985087898a09985087898a09985087898a09985087898a099850878a8a09985087898a09985087898a09985087898a09985087898a09985087898a09985087848a09985087898a09985087898a09985087898a09985087898a09985087898a09985087848a09985087898a09985087898a09985087898a099850878a8a09985087898a09985087898a09985087898a09985087898a09985087848a09985087898a09985087898a09985087898a09985087898a09985087898a099850878a8a09985087898a09985087898a09985087898a09985087898a09985087878a09985087898a09985087898a09985087898a09985087898a09985087898a09985087898a09985087898a09985087818a09985087898a09985087898a09985087898a09985087898a09985087898a09985087898a09985087898a09985087898a09985087898a09985087898a09985087868a09985087898a09985087898a09985087898a09985087898a09985087878a09985087898a09985087898a09985087898a09985087898a09985087848a09985087898a09985087898a09985087898a09985087898a09985087898a09985087898a09985087898a09985087868a09985087898a09985087898a09985087898a09985087898a09985087898a09985087898a099850878a8a09985087898a09985087898a09985087898a09985087898a09985087898a09985087898a09985087898a09985087828a09985087898a09985087898a09985087898a09985087898a09985087898a09985087818a09985087898a09985087898a09985087898a09985087868a09985087898a09985087898a09985087898a09985087898a09985087898a09985087898a09985087898a09985087898a09985087878a09985087898a09985087898a09985087898a09985087898a09985087898a09985087898a09985087898a09985087898a09985087898a09985087868a09985087898a09985087898a09985087898a09985087878a09985087898a09985087898a09985087898a09985087898a09985087898a09985087898a09985087898a09985087898a09985087828a09985087898a09985087898a09985087898a09985087898a09985087828a09985087898a09985087898a09985087898a09985087898a09985087898a09985087868a09985087898a09985087898a09985087898a09985087848a09985087898a09985087898a09985087898a09985087898a09985087898a09985087898a09985087898a09985087898a09985087898a09985087898a09985087828a09985087898a09985087898a09985087898a09985087898a09985087868a09985087898a09985087898a09985087898a09985087898a09985087898a09985087838a09985087898a09985087898a09985087898a09985087898a09985087898a09985087898a09985087898a09985087828a09985087898a09985087898a099850878a8a09985087898a09985087898a09985087898a09985087898a09985087898a09985087898a09985087898a09985087848a09985087898a09985087898a09985087898a09985087898a09985087898a09985087898a09985087848a09985087898a09985087898a09985087898a09985087898a09985087898a09985087868a09985087898a09985087898a099850878a8a09985087898a09985087898a09985087898a09985087898a09985087898a09985087898a09985087898a09985087818a09985050868889099750868889099750868889099750868889099750868889099750868889099750868489099750868889099750868889099750868889099750868889099750868889099750868989099750868889099750868889099750868889099750868889099750868889099750868889099750868989099750868889099750868889099750868889099750868889099750868889099750868689099750868889099750868889099750868889099750868889099750868889099750868889099750868889099750868889099750868889099750868189099750508587880996508587880996508587880996508585880996508587880996508587880996508587880996508585880996508587880996508587880996508587880996508587880996508587880996508587880996508587880996508587880996508583880996508587880996508587880996508587880996508587880996508581880996508587880996508587880996508587880996508587880996508583880996508587880996508587880996508587880996508584880996508587880996508587880996508587880996508587880996508587880996508581880996505050505050808283099392505050565b60405180602001604052806001906020820280368337509192915050565b60405180604001604052806002906020820280368337509192915050565b60405180608001604052806004906020820280368337509192915050565b634e487b7160e01b600052604160045260246000fd5b604051601f8201601f1916810167ffffffffffffffff81118282101715611dc257611dc2611d83565b604052919050565b600082601f830112611ddb57600080fd5b6000611de76040611d99565b9050806040840185811115611dfb57600080fd5b845b818110156103dd578035835260209283019201611dfd565b60008060006101008486031215611e2b57600080fd5b611e358585611dca565b9250600085605f860112611e47578081fd5b80611e526080611d99565b905080915060c0860187811115611e6857600080fd5b604087015b81811015611e85578035845260209384019301611e6d565b50819450611e938882611dca565b93505050509250925092565b60008067ffffffffffffffff841115611eba57611eba611d83565b50601f8301601f1916602001611ecf81611d99565b915050828152838383011115611ee457600080fd5b828260208301376000602084830101529392505050565b600082601f830112611f0c57600080fd5b611f1b83833560208501611e9f565b9392505050565b60008060408385031215611f3557600080fd5b823567ffffffffffffffff811115611f4c57600080fd5b611f5885828601611efb565b925050602083013567ffffffffffffffff811115611f7557600080fd5b611f8185828601611efb565b9150509250929050565b600060208284031215611f9d57600080fd5b813567ffffffffffffffff811115611fb457600080fd5b8201601f81018413611fc557600080fd5b611fd484823560208401611e9f565b949350505050565b60408101818360005b6002811015612004578151835260209283019290910190600101611fe5565b50505092915050565b60006020828403121561201f57600080fd5b5035919050565b60005b83811015612041578181015183820152602001612029565b50506000910152565b60008151808452612062816020860160208601612026565b601f01601f19169290920160200192915050565b602081526000611f1b602083018461204a565b634e487b7160e01b600052603260045260246000fd5b634e487b7160e01b600052601160045260246000fd5b80820281158282048414176102fe576102fe61209f565b808201808211156102fe576102fe61209f565b6060815260006120f2606083018661204a565b8281036020840152612104818661204a565b90508281036040840152612118818561204a565b9695505050505050565b818103818111156102fe576102fe61209f565b60008251612147818460208701612026565b9190910192915050565b60006020828403121561216357600080fd5b505191905056fe30644e72e131a029b85045b68181585d97816a916871ca8d3c208c16d87cfd47a26469706673582212200d7f27115bd28d3fc531828071576ea5075618d14a738f28d30d3086a45b945c64736f6c634300081a0033",
  "linkReferences": {},
  "deployedLinkReferences": {}
}