{
  "_format": "hh-sol-artifact-1",
  "contractName": "BlsVerify",
  "sourceName": "contracts/BlsVerify.sol",
  "abi": [
    {
      "inputs": [],
      "stateMutability": "nonpayable",
      "type": "constructor"
    },
    {
      "inputs": [
        {
          "internalType": "bytes32",
          "name": "_bytes32",
          "type": "bytes32"
        }
      ],
      "name": "bytes32ToHexString",
      "outputs": [
        {
          "internalType": "string",
          "name": "",
          "type": "string"
        }
      ],
      "stateMutability": "pure",
      "type": "function"
    },
    {
      "inputs": [
        {
          "internalType": "bytes",
          "name": "domain",
          "type": "bytes"
        },
        {
          "internalType": "bytes",
          "name": "message",
          "type": "bytes"
        }
      ],
      "name": "hashToPoint",
      "outputs": [
        {
          "internalType": "uint256[2]",
          "name": "",
          "type": "uint256[2]"
        }
      ],
      "stateMutability": "view",
      "type": "function"
    },
    {
      "inputs": [
        {
          "internalType": "uint256[2]",
          "name": "signature",
          "type": "uint256[2]"
        },
        {
          "internalType": "uint256[4]",
          "name": "pubkey",
          "type": "uint256[4]"
        },
        {
          "internalType": "uint256[2]",
          "name": "message",
          "type": "uint256[2]"
        }
      ],
      "name": "verifySignature",
      "outputs": [
        {
          "internalType": "bool",
          "name": "",
          "type": "bool"
        }
      ],
      "stateMutability": "view",
      "type": "function"
    },
    {
      "inputs": [
        {
          "internalType": "string",
          "name": "first",
          "type": "string"
        },
        {
          "internalType": "string",
          "name": "second",
          "type": "string"
        }
      ],
      "name": "works",
      "outputs": [
        {
          "internalType": "bool",
          "name": "",
          "type": "bool"
        }
      ],
      "stateMutability": "pure",
      "type": "function"
    }
  ],
  "bytecode": "0x6080604052348015600f57600080fd5b506121418061001f6000396000f3fe608060405234801561001057600080fd5b506004361061004b5760003560e01c80620d66e014610050578063145dad8b1461007857806354894f581461008b578063c68b3787146100ab575b600080fd5b61006361005e366004611dec565b6100cb565b60405190151581526020015b60405180910390f35b610063610086366004611eed565b6102d0565b61009e610099366004611eed565b610304565b60405161006f9190611f56565b6100be6100b9366004611f87565b6103b4565b60405161006f9190611ff0565b600080604051806101800160405280866000600281106100ed576100ed61200a565b602002015181526020018660016002811061010a5761010a61200a565b602002015181526020017f198e9393920d483a7260bfb731fb5d25f1aa493335a9e71297e485b7aef312c281526020017f1800deef121f1e76426a00665e5c4479674322d4f75edadd46debd5cd992f6ed81526020017f275dc4a288d1afb3cbb1ac09187524c7db36395df7be3b99e673b13a075a65ec81526020017f1d9befcd05a5323e6da4d435f3b617cdb3af83285c2df711ef39c01571827f9d8152602001846000600281106101bf576101bf61200a565b60200201518152602001846001600281106101dc576101dc61200a565b60200201518152602001856001600481106101f9576101f961200a565b60200201518152602001856000600481106102165761021661200a565b60200201518152602001856003600481106102335761023361200a565b60200201518152602001856002600481106102505761025061200a565b602002015190529050610261611cf5565b60006020826101808560086107d05a03fa9050808061027c57fe5b50806102c35760405162461bcd60e51b8152602060048201526011602482015270696e76616c6964207369676e617475726560781b60448201526064015b60405180910390fd5b5051151595945050505050565b60006102fa60405180604001604052806005815260200164257320257360d81b8152508484610569565b5060015b92915050565b61030c611d13565b600061031884846105b5565b9050600061032c82825b6020020151610670565b9050600061033b836001610322565b9050610345611d31565b825181526020808401518282015282516040808401919091529083015160608301526000908460808460066107d05a03fa9050808061038057fe5b50806103a85760405162461bcd60e51b815260206004820152600060248201526044016102ba565b50919695505050505050565b604080516042808252608082019092526060916000919060208201818036833701905050905060006040518060400160405280601081526020016f181899199a1a9b1b9c1cb0b131b232b360811b8152509050600360fc1b8260008151811061041f5761041f61200a565b60200101906001600160f81b031916908160001a905350600f60fb1b8260018151811061044e5761044e61200a565b60200101906001600160f81b031916908160001a90535060005b60208110156105605760008582602081106104855761048561200a565b845191901a91508390600483901c60ff169081106104a5576104a561200a565b01602001516001600160f81b031916846104c0846002612036565b6104cb90600261204d565b815181106104db576104db61200a565b60200101906001600160f81b031916908160001a9053508281600f1660ff168151811061050a5761050a61200a565b01602001516001600160f81b03191684610525846002612036565b61053090600361204d565b815181106105405761054061200a565b60200101906001600160f81b031916908160001a90535050600101610468565b50909392505050565b6105b083838360405160240161058193929190612060565b60408051601f198184030181529190526020810180516001600160e01b0316632ced7cef60e01b179052610a3b565b505050565b6105bd611d13565b60006105c98484610a47565b9050600080600080601885016001600160c01b0381511693506030860190506001600160c01b0381511694506000805160206120ec833981519152856000805160206120ec833981519152600160c01b870908604887015160608801516001600160c01b03908116975016945092506000805160206120ec83398151915290508481600160c01b860908604080518082019091529283526020830152509695505050505050565b610678611d13565b6000805160206120ec83398151915282106106e15760405162461bcd60e51b815260206004820152602360248201527f6d6170546f506f696e7446543a20696e76616c6964206669656c6420656c656d604482015262195b9d60ea1b60648201526084016102ba565b8160006106ed82610d53565b905060006000805160206120ec83398151915283840990506000805160206120ec83398151915260048208905060006000805160206120ec83398151915277b3c4d79d41a91759a9e4c7e359b6b89eaec68e62effffffd8509905060006000805160206120ec833981519152838309905061076781610e24565b90506000805160206120ec83398151915282830991506000805160206120ec83398151915281830991506000805160206120ec83398151915282860991506000805160206120ec8339815191526107cc836000805160206120ec8339815191526120a3565b7759e26bcea0d48bacd4f263f1acdb5c4f5763473177fffffe0894506000805160206120ec83398151915285860991506000805160206120ec83398151915285830991506000805160206120ec833981519152600383089150600061083083610e2f565b9093509050801561087957841561085c57610859836000805160206120ec8339815191526120a3565b92505b505060408051808201909152938452602084015250909392505050565b6000805160206120ec833981519152600187086108a4906000805160206120ec8339815191526120a3565b95506000805160206120ec83398151915286870992506000805160206120ec83398151915286840992506000805160206120ec8339815191526003840892506108ec83610e2f565b9093509050801561091557841561085c57610859836000805160206120ec8339815191526120a3565b6000805160206120ec83398151915284850995506000805160206120ec83398151915286870995506000805160206120ec83398151915282870995506000805160206120ec83398151915282870995506000805160206120ec8339815191526001870895506000805160206120ec83398151915286870992506000805160206120ec83398151915286840992506000805160206120ec8339815191526003840892506109c083610e2f565b909350905080610a1d5760405162461bcd60e51b815260206004820152602260248201527f424c533a20626164206674206d617070696e6720696d706c656d656e7461746960448201526137b760f11b60648201526084016102ba565b841561085c57610859836000805160206120ec8339815191526120a3565b610a4481610e58565b50565b81516060906101008110610a9d5760405162461bcd60e51b815260206004820152601a60248201527f424c533a20696e76616c696420646f6d61696e206c656e67746800000000000060448201526064016102ba565b82516000610aab828461204d565b610ab690604061204d565b610ac190600461204d565b67ffffffffffffffff811115610ad957610ad9611d4f565b6040519080825280601f01601f191660200182016040528015610b03576020820181803683370190505b5060408051606080825260808201909252919250600091906020820181803683370190505090506060820160005b84811015610b4b5760208189018101518383015201610b31565b508301600081536001016060815360010160008153600181019050602088015181528481019050848153506000600283604051610b8891906120b6565b602060405180830381855afa158015610ba5573d6000803e3d6000fd5b5050506040513d601f19601f82011682018060405250810190610bc891906120d2565b90506000610bd786602261204d565b945084845281602085015260016040850153602089015160418501528560418701850153600284604051610c0b91906120b6565b602060405180830381855afa158015610c28573d6000803e3d6000fd5b5050506040513d601f19601f82011682018060405250810190610c4b91906120d2565b90508060208401528082188060208601525060026040850153602089015160418501528560418701850153600284604051610c8691906120b6565b602060405180830381855afa158015610ca3573d6000803e3d6000fd5b5050506040513d601f19601f82011682018060405250810190610cc691906120d2565b90508060408401528082188060208601525060036040850153602089015160418501528560418701850153600284604051610d0191906120b6565b602060405180830381855afa158015610d1e573d6000803e3d6000fd5b5050506040513d601f19601f82011682018060405250810190610d4191906120d2565b60608401525090979650505050505050565b60008060405160208152602080820152602060408201528360608201527f183227397098d014dc2822db40c0ac2ecbc0b548b438e5469e10460b6c3e7ea360808201526000805160206120ec83398151915260a082015260208160c08360056107d05a03fa90516001149250905080610e1d5760405162461bcd60e51b815260206004820152602660248201527f424c533a2069734e6f6e526573696475654650206d6f646578702063616c6c2060448201526519985a5b195960d21b60648201526084016102ba565b5015919050565b60006102fe82610e79565b600080610e3b836115c0565b9150826000805160206120ec833981519152838409149050915091565b60006a636f6e736f6c652e6c6f679050600080835160208501845afa505050565b60006000805160206120ec8339815191528083840991508083830981838209828283098385830984848309858484098684850997508684840987858409945087898a09985087898a09985087898a09985087898a09985087898a09985087878a09985087898a09985087898a09985087898a099850878a8a09985087898a09985087898a09985087898a09985087898a099850878a8a09985087898a09985087898a09985087898a09985087898a09985087898a09985087848a09985087898a09985087898a09985087898a09985087898a09985087898a09985087848a09985087898a09985087898a09985087898a099850878a8a09985087898a09985087898a09985087898a09985087898a09985087848a09985087898a09985087898a09985087898a09985087898a09985087898a099850878a8a09985087898a09985087898a09985087898a09985087898a09985087878a09985087898a09985087898a09985087898a09985087898a09985087898a09985087898a09985087898a09985087818a09985087898a09985087898a09985087898a09985087898a09985087898a09985087898a09985087898a09985087898a09985087898a09985087898a09985087868a09985087898a09985087898a09985087898a09985087898a09985087878a09985087898a09985087898a09985087898a09985087898a09985087848a09985087898a09985087898a09985087898a09985087898a09985087898a09985087898a09985087898a09985087868a09985087898a09985087898a09985087898a09985087898a09985087898a09985087898a099850878a8a09985087898a09985087898a09985087898a09985087898a09985087898a09985087898a09985087898a09985087828a09985087898a09985087898a09985087898a09985087898a09985087898a09985087818a09985087898a09985087898a09985087898a09985087868a09985087898a09985087898a09985087898a09985087898a09985087898a09985087898a09985087898a09985087898a09985087878a09985087898a09985087898a09985087898a09985087898a09985087898a09985087898a09985087898a09985087898a09985087898a09985087868a09985087898a09985087898a09985087898a09985087878a09985087898a09985087898a09985087898a09985087898a09985087898a09985087898a09985087898a09985087898a09985087828a09985087898a09985087898a09985087898a09985087898a09985087828a09985087898a09985087898a09985087898a09985087898a09985087898a09985087868a09985087898a09985087898a09985087898a09985087848a09985087898a09985087898a09985087898a09985087898a09985087898a09985087898a09985087898a09985087898a09985087898a09985087898a09985087828a09985087898a09985087898a09985087898a09985087898a09985087868a09985087898a09985087898a09985087898a09985087898a09985087898a09985087838a09985087898a09985087898a09985087898a09985087898a09985087898a09985087898a09985087898a09985087828a09985087898a09985087898a099850878a8a09985087898a09985087898a09985087898a09985087898a09985087898a09985087898a09985087898a09985087848a09985087898a09985087898a09985087898a09985087898a09985087898a09985087898a09985087848a09985087898a09985087898a09985087898a09985087898a09985087898a09985087868a09985087898a09985087898a099850878a8a09985087898a09985087898a09985087898a09985087898a09985087898a09985087898a09985087898a09985087818a09985050868889099750868889099750868889099750868889099750868889099750868889099750868489099750868889099750868889099750868889099750868889099750868889099750868989099750868889099750868889099750868889099750868889099750868889099750868889099750868989099750868889099750868889099750868889099750868889099750868889099750868689099750868889099750868889099750868889099750868889099750868889099750868889099750868889099750868889099750868889099750868189099750508587880996508587880996508587880996508585880996508587880996508587880996508587880996508585880996508587880996508587880996508587880996508587880996508587880996508587880996508587880996508587880996508583880996508587880996508587880996508587880996508587880996508581880996505050838586099450838586099450838586099450838586099450838186099450508284850993508284850993508284850993508281850993508284850993508284850993508285850993508284850993508284850993508284850993508284850993508284850993508284850993508281850995945050505050565b60006000805160206120ec8339815191528083840991508083830981838209828283098385830984848309858484098684850997508684840987858409945087898a09985087898a09985087898a09985087898a09985087898a09985087878a09985087898a09985087898a09985087898a099850878a8a09985087898a09985087898a09985087898a09985087898a099850878a8a09985087898a09985087898a09985087898a09985087898a09985087898a09985087848a09985087898a09985087898a09985087898a09985087898a09985087898a09985087848a09985087898a09985087898a09985087898a099850878a8a09985087898a09985087898a09985087898a09985087898a09985087848a09985087898a09985087898a09985087898a09985087898a09985087898a099850878a8a09985087898a09985087898a09985087898a09985087898a09985087878a09985087898a09985087898a09985087898a09985087898a09985087898a09985087898a09985087898a09985087818a09985087898a09985087898a09985087898a09985087898a09985087898a09985087898a09985087898a09985087898a09985087898a09985087898a09985087868a09985087898a09985087898a09985087898a09985087898a09985087878a09985087898a09985087898a09985087898a09985087898a09985087848a09985087898a09985087898a09985087898a09985087898a09985087898a09985087898a09985087898a09985087868a09985087898a09985087898a09985087898a09985087898a09985087898a09985087898a099850878a8a09985087898a09985087898a09985087898a09985087898a09985087898a09985087898a09985087898a09985087828a09985087898a09985087898a09985087898a09985087898a09985087898a09985087818a09985087898a09985087898a09985087898a09985087868a09985087898a09985087898a09985087898a09985087898a09985087898a09985087898a09985087898a09985087898a09985087878a09985087898a09985087898a09985087898a09985087898a09985087898a09985087898a09985087898a09985087898a09985087898a09985087868a09985087898a09985087898a09985087898a09985087878a09985087898a09985087898a09985087898a09985087898a09985087898a09985087898a09985087898a09985087898a09985087828a09985087898a09985087898a09985087898a09985087898a09985087828a09985087898a09985087898a09985087898a09985087898a09985087898a09985087868a09985087898a09985087898a09985087898a09985087848a09985087898a09985087898a09985087898a09985087898a09985087898a09985087898a09985087898a09985087898a09985087898a09985087898a09985087828a09985087898a09985087898a09985087898a09985087898a09985087868a09985087898a09985087898a09985087898a09985087898a09985087898a09985087838a09985087898a09985087898a09985087898a09985087898a09985087898a09985087898a09985087898a09985087828a09985087898a09985087898a099850878a8a09985087898a09985087898a09985087898a09985087898a09985087898a09985087898a09985087898a09985087848a09985087898a09985087898a09985087898a09985087898a09985087898a09985087898a09985087848a09985087898a09985087898a09985087898a09985087898a09985087898a09985087868a09985087898a09985087898a099850878a8a09985087898a09985087898a09985087898a09985087898a09985087898a09985087898a09985087898a09985087818a09985050868889099750868889099750868889099750868889099750868889099750868889099750868489099750868889099750868889099750868889099750868889099750868889099750868989099750868889099750868889099750868889099750868889099750868889099750868889099750868989099750868889099750868889099750868889099750868889099750868889099750868689099750868889099750868889099750868889099750868889099750868889099750868889099750868889099750868889099750868889099750868189099750508587880996508587880996508587880996508585880996508587880996508587880996508587880996508585880996508587880996508587880996508587880996508587880996508587880996508587880996508587880996508587880996508583880996508587880996508587880996508587880996508587880996508581880996508587880996508587880996508587880996508587880996508583880996508587880996508587880996508587880996508584880996508587880996508587880996508587880996508587880996508587880996508581880996505050505050808283099392505050565b60405180602001604052806001906020820280368337509192915050565b60405180604001604052806002906020820280368337509192915050565b60405180608001604052806004906020820280368337509192915050565b634e487b7160e01b600052604160045260246000fd5b604051601f8201601f1916810167ffffffffffffffff81118282101715611d8e57611d8e611d4f565b604052919050565b600082601f830112611da757600080fd5b6000611db36040611d65565b9050806040840185811115611dc757600080fd5b845b81811015611de1578035835260209283019201611dc9565b509195945050505050565b60008060006101008486031215611e0257600080fd5b611e0c8585611d96565b9250600085605f860112611e1e578081fd5b80611e296080611d65565b905080915060c0860187811115611e3f57600080fd5b604087015b81811015611e5c578035845260209384019301611e44565b50819450611e6a8882611d96565b93505050509250925092565b600082601f830112611e8757600080fd5b81356020830160008067ffffffffffffffff841115611ea857611ea8611d4f565b50601f8301601f1916602001611ebd81611d65565b915050828152858383011115611ed257600080fd5b82826020830137600092810160200192909252509392505050565b60008060408385031215611f0057600080fd5b823567ffffffffffffffff811115611f1757600080fd5b611f2385828601611e76565b925050602083013567ffffffffffffffff811115611f4057600080fd5b611f4c85828601611e76565b9150509250929050565b60408101818360005b6002811015611f7e578151835260209283019290910190600101611f5f565b50505092915050565b600060208284031215611f9957600080fd5b5035919050565b60005b83811015611fbb578181015183820152602001611fa3565b50506000910152565b60008151808452611fdc816020860160208601611fa0565b601f01601f19169290920160200192915050565b6020815260006120036020830184611fc4565b9392505050565b634e487b7160e01b600052603260045260246000fd5b634e487b7160e01b600052601160045260246000fd5b80820281158282048414176102fe576102fe612020565b808201808211156102fe576102fe612020565b6060815260006120736060830186611fc4565b82810360208401526120858186611fc4565b905082810360408401526120998185611fc4565b9695505050505050565b818103818111156102fe576102fe612020565b600082516120c8818460208701611fa0565b9190910192915050565b6000602082840312156120e457600080fd5b505191905056fe30644e72e131a029b85045b68181585d97816a916871ca8d3c208c16d87cfd47a2646970667358221220304135c11cb87fce46b53f87bbc5487f70d7bb5edfabf3fcf223cf34689d785864736f6c634300081a0033",
  "linkReferences": {},
  "deployedLinkReferences": {}
}