{
  "_format": "hh-sol-artifact-1",
  "contractName": "ERC20Token",
  "sourceName": "contracts/tokens/ERC20Token.sol",
  "abi": [
    {
      "inputs": [
        {
          "internalType": "string",
          "name": "name_",
          "type": "string"
        },
        {
          "internalType": "string",
          "name": "symbol_",
          "type": "string"
        },
        {
          "internalType": "uint8",
          "name": "decimals_",
          "type": "uint8"
        },
        {
          "internalType": "address",
          "name": "originatingToken_",
          "type": "address"
        },
        {
          "internalType": "uint256",
          "name": "originatingChain_",
          "type": "uint256"
        }
      ],
      "stateMutability": "nonpayable",
      "type": "constructor"
    },
    {
      "inputs": [
        {
          "internalType": "address",
          "name": "spender",
          "type": "address"
        },
        {
          "internalType": "uint256",
          "name": "allowance",
          "type": "uint256"
        },
        {
          "internalType": "uint256",
          "name": "needed",
          "type": "uint256"
        }
      ],
      "name": "ERC20InsufficientAllowance",
      "type": "error"
    },
    {
      "inputs": [
        {
          "internalType": "address",
          "name": "sender",
          "type": "address"
        },
        {
          "internalType": "uint256",
          "name": "balance",
          "type": "uint256"
        },
        {
          "internalType": "uint256",
          "name": "needed",
          "type": "uint256"
        }
      ],
      "name": "ERC20InsufficientBalance",
      "type": "error"
    },
    {
      "inputs": [
        {
          "internalType": "address",
          "name": "approver",
          "type": "address"
        }
      ],
      "name": "ERC20InvalidApprover",
      "type": "error"
    },
    {
      "inputs": [
        {
          "internalType": "address",
          "name": "receiver",
          "type": "address"
        }
      ],
      "name": "ERC20InvalidReceiver",
      "type": "error"
    },
    {
      "inputs": [
        {
          "internalType": "address",
          "name": "sender",
          "type": "address"
        }
      ],
      "name": "ERC20InvalidSender",
      "type": "error"
    },
    {
      "inputs": [
        {
          "internalType": "address",
          "name": "spender",
          "type": "address"
        }
      ],
      "name": "ERC20InvalidSpender",
      "type": "error"
    },
    {
      "anonymous": false,
      "inputs": [
        {
          "indexed": true,
          "internalType": "address",
          "name": "owner",
          "type": "address"
        },
        {
          "indexed": true,
          "internalType": "address",
          "name": "spender",
          "type": "address"
        },
        {
          "indexed": false,
          "internalType": "uint256",
          "name": "value",
          "type": "uint256"
        }
      ],
      "name": "Approval",
      "type": "event"
    },
    {
      "anonymous": false,
      "inputs": [
        {
          "indexed": true,
          "internalType": "address",
          "name": "from",
          "type": "address"
        },
        {
          "indexed": true,
          "internalType": "address",
          "name": "to",
          "type": "address"
        },
        {
          "indexed": false,
          "internalType": "uint256",
          "name": "value",
          "type": "uint256"
        }
      ],
      "name": "Transfer",
      "type": "event"
    },
    {
      "inputs": [
        {
          "internalType": "address",
          "name": "owner",
          "type": "address"
        },
        {
          "internalType": "address",
          "name": "spender",
          "type": "address"
        }
      ],
      "name": "allowance",
      "outputs": [
        {
          "internalType": "uint256",
          "name": "",
          "type": "uint256"
        }
      ],
      "stateMutability": "view",
      "type": "function"
    },
    {
      "inputs": [
        {
          "internalType": "address",
          "name": "spender",
          "type": "address"
        },
        {
          "internalType": "uint256",
          "name": "value",
          "type": "uint256"
        }
      ],
      "name": "approve",
      "outputs": [
        {
          "internalType": "bool",
          "name": "",
          "type": "bool"
        }
      ],
      "stateMutability": "nonpayable",
      "type": "function"
    },
    {
      "inputs": [
        {
          "internalType": "address",
          "name": "account",
          "type": "address"
        }
      ],
      "name": "balanceOf",
      "outputs": [
        {
          "internalType": "uint256",
          "name": "",
          "type": "uint256"
        }
      ],
      "stateMutability": "view",
      "type": "function"
    },
    {
      "inputs": [
        {
          "internalType": "address",
          "name": "account",
          "type": "address"
        },
        {
          "internalType": "uint256",
          "name": "amount",
          "type": "uint256"
        }
      ],
      "name": "burn",
      "outputs": [],
      "stateMutability": "nonpayable",
      "type": "function"
    },
    {
      "inputs": [],
      "name": "decimals",
      "outputs": [
        {
          "internalType": "uint8",
          "name": "",
          "type": "uint8"
        }
      ],
      "stateMutability": "view",
      "type": "function"
    },
    {
      "inputs": [
        {
          "internalType": "address",
          "name": "account",
          "type": "address"
        },
        {
          "internalType": "uint256",
          "name": "amount",
          "type": "uint256"
        }
      ],
      "name": "mint",
      "outputs": [],
      "stateMutability": "nonpayable",
      "type": "function"
    },
    {
      "inputs": [],
      "name": "name",
      "outputs": [
        {
          "internalType": "string",
          "name": "",
          "type": "string"
        }
      ],
      "stateMutability": "view",
      "type": "function"
    },
    {
      "inputs": [],
      "name": "originatingChain",
      "outputs": [
        {
          "internalType": "uint256",
          "name": "",
          "type": "uint256"
        }
      ],
      "stateMutability": "view",
      "type": "function"
    },
    {
      "inputs": [],
      "name": "originatingName",
      "outputs": [
        {
          "internalType": "string",
          "name": "",
          "type": "string"
        }
      ],
      "stateMutability": "view",
      "type": "function"
    },
    {
      "inputs": [],
      "name": "originatingSymbol",
      "outputs": [
        {
          "internalType": "string",
          "name": "",
          "type": "string"
        }
      ],
      "stateMutability": "view",
      "type": "function"
    },
    {
      "inputs": [],
      "name": "originatingToken",
      "outputs": [
        {
          "internalType": "address",
          "name": "",
          "type": "address"
        }
      ],
      "stateMutability": "view",
      "type": "function"
    },
    {
      "inputs": [],
      "name": "owner",
      "outputs": [
        {
          "internalType": "address",
          "name": "",
          "type": "address"
        }
      ],
      "stateMutability": "view",
      "type": "function"
    },
    {
      "inputs": [],
      "name": "symbol",
      "outputs": [
        {
          "internalType": "string",
          "name": "",
          "type": "string"
        }
      ],
      "stateMutability": "view",
      "type": "function"
    },
    {
      "inputs": [],
      "name": "totalSupply",
      "outputs": [
        {
          "internalType": "uint256",
          "name": "",
          "type": "uint256"
        }
      ],
      "stateMutability": "view",
      "type": "function"
    },
    {
      "inputs": [
        {
          "internalType": "address",
          "name": "to",
          "type": "address"
        },
        {
          "internalType": "uint256",
          "name": "value",
          "type": "uint256"
        }
      ],
      "name": "transfer",
      "outputs": [
        {
          "internalType": "bool",
          "name": "",
          "type": "bool"
        }
      ],
      "stateMutability": "nonpayable",
      "type": "function"
    },
    {
      "inputs": [
        {
          "internalType": "address",
          "name": "from",
          "type": "address"
        },
        {
          "internalType": "address",
          "name": "to",
          "type": "address"
        },
        {
          "internalType": "uint256",
          "name": "value",
          "type": "uint256"
        }
      ],
      "name": "transferFrom",
      "outputs": [
        {
          "internalType": "bool",
          "name": "",
          "type": "bool"
        }
      ],
      "stateMutability": "nonpayable",
      "type": "function"
    }
  ],
  "bytecode": "0x608060405234801561001057600080fd5b50604051610da9380380610da983398101604081905261002f91610169565b8484600361003d838261029f565b50600461004a828261029f565b50506008805460ff861660ff1990911617905550600580546001600160a01b0384166001600160a01b031991821617909155600782905560068054909116331790556009610098868261029f565b50600a6100a5858261029f565b50505050505061035d565b634e487b7160e01b600052604160045260246000fd5b600082601f8301126100d757600080fd5b81516001600160401b038111156100f0576100f06100b0565b604051601f8201601f19908116603f011681016001600160401b038111828210171561011e5761011e6100b0565b60405281815283820160200185101561013657600080fd5b60005b8281101561015557602081860181015183830182015201610139565b506000918101602001919091529392505050565b600080600080600060a0868803121561018157600080fd5b85516001600160401b0381111561019757600080fd5b6101a3888289016100c6565b602088015190965090506001600160401b038111156101c157600080fd5b6101cd888289016100c6565b945050604086015160ff811681146101e457600080fd5b60608701519093506001600160a01b038116811461020157600080fd5b60809690960151949793965091949392915050565b600181811c9082168061022a57607f821691505b60208210810361024a57634e487b7160e01b600052602260045260246000fd5b50919050565b601f82111561029a57806000526020600020601f840160051c810160208510156102775750805b601f840160051c820191505b818110156102975760008155600101610283565b50505b505050565b81516001600160401b038111156102b8576102b86100b0565b6102cc816102c68454610216565b84610250565b6020601f82116001811461030057600083156102e85750848201515b600019600385901b1c1916600184901b178455610297565b600084815260208120601f198516915b828110156103305787850151825560209485019460019092019101610310565b508482101561034e5786840151600019600387901b60f8161c191681555b50505050600190811b01905550565b610a3d8061036c6000396000f3fe608060405234801561001057600080fd5b50600436106101005760003560e01c8063709347841161009757806395d89b411161006657806395d89b41146102155780639dc29fac1461021d578063a9059cbb14610230578063dd62ed3e1461024357600080fd5b806370934784146101a657806370a08231146101ae578063860d4288146101d75780638da5cb5b1461020257600080fd5b80632c4701d4116100d35780632c4701d41461016b578063313ce5671461017457806340c10f19146101895780635428c4511461019e57600080fd5b806306fdde0314610105578063095ea7b31461012357806318160ddd1461014657806323b872dd14610158575b600080fd5b61010d61027c565b60405161011a91906107a8565b60405180910390f35b610136610131366004610812565b6102a4565b604051901515815260200161011a565b6002545b60405190815260200161011a565b61013661016636600461083c565b6102be565b61014a60075481565b60085460405160ff909116815260200161011a565b61019c610197366004610812565b6102e2565b005b61010d61033e565b61010d6103cc565b61014a6101bc366004610879565b6001600160a01b031660009081526020819052604090205490565b6005546101ea906001600160a01b031681565b6040516001600160a01b03909116815260200161011a565b6006546101ea906001600160a01b031681565b61010d6103d9565b61019c61022b366004610812565b6103ed565b61013661023e366004610812565b610440565b61014a61025136600461089b565b6001600160a01b03918216600090815260016020908152604080832093909416825291909152205490565b6060600960405160200161029091906109a4565b604051602081830303815290604052905090565b6000336102b281858561044e565b60019150505b92915050565b6000336102cc858285610460565b6102d78585856104de565b506001949350505050565b6006546001600160a01b031633146103305760405162461bcd60e51b815260206004820152600c60248201526b3737ba1030b71037bbb732b960a11b60448201526064015b60405180910390fd5b61033a828261053d565b5050565b6009805461034b906108ce565b80601f0160208091040260200160405190810160405280929190818152602001828054610377906108ce565b80156103c45780601f10610399576101008083540402835291602001916103c4565b820191906000526020600020905b8154815290600101906020018083116103a757829003601f168201915b505050505081565b600a805461034b906108ce565b6060600a60405160200161029091906109c8565b6006546001600160a01b031633146104365760405162461bcd60e51b815260206004820152600c60248201526b3737ba1030b71037bbb732b960a11b6044820152606401610327565b61033a8282610573565b6000336102b28185856104de565b61045b83838360016105a9565b505050565b6001600160a01b0383811660009081526001602090815260408083209386168352929052205460001981146104d857818110156104c957604051637dc7a0d960e11b81526001600160a01b03841660048201526024810182905260448101839052606401610327565b6104d8848484840360006105a9565b50505050565b6001600160a01b03831661050857604051634b637e8f60e11b815260006004820152602401610327565b6001600160a01b0382166105325760405163ec442f0560e01b815260006004820152602401610327565b61045b83838361067e565b6001600160a01b0382166105675760405163ec442f0560e01b815260006004820152602401610327565b61033a6000838361067e565b6001600160a01b03821661059d57604051634b637e8f60e11b815260006004820152602401610327565b61033a8260008361067e565b6001600160a01b0384166105d35760405163e602df0560e01b815260006004820152602401610327565b6001600160a01b0383166105fd57604051634a1406b160e11b815260006004820152602401610327565b6001600160a01b03808516600090815260016020908152604080832093871683529290522082905580156104d857826001600160a01b0316846001600160a01b03167f8c5be1e5ebec7d5bd14f71427d1e84f3dd0314c0f7b2291e5b200ac8c7c3b9258460405161067091815260200190565b60405180910390a350505050565b6001600160a01b0383166106a957806002600082825461069e91906109e6565b9091555061071b9050565b6001600160a01b038316600090815260208190526040902054818110156106fc5760405163391434e360e21b81526001600160a01b03851660048201526024810182905260448101839052606401610327565b6001600160a01b03841660009081526020819052604090209082900390555b6001600160a01b03821661073757600280548290039055610756565b6001600160a01b03821660009081526020819052604090208054820190555b816001600160a01b0316836001600160a01b03167fddf252ad1be2c89b69c2b068fc378daa952ba7f163c4a11628f55a4df523b3ef8360405161079b91815260200190565b60405180910390a3505050565b602081526000825180602084015260005b818110156107d657602081860181015160408684010152016107b9565b506000604082850101526040601f19601f83011684010191505092915050565b80356001600160a01b038116811461080d57600080fd5b919050565b6000806040838503121561082557600080fd5b61082e836107f6565b946020939093013593505050565b60008060006060848603121561085157600080fd5b61085a846107f6565b9250610868602085016107f6565b929592945050506040919091013590565b60006020828403121561088b57600080fd5b610894826107f6565b9392505050565b600080604083850312156108ae57600080fd5b6108b7836107f6565b91506108c5602084016107f6565b90509250929050565b600181811c908216806108e257607f821691505b60208210810361090257634e487b7160e01b600052602260045260246000fd5b50919050565b8054600090600181811c9082168061092157607f821691505b60208210810361094157634e487b7160e01b600052602260045260246000fd5b808015610955576001811461096a5761099a565b60ff198416875282151583028701945061099a565b60008681526020902060005b8481101561099257815489820152600190910190602001610976565b505082870194505b5050505092915050565b60006109b08284610908565b672fa922a0a1aa27a960c11b81526008019392505050565b60006109d48284610908565b612fa960f11b81526002019392505050565b808201808211156102b857634e487b7160e01b600052601160045260246000fdfea26469706673582212206e712d2ed9ee8ad18f694f5d2c94d906fc30708d955ee53636d44c3ceff3c91c64736f6c634300081a0033",
  "linkReferences": {},
  "deployedLinkReferences": {}
}