{
  "_format": "hh-sol-artifact-1",
  "contractName": "ERC20Token",
  "sourceName": "contracts/tokens/ERC20Token.sol",
  "abi": [
    {
      "inputs": [
        {
          "internalType": "string",
          "name": "name_",
          "type": "string"
        },
        {
          "internalType": "string",
          "name": "symbol_",
          "type": "string"
        },
        {
          "internalType": "uint8",
          "name": "decimals_",
          "type": "uint8"
        },
        {
          "internalType": "address",
          "name": "originatingToken_",
          "type": "address"
        },
        {
          "internalType": "uint256",
          "name": "originatingChain_",
          "type": "uint256"
        }
      ],
      "stateMutability": "nonpayable",
      "type": "constructor"
    },
    {
      "inputs": [
        {
          "internalType": "address",
          "name": "spender",
          "type": "address"
        },
        {
          "internalType": "uint256",
          "name": "allowance",
          "type": "uint256"
        },
        {
          "internalType": "uint256",
          "name": "needed",
          "type": "uint256"
        }
      ],
      "name": "ERC20InsufficientAllowance",
      "type": "error"
    },
    {
      "inputs": [
        {
          "internalType": "address",
          "name": "sender",
          "type": "address"
        },
        {
          "internalType": "uint256",
          "name": "balance",
          "type": "uint256"
        },
        {
          "internalType": "uint256",
          "name": "needed",
          "type": "uint256"
        }
      ],
      "name": "ERC20InsufficientBalance",
      "type": "error"
    },
    {
      "inputs": [
        {
          "internalType": "address",
          "name": "approver",
          "type": "address"
        }
      ],
      "name": "ERC20InvalidApprover",
      "type": "error"
    },
    {
      "inputs": [
        {
          "internalType": "address",
          "name": "receiver",
          "type": "address"
        }
      ],
      "name": "ERC20InvalidReceiver",
      "type": "error"
    },
    {
      "inputs": [
        {
          "internalType": "address",
          "name": "sender",
          "type": "address"
        }
      ],
      "name": "ERC20InvalidSender",
      "type": "error"
    },
    {
      "inputs": [
        {
          "internalType": "address",
          "name": "spender",
          "type": "address"
        }
      ],
      "name": "ERC20InvalidSpender",
      "type": "error"
    },
    {
      "anonymous": false,
      "inputs": [
        {
          "indexed": true,
          "internalType": "address",
          "name": "owner",
          "type": "address"
        },
        {
          "indexed": true,
          "internalType": "address",
          "name": "spender",
          "type": "address"
        },
        {
          "indexed": false,
          "internalType": "uint256",
          "name": "value",
          "type": "uint256"
        }
      ],
      "name": "Approval",
      "type": "event"
    },
    {
      "anonymous": false,
      "inputs": [
        {
          "indexed": true,
          "internalType": "address",
          "name": "from",
          "type": "address"
        },
        {
          "indexed": true,
          "internalType": "address",
          "name": "to",
          "type": "address"
        },
        {
          "indexed": false,
          "internalType": "uint256",
          "name": "value",
          "type": "uint256"
        }
      ],
      "name": "Transfer",
      "type": "event"
    },
    {
      "inputs": [
        {
          "internalType": "address",
          "name": "owner",
          "type": "address"
        },
        {
          "internalType": "address",
          "name": "spender",
          "type": "address"
        }
      ],
      "name": "allowance",
      "outputs": [
        {
          "internalType": "uint256",
          "name": "",
          "type": "uint256"
        }
      ],
      "stateMutability": "view",
      "type": "function"
    },
    {
      "inputs": [
        {
          "internalType": "address",
          "name": "spender",
          "type": "address"
        },
        {
          "internalType": "uint256",
          "name": "value",
          "type": "uint256"
        }
      ],
      "name": "approve",
      "outputs": [
        {
          "internalType": "bool",
          "name": "",
          "type": "bool"
        }
      ],
      "stateMutability": "nonpayable",
      "type": "function"
    },
    {
      "inputs": [
        {
          "internalType": "address",
          "name": "account",
          "type": "address"
        }
      ],
      "name": "balanceOf",
      "outputs": [
        {
          "internalType": "uint256",
          "name": "",
          "type": "uint256"
        }
      ],
      "stateMutability": "view",
      "type": "function"
    },
    {
      "inputs": [
        {
          "internalType": "address",
          "name": "account",
          "type": "address"
        },
        {
          "internalType": "uint256",
          "name": "amount",
          "type": "uint256"
        }
      ],
      "name": "burn",
      "outputs": [],
      "stateMutability": "nonpayable",
      "type": "function"
    },
    {
      "inputs": [],
      "name": "decimals",
      "outputs": [
        {
          "internalType": "uint8",
          "name": "",
          "type": "uint8"
        }
      ],
      "stateMutability": "view",
      "type": "function"
    },
    {
      "inputs": [
        {
          "internalType": "address",
          "name": "account",
          "type": "address"
        },
        {
          "internalType": "uint256",
          "name": "amount",
          "type": "uint256"
        }
      ],
      "name": "mint",
      "outputs": [],
      "stateMutability": "nonpayable",
      "type": "function"
    },
    {
      "inputs": [],
      "name": "name",
      "outputs": [
        {
          "internalType": "string",
          "name": "",
          "type": "string"
        }
      ],
      "stateMutability": "view",
      "type": "function"
    },
    {
      "inputs": [],
      "name": "originatingChain",
      "outputs": [
        {
          "internalType": "uint256",
          "name": "",
          "type": "uint256"
        }
      ],
      "stateMutability": "view",
      "type": "function"
    },
    {
      "inputs": [],
      "name": "originatingName",
      "outputs": [
        {
          "internalType": "string",
          "name": "",
          "type": "string"
        }
      ],
      "stateMutability": "view",
      "type": "function"
    },
    {
      "inputs": [],
      "name": "originatingSymbol",
      "outputs": [
        {
          "internalType": "string",
          "name": "",
          "type": "string"
        }
      ],
      "stateMutability": "view",
      "type": "function"
    },
    {
      "inputs": [],
      "name": "originatingToken",
      "outputs": [
        {
          "internalType": "address",
          "name": "",
          "type": "address"
        }
      ],
      "stateMutability": "view",
      "type": "function"
    },
    {
      "inputs": [],
      "name": "owner",
      "outputs": [
        {
          "internalType": "address",
          "name": "",
          "type": "address"
        }
      ],
      "stateMutability": "view",
      "type": "function"
    },
    {
      "inputs": [],
      "name": "symbol",
      "outputs": [
        {
          "internalType": "string",
          "name": "",
          "type": "string"
        }
      ],
      "stateMutability": "view",
      "type": "function"
    },
    {
      "inputs": [],
      "name": "totalSupply",
      "outputs": [
        {
          "internalType": "uint256",
          "name": "",
          "type": "uint256"
        }
      ],
      "stateMutability": "view",
      "type": "function"
    },
    {
      "inputs": [
        {
          "internalType": "address",
          "name": "to",
          "type": "address"
        },
        {
          "internalType": "uint256",
          "name": "value",
          "type": "uint256"
        }
      ],
      "name": "transfer",
      "outputs": [
        {
          "internalType": "bool",
          "name": "",
          "type": "bool"
        }
      ],
      "stateMutability": "nonpayable",
      "type": "function"
    },
    {
      "inputs": [
        {
          "internalType": "address",
          "name": "from",
          "type": "address"
        },
        {
          "internalType": "address",
          "name": "to",
          "type": "address"
        },
        {
          "internalType": "uint256",
          "name": "value",
          "type": "uint256"
        }
      ],
      "name": "transferFrom",
      "outputs": [
        {
          "internalType": "bool",
          "name": "",
          "type": "bool"
        }
      ],
      "stateMutability": "nonpayable",
      "type": "function"
    }
  ],
  "bytecode": "0x60806040523480156200001157600080fd5b5060405162000ddb38038062000ddb833981016040819052620000349162000183565b84846003620000448382620002c2565b506004620000538282620002c2565b50506008805460ff861660ff1990911617905550600580546001600160a01b0384166001600160a01b031991821617909155600782905560068054909116331790556009620000a38682620002c2565b50600a620000b28582620002c2565b5050505050506200038e565b634e487b7160e01b600052604160045260246000fd5b600082601f830112620000e657600080fd5b81516001600160401b0380821115620001035762000103620000be565b604051601f8301601f19908116603f011681019082821181831017156200012e576200012e620000be565b816040528381526020925086838588010111156200014b57600080fd5b600091505b838210156200016f578582018301518183018401529082019062000150565b600093810190920192909252949350505050565b600080600080600060a086880312156200019c57600080fd5b85516001600160401b0380821115620001b457600080fd5b620001c289838a01620000d4565b96506020880151915080821115620001d957600080fd5b50620001e888828901620000d4565b945050604086015160ff811681146200020057600080fd5b60608701519093506001600160a01b03811681146200021e57600080fd5b80925050608086015190509295509295909350565b600181811c908216806200024857607f821691505b6020821081036200026957634e487b7160e01b600052602260045260246000fd5b50919050565b601f821115620002bd57600081815260208120601f850160051c81016020861015620002985750805b601f850160051c820191505b81811015620002b957828155600101620002a4565b5050505b505050565b81516001600160401b03811115620002de57620002de620000be565b620002f681620002ef845462000233565b846200026f565b602080601f8311600181146200032e5760008415620003155750858301515b600019600386901b1c1916600185901b178555620002b9565b600085815260208120601f198616915b828110156200035f578886015182559484019460019091019084016200033e565b50858210156200037e5787850151600019600388901b60f8161c191681555b5050505050600190811b01905550565b610a3d806200039e6000396000f3fe608060405234801561001057600080fd5b50600436106101005760003560e01c8063709347841161009757806395d89b411161006657806395d89b41146102155780639dc29fac1461021d578063a9059cbb14610230578063dd62ed3e1461024357600080fd5b806370934784146101a657806370a08231146101ae578063860d4288146101d75780638da5cb5b1461020257600080fd5b80632c4701d4116100d35780632c4701d41461016b578063313ce5671461017457806340c10f19146101895780635428c4511461019e57600080fd5b806306fdde0314610105578063095ea7b31461012357806318160ddd1461014657806323b872dd14610158575b600080fd5b61010d61027c565b60405161011a91906107a8565b60405180910390f35b610136610131366004610812565b6102a4565b604051901515815260200161011a565b6002545b60405190815260200161011a565b61013661016636600461083c565b6102be565b61014a60075481565b60085460405160ff909116815260200161011a565b61019c610197366004610812565b6102e2565b005b61010d61033e565b61010d6103cc565b61014a6101bc366004610878565b6001600160a01b031660009081526020819052604090205490565b6005546101ea906001600160a01b031681565b6040516001600160a01b03909116815260200161011a565b6006546101ea906001600160a01b031681565b61010d6103d9565b61019c61022b366004610812565b6103ed565b61013661023e366004610812565b610440565b61014a61025136600461089a565b6001600160a01b03918216600090815260016020908152604080832093909416825291909152205490565b6060600960405160200161029091906109a4565b604051602081830303815290604052905090565b6000336102b281858561044e565b60019150505b92915050565b6000336102cc858285610460565b6102d78585856104de565b506001949350505050565b6006546001600160a01b031633146103305760405162461bcd60e51b815260206004820152600c60248201526b3737ba1030b71037bbb732b960a11b60448201526064015b60405180910390fd5b61033a828261053d565b5050565b6009805461034b906108cd565b80601f0160208091040260200160405190810160405280929190818152602001828054610377906108cd565b80156103c45780601f10610399576101008083540402835291602001916103c4565b820191906000526020600020905b8154815290600101906020018083116103a757829003601f168201915b505050505081565b600a805461034b906108cd565b6060600a60405160200161029091906109c8565b6006546001600160a01b031633146104365760405162461bcd60e51b815260206004820152600c60248201526b3737ba1030b71037bbb732b960a11b6044820152606401610327565b61033a8282610573565b6000336102b28185856104de565b61045b83838360016105a9565b505050565b6001600160a01b0383811660009081526001602090815260408083209386168352929052205460001981146104d857818110156104c957604051637dc7a0d960e11b81526001600160a01b03841660048201526024810182905260448101839052606401610327565b6104d8848484840360006105a9565b50505050565b6001600160a01b03831661050857604051634b637e8f60e11b815260006004820152602401610327565b6001600160a01b0382166105325760405163ec442f0560e01b815260006004820152602401610327565b61045b83838361067e565b6001600160a01b0382166105675760405163ec442f0560e01b815260006004820152602401610327565b61033a6000838361067e565b6001600160a01b03821661059d57604051634b637e8f60e11b815260006004820152602401610327565b61033a8260008361067e565b6001600160a01b0384166105d35760405163e602df0560e01b815260006004820152602401610327565b6001600160a01b0383166105fd57604051634a1406b160e11b815260006004820152602401610327565b6001600160a01b03808516600090815260016020908152604080832093871683529290522082905580156104d857826001600160a01b0316846001600160a01b03167f8c5be1e5ebec7d5bd14f71427d1e84f3dd0314c0f7b2291e5b200ac8c7c3b9258460405161067091815260200190565b60405180910390a350505050565b6001600160a01b0383166106a957806002600082825461069e91906109e6565b9091555061071b9050565b6001600160a01b038316600090815260208190526040902054818110156106fc5760405163391434e360e21b81526001600160a01b03851660048201526024810182905260448101839052606401610327565b6001600160a01b03841660009081526020819052604090209082900390555b6001600160a01b03821661073757600280548290039055610756565b6001600160a01b03821660009081526020819052604090208054820190555b816001600160a01b0316836001600160a01b03167fddf252ad1be2c89b69c2b068fc378daa952ba7f163c4a11628f55a4df523b3ef8360405161079b91815260200190565b60405180910390a3505050565b600060208083528351808285015260005b818110156107d5578581018301518582016040015282016107b9565b506000604082860101526040601f19601f8301168501019250505092915050565b80356001600160a01b038116811461080d57600080fd5b919050565b6000806040838503121561082557600080fd5b61082e836107f6565b946020939093013593505050565b60008060006060848603121561085157600080fd5b61085a846107f6565b9250610868602085016107f6565b9150604084013590509250925092565b60006020828403121561088a57600080fd5b610893826107f6565b9392505050565b600080604083850312156108ad57600080fd5b6108b6836107f6565b91506108c4602084016107f6565b90509250929050565b600181811c908216806108e157607f821691505b60208210810361090157634e487b7160e01b600052602260045260246000fd5b50919050565b8054600090600181811c908083168061092157607f831692505b6020808410820361094257634e487b7160e01b600052602260045260246000fd5b818015610956576001811461096b57610998565b60ff1986168952841515850289019650610998565b60008881526020902060005b868110156109905781548b820152908501908301610977565b505084890196505b50505050505092915050565b60006109b08284610907565b672fa922a0a1aa27a960c11b81526008019392505050565b60006109d48284610907565b612fa960f11b81526002019392505050565b808201808211156102b857634e487b7160e01b600052601160045260246000fdfea264697066735822122017e59e5fd15d23b66c54499526df59ecf344cdde2c6d1d15c81ee16467558b9f64736f6c63430008140033",
  "linkReferences": {},
  "deployedLinkReferences": {}
}