{
  "_format": "hh-sol-artifact-1",
  "contractName": "ERC20Token",
  "sourceName": "contracts/tokens/ERC20Token.sol",
  "abi": [
    {
      "inputs": [
        {
          "internalType": "string",
          "name": "name_",
          "type": "string"
        },
        {
          "internalType": "string",
          "name": "symbol_",
          "type": "string"
        },
        {
          "internalType": "uint8",
          "name": "decimals_",
          "type": "uint8"
        },
        {
          "internalType": "address",
          "name": "originatingToken_",
          "type": "address"
        },
        {
          "internalType": "uint256",
          "name": "originatingChain_",
          "type": "uint256"
        }
      ],
      "stateMutability": "nonpayable",
      "type": "constructor"
    },
    {
      "inputs": [
        {
          "internalType": "address",
          "name": "spender",
          "type": "address"
        },
        {
          "internalType": "uint256",
          "name": "allowance",
          "type": "uint256"
        },
        {
          "internalType": "uint256",
          "name": "needed",
          "type": "uint256"
        }
      ],
      "name": "ERC20InsufficientAllowance",
      "type": "error"
    },
    {
      "inputs": [
        {
          "internalType": "address",
          "name": "sender",
          "type": "address"
        },
        {
          "internalType": "uint256",
          "name": "balance",
          "type": "uint256"
        },
        {
          "internalType": "uint256",
          "name": "needed",
          "type": "uint256"
        }
      ],
      "name": "ERC20InsufficientBalance",
      "type": "error"
    },
    {
      "inputs": [
        {
          "internalType": "address",
          "name": "approver",
          "type": "address"
        }
      ],
      "name": "ERC20InvalidApprover",
      "type": "error"
    },
    {
      "inputs": [
        {
          "internalType": "address",
          "name": "receiver",
          "type": "address"
        }
      ],
      "name": "ERC20InvalidReceiver",
      "type": "error"
    },
    {
      "inputs": [
        {
          "internalType": "address",
          "name": "sender",
          "type": "address"
        }
      ],
      "name": "ERC20InvalidSender",
      "type": "error"
    },
    {
      "inputs": [
        {
          "internalType": "address",
          "name": "spender",
          "type": "address"
        }
      ],
      "name": "ERC20InvalidSpender",
      "type": "error"
    },
    {
      "anonymous": false,
      "inputs": [
        {
          "indexed": true,
          "internalType": "address",
          "name": "owner",
          "type": "address"
        },
        {
          "indexed": true,
          "internalType": "address",
          "name": "spender",
          "type": "address"
        },
        {
          "indexed": false,
          "internalType": "uint256",
          "name": "value",
          "type": "uint256"
        }
      ],
      "name": "Approval",
      "type": "event"
    },
    {
      "anonymous": false,
      "inputs": [
        {
          "indexed": true,
          "internalType": "address",
          "name": "from",
          "type": "address"
        },
        {
          "indexed": true,
          "internalType": "address",
          "name": "to",
          "type": "address"
        },
        {
          "indexed": false,
          "internalType": "uint256",
          "name": "value",
          "type": "uint256"
        }
      ],
      "name": "Transfer",
      "type": "event"
    },
    {
      "inputs": [
        {
          "internalType": "address",
          "name": "owner",
          "type": "address"
        },
        {
          "internalType": "address",
          "name": "spender",
          "type": "address"
        }
      ],
      "name": "allowance",
      "outputs": [
        {
          "internalType": "uint256",
          "name": "",
          "type": "uint256"
        }
      ],
      "stateMutability": "view",
      "type": "function"
    },
    {
      "inputs": [
        {
          "internalType": "address",
          "name": "spender",
          "type": "address"
        },
        {
          "internalType": "uint256",
          "name": "value",
          "type": "uint256"
        }
      ],
      "name": "approve",
      "outputs": [
        {
          "internalType": "bool",
          "name": "",
          "type": "bool"
        }
      ],
      "stateMutability": "nonpayable",
      "type": "function"
    },
    {
      "inputs": [
        {
          "internalType": "address",
          "name": "account",
          "type": "address"
        }
      ],
      "name": "balanceOf",
      "outputs": [
        {
          "internalType": "uint256",
          "name": "",
          "type": "uint256"
        }
      ],
      "stateMutability": "view",
      "type": "function"
    },
    {
      "inputs": [
        {
          "internalType": "address",
          "name": "account",
          "type": "address"
        },
        {
          "internalType": "uint256",
          "name": "amount",
          "type": "uint256"
        }
      ],
      "name": "burn",
      "outputs": [],
      "stateMutability": "nonpayable",
      "type": "function"
    },
    {
      "inputs": [],
      "name": "decimals",
      "outputs": [
        {
          "internalType": "uint8",
          "name": "",
          "type": "uint8"
        }
      ],
      "stateMutability": "view",
      "type": "function"
    },
    {
      "inputs": [],
      "name": "info",
      "outputs": [
        {
          "internalType": "string",
          "name": "",
          "type": "string"
        },
        {
          "internalType": "uint8",
          "name": "",
          "type": "uint8"
        },
        {
          "internalType": "address",
          "name": "",
          "type": "address"
        },
        {
          "internalType": "uint256",
          "name": "",
          "type": "uint256"
        }
      ],
      "stateMutability": "view",
      "type": "function"
    },
    {
      "inputs": [
        {
          "internalType": "address",
          "name": "account",
          "type": "address"
        },
        {
          "internalType": "uint256",
          "name": "amount",
          "type": "uint256"
        }
      ],
      "name": "mint",
      "outputs": [],
      "stateMutability": "nonpayable",
      "type": "function"
    },
    {
      "inputs": [],
      "name": "name",
      "outputs": [
        {
          "internalType": "string",
          "name": "",
          "type": "string"
        }
      ],
      "stateMutability": "view",
      "type": "function"
    },
    {
      "inputs": [],
      "name": "originatingChain",
      "outputs": [
        {
          "internalType": "uint256",
          "name": "",
          "type": "uint256"
        }
      ],
      "stateMutability": "view",
      "type": "function"
    },
    {
      "inputs": [],
      "name": "originatingToken",
      "outputs": [
        {
          "internalType": "address",
          "name": "",
          "type": "address"
        }
      ],
      "stateMutability": "view",
      "type": "function"
    },
    {
      "inputs": [],
      "name": "owner",
      "outputs": [
        {
          "internalType": "address",
          "name": "",
          "type": "address"
        }
      ],
      "stateMutability": "view",
      "type": "function"
    },
    {
      "inputs": [],
      "name": "symbol",
      "outputs": [
        {
          "internalType": "string",
          "name": "",
          "type": "string"
        }
      ],
      "stateMutability": "view",
      "type": "function"
    },
    {
      "inputs": [],
      "name": "totalSupply",
      "outputs": [
        {
          "internalType": "uint256",
          "name": "",
          "type": "uint256"
        }
      ],
      "stateMutability": "view",
      "type": "function"
    },
    {
      "inputs": [
        {
          "internalType": "address",
          "name": "recipient",
          "type": "address"
        },
        {
          "internalType": "uint256",
          "name": "amount",
          "type": "uint256"
        }
      ],
      "name": "transfer",
      "outputs": [
        {
          "internalType": "bool",
          "name": "",
          "type": "bool"
        }
      ],
      "stateMutability": "nonpayable",
      "type": "function"
    },
    {
      "inputs": [
        {
          "internalType": "address",
          "name": "sender",
          "type": "address"
        },
        {
          "internalType": "address",
          "name": "recipient",
          "type": "address"
        },
        {
          "internalType": "uint256",
          "name": "amount",
          "type": "uint256"
        }
      ],
      "name": "transferFrom",
      "outputs": [
        {
          "internalType": "bool",
          "name": "",
          "type": "bool"
        }
      ],
      "stateMutability": "nonpayable",
      "type": "function"
    }
  ],
  "bytecode": "0x60806040523480156200001157600080fd5b5060405162000dfb38038062000dfb833981016040819052620000349162000166565b84846003620000448382620002a5565b506004620000538282620002a5565b50506008805460ff90951660ff1990951694909417909355600580546001600160a01b039093166001600160a01b031993841617905560075560068054909116331790555062000371915050565b634e487b7160e01b600052604160045260246000fd5b600082601f830112620000c957600080fd5b81516001600160401b0380821115620000e657620000e6620000a1565b604051601f8301601f19908116603f01168101908282118183101715620001115762000111620000a1565b816040528381526020925086838588010111156200012e57600080fd5b600091505b8382101562000152578582018301518183018401529082019062000133565b600093810190920192909252949350505050565b600080600080600060a086880312156200017f57600080fd5b85516001600160401b03808211156200019757600080fd5b620001a589838a01620000b7565b96506020880151915080821115620001bc57600080fd5b50620001cb88828901620000b7565b945050604086015160ff81168114620001e357600080fd5b60608701519093506001600160a01b03811681146200020157600080fd5b80925050608086015190509295509295909350565b600181811c908216806200022b57607f821691505b6020821081036200024c57634e487b7160e01b600052602260045260246000fd5b50919050565b601f821115620002a057600081815260208120601f850160051c810160208610156200027b5750805b601f850160051c820191505b818110156200029c5782815560010162000287565b5050505b505050565b81516001600160401b03811115620002c157620002c1620000a1565b620002d981620002d2845462000216565b8462000252565b602080601f831160018114620003115760008415620002f85750858301515b600019600386901b1c1916600185901b1785556200029c565b600085815260208120601f198616915b82811015620003425788860151825594840194600190910190840162000321565b5085821015620003615787850151600019600388901b60f8161c191681555b5050505050600190811b01905550565b610a7a80620003816000396000f3fe608060405234801561001057600080fd5b50600436106100f55760003560e01c806340c10f191161009757806395d89b411161006657806395d89b41146102125780639dc29fac1461021a578063a9059cbb1461022d578063dd62ed3e1461024057600080fd5b806340c10f191461019657806370a08231146101ab578063860d4288146101d45780638da5cb5b146101ff57600080fd5b806323b872dd116100d357806323b872dd1461014d5780632c4701d414610160578063313ce56714610169578063370158ea1461017e57600080fd5b806306fdde03146100fa578063095ea7b31461011857806318160ddd1461013b575b600080fd5b610102610279565b60405161010f91906108b0565b60405180910390f35b61012b6101263660046108df565b61030b565b604051901515815260200161010f565b6002545b60405190815260200161010f565b61012b61015b366004610909565b610325565b61013f60075481565b60085460405160ff909116815260200161010f565b6101866103e5565b60405161010f9493929190610945565b6101a96101a43660046108df565b610417565b005b61013f6101b9366004610980565b6001600160a01b031660009081526020819052604090205490565b6005546101e7906001600160a01b031681565b6040516001600160a01b03909116815260200161010f565b6006546101e7906001600160a01b031681565b61010261046e565b6101a96102283660046108df565b61047d565b61012b61023b3660046108df565b6104d0565b61013f61024e36600461099b565b6001600160a01b03918216600090815260016020908152604080832093909416825291909152205490565b606060038054610288906109ce565b80601f01602080910402602001604051908101604052809291908181526020018280546102b4906109ce565b80156103015780601f106102d657610100808354040283529160200191610301565b820191906000526020600020905b8154815290600101906020018083116102e457829003601f168201915b5050505050905090565b6000336103198185856104ff565b60019150505b92915050565b600061ffff836001600160a01b0316111561034c57610345848484610511565b90506103de565b81610357853361024e565b10156103bb5760405162461bcd60e51b815260206004820152602860248201527f45524332303a207472616e7366657220616d6f756e74206578636565647320616044820152676c6c6f77616e636560c01b60648201526084015b60405180910390fd5b6103da8433846103cb883361024e565b6103d59190610a1e565b6104ff565b5060015b9392505050565b606060008060006103f461046e565b60085460ff1660055460075492979196506001600160a01b031694509092509050565b6006546001600160a01b031633146104605760405162461bcd60e51b815260206004820152600c60248201526b3737ba1030b71037bbb732b960a11b60448201526064016103b2565b61046a8282610535565b5050565b606060048054610288906109ce565b6006546001600160a01b031633146104c65760405162461bcd60e51b815260206004820152600c60248201526b3737ba1030b71037bbb732b960a11b60448201526064016103b2565b61046a828261056b565b600061ffff836001600160a01b031611156104f6576104ef83836105a1565b905061031f565b50600192915050565b61050c83838360016105af565b505050565b60003361051f858285610685565b61052a8585856106e5565b506001949350505050565b6001600160a01b03821661055f5760405163ec442f0560e01b8152600060048201526024016103b2565b61046a60008383610740565b6001600160a01b03821661059557604051634b637e8f60e11b8152600060048201526024016103b2565b61046a82600083610740565b6000336103198185856106e5565b6001600160a01b0384166105d95760405163e602df0560e01b8152600060048201526024016103b2565b6001600160a01b03831661060357604051634a1406b160e11b8152600060048201526024016103b2565b6001600160a01b038085166000908152600160209081526040808320938716835292905220829055801561067f57826001600160a01b0316846001600160a01b03167f8c5be1e5ebec7d5bd14f71427d1e84f3dd0314c0f7b2291e5b200ac8c7c3b9258460405161067691815260200190565b60405180910390a35b50505050565b6000610691848461024e565b9050600019811461067f57818110156106d657604051637dc7a0d960e11b81526001600160a01b038416600482015260248101829052604481018390526064016103b2565b61067f848484840360006105af565b6001600160a01b03831661070f57604051634b637e8f60e11b8152600060048201526024016103b2565b6001600160a01b0382166107395760405163ec442f0560e01b8152600060048201526024016103b2565b61050c8383835b6001600160a01b03831661076b5780600260008282546107609190610a31565b909155506107dd9050565b6001600160a01b038316600090815260208190526040902054818110156107be5760405163391434e360e21b81526001600160a01b038516600482015260248101829052604481018390526064016103b2565b6001600160a01b03841660009081526020819052604090209082900390555b6001600160a01b0382166107f957600280548290039055610818565b6001600160a01b03821660009081526020819052604090208054820190555b816001600160a01b0316836001600160a01b03167fddf252ad1be2c89b69c2b068fc378daa952ba7f163c4a11628f55a4df523b3ef8360405161085d91815260200190565b60405180910390a3505050565b6000815180845260005b8181101561089057602081850181015186830182015201610874565b506000602082860101526020601f19601f83011685010191505092915050565b6020815260006103de602083018461086a565b80356001600160a01b03811681146108da57600080fd5b919050565b600080604083850312156108f257600080fd5b6108fb836108c3565b946020939093013593505050565b60008060006060848603121561091e57600080fd5b610927846108c3565b9250610935602085016108c3565b9150604084013590509250925092565b608081526000610958608083018761086a565b60ff959095166020830152506001600160a01b03929092166040830152606090910152919050565b60006020828403121561099257600080fd5b6103de826108c3565b600080604083850312156109ae57600080fd5b6109b7836108c3565b91506109c5602084016108c3565b90509250929050565b600181811c908216806109e257607f821691505b602082108103610a0257634e487b7160e01b600052602260045260246000fd5b50919050565b634e487b7160e01b600052601160045260246000fd5b8181038181111561031f5761031f610a08565b8082018082111561031f5761031f610a0856fea26469706673582212204129bcd22afa903b6b5974c7a65f406496f783fcbb31a6de0b78b540870c435664736f6c63430008140033",
  "linkReferences": {},
  "deployedLinkReferences": {}
}