{
  "_format": "hh-sol-artifact-1",
  "contractName": "L1Vault",
  "sourceName": "contracts/L1Vault.sol",
  "abi": [
    {
      "inputs": [],
      "stateMutability": "nonpayable",
      "type": "constructor"
    },
    {
      "anonymous": false,
      "inputs": [
        {
          "indexed": false,
          "internalType": "address",
          "name": "depositor",
          "type": "address"
        },
        {
          "indexed": false,
          "internalType": "uint256",
          "name": "amount",
          "type": "uint256"
        }
      ],
      "name": "L1DepositByUser",
      "type": "event"
    },
    {
      "anonymous": false,
      "inputs": [
        {
          "indexed": false,
          "internalType": "address",
          "name": "depositor",
          "type": "address"
        },
        {
          "indexed": false,
          "internalType": "uint256",
          "name": "amount",
          "type": "uint256"
        }
      ],
      "name": "L1WithdrawnToUser",
      "type": "event"
    },
    {
      "inputs": [
        {
          "internalType": "uint256",
          "name": "amount",
          "type": "uint256"
        }
      ],
      "name": "deposit",
      "outputs": [],
      "stateMutability": "nonpayable",
      "type": "function"
    },
    {
      "inputs": [
        {
          "internalType": "uint256",
          "name": "a",
          "type": "uint256"
        },
        {
          "internalType": "uint256",
          "name": "b",
          "type": "uint256"
        }
      ],
      "name": "test",
      "outputs": [
        {
          "internalType": "uint256",
          "name": "",
          "type": "uint256"
        }
      ],
      "stateMutability": "pure",
      "type": "function"
    }
  ],
  "bytecode": "0x608060405234801561001057600080fd5b50610158806100206000396000f3fe608060405234801561001057600080fd5b50600436106100365760003560e01c8063b6b55f251461003b578063eb8ac92114610050575b600080fd5b61004e6100493660046100c6565b610075565b005b61006361005e3660046100df565b6100b1565b60405190815260200160405180910390f35b60408051338152602081018390527fc6d85822d86b60b41984292074ead1b48e583535e9e12c2098fe3f6b04a56444910160405180910390a150565b60006100bd8284610101565b90505b92915050565b6000602082840312156100d857600080fd5b5035919050565b600080604083850312156100f257600080fd5b50508035926020909101359150565b808201808211156100c057634e487b7160e01b600052601160045260246000fdfea2646970667358221220c5d53fe0583c8b6869b2f891d5d233d1f8b17699b64758ab06790e66fde543e564736f6c63430008140033",
  "linkReferences": {},
  "deployedLinkReferences": {}
}