{
  "_format": "hh-sol-artifact-1",
  "contractName": "L2Vault",
  "sourceName": "contracts/L2Vault.sol",
  "abi": [
    {
      "inputs": [],
      "stateMutability": "nonpayable",
      "type": "constructor"
    },
    {
      "anonymous": false,
      "inputs": [
        {
          "indexed": false,
          "internalType": "address",
          "name": "depositor",
          "type": "address"
        },
        {
          "indexed": false,
          "internalType": "uint256",
          "name": "amount",
          "type": "uint256"
        }
      ],
      "name": "L2DepositedToUser",
      "type": "event"
    },
    {
      "anonymous": false,
      "inputs": [
        {
          "indexed": false,
          "internalType": "address",
          "name": "user",
          "type": "address"
        },
        {
          "indexed": false,
          "internalType": "uint256",
          "name": "amount",
          "type": "uint256"
        }
      ],
      "name": "L2WithdrawByUser",
      "type": "event"
    },
    {
      "inputs": [],
      "name": "verifyAggregateSignatureAndTransact",
      "outputs": [],
      "stateMutability": "nonpayable",
      "type": "function"
    },
    {
      "inputs": [
        {
          "internalType": "uint256",
          "name": "amount",
          "type": "uint256"
        }
      ],
      "name": "withdrawByUser",
      "outputs": [],
      "stateMutability": "nonpayable",
      "type": "function"
    }
  ],
  "bytecode": "0x608060405234801561001057600080fd5b5060ce8061001f6000396000f3fe6080604052348015600f57600080fd5b506004361060325760003560e01c8063d9a676ef146037578063fca8e429146039575b600080fd5b005b603760443660046080565b60408051338152602081018390527f98ce95ecff262df89306ce6e0d725e67fc0a9a4f0e4f217fe22441cff8eaf959910160405180910390a150565b600060208284031215609157600080fd5b503591905056fea2646970667358221220362a9ea41227081c0fefa4b5f72059ecd16fcc0a1bb8a53a6b7e8867de8485d664736f6c63430008140033",
  "linkReferences": {},
  "deployedLinkReferences": {}
}