{
  "_format": "hh-sol-artifact-1",
  "contractName": "Vault",
  "sourceName": "contracts/Vault.sol",
  "abi": [
    {
      "inputs": [
        {
          "internalType": "uint256",
          "name": "chainId_",
          "type": "uint256"
        },
        {
          "internalType": "uint256[4]",
          "name": "publicKey_",
          "type": "uint256[4]"
        }
      ],
      "stateMutability": "nonpayable",
      "type": "constructor"
    },
    {
      "anonymous": false,
      "inputs": [
        {
          "indexed": true,
          "internalType": "uint256",
          "name": "originatingChain",
          "type": "uint256"
        },
        {
          "indexed": true,
          "internalType": "address",
          "name": "originatingToken",
          "type": "address"
        },
        {
          "indexed": false,
          "internalType": "string",
          "name": "originatingName",
          "type": "string"
        },
        {
          "indexed": false,
          "internalType": "string",
          "name": "originatingSymbol",
          "type": "string"
        },
        {
          "indexed": false,
          "internalType": "uint256",
          "name": "decimals",
          "type": "uint256"
        },
        {
          "indexed": false,
          "internalType": "uint256",
          "name": "amount",
          "type": "uint256"
        },
        {
          "indexed": true,
          "internalType": "address",
          "name": "vaultUser",
          "type": "address"
        },
        {
          "indexed": false,
          "internalType": "uint256",
          "name": "fromChain",
          "type": "uint256"
        },
        {
          "indexed": false,
          "internalType": "uint256",
          "name": "toChain",
          "type": "uint256"
        },
        {
          "indexed": false,
          "internalType": "uint256",
          "name": "sendCounter",
          "type": "uint256"
        }
      ],
      "name": "TokenSent",
      "type": "event"
    },
    {
      "inputs": [],
      "name": "NATIVE",
      "outputs": [
        {
          "internalType": "address",
          "name": "",
          "type": "address"
        }
      ],
      "stateMutability": "view",
      "type": "function"
    },
    {
      "inputs": [],
      "name": "chainId",
      "outputs": [
        {
          "internalType": "uint256",
          "name": "",
          "type": "uint256"
        }
      ],
      "stateMutability": "view",
      "type": "function"
    },
    {
      "inputs": [
        {
          "internalType": "address",
          "name": "",
          "type": "address"
        }
      ],
      "name": "isProxyToken",
      "outputs": [
        {
          "internalType": "bool",
          "name": "",
          "type": "bool"
        }
      ],
      "stateMutability": "view",
      "type": "function"
    },
    {
      "inputs": [
        {
          "internalType": "uint256",
          "name": "originatingChain",
          "type": "uint256"
        },
        {
          "internalType": "address",
          "name": "originatingToken",
          "type": "address"
        },
        {
          "internalType": "uint256",
          "name": "decimals",
          "type": "uint256"
        },
        {
          "internalType": "uint256",
          "name": "amount",
          "type": "uint256"
        },
        {
          "internalType": "address",
          "name": "vaultUser",
          "type": "address"
        },
        {
          "internalType": "uint256",
          "name": "fromChain",
          "type": "uint256"
        },
        {
          "internalType": "uint256",
          "name": "toChain",
          "type": "uint256"
        },
        {
          "internalType": "uint256",
          "name": "counter",
          "type": "uint256"
        }
      ],
      "name": "payloadHash",
      "outputs": [
        {
          "internalType": "bytes32",
          "name": "",
          "type": "bytes32"
        }
      ],
      "stateMutability": "pure",
      "type": "function"
    },
    {
      "inputs": [
        {
          "internalType": "address",
          "name": "",
          "type": "address"
        }
      ],
      "name": "pool",
      "outputs": [
        {
          "internalType": "uint256",
          "name": "",
          "type": "uint256"
        }
      ],
      "stateMutability": "view",
      "type": "function"
    },
    {
      "inputs": [
        {
          "internalType": "uint256",
          "name": "",
          "type": "uint256"
        },
        {
          "internalType": "address",
          "name": "",
          "type": "address"
        }
      ],
      "name": "proxyTokenMap",
      "outputs": [
        {
          "internalType": "address",
          "name": "",
          "type": "address"
        }
      ],
      "stateMutability": "view",
      "type": "function"
    },
    {
      "inputs": [
        {
          "internalType": "uint256",
          "name": "",
          "type": "uint256"
        }
      ],
      "name": "publicKey",
      "outputs": [
        {
          "internalType": "uint256",
          "name": "",
          "type": "uint256"
        }
      ],
      "stateMutability": "view",
      "type": "function"
    },
    {
      "inputs": [],
      "name": "sendCounter",
      "outputs": [
        {
          "internalType": "uint256",
          "name": "",
          "type": "uint256"
        }
      ],
      "stateMutability": "view",
      "type": "function"
    },
    {
      "inputs": [
        {
          "internalType": "uint256",
          "name": "toChainId",
          "type": "uint256"
        }
      ],
      "name": "sendNative",
      "outputs": [],
      "stateMutability": "payable",
      "type": "function"
    },
    {
      "inputs": [
        {
          "internalType": "uint256",
          "name": "toChainId",
          "type": "uint256"
        },
        {
          "internalType": "address",
          "name": "tokenAddress",
          "type": "address"
        },
        {
          "internalType": "uint256",
          "name": "tokenAmount",
          "type": "uint256"
        }
      ],
      "name": "sendToken",
      "outputs": [],
      "stateMutability": "nonpayable",
      "type": "function"
    },
    {
      "inputs": [
        {
          "internalType": "uint256[2]",
          "name": "signature",
          "type": "uint256[2]"
        },
        {
          "internalType": "uint256[4]",
          "name": "signerKey",
          "type": "uint256[4]"
        },
        {
          "internalType": "bytes",
          "name": "tokenSendPayload",
          "type": "bytes"
        },
        {
          "internalType": "string",
          "name": "name",
          "type": "string"
        },
        {
          "internalType": "string",
          "name": "symbol",
          "type": "string"
        }
      ],
      "name": "tokenArrival",
      "outputs": [],
      "stateMutability": "nonpayable",
      "type": "function"
    },
    {
      "inputs": [
        {
          "internalType": "bytes32",
          "name": "",
          "type": "bytes32"
        }
      ],
      "name": "tokenArrived",
      "outputs": [
        {
          "internalType": "bool",
          "name": "",
          "type": "bool"
        }
      ],
      "stateMutability": "view",
      "type": "function"
    },
    {
      "inputs": [
        {
          "internalType": "bytes32",
          "name": "",
          "type": "bytes32"
        }
      ],
      "name": "tokenSent",
      "outputs": [
        {
          "internalType": "bool",
          "name": "",
          "type": "bool"
        }
      ],
      "stateMutability": "view",
      "type": "function"
    },
    {
      "inputs": [],
      "name": "verifier",
      "outputs": [
        {
          "internalType": "contract BlsVerify",
          "name": "",
          "type": "address"
        }
      ],
      "stateMutability": "view",
      "type": "function"
    }
  ],
  "bytecode": "0x60806040526000600a5534801561001557600080fd5b506040516149993803806149998339810160408190526100349161010e565b60008290556100466001826004610098565b50604051610053906100d6565b604051809103906000f08015801561006f573d6000803e3d6000fd5b50600b80546001600160a01b0319166001600160a01b0392909216919091179055506101969050565b82600481019282156100c6579160200282015b828111156100c65782518255916020019190600101906100ab565b506100d29291506100e3565b5090565b6121df806127ba83390190565b5b808211156100d257600081556001016100e4565b634e487b7160e01b600052604160045260246000fd5b60008060a0838503121561012157600080fd5b82519150603f8301841361013457600080fd5b604051608081016001600160401b0381118282101715610156576101566100f8565b6040528060a085018681111561016b57600080fd5b602086015b81811015610188578051835260209283019201610170565b505050809150509250929050565b612615806101a56000396000f3fe6080604052600436106100dd5760003560e01c80639a8a05921161007f578063b8f3e1b711610059578063b8f3e1b714610260578063bca49b7d146102a1578063c7fbad43146102c1578063cc24fa1b146102e157600080fd5b80639a8a0592146102225780639e80dc1f14610238578063a0cf0aea1461024b57600080fd5b80631c642f2c116100bb5780631c642f2c146101845780632b7ac3f31461019a57806364f0b772146101d25780638940aebe1461020257600080fd5b80630195bc49146100e257806307776a4c14610127578063156522a814610149575b600080fd5b3480156100ee57600080fd5b506101126100fd366004611196565b60076020526000908152604090205460ff1681565b60405190151581526020015b60405180910390f35b34801561013357600080fd5b506101476101423660046111f8565b610311565b005b34801561015557600080fd5b506101766101643660046112e4565b60056020526000908152604090205481565b60405190815260200161011e565b34801561019057600080fd5b50610176600a5481565b3480156101a657600080fd5b50600b546101ba906001600160a01b031681565b6040516001600160a01b03909116815260200161011e565b3480156101de57600080fd5b506101126101ed3660046112e4565b60096020526000908152604090205460ff1681565b34801561020e57600080fd5b5061017661021d366004611196565b610418565b34801561022e57600080fd5b5061017660005481565b610147610246366004611196565b61042f565b34801561025757600080fd5b506101ba600081565b34801561026c57600080fd5b506101ba61027b366004611308565b60086020908152600092835260408084209091529082529020546001600160a01b031681565b3480156102ad57600080fd5b506101766102bc366004611338565b610554565b3480156102cd57600080fd5b506101476102dc3660046113a7565b6105ba565b3480156102ed57600080fd5b506101126102fc366004611196565b60066020526000908152604090205460ff1681565b600086866040516103239291906113df565b604080519182900390912060008181526007602052919091205490915060ff16156103955760405162461bcd60e51b815260206004820152601f60248201527f546f6b656e204172726976616c20616c72656164792070726f6365737365640060448201526064015b60405180910390fd5b6040805180820182526103e7918b9060029083908390808284376000920191909152505060408051608081810190925291508b9060049083908390808284376000920191909152508591506108949050565b6103f5878787878787610aab565b6000908152600760205260409020805460ff191660011790555050505050505050565b6001816004811061042857600080fd5b0154905081565b600080805260056020527f05b8ccbb9d4d8fb16ea74ce3c29a41f1b461fbdaff4714a0d9a8eb05499746bc805434929061046a908490611405565b9091555050600a8054600091826104808361141e565b919050559050600061049e6000546000601234336000548989610554565b6000818152600660209081526040808320805460ff191660011790558254815160e08082526005908201526422aa2422a960d91b6101008201526101209381018490526003938101939093526208aa8960eb1b6101408401526012918301919091523460608301526080820181905260a0820187905260c082018690529293503392907f7de319335b0d847898705ba3c425976749af5816f4679e17883c70af43b54322906101600160405180910390a4505050565b6040805160208082019a909a526001600160a01b0398891681830152606081019790975260808701959095529290951660a085015260c084015260e083019390935261010080830193909352805180830390930183526101209091019052805191012090565b6001600160a01b0382166000908152600960205260408120548190819060ff161561077c576000859050806001600160a01b0316632c4701d46040518163ffffffff1660e01b8152600401602060405180830381865afa158015610622573d6000803e3d6000fd5b505050506040513d601f19601f820116820180604052508101906106469190611437565b9350806001600160a01b031663860d42886040518163ffffffff1660e01b8152600401602060405180830381865afa158015610686573d6000803e3d6000fd5b505050506040513d601f19601f820116820180604052508101906106aa9190611450565b9250806001600160a01b031663313ce5676040518163ffffffff1660e01b8152600401602060405180830381865afa1580156106ea573d6000803e3d6000fd5b505050506040513d601f19601f8201168201806040525081019061070e919061146d565b604051632770a7eb60e21b81523360048201526024810187905260ff9190911692506001600160a01b03821690639dc29fac90604401600060405180830381600087803b15801561075e57600080fd5b505af1158015610772573d6000803e3d6000fd5b505050505061082b565b60005492508491506000859050806001600160a01b031663313ce5676040518163ffffffff1660e01b8152600401602060405180830381865afa1580156107c7573d6000803e3d6000fd5b505050506040513d601f19601f820116820180604052508101906107eb919061146d565b60ff1691506107fc86333088610b61565b6001600160a01b03861660009081526005602052604081208054879290610824908490611405565b9091555050505b600a80546000918261083c8361141e565b919050559050600061085685858589336000548e89610554565b6000818152600660205260408120805460ff191660011790555490915061088a9088908790879087908b9033908f8a610dd9565b5050505050505050565b81516001541480156108ab57506020820151600254145b80156108bc57506040820151600354145b80156108cd57506060820151600454145b61090e5760405162461bcd60e51b8152602060048201526012602482015271496e76616c6964205075626c6963204b657960701b604482015260640161038c565b600b5460405163c68b378760e01b8152600481018390526000916001600160a01b031690633033cc5190829063c68b378790602401600060405180830381865afa158015610960573d6000803e3d6000fd5b505050506040513d6000823e601f3d908101601f1916820160405261098891908101906114fb565b6040518263ffffffff1660e01b81526004016109a491906115bd565b6040805180830381865afa1580156109c0573d6000803e3d6000fd5b505050506040513d601f19601f820116820180604052508101906109e491906115d0565b600b54604051616b3760e51b81529192506000916001600160a01b0390911690620d66e090610a1b90889088908790600401611673565b602060405180830381865afa158015610a38573d6000803e3d6000fd5b505050506040513d601f19601f82011682018060405250810190610a5c91906116c1565b9050600181151514610aa45760405162461bcd60e51b8152602060048201526011602482015270496e76616c6964205369676e617475726560781b604482015260640161038c565b5050505050565b6000808080610abc898b018b611338565b5050509450945050935093508360005403610b10576001600160a01b03831660009081526005602052604081208054849290610af99084906116e3565b90915550610b0b905083308385610b61565b610b55565b610b558a8a8080601f0160208091040260200160405190810160405280939291908181526020018383808284376000920191909152508c92508b91508a905089611016565b50505050505050505050565b6001600160a01b038416610bab576040516001600160a01b0383169082156108fc029083906000818181858888f19350505050158015610ba5573d6000803e3d6000fd5b50610dd3565b6040516370a0823160e01b81526001600160a01b038381166004830152600091908616906370a0823190602401602060405180830381865afa158015610bf5573d6000803e3d6000fd5b505050506040513d601f19601f82011682018060405250810190610c199190611437565b90506001600160a01b0384163014610cab576040516323b872dd60e01b81526001600160a01b0385811660048301528481166024830152604482018490528616906323b872dd906064016020604051808303816000875af1158015610c82573d6000803e3d6000fd5b505050506040513d601f19601f82011682018060405250810190610ca691906116c1565b610d1e565b60405163a9059cbb60e01b81526001600160a01b0384811660048301526024820184905286169063a9059cbb906044016020604051808303816000875af1158015610cfa573d6000803e3d6000fd5b505050506040513d601f19601f82011682018060405250810190610d1e91906116c1565b50610d298282611405565b6040516370a0823160e01b81526001600160a01b0385811660048301528716906370a0823190602401602060405180830381865afa158015610d6f573d6000803e3d6000fd5b505050506040513d601f19601f82011682018060405250810190610d939190611437565b14610aa45760405162461bcd60e51b815260206004820152601060248201526f24b73b30b634b2103a3930b739b332b960811b604482015260640161038c565b50505050565b6001600160a01b038916600090815260096020526040902054606090819060ff1615610eda5760008b9050806001600160a01b0316635428c4516040518163ffffffff1660e01b8152600401600060405180830381865afa158015610e42573d6000803e3d6000fd5b505050506040513d6000823e601f3d908101601f19168201604052610e6a91908101906114fb565b9250806001600160a01b031663709347846040518163ffffffff1660e01b8152600401600060405180830381865afa158015610eaa573d6000803e3d6000fd5b505050506040513d6000823e601f3d908101601f19168201604052610ed291908101906114fb565b915050610fb1565b60008b9050806001600160a01b03166306fdde036040518163ffffffff1660e01b8152600401600060405180830381865afa158015610f1d573d6000803e3d6000fd5b505050506040513d6000823e601f3d908101601f19168201604052610f4591908101906114fb565b9250806001600160a01b03166395d89b416040518163ffffffff1660e01b8152600401600060405180830381865afa158015610f85573d6000803e3d6000fd5b505050506040513d6000823e601f3d908101601f19168201604052610fad91908101906114fb565b9150505b856001600160a01b0316896001600160a01b03168b7f7de319335b0d847898705ba3c425976749af5816f4679e17883c70af43b5432285858d8d8c8c8c60405161100197969594939291906116f6565b60405180910390a45050505050505050505050565b6000806000806000808a8060200190518101906110339190611746565b50505060008581526008602090815260408083206001600160a01b038089168552925290912054959a5093985091965094509250166110fb578989898986888a60405161107f90611189565b61108f97969594939291906117e3565b604051809103906000f0801580156110ab573d6000803e3d6000fd5b5060008681526008602090815260408083206001600160a01b03898116855290835281842080546001600160a01b0319169186169182179055835260099091529020805460ff1916600117905595505b60008581526008602090815260408083206001600160a01b0388811685529252918290205491516340c10f1960e01b81528382166004820152602481018590529116965086906340c10f1990604401600060405180830381600087803b15801561116457600080fd5b505af1158015611178573d6000803e3d6000fd5b505050505050505050505050505050565b610da98061183783390190565b6000602082840312156111a857600080fd5b5035919050565b60008083601f8401126111c157600080fd5b50813567ffffffffffffffff8111156111d957600080fd5b6020830191508360208285010111156111f157600080fd5b9250929050565b600080600080600080600080610120898b03121561121557600080fd5b604089018a81111561122657600080fd5b89985060c08a018b81111561123a57600080fd5b9097503567ffffffffffffffff81111561125357600080fd5b61125f8b828c016111af565b90975095505060e089013567ffffffffffffffff81111561127f57600080fd5b61128b8b828c016111af565b90955093505061010089013567ffffffffffffffff8111156112ac57600080fd5b6112b88b828c016111af565b999c989b5096995094979396929594505050565b6001600160a01b03811681146112e157600080fd5b50565b6000602082840312156112f657600080fd5b8135611301816112cc565b9392505050565b6000806040838503121561131b57600080fd5b82359150602083013561132d816112cc565b809150509250929050565b600080600080600080600080610100898b03121561135557600080fd5b883597506020890135611367816112cc565b965060408901359550606089013594506080890135611385816112cc565b979a969950949793969560a0850135955060c08501359460e001359350915050565b6000806000606084860312156113bc57600080fd5b8335925060208401356113ce816112cc565b929592945050506040919091013590565b8183823760009101908152919050565b634e487b7160e01b600052601160045260246000fd5b80820180821115611418576114186113ef565b92915050565b600060018201611430576114306113ef565b5060010190565b60006020828403121561144957600080fd5b5051919050565b60006020828403121561146257600080fd5b8151611301816112cc565b60006020828403121561147f57600080fd5b815160ff8116811461130157600080fd5b634e487b7160e01b600052604160045260246000fd5b604051601f8201601f1916810167ffffffffffffffff811182821017156114cf576114cf611490565b604052919050565b60005b838110156114f25781810151838201526020016114da565b50506000910152565b60006020828403121561150d57600080fd5b815167ffffffffffffffff81111561152457600080fd5b8201601f8101841361153557600080fd5b805167ffffffffffffffff81111561154f5761154f611490565b611562601f8201601f19166020016114a6565b81815285602083850101111561157757600080fd5b6115888260208301602086016114d7565b95945050505050565b600081518084526115a98160208601602086016114d7565b601f01601f19169290920160200192915050565b6020815260006113016020830184611591565b6000604082840312156115e257600080fd5b82601f8301126115f157600080fd5b6040805190810167ffffffffffffffff8111828210171561161457611614611490565b806040525080604084018581111561162b57600080fd5b845b8181101561164557805183526020928301920161162d565b509195945050505050565b8060005b6002811015610dd3578151845260209384019390910190600101611654565b61010081016116828286611650565b604082018460005b60048110156116a957815183526020928301929091019060010161168a565b5050506116b960c0830184611650565b949350505050565b6000602082840312156116d357600080fd5b8151801515811461130157600080fd5b81810381811115611418576114186113ef565b60e08152600061170960e083018a611591565b828103602084015261171b818a611591565b604084019890985250506060810194909452608084019290925260a083015260c09091015292915050565b600080600080600080600080610100898b03121561176357600080fd5b885160208a0151909850611776816112cc565b60408a015160608b015160808c01519299509097509550611796816112cc565b60a08a015160c08b015160e0909b0151999c989b5096999598909790945092505050565b81835281816020850137506000828201602090810191909152601f909101601f19169091010190565b60a0815260006117f760a08301898b6117ba565b828103602084015261180a81888a6117ba565b60ff96909616604084015250506001600160a01b0392909216606083015260809091015294935050505056fe608060405234801561001057600080fd5b50604051610da9380380610da983398101604081905261002f91610169565b8484600361003d838261029f565b50600461004a828261029f565b50506008805460ff861660ff1990911617905550600580546001600160a01b0384166001600160a01b031991821617909155600782905560068054909116331790556009610098868261029f565b50600a6100a5858261029f565b50505050505061035d565b634e487b7160e01b600052604160045260246000fd5b600082601f8301126100d757600080fd5b81516001600160401b038111156100f0576100f06100b0565b604051601f8201601f19908116603f011681016001600160401b038111828210171561011e5761011e6100b0565b60405281815283820160200185101561013657600080fd5b60005b8281101561015557602081860181015183830182015201610139565b506000918101602001919091529392505050565b600080600080600060a0868803121561018157600080fd5b85516001600160401b0381111561019757600080fd5b6101a3888289016100c6565b602088015190965090506001600160401b038111156101c157600080fd5b6101cd888289016100c6565b945050604086015160ff811681146101e457600080fd5b60608701519093506001600160a01b038116811461020157600080fd5b60809690960151949793965091949392915050565b600181811c9082168061022a57607f821691505b60208210810361024a57634e487b7160e01b600052602260045260246000fd5b50919050565b601f82111561029a57806000526020600020601f840160051c810160208510156102775750805b601f840160051c820191505b818110156102975760008155600101610283565b50505b505050565b81516001600160401b038111156102b8576102b86100b0565b6102cc816102c68454610216565b84610250565b6020601f82116001811461030057600083156102e85750848201515b600019600385901b1c1916600184901b178455610297565b600084815260208120601f198516915b828110156103305787850151825560209485019460019092019101610310565b508482101561034e5786840151600019600387901b60f8161c191681555b50505050600190811b01905550565b610a3d8061036c6000396000f3fe608060405234801561001057600080fd5b50600436106101005760003560e01c8063709347841161009757806395d89b411161006657806395d89b41146102155780639dc29fac1461021d578063a9059cbb14610230578063dd62ed3e1461024357600080fd5b806370934784146101a657806370a08231146101ae578063860d4288146101d75780638da5cb5b1461020257600080fd5b80632c4701d4116100d35780632c4701d41461016b578063313ce5671461017457806340c10f19146101895780635428c4511461019e57600080fd5b806306fdde0314610105578063095ea7b31461012357806318160ddd1461014657806323b872dd14610158575b600080fd5b61010d61027c565b60405161011a91906107a8565b60405180910390f35b610136610131366004610812565b6102a4565b604051901515815260200161011a565b6002545b60405190815260200161011a565b61013661016636600461083c565b6102be565b61014a60075481565b60085460405160ff909116815260200161011a565b61019c610197366004610812565b6102e2565b005b61010d61033e565b61010d6103cc565b61014a6101bc366004610879565b6001600160a01b031660009081526020819052604090205490565b6005546101ea906001600160a01b031681565b6040516001600160a01b03909116815260200161011a565b6006546101ea906001600160a01b031681565b61010d6103d9565b61019c61022b366004610812565b6103ed565b61013661023e366004610812565b610440565b61014a61025136600461089b565b6001600160a01b03918216600090815260016020908152604080832093909416825291909152205490565b6060600960405160200161029091906109a4565b604051602081830303815290604052905090565b6000336102b281858561044e565b60019150505b92915050565b6000336102cc858285610460565b6102d78585856104de565b506001949350505050565b6006546001600160a01b031633146103305760405162461bcd60e51b815260206004820152600c60248201526b3737ba1030b71037bbb732b960a11b60448201526064015b60405180910390fd5b61033a828261053d565b5050565b6009805461034b906108ce565b80601f0160208091040260200160405190810160405280929190818152602001828054610377906108ce565b80156103c45780601f10610399576101008083540402835291602001916103c4565b820191906000526020600020905b8154815290600101906020018083116103a757829003601f168201915b505050505081565b600a805461034b906108ce565b6060600a60405160200161029091906109c8565b6006546001600160a01b031633146104365760405162461bcd60e51b815260206004820152600c60248201526b3737ba1030b71037bbb732b960a11b6044820152606401610327565b61033a8282610573565b6000336102b28185856104de565b61045b83838360016105a9565b505050565b6001600160a01b0383811660009081526001602090815260408083209386168352929052205460001981146104d857818110156104c957604051637dc7a0d960e11b81526001600160a01b03841660048201526024810182905260448101839052606401610327565b6104d8848484840360006105a9565b50505050565b6001600160a01b03831661050857604051634b637e8f60e11b815260006004820152602401610327565b6001600160a01b0382166105325760405163ec442f0560e01b815260006004820152602401610327565b61045b83838361067e565b6001600160a01b0382166105675760405163ec442f0560e01b815260006004820152602401610327565b61033a6000838361067e565b6001600160a01b03821661059d57604051634b637e8f60e11b815260006004820152602401610327565b61033a8260008361067e565b6001600160a01b0384166105d35760405163e602df0560e01b815260006004820152602401610327565b6001600160a01b0383166105fd57604051634a1406b160e11b815260006004820152602401610327565b6001600160a01b03808516600090815260016020908152604080832093871683529290522082905580156104d857826001600160a01b0316846001600160a01b03167f8c5be1e5ebec7d5bd14f71427d1e84f3dd0314c0f7b2291e5b200ac8c7c3b9258460405161067091815260200190565b60405180910390a350505050565b6001600160a01b0383166106a957806002600082825461069e91906109e6565b9091555061071b9050565b6001600160a01b038316600090815260208190526040902054818110156106fc5760405163391434e360e21b81526001600160a01b03851660048201526024810182905260448101839052606401610327565b6001600160a01b03841660009081526020819052604090209082900390555b6001600160a01b03821661073757600280548290039055610756565b6001600160a01b03821660009081526020819052604090208054820190555b816001600160a01b0316836001600160a01b03167fddf252ad1be2c89b69c2b068fc378daa952ba7f163c4a11628f55a4df523b3ef8360405161079b91815260200190565b60405180910390a3505050565b602081526000825180602084015260005b818110156107d657602081860181015160408684010152016107b9565b506000604082850101526040601f19601f83011684010191505092915050565b80356001600160a01b038116811461080d57600080fd5b919050565b6000806040838503121561082557600080fd5b61082e836107f6565b946020939093013593505050565b60008060006060848603121561085157600080fd5b61085a846107f6565b9250610868602085016107f6565b929592945050506040919091013590565b60006020828403121561088b57600080fd5b610894826107f6565b9392505050565b600080604083850312156108ae57600080fd5b6108b7836107f6565b91506108c5602084016107f6565b90509250929050565b600181811c908216806108e257607f821691505b60208210810361090257634e487b7160e01b600052602260045260246000fd5b50919050565b8054600090600181811c9082168061092157607f821691505b60208210810361094157634e487b7160e01b600052602260045260246000fd5b808015610955576001811461096a5761099a565b60ff198416875282151583028701945061099a565b60008681526020902060005b8481101561099257815489820152600190910190602001610976565b505082870194505b5050505092915050565b60006109b08284610908565b672fa922a0a1aa27a960c11b81526008019392505050565b60006109d48284610908565b612fa960f11b81526002019392505050565b808201808211156102b857634e487b7160e01b600052601160045260246000fdfea26469706673582212206e712d2ed9ee8ad18f694f5d2c94d906fc30708d955ee53636d44c3ceff3c91c64736f6c634300081a0033a264697066735822122012fabec9fa9cd7b71a205e850d5ef3eac423c0f11e8c3c6fd69528c4f539af9a64736f6c634300081a00336080604052348015600f57600080fd5b506121c08061001f6000396000f3fe608060405234801561001057600080fd5b506004361061004b5760003560e01c80620d66e014610050578063145dad8b146100785780633033cc511461008b578063c68b3787146100ab575b600080fd5b61006361005e366004611e15565b6100cb565b60405190151581526020015b60405180910390f35b610063610086366004611f22565b6102d0565b61009e610099366004611f8b565b610304565b60405161006f9190611fdc565b6100be6100b936600461200d565b6103e8565b60405161006f9190612076565b600080604051806101800160405280866000600281106100ed576100ed612089565b602002015181526020018660016002811061010a5761010a612089565b602002015181526020017f198e9393920d483a7260bfb731fb5d25f1aa493335a9e71297e485b7aef312c281526020017f1800deef121f1e76426a00665e5c4479674322d4f75edadd46debd5cd992f6ed81526020017f275dc4a288d1afb3cbb1ac09187524c7db36395df7be3b99e673b13a075a65ec81526020017f1d9befcd05a5323e6da4d435f3b617cdb3af83285c2df711ef39c01571827f9d8152602001846000600281106101bf576101bf612089565b60200201518152602001846001600281106101dc576101dc612089565b60200201518152602001856001600481106101f9576101f9612089565b602002015181526020018560006004811061021657610216612089565b602002015181526020018560036004811061023357610233612089565b602002015181526020018560026004811061025057610250612089565b602002015190529050610261611d29565b60006020826101808560086107d05a03fa9050808061027c57fe5b50806102c35760405162461bcd60e51b8152602060048201526011602482015270696e76616c6964207369676e617475726560781b60448201526064015b60405180910390fd5b5051151595945050505050565b60006102fa60405180604001604052806005815260200164257320257360d81b815250848461059d565b5060015b92915050565b61030c611d47565b600061034d6040518060400160405280601f81526020017f424e535f5349475f424e533235365f584d443a5348412d3235365f5353575500815250846105e9565b9050600061036182825b60200201516106a4565b90506000610370836001610357565b905061037a611d65565b825181526020808401518282015282516040808401919091529083015160608301526000908460808460066107d05a03fa905080806103b557fe5b50806103dd5760405162461bcd60e51b815260206004820152600060248201526044016102ba565b509195945050505050565b604080516042808252608082019092526060916000919060208201818036833701905050905060006040518060400160405280601081526020016f181899199a1a9b1b9c1cb0b131b232b360811b8152509050600360fc1b8260008151811061045357610453612089565b60200101906001600160f81b031916908160001a905350600f60fb1b8260018151811061048257610482612089565b60200101906001600160f81b031916908160001a90535060005b60208110156105945760008582602081106104b9576104b9612089565b845191901a91508390600483901c60ff169081106104d9576104d9612089565b01602001516001600160f81b031916846104f48460026120b5565b6104ff9060026120cc565b8151811061050f5761050f612089565b60200101906001600160f81b031916908160001a9053508281600f1660ff168151811061053e5761053e612089565b01602001516001600160f81b031916846105598460026120b5565b6105649060036120cc565b8151811061057457610574612089565b60200101906001600160f81b031916908160001a9053505060010161049c565b50909392505050565b6105e48383836040516024016105b5939291906120df565b60408051601f198184030181529190526020810180516001600160e01b0316632ced7cef60e01b179052610a6f565b505050565b6105f1611d47565b60006105fd8484610a7b565b9050600080600080601885016001600160c01b0381511693506030860190506001600160c01b03815116945060008051602061216b8339815191528560008051602061216b833981519152600160c01b870908604887015160608801516001600160c01b039081169750169450925060008051602061216b83398151915290508481600160c01b860908604080518082019091529283526020830152509695505050505050565b6106ac611d47565b60008051602061216b83398151915282106107155760405162461bcd60e51b815260206004820152602360248201527f6d6170546f506f696e7446543a20696e76616c6964206669656c6420656c656d604482015262195b9d60ea1b60648201526084016102ba565b81600061072182610d87565b9050600060008051602061216b833981519152838409905060008051602061216b833981519152600482089050600060008051602061216b83398151915277b3c4d79d41a91759a9e4c7e359b6b89eaec68e62effffffd85099050600060008051602061216b833981519152838309905061079b81610e58565b905060008051602061216b833981519152828309915060008051602061216b833981519152818309915060008051602061216b833981519152828609915060008051602061216b8339815191526108008360008051602061216b833981519152612122565b7759e26bcea0d48bacd4f263f1acdb5c4f5763473177fffffe08945060008051602061216b833981519152858609915060008051602061216b833981519152858309915060008051602061216b833981519152600383089150600061086483610e63565b909350905080156108ad5784156108905761088d8360008051602061216b833981519152612122565b92505b505060408051808201909152938452602084015250909392505050565b60008051602061216b833981519152600187086108d89060008051602061216b833981519152612122565b955060008051602061216b833981519152868709925060008051602061216b833981519152868409925060008051602061216b83398151915260038408925061092083610e63565b909350905080156109495784156108905761088d8360008051602061216b833981519152612122565b60008051602061216b833981519152848509955060008051602061216b833981519152868709955060008051602061216b833981519152828709955060008051602061216b833981519152828709955060008051602061216b83398151915260018708955060008051602061216b833981519152868709925060008051602061216b833981519152868409925060008051602061216b8339815191526003840892506109f483610e63565b909350905080610a515760405162461bcd60e51b815260206004820152602260248201527f424c533a20626164206674206d617070696e6720696d706c656d656e7461746960448201526137b760f11b60648201526084016102ba565b84156108905761088d8360008051602061216b833981519152612122565b610a7881610e8c565b50565b81516060906101008110610ad15760405162461bcd60e51b815260206004820152601a60248201527f424c533a20696e76616c696420646f6d61696e206c656e67746800000000000060448201526064016102ba565b82516000610adf82846120cc565b610aea9060406120cc565b610af59060046120cc565b67ffffffffffffffff811115610b0d57610b0d611d83565b6040519080825280601f01601f191660200182016040528015610b37576020820181803683370190505b5060408051606080825260808201909252919250600091906020820181803683370190505090506060820160005b84811015610b7f5760208189018101518383015201610b65565b508301600081536001016060815360010160008153600181019050602088015181528481019050848153506000600283604051610bbc9190612135565b602060405180830381855afa158015610bd9573d6000803e3d6000fd5b5050506040513d601f19601f82011682018060405250810190610bfc9190612151565b90506000610c0b8660226120cc565b945084845281602085015260016040850153602089015160418501528560418701850153600284604051610c3f9190612135565b602060405180830381855afa158015610c5c573d6000803e3d6000fd5b5050506040513d601f19601f82011682018060405250810190610c7f9190612151565b90508060208401528082188060208601525060026040850153602089015160418501528560418701850153600284604051610cba9190612135565b602060405180830381855afa158015610cd7573d6000803e3d6000fd5b5050506040513d601f19601f82011682018060405250810190610cfa9190612151565b90508060408401528082188060208601525060036040850153602089015160418501528560418701850153600284604051610d359190612135565b602060405180830381855afa158015610d52573d6000803e3d6000fd5b5050506040513d601f19601f82011682018060405250810190610d759190612151565b60608401525090979650505050505050565b60008060405160208152602080820152602060408201528360608201527f183227397098d014dc2822db40c0ac2ecbc0b548b438e5469e10460b6c3e7ea3608082015260008051602061216b83398151915260a082015260208160c08360056107d05a03fa90516001149250905080610e515760405162461bcd60e51b815260206004820152602660248201527f424c533a2069734e6f6e526573696475654650206d6f646578702063616c6c2060448201526519985a5b195960d21b60648201526084016102ba565b5015919050565b60006102fe82610ead565b600080610e6f836115f4565b91508260008051602061216b833981519152838409149050915091565b60006a636f6e736f6c652e6c6f679050600080835160208501845afa505050565b600060008051602061216b8339815191528083840991508083830981838209828283098385830984848309858484098684850997508684840987858409945087898a09985087898a09985087898a09985087898a09985087898a09985087878a09985087898a09985087898a09985087898a099850878a8a09985087898a09985087898a09985087898a09985087898a099850878a8a09985087898a09985087898a09985087898a09985087898a09985087898a09985087848a09985087898a09985087898a09985087898a09985087898a09985087898a09985087848a09985087898a09985087898a09985087898a099850878a8a09985087898a09985087898a09985087898a09985087898a09985087848a09985087898a09985087898a09985087898a09985087898a09985087898a099850878a8a09985087898a09985087898a09985087898a09985087898a09985087878a09985087898a09985087898a09985087898a09985087898a09985087898a09985087898a09985087898a09985087818a09985087898a09985087898a09985087898a09985087898a09985087898a09985087898a09985087898a09985087898a09985087898a09985087898a09985087868a09985087898a09985087898a09985087898a09985087898a09985087878a09985087898a09985087898a09985087898a09985087898a09985087848a09985087898a09985087898a09985087898a09985087898a09985087898a09985087898a09985087898a09985087868a09985087898a09985087898a09985087898a09985087898a09985087898a09985087898a099850878a8a09985087898a09985087898a09985087898a09985087898a09985087898a09985087898a09985087898a09985087828a09985087898a09985087898a09985087898a09985087898a09985087898a09985087818a09985087898a09985087898a09985087898a09985087868a09985087898a09985087898a09985087898a09985087898a09985087898a09985087898a09985087898a09985087898a09985087878a09985087898a09985087898a09985087898a09985087898a09985087898a09985087898a09985087898a09985087898a09985087898a09985087868a09985087898a09985087898a09985087898a09985087878a09985087898a09985087898a09985087898a09985087898a09985087898a09985087898a09985087898a09985087898a09985087828a09985087898a09985087898a09985087898a09985087898a09985087828a09985087898a09985087898a09985087898a09985087898a09985087898a09985087868a09985087898a09985087898a09985087898a09985087848a09985087898a09985087898a09985087898a09985087898a09985087898a09985087898a09985087898a09985087898a09985087898a09985087898a09985087828a09985087898a09985087898a09985087898a09985087898a09985087868a09985087898a09985087898a09985087898a09985087898a09985087898a09985087838a09985087898a09985087898a09985087898a09985087898a09985087898a09985087898a09985087898a09985087828a09985087898a09985087898a099850878a8a09985087898a09985087898a09985087898a09985087898a09985087898a09985087898a09985087898a09985087848a09985087898a09985087898a09985087898a09985087898a09985087898a09985087898a09985087848a09985087898a09985087898a09985087898a09985087898a09985087898a09985087868a09985087898a09985087898a099850878a8a09985087898a09985087898a09985087898a09985087898a09985087898a09985087898a09985087898a09985087818a09985050868889099750868889099750868889099750868889099750868889099750868889099750868489099750868889099750868889099750868889099750868889099750868889099750868989099750868889099750868889099750868889099750868889099750868889099750868889099750868989099750868889099750868889099750868889099750868889099750868889099750868689099750868889099750868889099750868889099750868889099750868889099750868889099750868889099750868889099750868889099750868189099750508587880996508587880996508587880996508585880996508587880996508587880996508587880996508585880996508587880996508587880996508587880996508587880996508587880996508587880996508587880996508587880996508583880996508587880996508587880996508587880996508587880996508581880996505050838586099450838586099450838586099450838586099450838186099450508284850993508284850993508284850993508281850993508284850993508284850993508285850993508284850993508284850993508284850993508284850993508284850993508284850993508281850995945050505050565b600060008051602061216b8339815191528083840991508083830981838209828283098385830984848309858484098684850997508684840987858409945087898a09985087898a09985087898a09985087898a09985087898a09985087878a09985087898a09985087898a09985087898a099850878a8a09985087898a09985087898a09985087898a09985087898a099850878a8a09985087898a09985087898a09985087898a09985087898a09985087898a09985087848a09985087898a09985087898a09985087898a09985087898a09985087898a09985087848a09985087898a09985087898a09985087898a099850878a8a09985087898a09985087898a09985087898a09985087898a09985087848a09985087898a09985087898a09985087898a09985087898a09985087898a099850878a8a09985087898a09985087898a09985087898a09985087898a09985087878a09985087898a09985087898a09985087898a09985087898a09985087898a09985087898a09985087898a09985087818a09985087898a09985087898a09985087898a09985087898a09985087898a09985087898a09985087898a09985087898a09985087898a09985087898a09985087868a09985087898a09985087898a09985087898a09985087898a09985087878a09985087898a09985087898a09985087898a09985087898a09985087848a09985087898a09985087898a09985087898a09985087898a09985087898a09985087898a09985087898a09985087868a09985087898a09985087898a09985087898a09985087898a09985087898a09985087898a099850878a8a09985087898a09985087898a09985087898a09985087898a09985087898a09985087898a09985087898a09985087828a09985087898a09985087898a09985087898a09985087898a09985087898a09985087818a09985087898a09985087898a09985087898a09985087868a09985087898a09985087898a09985087898a09985087898a09985087898a09985087898a09985087898a09985087898a09985087878a09985087898a09985087898a09985087898a09985087898a09985087898a09985087898a09985087898a09985087898a09985087898a09985087868a09985087898a09985087898a09985087898a09985087878a09985087898a09985087898a09985087898a09985087898a09985087898a09985087898a09985087898a09985087898a09985087828a09985087898a09985087898a09985087898a09985087898a09985087828a09985087898a09985087898a09985087898a09985087898a09985087898a09985087868a09985087898a09985087898a09985087898a09985087848a09985087898a09985087898a09985087898a09985087898a09985087898a09985087898a09985087898a09985087898a09985087898a09985087898a09985087828a09985087898a09985087898a09985087898a09985087898a09985087868a09985087898a09985087898a09985087898a09985087898a09985087898a09985087838a09985087898a09985087898a09985087898a09985087898a09985087898a09985087898a09985087898a09985087828a09985087898a09985087898a099850878a8a09985087898a09985087898a09985087898a09985087898a09985087898a09985087898a09985087898a09985087848a09985087898a09985087898a09985087898a09985087898a09985087898a09985087898a09985087848a09985087898a09985087898a09985087898a09985087898a09985087898a09985087868a09985087898a09985087898a099850878a8a09985087898a09985087898a09985087898a09985087898a09985087898a09985087898a09985087898a09985087818a09985050868889099750868889099750868889099750868889099750868889099750868889099750868489099750868889099750868889099750868889099750868889099750868889099750868989099750868889099750868889099750868889099750868889099750868889099750868889099750868989099750868889099750868889099750868889099750868889099750868889099750868689099750868889099750868889099750868889099750868889099750868889099750868889099750868889099750868889099750868889099750868189099750508587880996508587880996508587880996508585880996508587880996508587880996508587880996508585880996508587880996508587880996508587880996508587880996508587880996508587880996508587880996508587880996508583880996508587880996508587880996508587880996508587880996508581880996508587880996508587880996508587880996508587880996508583880996508587880996508587880996508587880996508584880996508587880996508587880996508587880996508587880996508587880996508581880996505050505050808283099392505050565b60405180602001604052806001906020820280368337509192915050565b60405180604001604052806002906020820280368337509192915050565b60405180608001604052806004906020820280368337509192915050565b634e487b7160e01b600052604160045260246000fd5b604051601f8201601f1916810167ffffffffffffffff81118282101715611dc257611dc2611d83565b604052919050565b600082601f830112611ddb57600080fd5b6000611de76040611d99565b9050806040840185811115611dfb57600080fd5b845b818110156103dd578035835260209283019201611dfd565b60008060006101008486031215611e2b57600080fd5b611e358585611dca565b9250600085605f860112611e47578081fd5b80611e526080611d99565b905080915060c0860187811115611e6857600080fd5b604087015b81811015611e85578035845260209384019301611e6d565b50819450611e938882611dca565b93505050509250925092565b60008067ffffffffffffffff841115611eba57611eba611d83565b50601f8301601f1916602001611ecf81611d99565b915050828152838383011115611ee457600080fd5b828260208301376000602084830101529392505050565b600082601f830112611f0c57600080fd5b611f1b83833560208501611e9f565b9392505050565b60008060408385031215611f3557600080fd5b823567ffffffffffffffff811115611f4c57600080fd5b611f5885828601611efb565b925050602083013567ffffffffffffffff811115611f7557600080fd5b611f8185828601611efb565b9150509250929050565b600060208284031215611f9d57600080fd5b813567ffffffffffffffff811115611fb457600080fd5b8201601f81018413611fc557600080fd5b611fd484823560208401611e9f565b949350505050565b60408101818360005b6002811015612004578151835260209283019290910190600101611fe5565b50505092915050565b60006020828403121561201f57600080fd5b5035919050565b60005b83811015612041578181015183820152602001612029565b50506000910152565b60008151808452612062816020860160208601612026565b601f01601f19169290920160200192915050565b602081526000611f1b602083018461204a565b634e487b7160e01b600052603260045260246000fd5b634e487b7160e01b600052601160045260246000fd5b80820281158282048414176102fe576102fe61209f565b808201808211156102fe576102fe61209f565b6060815260006120f2606083018661204a565b8281036020840152612104818661204a565b90508281036040840152612118818561204a565b9695505050505050565b818103818111156102fe576102fe61209f565b60008251612147818460208701612026565b9190910192915050565b60006020828403121561216357600080fd5b505191905056fe30644e72e131a029b85045b68181585d97816a916871ca8d3c208c16d87cfd47a26469706673582212200d7f27115bd28d3fc531828071576ea5075618d14a738f28d30d3086a45b945c64736f6c634300081a0033",
  "linkReferences": {},
  "deployedLinkReferences": {}
}