{
  "_format": "hh-sol-artifact-1",
  "contractName": "Vault",
  "sourceName": "contracts/Vault.sol",
  "abi": [
    {
      "inputs": [],
      "stateMutability": "nonpayable",
      "type": "constructor"
    },
    {
      "anonymous": false,
      "inputs": [
        {
          "indexed": true,
          "internalType": "address",
          "name": "depositor",
          "type": "address"
        },
        {
          "indexed": true,
          "internalType": "address",
          "name": "tokenAddress",
          "type": "address"
        },
        {
          "indexed": false,
          "internalType": "uint256",
          "name": "toChainId",
          "type": "uint256"
        },
        {
          "indexed": false,
          "internalType": "uint256",
          "name": "amount",
          "type": "uint256"
        },
        {
          "indexed": false,
          "internalType": "uint256",
          "name": "depositCounter",
          "type": "uint256"
        }
      ],
      "name": "Deposited",
      "type": "event"
    },
    {
      "anonymous": false,
      "inputs": [
        {
          "indexed": false,
          "internalType": "uint256",
          "name": "amount",
          "type": "uint256"
        }
      ],
      "name": "Disbursed",
      "type": "event"
    },
    {
      "anonymous": false,
      "inputs": [
        {
          "indexed": false,
          "internalType": "uint256",
          "name": "amount",
          "type": "uint256"
        }
      ],
      "name": "Minted",
      "type": "event"
    },
    {
      "anonymous": false,
      "inputs": [
        {
          "indexed": false,
          "internalType": "address",
          "name": "depositor",
          "type": "address"
        },
        {
          "indexed": false,
          "internalType": "uint256",
          "name": "amount",
          "type": "uint256"
        }
      ],
      "name": "Withdrawn",
      "type": "event"
    },
    {
      "inputs": [],
      "name": "ETH",
      "outputs": [
        {
          "internalType": "address",
          "name": "",
          "type": "address"
        }
      ],
      "stateMutability": "view",
      "type": "function"
    },
    {
      "inputs": [],
      "name": "depositCounter",
      "outputs": [
        {
          "internalType": "uint256",
          "name": "",
          "type": "uint256"
        }
      ],
      "stateMutability": "view",
      "type": "function"
    },
    {
      "inputs": [
        {
          "internalType": "uint256",
          "name": "toChainId",
          "type": "uint256"
        }
      ],
      "name": "depositEth",
      "outputs": [],
      "stateMutability": "payable",
      "type": "function"
    },
    {
      "inputs": [
        {
          "internalType": "uint256",
          "name": "amount",
          "type": "uint256"
        }
      ],
      "name": "depositToken",
      "outputs": [],
      "stateMutability": "nonpayable",
      "type": "function"
    },
    {
      "inputs": [
        {
          "internalType": "bytes32",
          "name": "",
          "type": "bytes32"
        }
      ],
      "name": "deposited",
      "outputs": [
        {
          "internalType": "bool",
          "name": "",
          "type": "bool"
        }
      ],
      "stateMutability": "view",
      "type": "function"
    },
    {
      "inputs": [
        {
          "internalType": "uint256",
          "name": "amount",
          "type": "uint256"
        }
      ],
      "name": "disburse",
      "outputs": [],
      "stateMutability": "nonpayable",
      "type": "function"
    },
    {
      "inputs": [
        {
          "internalType": "address",
          "name": "depositor",
          "type": "address"
        },
        {
          "internalType": "address",
          "name": "token",
          "type": "address"
        },
        {
          "internalType": "uint256",
          "name": "toChainId",
          "type": "uint256"
        },
        {
          "internalType": "uint256",
          "name": "amount",
          "type": "uint256"
        },
        {
          "internalType": "uint256",
          "name": "counter",
          "type": "uint256"
        }
      ],
      "name": "hashOf",
      "outputs": [
        {
          "internalType": "bytes32",
          "name": "",
          "type": "bytes32"
        }
      ],
      "stateMutability": "view",
      "type": "function"
    },
    {
      "inputs": [
        {
          "internalType": "address",
          "name": "depositor",
          "type": "address"
        },
        {
          "internalType": "address",
          "name": "token",
          "type": "address"
        },
        {
          "internalType": "uint256",
          "name": "toChainId",
          "type": "uint256"
        },
        {
          "internalType": "uint256",
          "name": "amount",
          "type": "uint256"
        },
        {
          "internalType": "uint256",
          "name": "counter",
          "type": "uint256"
        }
      ],
      "name": "isDeposited",
      "outputs": [
        {
          "internalType": "bool",
          "name": "",
          "type": "bool"
        }
      ],
      "stateMutability": "view",
      "type": "function"
    },
    {
      "inputs": [
        {
          "internalType": "uint256",
          "name": "amount",
          "type": "uint256"
        }
      ],
      "name": "mint",
      "outputs": [],
      "stateMutability": "nonpayable",
      "type": "function"
    },
    {
      "inputs": [
        {
          "internalType": "address",
          "name": "",
          "type": "address"
        }
      ],
      "name": "pool",
      "outputs": [
        {
          "internalType": "uint256",
          "name": "",
          "type": "uint256"
        }
      ],
      "stateMutability": "view",
      "type": "function"
    },
    {
      "inputs": [
        {
          "internalType": "uint256",
          "name": "",
          "type": "uint256"
        }
      ],
      "name": "pubkey",
      "outputs": [
        {
          "internalType": "uint256",
          "name": "",
          "type": "uint256"
        }
      ],
      "stateMutability": "view",
      "type": "function"
    },
    {
      "inputs": [
        {
          "internalType": "uint256",
          "name": "amount",
          "type": "uint256"
        }
      ],
      "name": "withdraw",
      "outputs": [],
      "stateMutability": "nonpayable",
      "type": "function"
    }
  ],
  "bytecode": "0x6080604052600060065534801561001557600080fd5b50610611806100256000396000f3fe6080604052600436106100a75760003560e01c80636215be77116100645780636215be77146101a15780638322fff2146101bf578063a0712d68146101a1578063b7c36875146101ec578063bd77ac2c1461020c578063ecb3dc881461022c57600080fd5b80630a352539146100ac5780630f4d14e9146100e1578063156522a8146100f65780631f36edcd146101315780632cdfb6ae146101615780632e1a7d4d14610181575b600080fd5b3480156100b857600080fd5b506100cc6100c73660046104d0565b610242565b60405190151581526020015b60405180910390f35b6100f46100ef36600461051d565b610291565b005b34801561010257600080fd5b50610123610111366004610536565b60046020526000908152604090205481565b6040519081526020016100d8565b34801561013d57600080fd5b506100cc61014c36600461051d565b60056020526000908152604090205460ff1681565b34801561016d57600080fd5b5061012361017c36600461051d565b610388565b34801561018d57600080fd5b506100f461019c36600461051d565b61039f565b3480156101ad57600080fd5b506100f46101bc36600461051d565b50565b3480156101cb57600080fd5b506101d4600081565b6040516001600160a01b0390911681526020016100d8565b3480156101f857600080fd5b506101236102073660046104d0565b6103dc565b34801561021857600080fd5b506100f461022736600461051d565b610418565b34801561023857600080fd5b5061012360065481565b600080868686868660405160200161025e959493929190610558565b60408051808303601f1901815291815281516020928301206000908152600590925290205460ff16979650505050505050565b600080805260046020527f17ef568e3e12ab5b9c7254a8d58478811de00f9e6eb34345acd53bf8fd09d3ec80543492906102cc9084906105a9565b909155505060068054600091826102e2836105c2565b9190505590506000336000843485604051602001610304959493929190610558565b60408051601f198184030181529181528151602092830120600081815260059093529120805460ff19166001179055905061033e8161044f565b6040805184815234602082015290810183905260009033907f8bab6aed5a508937051a144e61d6e61336834a66aaee250a00613ae6f744c4229060600160405180910390a3505050565b6000816004811061039857600080fd5b0154905081565b60408051338152602081018390527f7084f5476618d8e60b11ef0d7d3f06914655adb8793e28ff7f018d4c76d505d591015b60405180910390a150565b600085858585856040516020016103f7959493929190610558565b60405160208183030381529060405280519060200120905095945050505050565b6040805160008152602081018390527f7084f5476618d8e60b11ef0d7d3f06914655adb8793e28ff7f018d4c76d505d591016103d1565b6101bc8160405160240161046591815260200190565b60408051601f198184030181529190526020810180516001600160e01b03166327b7cf8560e01b1790526101bc8160006a636f6e736f6c652e6c6f679050600080835160208501845afa505050565b80356001600160a01b03811681146104cb57600080fd5b919050565b600080600080600060a086880312156104e857600080fd5b6104f1866104b4565b94506104ff602087016104b4565b94979496505050506040830135926060810135926080909101359150565b60006020828403121561052f57600080fd5b5035919050565b60006020828403121561054857600080fd5b610551826104b4565b9392505050565b6bffffffffffffffffffffffff19606096871b811682529490951b909316601485015260288401919091526048830152606882015260880190565b634e487b7160e01b600052601160045260246000fd5b808201808211156105bc576105bc610593565b92915050565b6000600182016105d4576105d4610593565b506001019056fea2646970667358221220dd5efd55e71738904f8dfbe2b407045273dbcf4180522f6142adfa428f9508a964736f6c63430008140033",
  "linkReferences": {},
  "deployedLinkReferences": {}
}