{
  "_format": "hh-sol-artifact-1",
  "contractName": "Vault",
  "sourceName": "contracts/Vault.sol",
  "abi": [
    {
      "inputs": [
        {
          "internalType": "uint256",
          "name": "chainId_",
          "type": "uint256"
        },
        {
          "internalType": "uint256[4]",
          "name": "publicKey_",
          "type": "uint256[4]"
        }
      ],
      "stateMutability": "nonpayable",
      "type": "constructor"
    },
    {
      "anonymous": false,
      "inputs": [
        {
          "indexed": true,
          "internalType": "address",
          "name": "vaultUser",
          "type": "address"
        },
        {
          "indexed": false,
          "internalType": "uint256",
          "name": "originatingChain",
          "type": "uint256"
        },
        {
          "indexed": true,
          "internalType": "address",
          "name": "originatingToken",
          "type": "address"
        },
        {
          "indexed": false,
          "internalType": "uint256",
          "name": "decimals",
          "type": "uint256"
        },
        {
          "indexed": false,
          "internalType": "uint256",
          "name": "toChainId",
          "type": "uint256"
        },
        {
          "indexed": false,
          "internalType": "uint256",
          "name": "amount",
          "type": "uint256"
        },
        {
          "indexed": false,
          "internalType": "uint256",
          "name": "depositCounter",
          "type": "uint256"
        }
      ],
      "name": "Deposited",
      "type": "event"
    },
    {
      "anonymous": false,
      "inputs": [
        {
          "indexed": false,
          "internalType": "uint256",
          "name": "amount",
          "type": "uint256"
        }
      ],
      "name": "Disbursed",
      "type": "event"
    },
    {
      "anonymous": false,
      "inputs": [
        {
          "indexed": false,
          "internalType": "uint256",
          "name": "amount",
          "type": "uint256"
        }
      ],
      "name": "Minted",
      "type": "event"
    },
    {
      "anonymous": false,
      "inputs": [
        {
          "indexed": true,
          "internalType": "uint256",
          "name": "originatingChain",
          "type": "uint256"
        },
        {
          "indexed": true,
          "internalType": "address",
          "name": "originatingToken",
          "type": "address"
        },
        {
          "indexed": false,
          "internalType": "uint256",
          "name": "decimals",
          "type": "uint256"
        },
        {
          "indexed": false,
          "internalType": "uint256",
          "name": "amount",
          "type": "uint256"
        },
        {
          "indexed": true,
          "internalType": "address",
          "name": "vaultUser",
          "type": "address"
        },
        {
          "indexed": false,
          "internalType": "uint256",
          "name": "fromChain",
          "type": "uint256"
        },
        {
          "indexed": false,
          "internalType": "uint256",
          "name": "toChain",
          "type": "uint256"
        },
        {
          "indexed": false,
          "internalType": "uint256",
          "name": "sendCounter",
          "type": "uint256"
        }
      ],
      "name": "TokenSent",
      "type": "event"
    },
    {
      "anonymous": false,
      "inputs": [
        {
          "indexed": true,
          "internalType": "address",
          "name": "vaultUser",
          "type": "address"
        },
        {
          "indexed": false,
          "internalType": "uint256",
          "name": "originatingChain",
          "type": "uint256"
        },
        {
          "indexed": true,
          "internalType": "address",
          "name": "originatingToken",
          "type": "address"
        },
        {
          "indexed": false,
          "internalType": "uint256",
          "name": "decimals",
          "type": "uint256"
        },
        {
          "indexed": false,
          "internalType": "uint256",
          "name": "toChainId",
          "type": "uint256"
        },
        {
          "indexed": false,
          "internalType": "uint256",
          "name": "amount",
          "type": "uint256"
        },
        {
          "indexed": false,
          "internalType": "uint256",
          "name": "withdrawCounter",
          "type": "uint256"
        }
      ],
      "name": "Withdrawn",
      "type": "event"
    },
    {
      "inputs": [],
      "name": "ETH",
      "outputs": [
        {
          "internalType": "address",
          "name": "",
          "type": "address"
        }
      ],
      "stateMutability": "view",
      "type": "function"
    },
    {
      "inputs": [
        {
          "internalType": "bytes32",
          "name": "",
          "type": "bytes32"
        }
      ],
      "name": "arrivalProcessed",
      "outputs": [
        {
          "internalType": "bool",
          "name": "",
          "type": "bool"
        }
      ],
      "stateMutability": "view",
      "type": "function"
    },
    {
      "inputs": [
        {
          "internalType": "address",
          "name": "proxyToken",
          "type": "address"
        },
        {
          "internalType": "address",
          "name": "vaultUser",
          "type": "address"
        }
      ],
      "name": "balanceOf",
      "outputs": [
        {
          "internalType": "uint256",
          "name": "",
          "type": "uint256"
        }
      ],
      "stateMutability": "view",
      "type": "function"
    },
    {
      "inputs": [],
      "name": "chainId",
      "outputs": [
        {
          "internalType": "uint256",
          "name": "",
          "type": "uint256"
        }
      ],
      "stateMutability": "view",
      "type": "function"
    },
    {
      "inputs": [],
      "name": "depositCounter",
      "outputs": [
        {
          "internalType": "uint256",
          "name": "",
          "type": "uint256"
        }
      ],
      "stateMutability": "view",
      "type": "function"
    },
    {
      "inputs": [
        {
          "internalType": "uint256",
          "name": "toChainId",
          "type": "uint256"
        }
      ],
      "name": "depositEth",
      "outputs": [],
      "stateMutability": "payable",
      "type": "function"
    },
    {
      "inputs": [
        {
          "internalType": "uint256",
          "name": "toChainId",
          "type": "uint256"
        },
        {
          "internalType": "address",
          "name": "tokenAddress",
          "type": "address"
        },
        {
          "internalType": "uint256",
          "name": "tokenAmount",
          "type": "uint256"
        }
      ],
      "name": "depositToken",
      "outputs": [],
      "stateMutability": "nonpayable",
      "type": "function"
    },
    {
      "inputs": [
        {
          "internalType": "bytes32",
          "name": "",
          "type": "bytes32"
        }
      ],
      "name": "deposits",
      "outputs": [
        {
          "internalType": "bool",
          "name": "",
          "type": "bool"
        }
      ],
      "stateMutability": "view",
      "type": "function"
    },
    {
      "inputs": [
        {
          "internalType": "uint256[2]",
          "name": "signature",
          "type": "uint256[2]"
        },
        {
          "internalType": "uint256[4]",
          "name": "signerKey",
          "type": "uint256[4]"
        },
        {
          "internalType": "bytes",
          "name": "withdrawPayload",
          "type": "bytes"
        }
      ],
      "name": "disburse",
      "outputs": [],
      "stateMutability": "nonpayable",
      "type": "function"
    },
    {
      "inputs": [
        {
          "internalType": "bytes32",
          "name": "",
          "type": "bytes32"
        }
      ],
      "name": "disbursed",
      "outputs": [
        {
          "internalType": "bool",
          "name": "",
          "type": "bool"
        }
      ],
      "stateMutability": "view",
      "type": "function"
    },
    {
      "inputs": [
        {
          "internalType": "address",
          "name": "vaultUser",
          "type": "address"
        },
        {
          "internalType": "uint256",
          "name": "originatingChain",
          "type": "uint256"
        },
        {
          "internalType": "address",
          "name": "originatingToken",
          "type": "address"
        },
        {
          "internalType": "uint256",
          "name": "decimals",
          "type": "uint256"
        },
        {
          "internalType": "uint256",
          "name": "toChainId",
          "type": "uint256"
        },
        {
          "internalType": "uint256",
          "name": "amount",
          "type": "uint256"
        },
        {
          "internalType": "uint256",
          "name": "counter",
          "type": "uint256"
        }
      ],
      "name": "hashOf",
      "outputs": [
        {
          "internalType": "bytes32",
          "name": "",
          "type": "bytes32"
        }
      ],
      "stateMutability": "pure",
      "type": "function"
    },
    {
      "inputs": [
        {
          "internalType": "address",
          "name": "",
          "type": "address"
        }
      ],
      "name": "isProxyToken",
      "outputs": [
        {
          "internalType": "bool",
          "name": "",
          "type": "bool"
        }
      ],
      "stateMutability": "view",
      "type": "function"
    },
    {
      "inputs": [
        {
          "internalType": "uint256[2]",
          "name": "signature",
          "type": "uint256[2]"
        },
        {
          "internalType": "uint256[4]",
          "name": "signerKey",
          "type": "uint256[4]"
        },
        {
          "internalType": "bytes",
          "name": "depositPayload",
          "type": "bytes"
        }
      ],
      "name": "mint",
      "outputs": [],
      "stateMutability": "nonpayable",
      "type": "function"
    },
    {
      "inputs": [
        {
          "internalType": "bytes32",
          "name": "",
          "type": "bytes32"
        }
      ],
      "name": "minted",
      "outputs": [
        {
          "internalType": "bool",
          "name": "",
          "type": "bool"
        }
      ],
      "stateMutability": "view",
      "type": "function"
    },
    {
      "inputs": [
        {
          "internalType": "uint256",
          "name": "originatingChain",
          "type": "uint256"
        },
        {
          "internalType": "address",
          "name": "originatingToken",
          "type": "address"
        },
        {
          "internalType": "uint256",
          "name": "decimals",
          "type": "uint256"
        },
        {
          "internalType": "uint256",
          "name": "amount",
          "type": "uint256"
        },
        {
          "internalType": "address",
          "name": "vaultUser",
          "type": "address"
        },
        {
          "internalType": "uint256",
          "name": "fromChain",
          "type": "uint256"
        },
        {
          "internalType": "uint256",
          "name": "toChain",
          "type": "uint256"
        },
        {
          "internalType": "uint256",
          "name": "sendCounter",
          "type": "uint256"
        }
      ],
      "name": "payloadHash",
      "outputs": [
        {
          "internalType": "bytes32",
          "name": "",
          "type": "bytes32"
        }
      ],
      "stateMutability": "pure",
      "type": "function"
    },
    {
      "inputs": [
        {
          "internalType": "address",
          "name": "",
          "type": "address"
        }
      ],
      "name": "pool",
      "outputs": [
        {
          "internalType": "uint256",
          "name": "",
          "type": "uint256"
        }
      ],
      "stateMutability": "view",
      "type": "function"
    },
    {
      "inputs": [
        {
          "internalType": "uint256",
          "name": "",
          "type": "uint256"
        },
        {
          "internalType": "address",
          "name": "",
          "type": "address"
        }
      ],
      "name": "proxyTokenMap",
      "outputs": [
        {
          "internalType": "address",
          "name": "",
          "type": "address"
        }
      ],
      "stateMutability": "view",
      "type": "function"
    },
    {
      "inputs": [
        {
          "internalType": "uint256",
          "name": "",
          "type": "uint256"
        }
      ],
      "name": "publicKey",
      "outputs": [
        {
          "internalType": "uint256",
          "name": "",
          "type": "uint256"
        }
      ],
      "stateMutability": "view",
      "type": "function"
    },
    {
      "inputs": [],
      "name": "sendCounter",
      "outputs": [
        {
          "internalType": "uint256",
          "name": "",
          "type": "uint256"
        }
      ],
      "stateMutability": "view",
      "type": "function"
    },
    {
      "inputs": [
        {
          "internalType": "uint256",
          "name": "toChainId",
          "type": "uint256"
        }
      ],
      "name": "sendEth",
      "outputs": [],
      "stateMutability": "payable",
      "type": "function"
    },
    {
      "inputs": [
        {
          "internalType": "uint256[2]",
          "name": "signature",
          "type": "uint256[2]"
        },
        {
          "internalType": "uint256[4]",
          "name": "signerKey",
          "type": "uint256[4]"
        },
        {
          "internalType": "bytes",
          "name": "tokenSendPayload",
          "type": "bytes"
        }
      ],
      "name": "tokenArrival",
      "outputs": [],
      "stateMutability": "nonpayable",
      "type": "function"
    },
    {
      "inputs": [
        {
          "internalType": "bytes32",
          "name": "",
          "type": "bytes32"
        }
      ],
      "name": "tokenSent",
      "outputs": [
        {
          "internalType": "bool",
          "name": "",
          "type": "bool"
        }
      ],
      "stateMutability": "view",
      "type": "function"
    },
    {
      "inputs": [],
      "name": "withdrawCounter",
      "outputs": [
        {
          "internalType": "uint256",
          "name": "",
          "type": "uint256"
        }
      ],
      "stateMutability": "view",
      "type": "function"
    },
    {
      "inputs": [
        {
          "internalType": "uint256",
          "name": "toChainId",
          "type": "uint256"
        },
        {
          "internalType": "uint256",
          "name": "amount",
          "type": "uint256"
        }
      ],
      "name": "withdrawEth",
      "outputs": [],
      "stateMutability": "payable",
      "type": "function"
    },
    {
      "inputs": [
        {
          "internalType": "uint256",
          "name": "toChainId",
          "type": "uint256"
        },
        {
          "internalType": "address",
          "name": "tokenAddress",
          "type": "address"
        },
        {
          "internalType": "uint256",
          "name": "amount",
          "type": "uint256"
        }
      ],
      "name": "withdrawToken",
      "outputs": [],
      "stateMutability": "payable",
      "type": "function"
    },
    {
      "inputs": [
        {
          "internalType": "bytes32",
          "name": "",
          "type": "bytes32"
        }
      ],
      "name": "withdrawals",
      "outputs": [
        {
          "internalType": "bool",
          "name": "",
          "type": "bool"
        }
      ],
      "stateMutability": "view",
      "type": "function"
    }
  ],
  "bytecode": "0x60806040526000600e556000600f55600060105534801561001f57600080fd5b5060405161589a38038061589a83398101604081905261003e91610118565b600082905561005060018260046100a2565b5060405161005d906100e0565b604051809103906000f080158015610079573d6000803e3d6000fd5b50601180546001600160a01b0319166001600160a01b0392909216919091179055506101a09050565b82600481019282156100d0579160200282015b828111156100d05782518255916020019190600101906100b5565b506100dc9291506100ed565b5090565b6121608061373a83390190565b5b808211156100dc57600081556001016100ee565b634e487b7160e01b600052604160045260246000fd5b60008060a0838503121561012b57600080fd5b82519150603f8301841361013e57600080fd5b604051608081016001600160401b038111828210171561016057610160610102565b6040528060a085018681111561017557600080fd5b602086015b8181101561019257805183526020928301920161017a565b505050809150509250929050565b61358b806101af6000396000f3fe6080604052600436106101815760003560e01c8063b8f3e1b7116100d1578063cc24fa1b1161008a578063e07febdc11610064578063e07febdc146104b4578063ecb3dc88146104d4578063efbf64a7146104ea578063f7888aec1461051a57600080fd5b8063cc24fa1b14610441578063cfc5484814610471578063df2514491461048457600080fd5b8063b8f3e1b71461035a578063b947113f1461039b578063bca49b7d146103bb578063be5f1f9a146103db578063c11954fb146103fb578063ca16e3eb1461042b57600080fd5b806364f0b7721161013e5780638940aebe116101185780638940aebe146102e15780638ccc5f80146103015780639a8a0592146103315780639c99e2b91461034757600080fd5b806364f0b7721461027157806368a6773b146102a15780638322fff2146102b457600080fd5b80630a9306d7146101865780630f4d14e9146101a8578063136518db146101bb578063156522a8146101ee5780631c642f2c1461021b5780633d4dff7b14610231575b600080fd5b34801561019257600080fd5b506101a66101a1366004611ea7565b61053a565b005b6101a66101b6366004611edf565b610806565b3480156101c757600080fd5b506101db6101d6366004611ef8565b6108e8565b6040519081526020015b60405180910390f35b3480156101fa57600080fd5b506101db610209366004611f5d565b60056020526000908152604090205481565b34801561022757600080fd5b506101db600e5481565b34801561023d57600080fd5b5061026161024c366004611edf565b60086020526000908152604090205460ff1681565b60405190151581526020016101e5565b34801561027d57600080fd5b5061026161028c366004611f5d565b600d6020526000908152604090205460ff1681565b6101a66102af366004611ea7565b61095a565b3480156102c057600080fd5b506102c9600081565b6040516001600160a01b0390911681526020016101e5565b3480156102ed57600080fd5b506101db6102fc366004611edf565b610d08565b34801561030d57600080fd5b5061026161031c366004611edf565b600a6020526000908152604090205460ff1681565b34801561033d57600080fd5b506101db60005481565b6101a6610355366004611f81565b610d1f565b34801561036657600080fd5b506102c9610375366004611fa3565b600c6020908152600092835260408084209091529082529020546001600160a01b031681565b3480156103a757600080fd5b506101a66103b636600461207d565b610fc9565b3480156103c757600080fd5b506101db6103d636600461212e565b6110d6565b3480156103e757600080fd5b506101a66103f636600461207d565b611146565b34801561040757600080fd5b50610261610416366004611edf565b60076020526000908152604090205460ff1681565b34801561043757600080fd5b506101db60105481565b34801561044d57600080fd5b5061026161045c366004611edf565b60066020526000908152604090205460ff1681565b6101a661047f366004611edf565b6111d6565b34801561049057600080fd5b5061026161049f366004611edf565b600b6020526000908152604090205460ff1681565b3480156104c057600080fd5b506101a66104cf36600461207d565b6112bd565b3480156104e057600080fd5b506101db600f5481565b3480156104f657600080fd5b50610261610505366004611edf565b60096020526000908152604090205460ff1681565b34801561052657600080fd5b506101db61053536600461219d565b61134d565b6040516370a0823160e01b8152336004820152829082906001600160a01b038316906370a0823190602401602060405180830381865afa158015610582573d6000803e3d6000fd5b505050506040513d601f19601f820116820180604052508101906105a691906121cb565b10156105f05760405162461bcd60e51b8152602060048201526014602482015273496e73756666696369656e742062616c616e636560601b60448201526064015b60405180910390fd5b6040516323b872dd60e01b8152336004820152306024820152604481018390526001600160a01b038216906323b872dd906064016020604051808303816000875af1158015610643573d6000803e3d6000fd5b505050506040513d601f19601f8201168201806040525081019061066791906121e4565b506001600160a01b0383166000908152600560205260408120805484929061069090849061221c565b9091555050600f8054600091826106a68361222f565b91905055905060006107233360005487866001600160a01b031663313ce5676040518163ffffffff1660e01b8152600401602060405180830381865afa1580156106f4573d6000803e3d6000fd5b505050506040513d601f19601f820116820180604052508101906107189190612248565b60ff168a89886108e8565b6000818152600860209081526040808320805460ff191660011790559154825163313ce56760e01b815292519394506001600160a01b03808a169433947fb671f239220b3263f004d83c71276b9fcb99b5947d7ebed71cdc01736a74693094928a169263313ce567926004808401938290030181865afa1580156107ab573d6000803e3d6000fd5b505050506040513d601f19601f820116820180604052508101906107cf9190612248565b6040805192835260ff909116602083015281018a9052606081018890526080810186905260a00160405180910390a3505050505050565b600080805260056020527f05b8ccbb9d4d8fb16ea74ce3c29a41f1b461fbdaff4714a0d9a8eb05499746bc805434929061084190849061221c565b9091555050600f8054600091826108578361222f565b919050559050600061087233600054600060128734886108e8565b6000818152600860209081526040808320805460ff19166001179055825481519081526012928101929092528101869052346060820152608081018590529192509033907fb671f239220b3263f004d83c71276b9fcb99b5947d7ebed71cdc01736a7469309060a00160405180910390a3505050565b6040516bffffffffffffffffffffffff19606089811b821660208401526034830189905287901b166054820152606881018590526088810184905260a8810183905260c8810182905260009060e801604051602081830303815290604052805190602001209050979650505050505050565b6000838152600c602090815260408083206001600160a01b0386811685529252918290205491516370a0823160e01b8152336004820152911690829082906370a0823190602401602060405180830381865afa1580156109be573d6000803e3d6000fd5b505050506040513d601f19601f820116820180604052508101906109e291906121cb565b1015610a305760405162461bcd60e51b815260206004820181905260248201527f496e73756666696369656e742070726f787920746f6b656e2062616c616e636560448201526064016105e7565b6010805460009182610a418361222f565b90915550604051632770a7eb60e21b8152336004820152602481018590529091506001600160a01b03831690639dc29fac90604401600060405180830381600087803b158015610a9057600080fd5b505af1158015610aa4573d6000803e3d6000fd5b505050506000610bb033846001600160a01b0316632c4701d46040518163ffffffff1660e01b8152600401602060405180830381865afa158015610aec573d6000803e3d6000fd5b505050506040513d601f19601f82011682018060405250810190610b1091906121cb565b856001600160a01b031663860d42886040518163ffffffff1660e01b8152600401602060405180830381865afa158015610b4e573d6000803e3d6000fd5b505050506040513d601f19601f82011682018060405250810190610b72919061226b565b866001600160a01b031663313ce5676040518163ffffffff1660e01b8152600401602060405180830381865afa1580156106f4573d6000803e3d6000fd5b600081815260096020908152604091829020805460ff1916600117905581516310c1a85160e31b815291519293506001600160a01b0386169263860d42889260048082019392918290030181865afa158015610c10573d6000803e3d6000fd5b505050506040513d601f19601f82011682018060405250810190610c34919061226b565b6001600160a01b0316336001600160a01b03167fb2857e3d4000687fff193d49357e9232d787454d475652309faf58b0b4ddd44e856001600160a01b0316632c4701d46040518163ffffffff1660e01b8152600401602060405180830381865afa158015610ca6573d6000803e3d6000fd5b505050506040513d601f19601f82011682018060405250810190610cca91906121cb565b866001600160a01b031663313ce5676040518163ffffffff1660e01b8152600401602060405180830381865afa1580156107ab573d6000803e3d6000fd5b60018160048110610d1857600080fd5b0154905081565b6000828152600c60209081526040808320838052909152908190205490516370a0823160e01b81523360048201526001600160a01b0390911690829082906370a0823190602401602060405180830381865afa158015610d83573d6000803e3d6000fd5b505050506040513d601f19601f82011682018060405250810190610da791906121cb565b1015610e015760405162461bcd60e51b8152602060048201526024808201527f496e73756666696369656e74204554482070726f787920746f6b656e2062616c604482015263616e636560e01b60648201526084016105e7565b6010805460009182610e128361222f565b90915550604051632770a7eb60e21b8152336004820152602481018590529091506001600160a01b03831690639dc29fac90604401600060405180830381600087803b158015610e6157600080fd5b505af1158015610e75573d6000803e3d6000fd5b505050506000610eed33846001600160a01b0316632c4701d46040518163ffffffff1660e01b8152600401602060405180830381865afa158015610ebd573d6000803e3d6000fd5b505050506040513d601f19601f82011682018060405250810190610ee191906121cb565b600060128989886108e8565b6000818152600960209081526040808320805460ff191660011790558051630b11c07560e21b81529051939450919233927fb2857e3d4000687fff193d49357e9232d787454d475652309faf58b0b4ddd44e926001600160a01b03891692632c4701d49260048082019392918290030181865afa158015610f72573d6000803e3d6000fd5b505050506040513d601f19601f82011682018060405250810190610f9691906121cb565b60408051918252601260208301528101899052606081018890526080810186905260a00160405180910390a35050505050565b6110076040518060400160405280601981526020017f546f6b656e204172726976616c20696e20436f6e7472616374000000000000008152506113c4565b825160015414801561101e57506020830151600254145b801561102f57506040830151600354145b801561104057506060830151600454145b61105c5760405162461bcd60e51b81526004016105e790612288565b600061106c85858585600161140a565b90506110788383611679565b600081815260076020908152604091829020805460ff191660011790558151808301909252601782527f546f6b656e204172726976616c2050726f636573736564000000000000000000908201526110cf906113c4565b5050505050565b6040805160208082019a909a526bffffffffffffffffffffffff196060998a1b811682840152605482019890985260748101969096529390961b909416609484015260a883015260c882019290925260e88082019390935281518082039093018352610108019052805191012090565b825160015414801561115d57506020830151600254145b801561116e57506040830151600354145b801561117f57506060830151600454145b61119b5760405162461bcd60e51b81526004016105e790612288565b60006111ab8585858560006116f3565b90506111b78383611812565b6000908152600b60205260409020805460ff1916600117905550505050565b600080805260056020527f05b8ccbb9d4d8fb16ea74ce3c29a41f1b461fbdaff4714a0d9a8eb05499746bc805434929061121190849061221c565b9091555050600e8054600091826112278361222f565b919050559050600061124560005460006012343360005489896110d6565b6000818152600660209081526040808320805460ff191660011790558254815160128152349381019390935290820181905260608201879052608082018690529293503392907f670bb9eaa101089847b54d487cebfab096298a70fd3e2f2dc6be01e6346488679060a00160405180910390a4505050565b82516001541480156112d457506020830151600254145b80156112e557506040830151600354145b80156112f657506060830151600454145b6113125760405162461bcd60e51b81526004016105e790612288565b60006113228585858560016116f3565b905061132e8383611976565b6000908152600a60205260409020805460ff1916600117905550505050565b6040516370a0823160e01b81526001600160a01b038281166004830152600091908416906370a0823190602401602060405180830381865afa158015611397573d6000803e3d6000fd5b505050506040513d601f19601f820116820180604052508101906113bb91906121cb565b90505b92915050565b611407816040516024016113d89190612304565b60408051601f198184030181529190526020810180516001600160e01b031663104c13eb60e21b179052611ac9565b50565b60008061144c85858080601f016020809104026020016040519081016040528093929190818152602001838380828437600092019190915250611ad292505050565b60008181526007602052604090205490915060ff16156114ae5760405162461bcd60e51b815260206004820152601f60248201527f546f6b656e204172726976616c20616c72656164792070726f6365737365640060448201526064016105e7565b601180546040805180820182529283527010938c8d4d8b521054d21513d413d25395607a1b60208401525163c68b378760e01b8152600481018490526000926001600160a01b03909216916354894f5891839063c68b378790602401600060405180830381865afa158015611527573d6000803e3d6000fd5b505050506040513d6000823e601f3d908101601f1916820160405261154f919081019061233f565b6040518363ffffffff1660e01b815260040161156c9291906123bb565b6040805180830381865afa158015611588573d6000803e3d6000fd5b505050506040513d601f19601f820116820180604052508101906115ac91906123e0565b601154604051616b3760e51b81529192506000916001600160a01b0390911690620d66e0906115e3908c908c90879060040161246b565b602060405180830381865afa158015611600573d6000803e3d6000fd5b505050506040513d601f19601f8201168201806040525081019061162491906121e4565b905060018115151461166c5760405162461bcd60e51b8152602060048201526011602482015270496e76616c6964205369676e617475726560781b60448201526064016105e7565b5090979650505050505050565b60008080808080808061168e898b018b61212e565b975097509750975097509750975097508760005403156116e7576116e78a8a8080601f016020809104026020016040519081016040528093929190818152602001838380828437600092019190915250611b2292505050565b50505050505050505050565b60008061173585858080601f016020809104026020016040519081016040528093929190818152602001838380828437600092019190915250611c8992505050565b90508215156001036117a5576000818152600a602052604090205460ff16156117a05760405162461bcd60e51b815260206004820152601f60248201527f416c7265616479206d696e74656420666f72206465706f73697420686173680060448201526064016105e7565b6114ae565b6000818152600b602052604090205460ff16156114ae5760405162461bcd60e51b815260206004820152602560248201527f416c72656164792064697362757273656420666f72207769746864726177616c604482015264040d0c2e6d60db1b60648201526084016105e7565b6000808080808080611826888a018a611ef8565b9650965096509650965096509650600054860361184c576118478989611cd3565b61196b565b6000868152600c602090815260408083206001600160a01b0389811685529252822054166118e75784868860405161188390611e85565b61188f939291906124c9565b604051809103906000f0801580156118ab573d6000803e3d6000fd5b506000888152600c602090815260408083206001600160a01b038b81168552925290912080546001600160a01b03191691831691909117905590505b506000868152600c602090815260408083206001600160a01b0389811685529252918290205491516340c10f1960e01b815289821660048201526024810185905291169081906340c10f19906044015b600060405180830381600087803b15801561195157600080fd5b505af1158015611965573d6000803e3d6000fd5b50505050505b505050505050505050565b60008080808080808061198b898b018b61258a565b9850985050975050965096509650965060006001600160a01b0316600c60008881526020019081526020016000206000876001600160a01b03166001600160a01b0316815260200190815260200160002060009054906101000a90046001600160a01b03166001600160a01b031603611a75578181858789604051611a0f90611e85565b611a1d959493929190612647565b604051809103906000f080158015611a39573d6000803e3d6000fd5b506000878152600c602090815260408083206001600160a01b038a81168552925290912080546001600160a01b03191691831691909117905597505b6000868152600c602090815260408083206001600160a01b0389811685529252918290205491516340c10f1960e01b81528982166004820152602481018690529116985088906340c10f1990604401611937565b61140781611e64565b600080600080600080600080600089806020019051810190611af49190612696565b97509750975097509750975097509750611b1488888888888888886110d6565b9a9950505050505050505050565b60008060008060008086806020019051810190611b3f9190612696565b5050506000858152600c602090815260408083206001600160a01b038089168552925290912054959a509398509196509450925016611bff57828486604051611b8790611e85565b611b93939291906124c9565b604051809103906000f080158015611baf573d6000803e3d6000fd5b506000868152600c602090815260408083206001600160a01b03898116855290835281842080546001600160a01b03191691861691821790558352600d9091529020805460ff1916600117905595505b6000858152600c602090815260408083206001600160a01b0388811685529252918290205491516340c10f1960e01b81528382166004820152602481018590529116965086906340c10f1990604401600060405180830381600087803b158015611c6857600080fd5b505af1158015611c7c573d6000803e3d6000fd5b5050505050505050505050565b60008060008060008060008088806020019051810190611ca9919061270a565b9650965096509650965096509650611cc6878787878787876108e8565b9998505050505050505050565b6000808080808080611ce7888a018a611ef8565b96509650965096509650965096508160056000876001600160a01b03166001600160a01b031681526020019081526020016000206000828254611d2a9190612774565b90915550506001600160a01b038516611d79576040516001600160a01b0388169083156108fc029084906000818181858888f19350505050158015611d73573d6000803e3d6000fd5b5061196b565b60405163095ea7b360e01b8152306004820152602481018390526001600160a01b0386169063095ea7b3906044016020604051808303816000875af1158015611dc6573d6000803e3d6000fd5b505050506040513d601f19601f82011682018060405250810190611dea91906121e4565b506040516323b872dd60e01b81523060048201526001600160a01b038881166024830152604482018490528616906323b872dd906064016020604051808303816000875af1158015611e40573d6000803e3d6000fd5b505050506040513d601f19601f820116820180604052508101906116e791906121e4565b60006a636f6e736f6c652e6c6f679050600080835160208501845afa505050565b610dce8061278883390190565b6001600160a01b038116811461140757600080fd5b600080600060608486031215611ebc57600080fd5b833592506020840135611ece81611e92565b929592945050506040919091013590565b600060208284031215611ef157600080fd5b5035919050565b600080600080600080600060e0888a031215611f1357600080fd5b8735611f1e81611e92565b9650602088013595506040880135611f3581611e92565b969995985095966060810135965060808101359560a0820135955060c0909101359350915050565b600060208284031215611f6f57600080fd5b8135611f7a81611e92565b9392505050565b60008060408385031215611f9457600080fd5b50508035926020909101359150565b60008060408385031215611fb657600080fd5b823591506020830135611fc881611e92565b809150509250929050565b634e487b7160e01b600052604160045260246000fd5b604051601f8201601f1916810167ffffffffffffffff8111828210171561201257612012611fd3565b604052919050565b60006120266040611fe9565b905080604083018481111561203a57600080fd5b835b8181101561205457803583526020928301920161203c565b50505092915050565b60006120696080611fe9565b905080608083018481111561203a57600080fd5b60008060008060e0858703121561209357600080fd5b85601f8601126120a257600080fd5b6120ac868661201a565b935085605f8601126120bd57600080fd5b6120ca866040870161205d565b925060c085013567ffffffffffffffff8111156120e657600080fd5b8501601f810187136120f757600080fd5b803567ffffffffffffffff81111561210e57600080fd5b87602082840101111561212057600080fd5b949793965060200194505050565b600080600080600080600080610100898b03121561214b57600080fd5b88359750602089013561215d81611e92565b96506040890135955060608901359450608089013561217b81611e92565b979a969950949793969560a0850135955060c08501359460e001359350915050565b600080604083850312156121b057600080fd5b82356121bb81611e92565b91506020830135611fc881611e92565b6000602082840312156121dd57600080fd5b5051919050565b6000602082840312156121f657600080fd5b81518015158114611f7a57600080fd5b634e487b7160e01b600052601160045260246000fd5b808201808211156113be576113be612206565b60006001820161224157612241612206565b5060010190565b60006020828403121561225a57600080fd5b815160ff81168114611f7a57600080fd5b60006020828403121561227d57600080fd5b8151611f7a81611e92565b602080825260129082015271496e76616c6964205075626c6963204b657960701b604082015260600190565b60005b838110156122cf5781810151838201526020016122b7565b50506000910152565b600081518084526122f08160208601602086016122b4565b601f01601f19169290920160200192915050565b6020815260006113bb60208301846122d8565b600067ffffffffffffffff82111561233157612331611fd3565b50601f01601f191660200190565b60006020828403121561235157600080fd5b815167ffffffffffffffff81111561236857600080fd5b8201601f8101841361237957600080fd5b805161238c61238782612317565b611fe9565b8181528560208385010111156123a157600080fd5b6123b28260208301602086016122b4565b95945050505050565b6040815260006123ce60408301856122d8565b82810360208401526123b281856122d8565b6000604082840312156123f257600080fd5b82601f83011261240157600080fd5b61240b6040611fe9565b80604084018581111561241d57600080fd5b845b8181101561243757805184526020938401930161241f565b509095945050505050565b8060005b6002811015612465578151845260209384019390910190600101612446565b50505050565b610100810161247a8286612442565b604082018460005b60048110156124a1578151835260209283019290910190600101612482565b5050506124b160c0830184612442565b949350505050565b80356124c481611e92565b919050565b60a0815260006124ee60a08301600581526450524f585960d81b602082015260400190565b828103602084015261251281600581526450524f585960d81b602082015260400190565b60ff96909616604084015250506001600160a01b0392909216606083015260809091015290565b600082601f83011261254a57600080fd5b813561255861238782612317565b81815284602083860101111561256d57600080fd5b816020850160208301376000918101602001919091529392505050565b60008060008060008060008060006101208a8c0312156125a957600080fd5b89356125b481611e92565b985060208a013597506125c960408b016124b9565b965060608a0135955060808a0135945060a08a0135935060c08a0135925060e08a013567ffffffffffffffff81111561260157600080fd5b61260d8c828d01612539565b9250506101008a013567ffffffffffffffff81111561262b57600080fd5b6126378c828d01612539565b9150509295985092959850929598565b60a08152600061265a60a08301886122d8565b828103602084015261266c81886122d8565b60ff96909616604084015250506001600160a01b0392909216606083015260809091015292915050565b600080600080600080600080610100898b0312156126b357600080fd5b885160208a01519098506126c681611e92565b60408a015160608b015160808c015192995090975095506126e681611e92565b60a08a015160c08b015160e0909b0151999c989b5096999598909790945092505050565b600080600080600080600060e0888a03121561272557600080fd5b875161273081611e92565b602089015160408a0151919850965061274881611e92565b606089015160808a015160a08b015160c0909b0151999c989b5091999098919790965090945092505050565b818103818111156113be576113be61220656fe608060405234801561001057600080fd5b50604051610dce380380610dce83398101604081905261002f91610150565b8484600361003d8382610286565b50600461004a8282610286565b50506008805460ff90951660ff1990951694909417909355600580546001600160a01b039093166001600160a01b0319938416179055600755600680549091163317905550610344915050565b634e487b7160e01b600052604160045260246000fd5b600082601f8301126100be57600080fd5b81516001600160401b038111156100d7576100d7610097565b604051601f8201601f19908116603f011681016001600160401b038111828210171561010557610105610097565b60405281815283820160200185101561011d57600080fd5b60005b8281101561013c57602081860181015183830182015201610120565b506000918101602001919091529392505050565b600080600080600060a0868803121561016857600080fd5b85516001600160401b0381111561017e57600080fd5b61018a888289016100ad565b602088015190965090506001600160401b038111156101a857600080fd5b6101b4888289016100ad565b945050604086015160ff811681146101cb57600080fd5b60608701519093506001600160a01b03811681146101e857600080fd5b60809690960151949793965091949392915050565b600181811c9082168061021157607f821691505b60208210810361023157634e487b7160e01b600052602260045260246000fd5b50919050565b601f82111561028157806000526020600020601f840160051c8101602085101561025e5750805b601f840160051c820191505b8181101561027e576000815560010161026a565b50505b505050565b81516001600160401b0381111561029f5761029f610097565b6102b3816102ad84546101fd565b84610237565b6020601f8211600181146102e757600083156102cf5750848201515b600019600385901b1c1916600184901b17845561027e565b600084815260208120601f198516915b8281101561031757878501518255602094850194600190920191016102f7565b50848210156103355786840151600019600387901b60f8161c191681555b50505050600190811b01905550565b610a7b806103536000396000f3fe608060405234801561001057600080fd5b50600436106100f55760003560e01c806340c10f191161009757806395d89b411161006657806395d89b41146102125780639dc29fac1461021a578063a9059cbb1461022d578063dd62ed3e1461024057600080fd5b806340c10f191461019657806370a08231146101ab578063860d4288146101d45780638da5cb5b146101ff57600080fd5b806323b872dd116100d357806323b872dd1461014d5780632c4701d414610160578063313ce56714610169578063370158ea1461017e57600080fd5b806306fdde03146100fa578063095ea7b31461011857806318160ddd1461013b575b600080fd5b610102610279565b60405161010f91906108b0565b60405180910390f35b61012b6101263660046108df565b61030b565b604051901515815260200161010f565b6002545b60405190815260200161010f565b61012b61015b366004610909565b610325565b61013f60075481565b60085460405160ff909116815260200161010f565b6101866103e5565b60405161010f9493929190610946565b6101a96101a43660046108df565b610417565b005b61013f6101b9366004610981565b6001600160a01b031660009081526020819052604090205490565b6005546101e7906001600160a01b031681565b6040516001600160a01b03909116815260200161010f565b6006546101e7906001600160a01b031681565b61010261046e565b6101a96102283660046108df565b61047d565b61012b61023b3660046108df565b6104d0565b61013f61024e36600461099c565b6001600160a01b03918216600090815260016020908152604080832093909416825291909152205490565b606060038054610288906109cf565b80601f01602080910402602001604051908101604052809291908181526020018280546102b4906109cf565b80156103015780601f106102d657610100808354040283529160200191610301565b820191906000526020600020905b8154815290600101906020018083116102e457829003601f168201915b5050505050905090565b6000336103198185856104ff565b60019150505b92915050565b600061ffff836001600160a01b0316111561034c57610345848484610511565b90506103de565b81610357853361024e565b10156103bb5760405162461bcd60e51b815260206004820152602860248201527f45524332303a207472616e7366657220616d6f756e74206578636565647320616044820152676c6c6f77616e636560c01b60648201526084015b60405180910390fd5b6103da8433846103cb883361024e565b6103d59190610a1f565b6104ff565b5060015b9392505050565b606060008060006103f461046e565b60085460ff1660055460075492979196506001600160a01b031694509092509050565b6006546001600160a01b031633146104605760405162461bcd60e51b815260206004820152600c60248201526b3737ba1030b71037bbb732b960a11b60448201526064016103b2565b61046a8282610535565b5050565b606060048054610288906109cf565b6006546001600160a01b031633146104c65760405162461bcd60e51b815260206004820152600c60248201526b3737ba1030b71037bbb732b960a11b60448201526064016103b2565b61046a828261056b565b600061ffff836001600160a01b031611156104f6576104ef83836105a1565b905061031f565b50600192915050565b61050c83838360016105af565b505050565b60003361051f858285610685565b61052a8585856106e5565b506001949350505050565b6001600160a01b03821661055f5760405163ec442f0560e01b8152600060048201526024016103b2565b61046a60008383610740565b6001600160a01b03821661059557604051634b637e8f60e11b8152600060048201526024016103b2565b61046a82600083610740565b6000336103198185856106e5565b6001600160a01b0384166105d95760405163e602df0560e01b8152600060048201526024016103b2565b6001600160a01b03831661060357604051634a1406b160e11b8152600060048201526024016103b2565b6001600160a01b038085166000908152600160209081526040808320938716835292905220829055801561067f57826001600160a01b0316846001600160a01b03167f8c5be1e5ebec7d5bd14f71427d1e84f3dd0314c0f7b2291e5b200ac8c7c3b9258460405161067691815260200190565b60405180910390a35b50505050565b6000610691848461024e565b9050600019811461067f57818110156106d657604051637dc7a0d960e11b81526001600160a01b038416600482015260248101829052604481018390526064016103b2565b61067f848484840360006105af565b6001600160a01b03831661070f57604051634b637e8f60e11b8152600060048201526024016103b2565b6001600160a01b0382166107395760405163ec442f0560e01b8152600060048201526024016103b2565b61050c8383835b6001600160a01b03831661076b5780600260008282546107609190610a32565b909155506107dd9050565b6001600160a01b038316600090815260208190526040902054818110156107be5760405163391434e360e21b81526001600160a01b038516600482015260248101829052604481018390526064016103b2565b6001600160a01b03841660009081526020819052604090209082900390555b6001600160a01b0382166107f957600280548290039055610818565b6001600160a01b03821660009081526020819052604090208054820190555b816001600160a01b0316836001600160a01b03167fddf252ad1be2c89b69c2b068fc378daa952ba7f163c4a11628f55a4df523b3ef8360405161085d91815260200190565b60405180910390a3505050565b6000815180845260005b8181101561089057602081850181015186830182015201610874565b506000602082860101526020601f19601f83011685010191505092915050565b6020815260006103de602083018461086a565b80356001600160a01b03811681146108da57600080fd5b919050565b600080604083850312156108f257600080fd5b6108fb836108c3565b946020939093013593505050565b60008060006060848603121561091e57600080fd5b610927846108c3565b9250610935602085016108c3565b929592945050506040919091013590565b608081526000610959608083018761086a565b60ff959095166020830152506001600160a01b03929092166040830152606090910152919050565b60006020828403121561099357600080fd5b6103de826108c3565b600080604083850312156109af57600080fd5b6109b8836108c3565b91506109c6602084016108c3565b90509250929050565b600181811c908216806109e357607f821691505b602082108103610a0357634e487b7160e01b600052602260045260246000fd5b50919050565b634e487b7160e01b600052601160045260246000fd5b8181038181111561031f5761031f610a09565b8082018082111561031f5761031f610a0956fea26469706673582212204ea09a07fa11004fd79f4280f06ea54938bd78d1bb6c1e14384a59051f661a1764736f6c634300081a0033a26469706673582212200b1ad33c5c76f8c552dceb141c9a852338102da576e35431fd2b1a80dc28f65964736f6c634300081a00336080604052348015600f57600080fd5b506121418061001f6000396000f3fe608060405234801561001057600080fd5b506004361061004b5760003560e01c80620d66e014610050578063145dad8b1461007857806354894f581461008b578063c68b3787146100ab575b600080fd5b61006361005e366004611dec565b6100cb565b60405190151581526020015b60405180910390f35b610063610086366004611eed565b6102d0565b61009e610099366004611eed565b610304565b60405161006f9190611f56565b6100be6100b9366004611f87565b6103b4565b60405161006f9190611ff0565b600080604051806101800160405280866000600281106100ed576100ed61200a565b602002015181526020018660016002811061010a5761010a61200a565b602002015181526020017f198e9393920d483a7260bfb731fb5d25f1aa493335a9e71297e485b7aef312c281526020017f1800deef121f1e76426a00665e5c4479674322d4f75edadd46debd5cd992f6ed81526020017f275dc4a288d1afb3cbb1ac09187524c7db36395df7be3b99e673b13a075a65ec81526020017f1d9befcd05a5323e6da4d435f3b617cdb3af83285c2df711ef39c01571827f9d8152602001846000600281106101bf576101bf61200a565b60200201518152602001846001600281106101dc576101dc61200a565b60200201518152602001856001600481106101f9576101f961200a565b60200201518152602001856000600481106102165761021661200a565b60200201518152602001856003600481106102335761023361200a565b60200201518152602001856002600481106102505761025061200a565b602002015190529050610261611cf5565b60006020826101808560086107d05a03fa9050808061027c57fe5b50806102c35760405162461bcd60e51b8152602060048201526011602482015270696e76616c6964207369676e617475726560781b60448201526064015b60405180910390fd5b5051151595945050505050565b60006102fa60405180604001604052806005815260200164257320257360d81b8152508484610569565b5060015b92915050565b61030c611d13565b600061031884846105b5565b9050600061032c82825b6020020151610670565b9050600061033b836001610322565b9050610345611d31565b825181526020808401518282015282516040808401919091529083015160608301526000908460808460066107d05a03fa9050808061038057fe5b50806103a85760405162461bcd60e51b815260206004820152600060248201526044016102ba565b50919695505050505050565b604080516042808252608082019092526060916000919060208201818036833701905050905060006040518060400160405280601081526020016f181899199a1a9b1b9c1cb0b131b232b360811b8152509050600360fc1b8260008151811061041f5761041f61200a565b60200101906001600160f81b031916908160001a905350600f60fb1b8260018151811061044e5761044e61200a565b60200101906001600160f81b031916908160001a90535060005b60208110156105605760008582602081106104855761048561200a565b845191901a91508390600483901c60ff169081106104a5576104a561200a565b01602001516001600160f81b031916846104c0846002612036565b6104cb90600261204d565b815181106104db576104db61200a565b60200101906001600160f81b031916908160001a9053508281600f1660ff168151811061050a5761050a61200a565b01602001516001600160f81b03191684610525846002612036565b61053090600361204d565b815181106105405761054061200a565b60200101906001600160f81b031916908160001a90535050600101610468565b50909392505050565b6105b083838360405160240161058193929190612060565b60408051601f198184030181529190526020810180516001600160e01b0316632ced7cef60e01b179052610a3b565b505050565b6105bd611d13565b60006105c98484610a47565b9050600080600080601885016001600160c01b0381511693506030860190506001600160c01b0381511694506000805160206120ec833981519152856000805160206120ec833981519152600160c01b870908604887015160608801516001600160c01b03908116975016945092506000805160206120ec83398151915290508481600160c01b860908604080518082019091529283526020830152509695505050505050565b610678611d13565b6000805160206120ec83398151915282106106e15760405162461bcd60e51b815260206004820152602360248201527f6d6170546f506f696e7446543a20696e76616c6964206669656c6420656c656d604482015262195b9d60ea1b60648201526084016102ba565b8160006106ed82610d53565b905060006000805160206120ec83398151915283840990506000805160206120ec83398151915260048208905060006000805160206120ec83398151915277b3c4d79d41a91759a9e4c7e359b6b89eaec68e62effffffd8509905060006000805160206120ec833981519152838309905061076781610e24565b90506000805160206120ec83398151915282830991506000805160206120ec83398151915281830991506000805160206120ec83398151915282860991506000805160206120ec8339815191526107cc836000805160206120ec8339815191526120a3565b7759e26bcea0d48bacd4f263f1acdb5c4f5763473177fffffe0894506000805160206120ec83398151915285860991506000805160206120ec83398151915285830991506000805160206120ec833981519152600383089150600061083083610e2f565b9093509050801561087957841561085c57610859836000805160206120ec8339815191526120a3565b92505b505060408051808201909152938452602084015250909392505050565b6000805160206120ec833981519152600187086108a4906000805160206120ec8339815191526120a3565b95506000805160206120ec83398151915286870992506000805160206120ec83398151915286840992506000805160206120ec8339815191526003840892506108ec83610e2f565b9093509050801561091557841561085c57610859836000805160206120ec8339815191526120a3565b6000805160206120ec83398151915284850995506000805160206120ec83398151915286870995506000805160206120ec83398151915282870995506000805160206120ec83398151915282870995506000805160206120ec8339815191526001870895506000805160206120ec83398151915286870992506000805160206120ec83398151915286840992506000805160206120ec8339815191526003840892506109c083610e2f565b909350905080610a1d5760405162461bcd60e51b815260206004820152602260248201527f424c533a20626164206674206d617070696e6720696d706c656d656e7461746960448201526137b760f11b60648201526084016102ba565b841561085c57610859836000805160206120ec8339815191526120a3565b610a4481610e58565b50565b81516060906101008110610a9d5760405162461bcd60e51b815260206004820152601a60248201527f424c533a20696e76616c696420646f6d61696e206c656e67746800000000000060448201526064016102ba565b82516000610aab828461204d565b610ab690604061204d565b610ac190600461204d565b67ffffffffffffffff811115610ad957610ad9611d4f565b6040519080825280601f01601f191660200182016040528015610b03576020820181803683370190505b5060408051606080825260808201909252919250600091906020820181803683370190505090506060820160005b84811015610b4b5760208189018101518383015201610b31565b508301600081536001016060815360010160008153600181019050602088015181528481019050848153506000600283604051610b8891906120b6565b602060405180830381855afa158015610ba5573d6000803e3d6000fd5b5050506040513d601f19601f82011682018060405250810190610bc891906120d2565b90506000610bd786602261204d565b945084845281602085015260016040850153602089015160418501528560418701850153600284604051610c0b91906120b6565b602060405180830381855afa158015610c28573d6000803e3d6000fd5b5050506040513d601f19601f82011682018060405250810190610c4b91906120d2565b90508060208401528082188060208601525060026040850153602089015160418501528560418701850153600284604051610c8691906120b6565b602060405180830381855afa158015610ca3573d6000803e3d6000fd5b5050506040513d601f19601f82011682018060405250810190610cc691906120d2565b90508060408401528082188060208601525060036040850153602089015160418501528560418701850153600284604051610d0191906120b6565b602060405180830381855afa158015610d1e573d6000803e3d6000fd5b5050506040513d601f19601f82011682018060405250810190610d4191906120d2565b60608401525090979650505050505050565b60008060405160208152602080820152602060408201528360608201527f183227397098d014dc2822db40c0ac2ecbc0b548b438e5469e10460b6c3e7ea360808201526000805160206120ec83398151915260a082015260208160c08360056107d05a03fa90516001149250905080610e1d5760405162461bcd60e51b815260206004820152602660248201527f424c533a2069734e6f6e526573696475654650206d6f646578702063616c6c2060448201526519985a5b195960d21b60648201526084016102ba565b5015919050565b60006102fe82610e79565b600080610e3b836115c0565b9150826000805160206120ec833981519152838409149050915091565b60006a636f6e736f6c652e6c6f679050600080835160208501845afa505050565b60006000805160206120ec8339815191528083840991508083830981838209828283098385830984848309858484098684850997508684840987858409945087898a09985087898a09985087898a09985087898a09985087898a09985087878a09985087898a09985087898a09985087898a099850878a8a09985087898a09985087898a09985087898a09985087898a099850878a8a09985087898a09985087898a09985087898a09985087898a09985087898a09985087848a09985087898a09985087898a09985087898a09985087898a09985087898a09985087848a09985087898a09985087898a09985087898a099850878a8a09985087898a09985087898a09985087898a09985087898a09985087848a09985087898a09985087898a09985087898a09985087898a09985087898a099850878a8a09985087898a09985087898a09985087898a09985087898a09985087878a09985087898a09985087898a09985087898a09985087898a09985087898a09985087898a09985087898a09985087818a09985087898a09985087898a09985087898a09985087898a09985087898a09985087898a09985087898a09985087898a09985087898a09985087898a09985087868a09985087898a09985087898a09985087898a09985087898a09985087878a09985087898a09985087898a09985087898a09985087898a09985087848a09985087898a09985087898a09985087898a09985087898a09985087898a09985087898a09985087898a09985087868a09985087898a09985087898a09985087898a09985087898a09985087898a09985087898a099850878a8a09985087898a09985087898a09985087898a09985087898a09985087898a09985087898a09985087898a09985087828a09985087898a09985087898a09985087898a09985087898a09985087898a09985087818a09985087898a09985087898a09985087898a09985087868a09985087898a09985087898a09985087898a09985087898a09985087898a09985087898a09985087898a09985087898a09985087878a09985087898a09985087898a09985087898a09985087898a09985087898a09985087898a09985087898a09985087898a09985087898a09985087868a09985087898a09985087898a09985087898a09985087878a09985087898a09985087898a09985087898a09985087898a09985087898a09985087898a09985087898a09985087898a09985087828a09985087898a09985087898a09985087898a09985087898a09985087828a09985087898a09985087898a09985087898a09985087898a09985087898a09985087868a09985087898a09985087898a09985087898a09985087848a09985087898a09985087898a09985087898a09985087898a09985087898a09985087898a09985087898a09985087898a09985087898a09985087898a09985087828a09985087898a09985087898a09985087898a09985087898a09985087868a09985087898a09985087898a09985087898a09985087898a09985087898a09985087838a09985087898a09985087898a09985087898a09985087898a09985087898a09985087898a09985087898a09985087828a09985087898a09985087898a099850878a8a09985087898a09985087898a09985087898a09985087898a09985087898a09985087898a09985087898a09985087848a09985087898a09985087898a09985087898a09985087898a09985087898a09985087898a09985087848a09985087898a09985087898a09985087898a09985087898a09985087898a09985087868a09985087898a09985087898a099850878a8a09985087898a09985087898a09985087898a09985087898a09985087898a09985087898a09985087898a09985087818a09985050868889099750868889099750868889099750868889099750868889099750868889099750868489099750868889099750868889099750868889099750868889099750868889099750868989099750868889099750868889099750868889099750868889099750868889099750868889099750868989099750868889099750868889099750868889099750868889099750868889099750868689099750868889099750868889099750868889099750868889099750868889099750868889099750868889099750868889099750868889099750868189099750508587880996508587880996508587880996508585880996508587880996508587880996508587880996508585880996508587880996508587880996508587880996508587880996508587880996508587880996508587880996508587880996508583880996508587880996508587880996508587880996508587880996508581880996505050838586099450838586099450838586099450838586099450838186099450508284850993508284850993508284850993508281850993508284850993508284850993508285850993508284850993508284850993508284850993508284850993508284850993508284850993508281850995945050505050565b60006000805160206120ec8339815191528083840991508083830981838209828283098385830984848309858484098684850997508684840987858409945087898a09985087898a09985087898a09985087898a09985087898a09985087878a09985087898a09985087898a09985087898a099850878a8a09985087898a09985087898a09985087898a09985087898a099850878a8a09985087898a09985087898a09985087898a09985087898a09985087898a09985087848a09985087898a09985087898a09985087898a09985087898a09985087898a09985087848a09985087898a09985087898a09985087898a099850878a8a09985087898a09985087898a09985087898a09985087898a09985087848a09985087898a09985087898a09985087898a09985087898a09985087898a099850878a8a09985087898a09985087898a09985087898a09985087898a09985087878a09985087898a09985087898a09985087898a09985087898a09985087898a09985087898a09985087898a09985087818a09985087898a09985087898a09985087898a09985087898a09985087898a09985087898a09985087898a09985087898a09985087898a09985087898a09985087868a09985087898a09985087898a09985087898a09985087898a09985087878a09985087898a09985087898a09985087898a09985087898a09985087848a09985087898a09985087898a09985087898a09985087898a09985087898a09985087898a09985087898a09985087868a09985087898a09985087898a09985087898a09985087898a09985087898a09985087898a099850878a8a09985087898a09985087898a09985087898a09985087898a09985087898a09985087898a09985087898a09985087828a09985087898a09985087898a09985087898a09985087898a09985087898a09985087818a09985087898a09985087898a09985087898a09985087868a09985087898a09985087898a09985087898a09985087898a09985087898a09985087898a09985087898a09985087898a09985087878a09985087898a09985087898a09985087898a09985087898a09985087898a09985087898a09985087898a09985087898a09985087898a09985087868a09985087898a09985087898a09985087898a09985087878a09985087898a09985087898a09985087898a09985087898a09985087898a09985087898a09985087898a09985087898a09985087828a09985087898a09985087898a09985087898a09985087898a09985087828a09985087898a09985087898a09985087898a09985087898a09985087898a09985087868a09985087898a09985087898a09985087898a09985087848a09985087898a09985087898a09985087898a09985087898a09985087898a09985087898a09985087898a09985087898a09985087898a09985087898a09985087828a09985087898a09985087898a09985087898a09985087898a09985087868a09985087898a09985087898a09985087898a09985087898a09985087898a09985087838a09985087898a09985087898a09985087898a09985087898a09985087898a09985087898a09985087898a09985087828a09985087898a09985087898a099850878a8a09985087898a09985087898a09985087898a09985087898a09985087898a09985087898a09985087898a09985087848a09985087898a09985087898a09985087898a09985087898a09985087898a09985087898a09985087848a09985087898a09985087898a09985087898a09985087898a09985087898a09985087868a09985087898a09985087898a099850878a8a09985087898a09985087898a09985087898a09985087898a09985087898a09985087898a09985087898a09985087818a09985050868889099750868889099750868889099750868889099750868889099750868889099750868489099750868889099750868889099750868889099750868889099750868889099750868989099750868889099750868889099750868889099750868889099750868889099750868889099750868989099750868889099750868889099750868889099750868889099750868889099750868689099750868889099750868889099750868889099750868889099750868889099750868889099750868889099750868889099750868889099750868189099750508587880996508587880996508587880996508585880996508587880996508587880996508587880996508585880996508587880996508587880996508587880996508587880996508587880996508587880996508587880996508587880996508583880996508587880996508587880996508587880996508587880996508581880996508587880996508587880996508587880996508587880996508583880996508587880996508587880996508587880996508584880996508587880996508587880996508587880996508587880996508587880996508581880996505050505050808283099392505050565b60405180602001604052806001906020820280368337509192915050565b60405180604001604052806002906020820280368337509192915050565b60405180608001604052806004906020820280368337509192915050565b634e487b7160e01b600052604160045260246000fd5b604051601f8201601f1916810167ffffffffffffffff81118282101715611d8e57611d8e611d4f565b604052919050565b600082601f830112611da757600080fd5b6000611db36040611d65565b9050806040840185811115611dc757600080fd5b845b81811015611de1578035835260209283019201611dc9565b509195945050505050565b60008060006101008486031215611e0257600080fd5b611e0c8585611d96565b9250600085605f860112611e1e578081fd5b80611e296080611d65565b905080915060c0860187811115611e3f57600080fd5b604087015b81811015611e5c578035845260209384019301611e44565b50819450611e6a8882611d96565b93505050509250925092565b600082601f830112611e8757600080fd5b81356020830160008067ffffffffffffffff841115611ea857611ea8611d4f565b50601f8301601f1916602001611ebd81611d65565b915050828152858383011115611ed257600080fd5b82826020830137600092810160200192909252509392505050565b60008060408385031215611f0057600080fd5b823567ffffffffffffffff811115611f1757600080fd5b611f2385828601611e76565b925050602083013567ffffffffffffffff811115611f4057600080fd5b611f4c85828601611e76565b9150509250929050565b60408101818360005b6002811015611f7e578151835260209283019290910190600101611f5f565b50505092915050565b600060208284031215611f9957600080fd5b5035919050565b60005b83811015611fbb578181015183820152602001611fa3565b50506000910152565b60008151808452611fdc816020860160208601611fa0565b601f01601f19169290920160200192915050565b6020815260006120036020830184611fc4565b9392505050565b634e487b7160e01b600052603260045260246000fd5b634e487b7160e01b600052601160045260246000fd5b80820281158282048414176102fe576102fe612020565b808201808211156102fe576102fe612020565b6060815260006120736060830186611fc4565b82810360208401526120858186611fc4565b905082810360408401526120998185611fc4565b9695505050505050565b818103818111156102fe576102fe612020565b600082516120c8818460208701611fa0565b9190910192915050565b6000602082840312156120e457600080fd5b505191905056fe30644e72e131a029b85045b68181585d97816a916871ca8d3c208c16d87cfd47a2646970667358221220304135c11cb87fce46b53f87bbc5487f70d7bb5edfabf3fcf223cf34689d785864736f6c634300081a0033",
  "linkReferences": {},
  "deployedLinkReferences": {}
}