{
  "_format": "hh-sol-artifact-1",
  "contractName": "Vault",
  "sourceName": "contracts/Vault.sol",
  "abi": [
    {
      "inputs": [
        {
          "internalType": "uint256",
          "name": "chainId_",
          "type": "uint256"
        },
        {
          "internalType": "uint256[4]",
          "name": "publicKey_",
          "type": "uint256[4]"
        }
      ],
      "stateMutability": "nonpayable",
      "type": "constructor"
    },
    {
      "anonymous": false,
      "inputs": [
        {
          "indexed": true,
          "internalType": "address",
          "name": "vaultUser",
          "type": "address"
        },
        {
          "indexed": false,
          "internalType": "uint256",
          "name": "originatingChain",
          "type": "uint256"
        },
        {
          "indexed": true,
          "internalType": "address",
          "name": "originatingToken",
          "type": "address"
        },
        {
          "indexed": false,
          "internalType": "uint256",
          "name": "decimals",
          "type": "uint256"
        },
        {
          "indexed": false,
          "internalType": "uint256",
          "name": "toChainId",
          "type": "uint256"
        },
        {
          "indexed": false,
          "internalType": "uint256",
          "name": "amount",
          "type": "uint256"
        },
        {
          "indexed": false,
          "internalType": "uint256",
          "name": "depositCounter",
          "type": "uint256"
        }
      ],
      "name": "Deposited",
      "type": "event"
    },
    {
      "anonymous": false,
      "inputs": [
        {
          "indexed": false,
          "internalType": "uint256",
          "name": "amount",
          "type": "uint256"
        }
      ],
      "name": "Disbursed",
      "type": "event"
    },
    {
      "anonymous": false,
      "inputs": [
        {
          "indexed": false,
          "internalType": "uint256",
          "name": "amount",
          "type": "uint256"
        }
      ],
      "name": "Minted",
      "type": "event"
    },
    {
      "anonymous": false,
      "inputs": [
        {
          "indexed": true,
          "internalType": "address",
          "name": "vaultUser",
          "type": "address"
        },
        {
          "indexed": false,
          "internalType": "uint256",
          "name": "originatingChain",
          "type": "uint256"
        },
        {
          "indexed": true,
          "internalType": "address",
          "name": "originatingToken",
          "type": "address"
        },
        {
          "indexed": false,
          "internalType": "uint256",
          "name": "decimals",
          "type": "uint256"
        },
        {
          "indexed": false,
          "internalType": "uint256",
          "name": "toChainId",
          "type": "uint256"
        },
        {
          "indexed": false,
          "internalType": "uint256",
          "name": "amount",
          "type": "uint256"
        },
        {
          "indexed": false,
          "internalType": "uint256",
          "name": "withdrawCounter",
          "type": "uint256"
        }
      ],
      "name": "Withdrawn",
      "type": "event"
    },
    {
      "inputs": [],
      "name": "ETH",
      "outputs": [
        {
          "internalType": "address",
          "name": "",
          "type": "address"
        }
      ],
      "stateMutability": "view",
      "type": "function"
    },
    {
      "inputs": [
        {
          "internalType": "address",
          "name": "proxyToken",
          "type": "address"
        },
        {
          "internalType": "address",
          "name": "vaultUser",
          "type": "address"
        }
      ],
      "name": "balanceOf",
      "outputs": [
        {
          "internalType": "uint256",
          "name": "",
          "type": "uint256"
        }
      ],
      "stateMutability": "view",
      "type": "function"
    },
    {
      "inputs": [],
      "name": "chainId",
      "outputs": [
        {
          "internalType": "uint256",
          "name": "",
          "type": "uint256"
        }
      ],
      "stateMutability": "view",
      "type": "function"
    },
    {
      "inputs": [],
      "name": "depositCounter",
      "outputs": [
        {
          "internalType": "uint256",
          "name": "",
          "type": "uint256"
        }
      ],
      "stateMutability": "view",
      "type": "function"
    },
    {
      "inputs": [
        {
          "internalType": "uint256",
          "name": "toChainId",
          "type": "uint256"
        }
      ],
      "name": "depositEth",
      "outputs": [],
      "stateMutability": "payable",
      "type": "function"
    },
    {
      "inputs": [
        {
          "internalType": "uint256",
          "name": "toChainId",
          "type": "uint256"
        },
        {
          "internalType": "address",
          "name": "tokenAddress",
          "type": "address"
        },
        {
          "internalType": "uint256",
          "name": "tokenAmount",
          "type": "uint256"
        }
      ],
      "name": "depositToken",
      "outputs": [],
      "stateMutability": "nonpayable",
      "type": "function"
    },
    {
      "inputs": [
        {
          "internalType": "bytes32",
          "name": "",
          "type": "bytes32"
        }
      ],
      "name": "deposits",
      "outputs": [
        {
          "internalType": "bool",
          "name": "",
          "type": "bool"
        }
      ],
      "stateMutability": "view",
      "type": "function"
    },
    {
      "inputs": [
        {
          "internalType": "uint256[2]",
          "name": "signature",
          "type": "uint256[2]"
        },
        {
          "internalType": "uint256[4]",
          "name": "signerKey",
          "type": "uint256[4]"
        },
        {
          "internalType": "bytes",
          "name": "withdrawPayload",
          "type": "bytes"
        }
      ],
      "name": "disburse",
      "outputs": [],
      "stateMutability": "nonpayable",
      "type": "function"
    },
    {
      "inputs": [
        {
          "internalType": "bytes32",
          "name": "",
          "type": "bytes32"
        }
      ],
      "name": "disbursed",
      "outputs": [
        {
          "internalType": "bool",
          "name": "",
          "type": "bool"
        }
      ],
      "stateMutability": "view",
      "type": "function"
    },
    {
      "inputs": [
        {
          "internalType": "address",
          "name": "vaultUser",
          "type": "address"
        },
        {
          "internalType": "uint256",
          "name": "originatingChain",
          "type": "uint256"
        },
        {
          "internalType": "address",
          "name": "originatingToken",
          "type": "address"
        },
        {
          "internalType": "uint256",
          "name": "decimals",
          "type": "uint256"
        },
        {
          "internalType": "uint256",
          "name": "toChainId",
          "type": "uint256"
        },
        {
          "internalType": "uint256",
          "name": "amount",
          "type": "uint256"
        },
        {
          "internalType": "uint256",
          "name": "counter",
          "type": "uint256"
        }
      ],
      "name": "hashOf",
      "outputs": [
        {
          "internalType": "bytes32",
          "name": "",
          "type": "bytes32"
        }
      ],
      "stateMutability": "pure",
      "type": "function"
    },
    {
      "inputs": [
        {
          "internalType": "uint256[2]",
          "name": "signature",
          "type": "uint256[2]"
        },
        {
          "internalType": "uint256[4]",
          "name": "signerKey",
          "type": "uint256[4]"
        },
        {
          "internalType": "bytes",
          "name": "depositPayload",
          "type": "bytes"
        }
      ],
      "name": "mint",
      "outputs": [],
      "stateMutability": "nonpayable",
      "type": "function"
    },
    {
      "inputs": [
        {
          "internalType": "bytes32",
          "name": "",
          "type": "bytes32"
        }
      ],
      "name": "minted",
      "outputs": [
        {
          "internalType": "bool",
          "name": "",
          "type": "bool"
        }
      ],
      "stateMutability": "view",
      "type": "function"
    },
    {
      "inputs": [
        {
          "internalType": "address",
          "name": "",
          "type": "address"
        }
      ],
      "name": "pool",
      "outputs": [
        {
          "internalType": "uint256",
          "name": "",
          "type": "uint256"
        }
      ],
      "stateMutability": "view",
      "type": "function"
    },
    {
      "inputs": [
        {
          "internalType": "uint256",
          "name": "",
          "type": "uint256"
        },
        {
          "internalType": "address",
          "name": "",
          "type": "address"
        }
      ],
      "name": "proxyTokenMap",
      "outputs": [
        {
          "internalType": "address",
          "name": "",
          "type": "address"
        }
      ],
      "stateMutability": "view",
      "type": "function"
    },
    {
      "inputs": [
        {
          "internalType": "uint256",
          "name": "",
          "type": "uint256"
        }
      ],
      "name": "publicKey",
      "outputs": [
        {
          "internalType": "uint256",
          "name": "",
          "type": "uint256"
        }
      ],
      "stateMutability": "view",
      "type": "function"
    },
    {
      "inputs": [],
      "name": "withdrawCounter",
      "outputs": [
        {
          "internalType": "uint256",
          "name": "",
          "type": "uint256"
        }
      ],
      "stateMutability": "view",
      "type": "function"
    },
    {
      "inputs": [
        {
          "internalType": "uint256",
          "name": "toChainId",
          "type": "uint256"
        },
        {
          "internalType": "uint256",
          "name": "amount",
          "type": "uint256"
        }
      ],
      "name": "withdrawEth",
      "outputs": [],
      "stateMutability": "payable",
      "type": "function"
    },
    {
      "inputs": [
        {
          "internalType": "uint256",
          "name": "toChainId",
          "type": "uint256"
        },
        {
          "internalType": "address",
          "name": "tokenAddress",
          "type": "address"
        },
        {
          "internalType": "uint256",
          "name": "amount",
          "type": "uint256"
        }
      ],
      "name": "withdrawToken",
      "outputs": [],
      "stateMutability": "payable",
      "type": "function"
    },
    {
      "inputs": [
        {
          "internalType": "bytes32",
          "name": "",
          "type": "bytes32"
        }
      ],
      "name": "withdrawals",
      "outputs": [
        {
          "internalType": "bool",
          "name": "",
          "type": "bool"
        }
      ],
      "stateMutability": "view",
      "type": "function"
    }
  ],
  "bytecode": "0x60806040526000600b556000600c5534801561001a57600080fd5b506040516150bc3803806150bc83398101604081905261003991610113565b600082905561004b600182600461009d565b50604051610058906100db565b604051809103906000f080158015610074573d6000803e3d6000fd5b50600d80546001600160a01b0319166001600160a01b03929092169190911790555061019b9050565b82600481019282156100cb579160200282015b828111156100cb5782518255916020019190600101906100b0565b506100d79291506100e8565b5090565b61216080612f5c83390190565b5b808211156100d757600081556001016100e9565b634e487b7160e01b600052604160045260246000fd5b60008060a0838503121561012657600080fd5b82519150603f8301841361013957600080fd5b604051608081016001600160401b038111828210171561015b5761015b6100fd565b6040528060a085018681111561017057600080fd5b602086015b8181101561018d578051835260209283019201610175565b505050809150509250929050565b612db2806101aa6000396000f3fe6080604052600436106101145760003560e01c80639a8a0592116100a0578063df25144911610064578063df2514491461031e578063e07febdc1461034e578063ecb3dc881461036e578063efbf64a714610384578063f7888aec146103b457600080fd5b80639a8a05921461027e5780639c99e2b914610294578063b8f3e1b7146102a7578063be5f1f9a146102e8578063ca16e3eb1461030857600080fd5b80633d4dff7b116100e75780633d4dff7b146101ae57806368a6773b146101ee5780638322fff2146102015780638940aebe1461022e5780638ccc5f801461024e57600080fd5b80630a9306d7146101195780630f4d14e91461013b578063136518db1461014e578063156522a814610181575b600080fd5b34801561012557600080fd5b506101396101343660046117f0565b6103d4565b005b610139610149366004611828565b6106a0565b34801561015a57600080fd5b5061016e610169366004611841565b610782565b6040519081526020015b60405180910390f35b34801561018d57600080fd5b5061016e61019c3660046118a6565b60056020526000908152604090205481565b3480156101ba57600080fd5b506101de6101c9366004611828565b60066020526000908152604090205460ff1681565b6040519015158152602001610178565b6101396101fc3660046117f0565b6107f4565b34801561020d57600080fd5b50610216600081565b6040516001600160a01b039091168152602001610178565b34801561023a57600080fd5b5061016e610249366004611828565b610ba2565b34801561025a57600080fd5b506101de610269366004611828565b60086020526000908152604090205460ff1681565b34801561028a57600080fd5b5061016e60005481565b6101396102a23660046118ca565b610bb9565b3480156102b357600080fd5b506102166102c23660046118ec565b600a6020908152600092835260408084209091529082529020546001600160a01b031681565b3480156102f457600080fd5b506101396103033660046119c6565b610e63565b34801561031457600080fd5b5061016e600c5481565b34801561032a57600080fd5b506101de610339366004611828565b60096020526000908152604090205460ff1681565b34801561035a57600080fd5b506101396103693660046119c6565b610f18565b34801561037a57600080fd5b5061016e600b5481565b34801561039057600080fd5b506101de61039f366004611828565b60076020526000908152604090205460ff1681565b3480156103c057600080fd5b5061016e6103cf366004611a77565b610fcd565b6040516370a0823160e01b8152336004820152829082906001600160a01b038316906370a0823190602401602060405180830381865afa15801561041c573d6000803e3d6000fd5b505050506040513d601f19601f820116820180604052508101906104409190611aa5565b101561048a5760405162461bcd60e51b8152602060048201526014602482015273496e73756666696369656e742062616c616e636560601b60448201526064015b60405180910390fd5b6040516323b872dd60e01b8152336004820152306024820152604481018390526001600160a01b038216906323b872dd906064016020604051808303816000875af11580156104dd573d6000803e3d6000fd5b505050506040513d601f19601f820116820180604052508101906105019190611abe565b506001600160a01b0383166000908152600560205260408120805484929061052a908490611af6565b9091555050600b80546000918261054083611b09565b91905055905060006105bd3360005487866001600160a01b031663313ce5676040518163ffffffff1660e01b8152600401602060405180830381865afa15801561058e573d6000803e3d6000fd5b505050506040513d601f19601f820116820180604052508101906105b29190611b22565b60ff168a8988610782565b6000818152600660209081526040808320805460ff191660011790559154825163313ce56760e01b815292519394506001600160a01b03808a169433947fb671f239220b3263f004d83c71276b9fcb99b5947d7ebed71cdc01736a74693094928a169263313ce567926004808401938290030181865afa158015610645573d6000803e3d6000fd5b505050506040513d601f19601f820116820180604052508101906106699190611b22565b6040805192835260ff909116602083015281018a9052606081018890526080810186905260a00160405180910390a3505050505050565b600080805260056020527f05b8ccbb9d4d8fb16ea74ce3c29a41f1b461fbdaff4714a0d9a8eb05499746bc80543492906106db908490611af6565b9091555050600b8054600091826106f183611b09565b919050559050600061070c3360005460006012873488610782565b6000818152600660209081526040808320805460ff19166001179055825481519081526012928101929092528101869052346060820152608081018590529192509033907fb671f239220b3263f004d83c71276b9fcb99b5947d7ebed71cdc01736a7469309060a00160405180910390a3505050565b6040516bffffffffffffffffffffffff19606089811b821660208401526034830189905287901b166054820152606881018590526088810184905260a8810183905260c8810182905260009060e801604051602081830303815290604052805190602001209050979650505050505050565b6000838152600a602090815260408083206001600160a01b0386811685529252918290205491516370a0823160e01b8152336004820152911690829082906370a0823190602401602060405180830381865afa158015610858573d6000803e3d6000fd5b505050506040513d601f19601f8201168201806040525081019061087c9190611aa5565b10156108ca5760405162461bcd60e51b815260206004820181905260248201527f496e73756666696369656e742070726f787920746f6b656e2062616c616e63656044820152606401610481565b600c8054600091826108db83611b09565b90915550604051632770a7eb60e21b8152336004820152602481018590529091506001600160a01b03831690639dc29fac90604401600060405180830381600087803b15801561092a57600080fd5b505af115801561093e573d6000803e3d6000fd5b505050506000610a4a33846001600160a01b0316632c4701d46040518163ffffffff1660e01b8152600401602060405180830381865afa158015610986573d6000803e3d6000fd5b505050506040513d601f19601f820116820180604052508101906109aa9190611aa5565b856001600160a01b031663860d42886040518163ffffffff1660e01b8152600401602060405180830381865afa1580156109e8573d6000803e3d6000fd5b505050506040513d601f19601f82011682018060405250810190610a0c9190611b45565b866001600160a01b031663313ce5676040518163ffffffff1660e01b8152600401602060405180830381865afa15801561058e573d6000803e3d6000fd5b600081815260076020908152604091829020805460ff1916600117905581516310c1a85160e31b815291519293506001600160a01b0386169263860d42889260048082019392918290030181865afa158015610aaa573d6000803e3d6000fd5b505050506040513d601f19601f82011682018060405250810190610ace9190611b45565b6001600160a01b0316336001600160a01b03167fb2857e3d4000687fff193d49357e9232d787454d475652309faf58b0b4ddd44e856001600160a01b0316632c4701d46040518163ffffffff1660e01b8152600401602060405180830381865afa158015610b40573d6000803e3d6000fd5b505050506040513d601f19601f82011682018060405250810190610b649190611aa5565b866001600160a01b031663313ce5676040518163ffffffff1660e01b8152600401602060405180830381865afa158015610645573d6000803e3d6000fd5b60018160048110610bb257600080fd5b0154905081565b6000828152600a60209081526040808320838052909152908190205490516370a0823160e01b81523360048201526001600160a01b0390911690829082906370a0823190602401602060405180830381865afa158015610c1d573d6000803e3d6000fd5b505050506040513d601f19601f82011682018060405250810190610c419190611aa5565b1015610c9b5760405162461bcd60e51b8152602060048201526024808201527f496e73756666696369656e74204554482070726f787920746f6b656e2062616c604482015263616e636560e01b6064820152608401610481565b600c805460009182610cac83611b09565b90915550604051632770a7eb60e21b8152336004820152602481018590529091506001600160a01b03831690639dc29fac90604401600060405180830381600087803b158015610cfb57600080fd5b505af1158015610d0f573d6000803e3d6000fd5b505050506000610d8733846001600160a01b0316632c4701d46040518163ffffffff1660e01b8152600401602060405180830381865afa158015610d57573d6000803e3d6000fd5b505050506040513d601f19601f82011682018060405250810190610d7b9190611aa5565b60006012898988610782565b6000818152600760209081526040808320805460ff191660011790558051630b11c07560e21b81529051939450919233927fb2857e3d4000687fff193d49357e9232d787454d475652309faf58b0b4ddd44e926001600160a01b03891692632c4701d49260048082019392918290030181865afa158015610e0c573d6000803e3d6000fd5b505050506040513d601f19601f82011682018060405250810190610e309190611aa5565b60408051918252601260208301528101899052606081018890526080810186905260a00160405180910390a35050505050565b8251600154148015610e7a57506020830151600254145b8015610e8b57506040830151600354145b8015610e9c57506060830151600454145b610edd5760405162461bcd60e51b8152602060048201526012602482015271496e76616c6964205075626c6963204b657960701b6044820152606401610481565b6000610eed858585856000611044565b9050610ef9838361132d565b6000908152600960205260409020805460ff1916600117905550505050565b8251600154148015610f2f57506020830151600254145b8015610f4057506040830151600354145b8015610f5157506060830151600454145b610f925760405162461bcd60e51b8152602060048201526012602482015271496e76616c6964205075626c6963204b657960701b6044820152606401610481565b6000610fa2858585856001611044565b9050610fae8383611491565b6000908152600860205260409020805460ff1916600117905550505050565b6040516370a0823160e01b81526001600160a01b038281166004830152600091908416906370a0823190602401602060405180830381865afa158015611017573d6000803e3d6000fd5b505050506040513d601f19601f8201168201806040525081019061103b9190611aa5565b90505b92915050565b60008061108685858080601f0160208091040260200160405190810160405280939291908181526020018383808284376000920191909152506115e492505050565b90508215156001036110f65760008181526008602052604090205460ff16156110f15760405162461bcd60e51b815260206004820152601f60248201527f416c7265616479206d696e74656420666f72206465706f7369742068617368006044820152606401610481565b611163565b60008181526009602052604090205460ff16156111635760405162461bcd60e51b815260206004820152602560248201527f416c72656164792064697362757273656420666f72207769746864726177616c604482015264040d0c2e6d60db1b6064820152608401610481565b600d54604080518082018252601181527010938c8d4d8b521054d21513d413d25395607a1b6020820152905163c68b378760e01b8152600481018490526000926001600160a01b0316916354894f5891839063c68b378790602401600060405180830381865afa1580156111db573d6000803e3d6000fd5b505050506040513d6000823e601f3d908101601f191682016040526112039190810190611bae565b6040518363ffffffff1660e01b8152600401611220929190611c56565b6040805180830381865afa15801561123c573d6000803e3d6000fd5b505050506040513d601f19601f820116820180604052508101906112609190611c7b565b600d54604051616b3760e51b81529192506000916001600160a01b0390911690620d66e090611297908c908c908790600401611d06565b602060405180830381865afa1580156112b4573d6000803e3d6000fd5b505050506040513d601f19601f820116820180604052508101906112d89190611abe565b90506001811515146113205760405162461bcd60e51b8152602060048201526011602482015270496e76616c6964205369676e617475726560781b6044820152606401610481565b5090979650505050505050565b6000808080808080611341888a018a611841565b9650965096509650965096509650600054860361136757611362898961162e565b611486565b6000868152600a602090815260408083206001600160a01b0389811685529252822054166114025784868860405161139e906117cb565b6113aa93929190611d64565b604051809103906000f0801580156113c6573d6000803e3d6000fd5b506000888152600a602090815260408083206001600160a01b038b81168552925290912080546001600160a01b03191691831691909117905590505b506000868152600a602090815260408083206001600160a01b0389811685529252918290205491516340c10f1960e01b815289821660048201526024810185905291169081906340c10f19906044015b600060405180830381600087803b15801561146c57600080fd5b505af1158015611480573d6000803e3d6000fd5b50505050505b505050505050505050565b6000808080808080806114a6898b018b611e25565b9850985050975050965096509650965060006001600160a01b0316600a60008881526020019081526020016000206000876001600160a01b03166001600160a01b0316815260200190815260200160002060009054906101000a90046001600160a01b03166001600160a01b03160361159057818185878960405161152a906117cb565b611538959493929190611ee2565b604051809103906000f080158015611554573d6000803e3d6000fd5b506000878152600a602090815260408083206001600160a01b038a81168552925290912080546001600160a01b03191691831691909117905597505b6000868152600a602090815260408083206001600160a01b0389811685529252918290205491516340c10f1960e01b81528982166004820152602481018690529116985088906340c10f1990604401611452565b600080600080600080600080888060200190518101906116049190611f31565b965096509650965096509650965061162187878787878787610782565b9998505050505050505050565b6000808080808080611642888a018a611841565b96509650965096509650965096508160056000876001600160a01b03166001600160a01b0316815260200190815260200160002060008282546116859190611f9b565b90915550506001600160a01b0385166116d4576040516001600160a01b0388169083156108fc029084906000818181858888f193505050501580156116ce573d6000803e3d6000fd5b50611486565b60405163095ea7b360e01b8152306004820152602481018390526001600160a01b0386169063095ea7b3906044016020604051808303816000875af1158015611721573d6000803e3d6000fd5b505050506040513d601f19601f820116820180604052508101906117459190611abe565b506040516323b872dd60e01b81523060048201526001600160a01b038881166024830152604482018490528616906323b872dd906064016020604051808303816000875af115801561179b573d6000803e3d6000fd5b505050506040513d601f19601f820116820180604052508101906117bf9190611abe565b50505050505050505050565b610dce80611faf83390190565b6001600160a01b03811681146117ed57600080fd5b50565b60008060006060848603121561180557600080fd5b833592506020840135611817816117d8565b929592945050506040919091013590565b60006020828403121561183a57600080fd5b5035919050565b600080600080600080600060e0888a03121561185c57600080fd5b8735611867816117d8565b965060208801359550604088013561187e816117d8565b969995985095966060810135965060808101359560a0820135955060c0909101359350915050565b6000602082840312156118b857600080fd5b81356118c3816117d8565b9392505050565b600080604083850312156118dd57600080fd5b50508035926020909101359150565b600080604083850312156118ff57600080fd5b823591506020830135611911816117d8565b809150509250929050565b634e487b7160e01b600052604160045260246000fd5b604051601f8201601f1916810167ffffffffffffffff8111828210171561195b5761195b61191c565b604052919050565b600061196f6040611932565b905080604083018481111561198357600080fd5b835b8181101561199d578035835260209283019201611985565b50505092915050565b60006119b26080611932565b905080608083018481111561198357600080fd5b60008060008060e085870312156119dc57600080fd5b85601f8601126119eb57600080fd5b6119f58686611963565b935085605f860112611a0657600080fd5b611a1386604087016119a6565b925060c085013567ffffffffffffffff811115611a2f57600080fd5b8501601f81018713611a4057600080fd5b803567ffffffffffffffff811115611a5757600080fd5b876020828401011115611a6957600080fd5b949793965060200194505050565b60008060408385031215611a8a57600080fd5b8235611a95816117d8565b91506020830135611911816117d8565b600060208284031215611ab757600080fd5b5051919050565b600060208284031215611ad057600080fd5b815180151581146118c357600080fd5b634e487b7160e01b600052601160045260246000fd5b8082018082111561103e5761103e611ae0565b600060018201611b1b57611b1b611ae0565b5060010190565b600060208284031215611b3457600080fd5b815160ff811681146118c357600080fd5b600060208284031215611b5757600080fd5b81516118c3816117d8565b600067ffffffffffffffff821115611b7c57611b7c61191c565b50601f01601f191660200190565b60005b83811015611ba5578181015183820152602001611b8d565b50506000910152565b600060208284031215611bc057600080fd5b815167ffffffffffffffff811115611bd757600080fd5b8201601f81018413611be857600080fd5b8051611bfb611bf682611b62565b611932565b818152856020838501011115611c1057600080fd5b611c21826020830160208601611b8a565b95945050505050565b60008151808452611c42816020860160208601611b8a565b601f01601f19169290920160200192915050565b604081526000611c696040830185611c2a565b8281036020840152611c218185611c2a565b600060408284031215611c8d57600080fd5b82601f830112611c9c57600080fd5b611ca66040611932565b806040840185811115611cb857600080fd5b845b81811015611cd2578051845260209384019301611cba565b509095945050505050565b8060005b6002811015611d00578151845260209384019390910190600101611ce1565b50505050565b6101008101611d158286611cdd565b604082018460005b6004811015611d3c578151835260209283019290910190600101611d1d565b505050611d4c60c0830184611cdd565b949350505050565b8035611d5f816117d8565b919050565b60a081526000611d8960a08301600581526450524f585960d81b602082015260400190565b8281036020840152611dad81600581526450524f585960d81b602082015260400190565b60ff96909616604084015250506001600160a01b0392909216606083015260809091015290565b600082601f830112611de557600080fd5b8135611df3611bf682611b62565b818152846020838601011115611e0857600080fd5b816020850160208301376000918101602001919091529392505050565b60008060008060008060008060006101208a8c031215611e4457600080fd5b8935611e4f816117d8565b985060208a01359750611e6460408b01611d54565b965060608a0135955060808a0135945060a08a0135935060c08a0135925060e08a013567ffffffffffffffff811115611e9c57600080fd5b611ea88c828d01611dd4565b9250506101008a013567ffffffffffffffff811115611ec657600080fd5b611ed28c828d01611dd4565b9150509295985092959850929598565b60a081526000611ef560a0830188611c2a565b8281036020840152611f078188611c2a565b60ff96909616604084015250506001600160a01b0392909216606083015260809091015292915050565b600080600080600080600060e0888a031215611f4c57600080fd5b8751611f57816117d8565b602089015160408a01519198509650611f6f816117d8565b606089015160808a015160a08b015160c0909b0151999c989b5091999098919790965090945092505050565b8181038181111561103e5761103e611ae056fe608060405234801561001057600080fd5b50604051610dce380380610dce83398101604081905261002f91610150565b8484600361003d8382610286565b50600461004a8282610286565b50506008805460ff90951660ff1990951694909417909355600580546001600160a01b039093166001600160a01b0319938416179055600755600680549091163317905550610344915050565b634e487b7160e01b600052604160045260246000fd5b600082601f8301126100be57600080fd5b81516001600160401b038111156100d7576100d7610097565b604051601f8201601f19908116603f011681016001600160401b038111828210171561010557610105610097565b60405281815283820160200185101561011d57600080fd5b60005b8281101561013c57602081860181015183830182015201610120565b506000918101602001919091529392505050565b600080600080600060a0868803121561016857600080fd5b85516001600160401b0381111561017e57600080fd5b61018a888289016100ad565b602088015190965090506001600160401b038111156101a857600080fd5b6101b4888289016100ad565b945050604086015160ff811681146101cb57600080fd5b60608701519093506001600160a01b03811681146101e857600080fd5b60809690960151949793965091949392915050565b600181811c9082168061021157607f821691505b60208210810361023157634e487b7160e01b600052602260045260246000fd5b50919050565b601f82111561028157806000526020600020601f840160051c8101602085101561025e5750805b601f840160051c820191505b8181101561027e576000815560010161026a565b50505b505050565b81516001600160401b0381111561029f5761029f610097565b6102b3816102ad84546101fd565b84610237565b6020601f8211600181146102e757600083156102cf5750848201515b600019600385901b1c1916600184901b17845561027e565b600084815260208120601f198516915b8281101561031757878501518255602094850194600190920191016102f7565b50848210156103355786840151600019600387901b60f8161c191681555b50505050600190811b01905550565b610a7b806103536000396000f3fe608060405234801561001057600080fd5b50600436106100f55760003560e01c806340c10f191161009757806395d89b411161006657806395d89b41146102125780639dc29fac1461021a578063a9059cbb1461022d578063dd62ed3e1461024057600080fd5b806340c10f191461019657806370a08231146101ab578063860d4288146101d45780638da5cb5b146101ff57600080fd5b806323b872dd116100d357806323b872dd1461014d5780632c4701d414610160578063313ce56714610169578063370158ea1461017e57600080fd5b806306fdde03146100fa578063095ea7b31461011857806318160ddd1461013b575b600080fd5b610102610279565b60405161010f91906108b0565b60405180910390f35b61012b6101263660046108df565b61030b565b604051901515815260200161010f565b6002545b60405190815260200161010f565b61012b61015b366004610909565b610325565b61013f60075481565b60085460405160ff909116815260200161010f565b6101866103e5565b60405161010f9493929190610946565b6101a96101a43660046108df565b610417565b005b61013f6101b9366004610981565b6001600160a01b031660009081526020819052604090205490565b6005546101e7906001600160a01b031681565b6040516001600160a01b03909116815260200161010f565b6006546101e7906001600160a01b031681565b61010261046e565b6101a96102283660046108df565b61047d565b61012b61023b3660046108df565b6104d0565b61013f61024e36600461099c565b6001600160a01b03918216600090815260016020908152604080832093909416825291909152205490565b606060038054610288906109cf565b80601f01602080910402602001604051908101604052809291908181526020018280546102b4906109cf565b80156103015780601f106102d657610100808354040283529160200191610301565b820191906000526020600020905b8154815290600101906020018083116102e457829003601f168201915b5050505050905090565b6000336103198185856104ff565b60019150505b92915050565b600061ffff836001600160a01b0316111561034c57610345848484610511565b90506103de565b81610357853361024e565b10156103bb5760405162461bcd60e51b815260206004820152602860248201527f45524332303a207472616e7366657220616d6f756e74206578636565647320616044820152676c6c6f77616e636560c01b60648201526084015b60405180910390fd5b6103da8433846103cb883361024e565b6103d59190610a1f565b6104ff565b5060015b9392505050565b606060008060006103f461046e565b60085460ff1660055460075492979196506001600160a01b031694509092509050565b6006546001600160a01b031633146104605760405162461bcd60e51b815260206004820152600c60248201526b3737ba1030b71037bbb732b960a11b60448201526064016103b2565b61046a8282610535565b5050565b606060048054610288906109cf565b6006546001600160a01b031633146104c65760405162461bcd60e51b815260206004820152600c60248201526b3737ba1030b71037bbb732b960a11b60448201526064016103b2565b61046a828261056b565b600061ffff836001600160a01b031611156104f6576104ef83836105a1565b905061031f565b50600192915050565b61050c83838360016105af565b505050565b60003361051f858285610685565b61052a8585856106e5565b506001949350505050565b6001600160a01b03821661055f5760405163ec442f0560e01b8152600060048201526024016103b2565b61046a60008383610740565b6001600160a01b03821661059557604051634b637e8f60e11b8152600060048201526024016103b2565b61046a82600083610740565b6000336103198185856106e5565b6001600160a01b0384166105d95760405163e602df0560e01b8152600060048201526024016103b2565b6001600160a01b03831661060357604051634a1406b160e11b8152600060048201526024016103b2565b6001600160a01b038085166000908152600160209081526040808320938716835292905220829055801561067f57826001600160a01b0316846001600160a01b03167f8c5be1e5ebec7d5bd14f71427d1e84f3dd0314c0f7b2291e5b200ac8c7c3b9258460405161067691815260200190565b60405180910390a35b50505050565b6000610691848461024e565b9050600019811461067f57818110156106d657604051637dc7a0d960e11b81526001600160a01b038416600482015260248101829052604481018390526064016103b2565b61067f848484840360006105af565b6001600160a01b03831661070f57604051634b637e8f60e11b8152600060048201526024016103b2565b6001600160a01b0382166107395760405163ec442f0560e01b8152600060048201526024016103b2565b61050c8383835b6001600160a01b03831661076b5780600260008282546107609190610a32565b909155506107dd9050565b6001600160a01b038316600090815260208190526040902054818110156107be5760405163391434e360e21b81526001600160a01b038516600482015260248101829052604481018390526064016103b2565b6001600160a01b03841660009081526020819052604090209082900390555b6001600160a01b0382166107f957600280548290039055610818565b6001600160a01b03821660009081526020819052604090208054820190555b816001600160a01b0316836001600160a01b03167fddf252ad1be2c89b69c2b068fc378daa952ba7f163c4a11628f55a4df523b3ef8360405161085d91815260200190565b60405180910390a3505050565b6000815180845260005b8181101561089057602081850181015186830182015201610874565b506000602082860101526020601f19601f83011685010191505092915050565b6020815260006103de602083018461086a565b80356001600160a01b03811681146108da57600080fd5b919050565b600080604083850312156108f257600080fd5b6108fb836108c3565b946020939093013593505050565b60008060006060848603121561091e57600080fd5b610927846108c3565b9250610935602085016108c3565b929592945050506040919091013590565b608081526000610959608083018761086a565b60ff959095166020830152506001600160a01b03929092166040830152606090910152919050565b60006020828403121561099357600080fd5b6103de826108c3565b600080604083850312156109af57600080fd5b6109b8836108c3565b91506109c6602084016108c3565b90509250929050565b600181811c908216806109e357607f821691505b602082108103610a0357634e487b7160e01b600052602260045260246000fd5b50919050565b634e487b7160e01b600052601160045260246000fd5b8181038181111561031f5761031f610a09565b8082018082111561031f5761031f610a0956fea26469706673582212204ea09a07fa11004fd79f4280f06ea54938bd78d1bb6c1e14384a59051f661a1764736f6c634300081a0033a264697066735822122035377a81072fd204b22b86dd45aa26c95d30181cb9e789bfaef578eb2aa88fa664736f6c634300081a00336080604052348015600f57600080fd5b506121418061001f6000396000f3fe608060405234801561001057600080fd5b506004361061004b5760003560e01c80620d66e014610050578063145dad8b1461007857806354894f581461008b578063c68b3787146100ab575b600080fd5b61006361005e366004611dec565b6100cb565b60405190151581526020015b60405180910390f35b610063610086366004611eed565b6102d0565b61009e610099366004611eed565b610304565b60405161006f9190611f56565b6100be6100b9366004611f87565b6103b4565b60405161006f9190611ff0565b600080604051806101800160405280866000600281106100ed576100ed61200a565b602002015181526020018660016002811061010a5761010a61200a565b602002015181526020017f198e9393920d483a7260bfb731fb5d25f1aa493335a9e71297e485b7aef312c281526020017f1800deef121f1e76426a00665e5c4479674322d4f75edadd46debd5cd992f6ed81526020017f275dc4a288d1afb3cbb1ac09187524c7db36395df7be3b99e673b13a075a65ec81526020017f1d9befcd05a5323e6da4d435f3b617cdb3af83285c2df711ef39c01571827f9d8152602001846000600281106101bf576101bf61200a565b60200201518152602001846001600281106101dc576101dc61200a565b60200201518152602001856001600481106101f9576101f961200a565b60200201518152602001856000600481106102165761021661200a565b60200201518152602001856003600481106102335761023361200a565b60200201518152602001856002600481106102505761025061200a565b602002015190529050610261611cf5565b60006020826101808560086107d05a03fa9050808061027c57fe5b50806102c35760405162461bcd60e51b8152602060048201526011602482015270696e76616c6964207369676e617475726560781b60448201526064015b60405180910390fd5b5051151595945050505050565b60006102fa60405180604001604052806005815260200164257320257360d81b8152508484610569565b5060015b92915050565b61030c611d13565b600061031884846105b5565b9050600061032c82825b6020020151610670565b9050600061033b836001610322565b9050610345611d31565b825181526020808401518282015282516040808401919091529083015160608301526000908460808460066107d05a03fa9050808061038057fe5b50806103a85760405162461bcd60e51b815260206004820152600060248201526044016102ba565b50919695505050505050565b604080516042808252608082019092526060916000919060208201818036833701905050905060006040518060400160405280601081526020016f181899199a1a9b1b9c1cb0b131b232b360811b8152509050600360fc1b8260008151811061041f5761041f61200a565b60200101906001600160f81b031916908160001a905350600f60fb1b8260018151811061044e5761044e61200a565b60200101906001600160f81b031916908160001a90535060005b60208110156105605760008582602081106104855761048561200a565b845191901a91508390600483901c60ff169081106104a5576104a561200a565b01602001516001600160f81b031916846104c0846002612036565b6104cb90600261204d565b815181106104db576104db61200a565b60200101906001600160f81b031916908160001a9053508281600f1660ff168151811061050a5761050a61200a565b01602001516001600160f81b03191684610525846002612036565b61053090600361204d565b815181106105405761054061200a565b60200101906001600160f81b031916908160001a90535050600101610468565b50909392505050565b6105b083838360405160240161058193929190612060565b60408051601f198184030181529190526020810180516001600160e01b0316632ced7cef60e01b179052610a3b565b505050565b6105bd611d13565b60006105c98484610a47565b9050600080600080601885016001600160c01b0381511693506030860190506001600160c01b0381511694506000805160206120ec833981519152856000805160206120ec833981519152600160c01b870908604887015160608801516001600160c01b03908116975016945092506000805160206120ec83398151915290508481600160c01b860908604080518082019091529283526020830152509695505050505050565b610678611d13565b6000805160206120ec83398151915282106106e15760405162461bcd60e51b815260206004820152602360248201527f6d6170546f506f696e7446543a20696e76616c6964206669656c6420656c656d604482015262195b9d60ea1b60648201526084016102ba565b8160006106ed82610d53565b905060006000805160206120ec83398151915283840990506000805160206120ec83398151915260048208905060006000805160206120ec83398151915277b3c4d79d41a91759a9e4c7e359b6b89eaec68e62effffffd8509905060006000805160206120ec833981519152838309905061076781610e24565b90506000805160206120ec83398151915282830991506000805160206120ec83398151915281830991506000805160206120ec83398151915282860991506000805160206120ec8339815191526107cc836000805160206120ec8339815191526120a3565b7759e26bcea0d48bacd4f263f1acdb5c4f5763473177fffffe0894506000805160206120ec83398151915285860991506000805160206120ec83398151915285830991506000805160206120ec833981519152600383089150600061083083610e2f565b9093509050801561087957841561085c57610859836000805160206120ec8339815191526120a3565b92505b505060408051808201909152938452602084015250909392505050565b6000805160206120ec833981519152600187086108a4906000805160206120ec8339815191526120a3565b95506000805160206120ec83398151915286870992506000805160206120ec83398151915286840992506000805160206120ec8339815191526003840892506108ec83610e2f565b9093509050801561091557841561085c57610859836000805160206120ec8339815191526120a3565b6000805160206120ec83398151915284850995506000805160206120ec83398151915286870995506000805160206120ec83398151915282870995506000805160206120ec83398151915282870995506000805160206120ec8339815191526001870895506000805160206120ec83398151915286870992506000805160206120ec83398151915286840992506000805160206120ec8339815191526003840892506109c083610e2f565b909350905080610a1d5760405162461bcd60e51b815260206004820152602260248201527f424c533a20626164206674206d617070696e6720696d706c656d656e7461746960448201526137b760f11b60648201526084016102ba565b841561085c57610859836000805160206120ec8339815191526120a3565b610a4481610e58565b50565b81516060906101008110610a9d5760405162461bcd60e51b815260206004820152601a60248201527f424c533a20696e76616c696420646f6d61696e206c656e67746800000000000060448201526064016102ba565b82516000610aab828461204d565b610ab690604061204d565b610ac190600461204d565b67ffffffffffffffff811115610ad957610ad9611d4f565b6040519080825280601f01601f191660200182016040528015610b03576020820181803683370190505b5060408051606080825260808201909252919250600091906020820181803683370190505090506060820160005b84811015610b4b5760208189018101518383015201610b31565b508301600081536001016060815360010160008153600181019050602088015181528481019050848153506000600283604051610b8891906120b6565b602060405180830381855afa158015610ba5573d6000803e3d6000fd5b5050506040513d601f19601f82011682018060405250810190610bc891906120d2565b90506000610bd786602261204d565b945084845281602085015260016040850153602089015160418501528560418701850153600284604051610c0b91906120b6565b602060405180830381855afa158015610c28573d6000803e3d6000fd5b5050506040513d601f19601f82011682018060405250810190610c4b91906120d2565b90508060208401528082188060208601525060026040850153602089015160418501528560418701850153600284604051610c8691906120b6565b602060405180830381855afa158015610ca3573d6000803e3d6000fd5b5050506040513d601f19601f82011682018060405250810190610cc691906120d2565b90508060408401528082188060208601525060036040850153602089015160418501528560418701850153600284604051610d0191906120b6565b602060405180830381855afa158015610d1e573d6000803e3d6000fd5b5050506040513d601f19601f82011682018060405250810190610d4191906120d2565b60608401525090979650505050505050565b60008060405160208152602080820152602060408201528360608201527f183227397098d014dc2822db40c0ac2ecbc0b548b438e5469e10460b6c3e7ea360808201526000805160206120ec83398151915260a082015260208160c08360056107d05a03fa90516001149250905080610e1d5760405162461bcd60e51b815260206004820152602660248201527f424c533a2069734e6f6e526573696475654650206d6f646578702063616c6c2060448201526519985a5b195960d21b60648201526084016102ba565b5015919050565b60006102fe82610e79565b600080610e3b836115c0565b9150826000805160206120ec833981519152838409149050915091565b60006a636f6e736f6c652e6c6f679050600080835160208501845afa505050565b60006000805160206120ec8339815191528083840991508083830981838209828283098385830984848309858484098684850997508684840987858409945087898a09985087898a09985087898a09985087898a09985087898a09985087878a09985087898a09985087898a09985087898a099850878a8a09985087898a09985087898a09985087898a09985087898a099850878a8a09985087898a09985087898a09985087898a09985087898a09985087898a09985087848a09985087898a09985087898a09985087898a09985087898a09985087898a09985087848a09985087898a09985087898a09985087898a099850878a8a09985087898a09985087898a09985087898a09985087898a09985087848a09985087898a09985087898a09985087898a09985087898a09985087898a099850878a8a09985087898a09985087898a09985087898a09985087898a09985087878a09985087898a09985087898a09985087898a09985087898a09985087898a09985087898a09985087898a09985087818a09985087898a09985087898a09985087898a09985087898a09985087898a09985087898a09985087898a09985087898a09985087898a09985087898a09985087868a09985087898a09985087898a09985087898a09985087898a09985087878a09985087898a09985087898a09985087898a09985087898a09985087848a09985087898a09985087898a09985087898a09985087898a09985087898a09985087898a09985087898a09985087868a09985087898a09985087898a09985087898a09985087898a09985087898a09985087898a099850878a8a09985087898a09985087898a09985087898a09985087898a09985087898a09985087898a09985087898a09985087828a09985087898a09985087898a09985087898a09985087898a09985087898a09985087818a09985087898a09985087898a09985087898a09985087868a09985087898a09985087898a09985087898a09985087898a09985087898a09985087898a09985087898a09985087898a09985087878a09985087898a09985087898a09985087898a09985087898a09985087898a09985087898a09985087898a09985087898a09985087898a09985087868a09985087898a09985087898a09985087898a09985087878a09985087898a09985087898a09985087898a09985087898a09985087898a09985087898a09985087898a09985087898a09985087828a09985087898a09985087898a09985087898a09985087898a09985087828a09985087898a09985087898a09985087898a09985087898a09985087898a09985087868a09985087898a09985087898a09985087898a09985087848a09985087898a09985087898a09985087898a09985087898a09985087898a09985087898a09985087898a09985087898a09985087898a09985087898a09985087828a09985087898a09985087898a09985087898a09985087898a09985087868a09985087898a09985087898a09985087898a09985087898a09985087898a09985087838a09985087898a09985087898a09985087898a09985087898a09985087898a09985087898a09985087898a09985087828a09985087898a09985087898a099850878a8a09985087898a09985087898a09985087898a09985087898a09985087898a09985087898a09985087898a09985087848a09985087898a09985087898a09985087898a09985087898a09985087898a09985087898a09985087848a09985087898a09985087898a09985087898a09985087898a09985087898a09985087868a09985087898a09985087898a099850878a8a09985087898a09985087898a09985087898a09985087898a09985087898a09985087898a09985087898a09985087818a09985050868889099750868889099750868889099750868889099750868889099750868889099750868489099750868889099750868889099750868889099750868889099750868889099750868989099750868889099750868889099750868889099750868889099750868889099750868889099750868989099750868889099750868889099750868889099750868889099750868889099750868689099750868889099750868889099750868889099750868889099750868889099750868889099750868889099750868889099750868889099750868189099750508587880996508587880996508587880996508585880996508587880996508587880996508587880996508585880996508587880996508587880996508587880996508587880996508587880996508587880996508587880996508587880996508583880996508587880996508587880996508587880996508587880996508581880996505050838586099450838586099450838586099450838586099450838186099450508284850993508284850993508284850993508281850993508284850993508284850993508285850993508284850993508284850993508284850993508284850993508284850993508284850993508281850995945050505050565b60006000805160206120ec8339815191528083840991508083830981838209828283098385830984848309858484098684850997508684840987858409945087898a09985087898a09985087898a09985087898a09985087898a09985087878a09985087898a09985087898a09985087898a099850878a8a09985087898a09985087898a09985087898a09985087898a099850878a8a09985087898a09985087898a09985087898a09985087898a09985087898a09985087848a09985087898a09985087898a09985087898a09985087898a09985087898a09985087848a09985087898a09985087898a09985087898a099850878a8a09985087898a09985087898a09985087898a09985087898a09985087848a09985087898a09985087898a09985087898a09985087898a09985087898a099850878a8a09985087898a09985087898a09985087898a09985087898a09985087878a09985087898a09985087898a09985087898a09985087898a09985087898a09985087898a09985087898a09985087818a09985087898a09985087898a09985087898a09985087898a09985087898a09985087898a09985087898a09985087898a09985087898a09985087898a09985087868a09985087898a09985087898a09985087898a09985087898a09985087878a09985087898a09985087898a09985087898a09985087898a09985087848a09985087898a09985087898a09985087898a09985087898a09985087898a09985087898a09985087898a09985087868a09985087898a09985087898a09985087898a09985087898a09985087898a09985087898a099850878a8a09985087898a09985087898a09985087898a09985087898a09985087898a09985087898a09985087898a09985087828a09985087898a09985087898a09985087898a09985087898a09985087898a09985087818a09985087898a09985087898a09985087898a09985087868a09985087898a09985087898a09985087898a09985087898a09985087898a09985087898a09985087898a09985087898a09985087878a09985087898a09985087898a09985087898a09985087898a09985087898a09985087898a09985087898a09985087898a09985087898a09985087868a09985087898a09985087898a09985087898a09985087878a09985087898a09985087898a09985087898a09985087898a09985087898a09985087898a09985087898a09985087898a09985087828a09985087898a09985087898a09985087898a09985087898a09985087828a09985087898a09985087898a09985087898a09985087898a09985087898a09985087868a09985087898a09985087898a09985087898a09985087848a09985087898a09985087898a09985087898a09985087898a09985087898a09985087898a09985087898a09985087898a09985087898a09985087898a09985087828a09985087898a09985087898a09985087898a09985087898a09985087868a09985087898a09985087898a09985087898a09985087898a09985087898a09985087838a09985087898a09985087898a09985087898a09985087898a09985087898a09985087898a09985087898a09985087828a09985087898a09985087898a099850878a8a09985087898a09985087898a09985087898a09985087898a09985087898a09985087898a09985087898a09985087848a09985087898a09985087898a09985087898a09985087898a09985087898a09985087898a09985087848a09985087898a09985087898a09985087898a09985087898a09985087898a09985087868a09985087898a09985087898a099850878a8a09985087898a09985087898a09985087898a09985087898a09985087898a09985087898a09985087898a09985087818a09985050868889099750868889099750868889099750868889099750868889099750868889099750868489099750868889099750868889099750868889099750868889099750868889099750868989099750868889099750868889099750868889099750868889099750868889099750868889099750868989099750868889099750868889099750868889099750868889099750868889099750868689099750868889099750868889099750868889099750868889099750868889099750868889099750868889099750868889099750868889099750868189099750508587880996508587880996508587880996508585880996508587880996508587880996508587880996508585880996508587880996508587880996508587880996508587880996508587880996508587880996508587880996508587880996508583880996508587880996508587880996508587880996508587880996508581880996508587880996508587880996508587880996508587880996508583880996508587880996508587880996508587880996508584880996508587880996508587880996508587880996508587880996508587880996508581880996505050505050808283099392505050565b60405180602001604052806001906020820280368337509192915050565b60405180604001604052806002906020820280368337509192915050565b60405180608001604052806004906020820280368337509192915050565b634e487b7160e01b600052604160045260246000fd5b604051601f8201601f1916810167ffffffffffffffff81118282101715611d8e57611d8e611d4f565b604052919050565b600082601f830112611da757600080fd5b6000611db36040611d65565b9050806040840185811115611dc757600080fd5b845b81811015611de1578035835260209283019201611dc9565b509195945050505050565b60008060006101008486031215611e0257600080fd5b611e0c8585611d96565b9250600085605f860112611e1e578081fd5b80611e296080611d65565b905080915060c0860187811115611e3f57600080fd5b604087015b81811015611e5c578035845260209384019301611e44565b50819450611e6a8882611d96565b93505050509250925092565b600082601f830112611e8757600080fd5b81356020830160008067ffffffffffffffff841115611ea857611ea8611d4f565b50601f8301601f1916602001611ebd81611d65565b915050828152858383011115611ed257600080fd5b82826020830137600092810160200192909252509392505050565b60008060408385031215611f0057600080fd5b823567ffffffffffffffff811115611f1757600080fd5b611f2385828601611e76565b925050602083013567ffffffffffffffff811115611f4057600080fd5b611f4c85828601611e76565b9150509250929050565b60408101818360005b6002811015611f7e578151835260209283019290910190600101611f5f565b50505092915050565b600060208284031215611f9957600080fd5b5035919050565b60005b83811015611fbb578181015183820152602001611fa3565b50506000910152565b60008151808452611fdc816020860160208601611fa0565b601f01601f19169290920160200192915050565b6020815260006120036020830184611fc4565b9392505050565b634e487b7160e01b600052603260045260246000fd5b634e487b7160e01b600052601160045260246000fd5b80820281158282048414176102fe576102fe612020565b808201808211156102fe576102fe612020565b6060815260006120736060830186611fc4565b82810360208401526120858186611fc4565b905082810360408401526120998185611fc4565b9695505050505050565b818103818111156102fe576102fe612020565b600082516120c8818460208701611fa0565b9190910192915050565b6000602082840312156120e457600080fd5b505191905056fe30644e72e131a029b85045b68181585d97816a916871ca8d3c208c16d87cfd47a2646970667358221220304135c11cb87fce46b53f87bbc5487f70d7bb5edfabf3fcf223cf34689d785864736f6c634300081a0033",
  "linkReferences": {},
  "deployedLinkReferences": {}
}