{
  "_format": "hh-sol-artifact-1",
  "contractName": "Vault",
  "sourceName": "contracts/Vault.sol",
  "abi": [
    {
      "inputs": [
        {
          "internalType": "uint256[4]",
          "name": "publicKey_",
          "type": "uint256[4]"
        }
      ],
      "stateMutability": "nonpayable",
      "type": "constructor"
    },
    {
      "anonymous": false,
      "inputs": [
        {
          "indexed": true,
          "internalType": "address",
          "name": "depositor",
          "type": "address"
        },
        {
          "indexed": true,
          "internalType": "address",
          "name": "tokenAddress",
          "type": "address"
        },
        {
          "indexed": false,
          "internalType": "uint256",
          "name": "decimals",
          "type": "uint256"
        },
        {
          "indexed": false,
          "internalType": "uint256",
          "name": "toChainId",
          "type": "uint256"
        },
        {
          "indexed": false,
          "internalType": "uint256",
          "name": "amount",
          "type": "uint256"
        },
        {
          "indexed": false,
          "internalType": "uint256",
          "name": "depositCounter",
          "type": "uint256"
        }
      ],
      "name": "Deposited",
      "type": "event"
    },
    {
      "anonymous": false,
      "inputs": [
        {
          "indexed": false,
          "internalType": "uint256",
          "name": "amount",
          "type": "uint256"
        }
      ],
      "name": "Disbursed",
      "type": "event"
    },
    {
      "anonymous": false,
      "inputs": [
        {
          "indexed": false,
          "internalType": "uint256",
          "name": "amount",
          "type": "uint256"
        }
      ],
      "name": "Minted",
      "type": "event"
    },
    {
      "anonymous": false,
      "inputs": [
        {
          "indexed": false,
          "internalType": "address",
          "name": "depositor",
          "type": "address"
        },
        {
          "indexed": false,
          "internalType": "uint256",
          "name": "amount",
          "type": "uint256"
        }
      ],
      "name": "Withdrawn",
      "type": "event"
    },
    {
      "inputs": [],
      "name": "ETH",
      "outputs": [
        {
          "internalType": "address",
          "name": "",
          "type": "address"
        }
      ],
      "stateMutability": "view",
      "type": "function"
    },
    {
      "inputs": [
        {
          "internalType": "address",
          "name": "proxyToken",
          "type": "address"
        },
        {
          "internalType": "address",
          "name": "depositor",
          "type": "address"
        }
      ],
      "name": "balanceOf",
      "outputs": [
        {
          "internalType": "uint256",
          "name": "",
          "type": "uint256"
        }
      ],
      "stateMutability": "view",
      "type": "function"
    },
    {
      "inputs": [],
      "name": "depositCounter",
      "outputs": [
        {
          "internalType": "uint256",
          "name": "",
          "type": "uint256"
        }
      ],
      "stateMutability": "view",
      "type": "function"
    },
    {
      "inputs": [
        {
          "internalType": "uint256",
          "name": "toChainId",
          "type": "uint256"
        }
      ],
      "name": "depositEth",
      "outputs": [],
      "stateMutability": "payable",
      "type": "function"
    },
    {
      "inputs": [
        {
          "internalType": "uint256",
          "name": "amount",
          "type": "uint256"
        }
      ],
      "name": "depositToken",
      "outputs": [],
      "stateMutability": "nonpayable",
      "type": "function"
    },
    {
      "inputs": [
        {
          "internalType": "bytes32",
          "name": "",
          "type": "bytes32"
        }
      ],
      "name": "deposits",
      "outputs": [
        {
          "internalType": "bool",
          "name": "",
          "type": "bool"
        }
      ],
      "stateMutability": "view",
      "type": "function"
    },
    {
      "inputs": [
        {
          "internalType": "uint256",
          "name": "amount",
          "type": "uint256"
        }
      ],
      "name": "disburse",
      "outputs": [],
      "stateMutability": "nonpayable",
      "type": "function"
    },
    {
      "inputs": [
        {
          "internalType": "address",
          "name": "depositor",
          "type": "address"
        },
        {
          "internalType": "address",
          "name": "token",
          "type": "address"
        },
        {
          "internalType": "uint256",
          "name": "decimals",
          "type": "uint256"
        },
        {
          "internalType": "uint256",
          "name": "toChainId",
          "type": "uint256"
        },
        {
          "internalType": "uint256",
          "name": "amount",
          "type": "uint256"
        },
        {
          "internalType": "uint256",
          "name": "counter",
          "type": "uint256"
        }
      ],
      "name": "hashOf",
      "outputs": [
        {
          "internalType": "bytes32",
          "name": "",
          "type": "bytes32"
        }
      ],
      "stateMutability": "pure",
      "type": "function"
    },
    {
      "inputs": [
        {
          "internalType": "uint256",
          "name": "amount",
          "type": "uint256"
        }
      ],
      "name": "mint",
      "outputs": [],
      "stateMutability": "nonpayable",
      "type": "function"
    },
    {
      "inputs": [
        {
          "internalType": "uint256[2]",
          "name": "signature",
          "type": "uint256[2]"
        },
        {
          "internalType": "uint256[4]",
          "name": "signerKey",
          "type": "uint256[4]"
        },
        {
          "internalType": "bytes",
          "name": "depositPayload",
          "type": "bytes"
        }
      ],
      "name": "mint",
      "outputs": [],
      "stateMutability": "nonpayable",
      "type": "function"
    },
    {
      "inputs": [
        {
          "internalType": "bytes32",
          "name": "",
          "type": "bytes32"
        }
      ],
      "name": "mintedForDepositHash",
      "outputs": [
        {
          "internalType": "bool",
          "name": "",
          "type": "bool"
        }
      ],
      "stateMutability": "view",
      "type": "function"
    },
    {
      "inputs": [
        {
          "internalType": "address",
          "name": "",
          "type": "address"
        }
      ],
      "name": "pool",
      "outputs": [
        {
          "internalType": "uint256",
          "name": "",
          "type": "uint256"
        }
      ],
      "stateMutability": "view",
      "type": "function"
    },
    {
      "inputs": [
        {
          "internalType": "uint256",
          "name": "",
          "type": "uint256"
        },
        {
          "internalType": "address",
          "name": "",
          "type": "address"
        }
      ],
      "name": "proxyTokenMap",
      "outputs": [
        {
          "internalType": "address",
          "name": "",
          "type": "address"
        }
      ],
      "stateMutability": "view",
      "type": "function"
    },
    {
      "inputs": [
        {
          "internalType": "uint256",
          "name": "",
          "type": "uint256"
        }
      ],
      "name": "publicKey",
      "outputs": [
        {
          "internalType": "uint256",
          "name": "",
          "type": "uint256"
        }
      ],
      "stateMutability": "view",
      "type": "function"
    },
    {
      "inputs": [
        {
          "internalType": "bytes",
          "name": "encodedPayload",
          "type": "bytes"
        }
      ],
      "name": "testEncode",
      "outputs": [],
      "stateMutability": "view",
      "type": "function"
    },
    {
      "inputs": [
        {
          "internalType": "bytes",
          "name": "encodedPayload",
          "type": "bytes"
        }
      ],
      "name": "testEncodeInputPlusLocal",
      "outputs": [],
      "stateMutability": "view",
      "type": "function"
    },
    {
      "inputs": [
        {
          "internalType": "bytes",
          "name": "encodedPayload1",
          "type": "bytes"
        }
      ],
      "name": "testEncodeInputPlusLocal_PartialExtraction",
      "outputs": [],
      "stateMutability": "view",
      "type": "function"
    },
    {
      "inputs": [
        {
          "internalType": "uint256",
          "name": "amount",
          "type": "uint256"
        }
      ],
      "name": "withdraw",
      "outputs": [],
      "stateMutability": "nonpayable",
      "type": "function"
    }
  ],
  "bytecode": "0x608060405260006008553480156200001657600080fd5b506040516200372238038062003722833981016040819052620000399162000104565b6200004860008260046200009c565b506040516200005790620000df565b604051809103906000f08015801562000074573d6000803e3d6000fd5b50600980546001600160a01b0319166001600160a01b03929092169190911790555062000195565b8260048101928215620000cd579160200282015b82811115620000cd578251825591602001919060010190620000b0565b50620000db929150620000ed565b5090565b611f4780620017db83390190565b5b80821115620000db5760008155600101620000ee565b6000608082840312156200011757600080fd5b82601f8301126200012757600080fd5b604051608081016001600160401b03811182821017156200015857634e487b7160e01b600052604160045260246000fd5b6040528060808401858111156200016e57600080fd5b845b818110156200018a57805183526020928301920162000170565b509195945050505050565b61163680620001a56000396000f3fe6080604052600436106101095760003560e01c8063a47dd24411610095578063decddb8911610064578063decddb89146102ff578063e07febdc1461031f578063ec5e36f41461033f578063ecb3dc881461035f578063f7888aec1461037557600080fd5b8063a47dd2441461025e578063b8f3e1b71461027e578063bd77ac2c146102bf578063be082c73146102df57600080fd5b80634024e83a116100dc5780634024e83a146101c35780636215be77146101f35780638322fff2146102115780638940aebe1461023e578063a0712d68146101f357600080fd5b80630f4d14e91461010e578063156522a8146101235780632e1a7d4d146101635780633d4dff7b14610183575b600080fd5b61012161011c366004610ebd565b610395565b005b34801561012f57600080fd5b5061015061013e366004610eeb565b60046020526000908152604090205481565b6040519081526020015b60405180910390f35b34801561016f57600080fd5b5061012161017e366004610ebd565b61046a565b34801561018f57600080fd5b506101b361019e366004610ebd565b60056020526000908152604090205460ff1681565b604051901515815260200161015a565b3480156101cf57600080fd5b506101b36101de366004610ebd565b60066020526000908152604090205460ff1681565b3480156101ff57600080fd5b5061012161020e366004610ebd565b50565b34801561021d57600080fd5b50610226600081565b6040516001600160a01b03909116815260200161015a565b34801561024a57600080fd5b50610150610259366004610ebd565b6104a7565b34801561026a57600080fd5b50610121610279366004610f58565b6104be565b34801561028a57600080fd5b50610226610299366004610f9a565b60076020908152600092835260408084209091529082529020546001600160a01b031681565b3480156102cb57600080fd5b506101216102da366004610ebd565b610631565b3480156102eb57600080fd5b506101506102fa366004610fca565b610668565b34801561030b57600080fd5b5061012161031a366004610f58565b6106d2565b34801561032b57600080fd5b5061012161033a3660046110c1565b6107a0565b34801561034b57600080fd5b5061012161035a366004610f58565b610856565b34801561036b57600080fd5b5061015060085481565b34801561038157600080fd5b5061015061039036600461116e565b610971565b600080805260046020527f17ef568e3e12ab5b9c7254a8d58478811de00f9e6eb34345acd53bf8fd09d3ec80543492906103d09084906111b2565b909155505060088054600091826103e6836111c5565b91905055905060006103fe3360006012863487610668565b6000818152600560209081526040808320805460ff191660011790558051601281529182018790523490820152606081018590529192509033907ff3b2a76575670b4eff5a4ad3639d40d32f7ca987adac169e6f9b89a3ab857d279060800160405180910390a3505050565b60408051338152602081018390527f7084f5476618d8e60b11ef0d7d3f06914655adb8793e28ff7f018d4c76d505d591015b60405180910390a150565b600081600481106104b757600080fd5b0154905081565b6000808080806104d08688018861127b565b5050505050509550955095509550509450600084600a6104f091906113ed565b905060006104ff85600a6113ed565b9050600061050e85600a6113ed565b9050600061051d85600a6111b2565b9050600061052c8660146111b2565b9050600061053b8a60646113ed565b9050600061054b8a6103e86113ed565b9050600061055a8a60146113ed565b905060006105698a60146111b2565b905060006105788b601e6111b2565b905060006105878c60286111b2565b905060006105968d60286111b2565b90506105b96040518060600160405280602f81526020016115ac602f91396109e8565b6105c28c610a2b565b6105cb8b610a2b565b6105d48a610a2b565b6105dd89610a2b565b6105e688610a2b565b6105ef87610a2b565b6105f886610a2b565b61060185610a2b565b61060a84610a2b565b61061383610a2b565b61061c82610a2b565b50505050505050505050505050505050505050565b6040805160008152602081018390527f7084f5476618d8e60b11ef0d7d3f06914655adb8793e28ff7f018d4c76d505d5910161049c565b6040516bffffffffffffffffffffffff19606088811b8216602084015287901b16603482015260488101859052606881018490526088810183905260a8810182905260009060c8016040516020818303038152906040528051906020012090509695505050505050565b600080808080808080808080806106eb8d8f018f61127b565b9b509b509b509b509b509b509b509b509b509b509b509b506107246040518060600160405280602681526020016115db602691396109e8565b61072d8c610a70565b6107368b610a70565b61073f8a610a2b565b61074889610a2b565b61075188610a2b565b61075a87610a2b565b610763866109e8565b61076c856109e8565b610775846109e8565b61077e836109e8565b610787826109e8565b610790816109e8565b5050505050505050505050505050565b6107ae565b60405180910390fd5b82516000541480156107c557506020830151600154145b80156107d657506040830151600254145b80156107e757506060830151600354145b6108285760405162461bcd60e51b8152602060048201526012602482015271496e76616c6964205075626c6963204b657960701b60448201526064016107a5565b600061083685858585610ab8565b6000908152600660205260409020805460ff191660011790555050505050565b6000808080808080808080808061086f8d8f018f61127b565b9b509b509b509b509b509b509b509b509b509b509b509b5060008a600a61089691906113ed565b905060006108a58b600a6113ed565b905060006108b48b600a6113ed565b90506108d76040518060600160405280602681526020016115db602691396109e8565b6108e08f610a70565b6108e98e610a70565b6108f28d610a2b565b6108fb8c610a2b565b6109048b610a2b565b61090d8a610a2b565b610916896109e8565b61091f886109e8565b610928876109e8565b610931866109e8565b61093a856109e8565b610943846109e8565b61094c83610a2b565b61095582610a2b565b61095e81610a2b565b5050505050505050505050505050505050565b6040516370a0823160e01b81526001600160a01b038281166004830152600091908416906370a0823190602401602060405180830381865afa1580156109bb573d6000803e3d6000fd5b505050506040513d601f19601f820116820180604052508101906109df919061141a565b90505b92915050565b61020e816040516024016109fc9190611479565b60408051601f198184030181529190526020810180516001600160e01b031663104c13eb60e21b179052610cd3565b61020e81604051602401610a4191815260200190565b60408051601f198184030181529190526020810180516001600160e01b031663f82c50f160e01b179052610cd3565b6040516001600160a01b038216602482015261020e9060440160408051601f198184030181529190526020810180516001600160e01b031663161765e160e11b179052610cd3565b6000808080808080610acc888a018a610fca565b9550955095509550955095506000610ae8878787878787610668565b60008181526006602052604090205490915060ff1615610b4a5760405162461bcd60e51b815260206004820152601f60248201527f416c7265616479206d696e74656420666f72206465706f73697420686173680060448201526064016107a5565b60095460408051808201909152601181527010938c8d4d8b521054d21513d413d25395607a1b60208201526000916001600160a01b0316906354894f5890610b9185610cdc565b6040518363ffffffff1660e01b8152600401610bae92919061148c565b6040805180830381865afa158015610bca573d6000803e3d6000fd5b505050506040513d601f19601f82011682018060405250810190610bee91906114ba565b90506000600960009054906101000a90046001600160a01b03166001600160a01b0316620d66e08f8f856040518463ffffffff1660e01b8152600401610c3693929190611543565b602060405180830381865afa158015610c53573d6000803e3d6000fd5b505050506040513d601f19601f82011682018060405250810190610c779190611589565b9050600181151514610cbf5760405162461bcd60e51b8152602060048201526011602482015270496e76616c6964205369676e617475726560781b60448201526064016107a5565b50909750505050505050505b949350505050565b61020e81610e9c565b604080516042808252608082019092526060916000919060208201818036833701905050905060006040518060400160405280601081526020016f181899199a1a9b1b9c1cb0b131b232b360811b8152509050600360fc1b82600081518110610d4757610d47611404565b60200101906001600160f81b031916908160001a905350600f60fb1b82600181518110610d7657610d76611404565b60200101906001600160f81b031916908160001a90535060005b6020811015610e93576000858260208110610dad57610dad611404565b845191901a91508390600483901c60ff16908110610dcd57610dcd611404565b01602001516001600160f81b03191684610de88460026113ed565b610df39060026111b2565b81518110610e0357610e03611404565b60200101906001600160f81b031916908160001a9053508281600f1660ff1681518110610e3257610e32611404565b01602001516001600160f81b03191684610e4d8460026113ed565b610e589060036111b2565b81518110610e6857610e68611404565b60200101906001600160f81b031916908160001a905350508080610e8b906111c5565b915050610d90565b50909392505050565b60006a636f6e736f6c652e6c6f679050600080835160208501845afa505050565b600060208284031215610ecf57600080fd5b5035919050565b6001600160a01b038116811461020e57600080fd5b600060208284031215610efd57600080fd5b8135610f0881610ed6565b9392505050565b60008083601f840112610f2157600080fd5b50813567ffffffffffffffff811115610f3957600080fd5b602083019150836020828501011115610f5157600080fd5b9250929050565b60008060208385031215610f6b57600080fd5b823567ffffffffffffffff811115610f8257600080fd5b610f8e85828601610f0f565b90969095509350505050565b60008060408385031215610fad57600080fd5b823591506020830135610fbf81610ed6565b809150509250929050565b60008060008060008060c08789031215610fe357600080fd5b8635610fee81610ed6565b95506020870135610ffe81610ed6565b95989597505050506040840135936060810135936080820135935060a0909101359150565b634e487b7160e01b600052604160045260246000fd5b6040805190810167ffffffffffffffff8111828210171561105c5761105c611023565b60405290565b60006040516080810181811067ffffffffffffffff8211171561108757611087611023565b604052905080608083018481111561109e57600080fd5b835b818110156110b85780358352602092830192016110a0565b50505092915050565b60008060008060e085870312156110d757600080fd5b85601f8601126110e657600080fd5b6110ee611039565b80604087018881111561110057600080fd5b875b8181101561111a578035845260209384019301611102565b5081965088605f89011261112d57600080fd5b6111378982611062565b955050505060c085013567ffffffffffffffff81111561115657600080fd5b61116287828801610f0f565b95989497509550505050565b6000806040838503121561118157600080fd5b823561118c81610ed6565b91506020830135610fbf81610ed6565b634e487b7160e01b600052601160045260246000fd5b808201808211156109e2576109e261119c565b6000600182016111d7576111d761119c565b5060010190565b80356111e981610ed6565b919050565b600082601f8301126111ff57600080fd5b813567ffffffffffffffff8082111561121a5761121a611023565b604051601f8301601f19908116603f0116810190828211818310171561124257611242611023565b8160405283815286602085880101111561125b57600080fd5b836020870160208301376000602085830101528094505050505092915050565b6000806000806000806000806000806000806101808d8f03121561129e57600080fd5b6112a78d6111de565b9b506112b560208e016111de565b9a5060408d0135995060608d0135985060808d0135975060a08d0135965067ffffffffffffffff60c08e013511156112ec57600080fd5b6112fc8e60c08f01358f016111ee565b955067ffffffffffffffff60e08e0135111561131757600080fd5b6113278e60e08f01358f016111ee565b945067ffffffffffffffff6101008e0135111561134357600080fd5b6113548e6101008f01358f016111ee565b935067ffffffffffffffff6101208e0135111561137057600080fd5b6113818e6101208f01358f016111ee565b925067ffffffffffffffff6101408e0135111561139d57600080fd5b6113ae8e6101408f01358f016111ee565b915067ffffffffffffffff6101608e013511156113ca57600080fd5b6113db8e6101608f01358f016111ee565b90509295989b509295989b509295989b565b80820281158282048414176109e2576109e261119c565b634e487b7160e01b600052603260045260246000fd5b60006020828403121561142c57600080fd5b5051919050565b6000815180845260005b818110156114595760208185018101518683018201520161143d565b506000602082860101526020601f19601f83011685010191505092915050565b6020815260006109df6020830184611433565b60408152600061149f6040830185611433565b82810360208401526114b18185611433565b95945050505050565b6000604082840312156114cc57600080fd5b82601f8301126114db57600080fd5b6114e3611039565b8060408401858111156114f557600080fd5b845b8181101561150f5780518452602093840193016114f7565b509095945050505050565b8060005b600281101561153d57815184526020938401939091019060010161151e565b50505050565b6101008101611552828661151a565b604082018460005b600481101561157957815183526020928301929091019060010161155a565b505050610ccb60c083018461151a565b60006020828403121561159b57600080fd5b81518015158114610f0857600080fdfe556e69742074657374456e636f6465496e707574506c75734c6f63616c5f5061727469616c45787472616374696f6e556e69742074657374456e636f646520616464726573732c20616464726573732c2075696e74a264697066735822122001819013db942c78c0553147f2ffc973107e1fce5504d680b411df3bccf9bf1f64736f6c63430008140033608060405234801561001057600080fd5b50611f27806100206000396000f3fe608060405234801561001057600080fd5b50600436106100405760003560e01c80620d66e014610045578063145dad8b1461006d57806354894f5814610080575b600080fd5b610058610053366004611bf5565b6100a0565b60405190151581526020015b60405180910390f35b61005861007b366004611d22565b6102a5565b61009361008e366004611d22565b6102d9565b6040516100649190611d86565b600080604051806101800160405280866000600281106100c2576100c2611db7565b60200201518152602001866001600281106100df576100df611db7565b602002015181526020017f198e9393920d483a7260bfb731fb5d25f1aa493335a9e71297e485b7aef312c281526020017f1800deef121f1e76426a00665e5c4479674322d4f75edadd46debd5cd992f6ed81526020017f275dc4a288d1afb3cbb1ac09187524c7db36395df7be3b99e673b13a075a65ec81526020017f1d9befcd05a5323e6da4d435f3b617cdb3af83285c2df711ef39c01571827f9d81526020018460006002811061019457610194611db7565b60200201518152602001846001600281106101b1576101b1611db7565b60200201518152602001856001600481106101ce576101ce611db7565b60200201518152602001856000600481106101eb576101eb611db7565b602002015181526020018560036004811061020857610208611db7565b602002015181526020018560026004811061022557610225611db7565b602002015190529050610236611b15565b60006020826101808560086107d05a03fa9050808061025157fe5b50806102985760405162461bcd60e51b8152602060048201526011602482015270696e76616c6964207369676e617475726560781b60448201526064015b60405180910390fd5b5051151595945050505050565b60006102cf60405180604001604052806005815260200164257320257360d81b8152508484610389565b5060015b92915050565b6102e1611b33565b60006102ed84846103d5565b9050600061030182825b6020020151610490565b905060006103108360016102f7565b905061031a611b51565b825181526020808401518282015282516040808401919091529083015160608301526000908460808460066107d05a03fa9050808061035557fe5b508061037d5760405162461bcd60e51b8152602060048201526000602482015260440161028f565b50919695505050505050565b6103d08383836040516024016103a193929190611e1d565b60408051601f198184030181529190526020810180516001600160e01b0316632ced7cef60e01b17905261085b565b505050565b6103dd611b33565b60006103e98484610867565b9050600080600080601885016001600160c01b0381511693506030860190506001600160c01b038151169450600080516020611ed283398151915285600080516020611ed2833981519152600160c01b870908604887015160608801516001600160c01b0390811697501694509250600080516020611ed283398151915290508481600160c01b860908604080518082019091529283526020830152509695505050505050565b610498611b33565b600080516020611ed283398151915282106105015760405162461bcd60e51b815260206004820152602360248201527f6d6170546f506f696e7446543a20696e76616c6964206669656c6420656c656d604482015262195b9d60ea1b606482015260840161028f565b81600061050d82610b73565b90506000600080516020611ed28339815191528384099050600080516020611ed28339815191526004820890506000600080516020611ed283398151915277b3c4d79d41a91759a9e4c7e359b6b89eaec68e62effffffd850990506000600080516020611ed2833981519152838309905061058781610c44565b9050600080516020611ed28339815191528283099150600080516020611ed28339815191528183099150600080516020611ed28339815191528286099150600080516020611ed28339815191526105ec83600080516020611ed2833981519152611e76565b7759e26bcea0d48bacd4f263f1acdb5c4f5763473177fffffe089450600080516020611ed28339815191528586099150600080516020611ed28339815191528583099150600080516020611ed2833981519152600383089150600061065083610c4f565b9093509050801561069957841561067c5761067983600080516020611ed2833981519152611e76565b92505b505060408051808201909152938452602084015250909392505050565b600080516020611ed2833981519152600187086106c490600080516020611ed2833981519152611e76565b9550600080516020611ed28339815191528687099250600080516020611ed28339815191528684099250600080516020611ed283398151915260038408925061070c83610c4f565b9093509050801561073557841561067c5761067983600080516020611ed2833981519152611e76565b600080516020611ed28339815191528485099550600080516020611ed28339815191528687099550600080516020611ed28339815191528287099550600080516020611ed28339815191528287099550600080516020611ed2833981519152600187089550600080516020611ed28339815191528687099250600080516020611ed28339815191528684099250600080516020611ed28339815191526003840892506107e083610c4f565b90935090508061083d5760405162461bcd60e51b815260206004820152602260248201527f424c533a20626164206674206d617070696e6720696d706c656d656e7461746960448201526137b760f11b606482015260840161028f565b841561067c5761067983600080516020611ed2833981519152611e76565b61086481610c78565b50565b815160609061010081106108bd5760405162461bcd60e51b815260206004820152601a60248201527f424c533a20696e76616c696420646f6d61696e206c656e677468000000000000604482015260640161028f565b825160006108cb8284611e89565b6108d6906040611e89565b6108e1906004611e89565b67ffffffffffffffff8111156108f9576108f9611b6f565b6040519080825280601f01601f191660200182016040528015610923576020820181803683370190505b5060408051606080825260808201909252919250600091906020820181803683370190505090506060820160005b8481101561096b5760208189018101518383015201610951565b5083016000815360010160608153600101600081536001810190506020880151815284810190508481535060006002836040516109a89190611e9c565b602060405180830381855afa1580156109c5573d6000803e3d6000fd5b5050506040513d601f19601f820116820180604052508101906109e89190611eb8565b905060006109f7866022611e89565b945084845281602085015260016040850153602089015160418501528560418701850153600284604051610a2b9190611e9c565b602060405180830381855afa158015610a48573d6000803e3d6000fd5b5050506040513d601f19601f82011682018060405250810190610a6b9190611eb8565b90508060208401528082188060208601525060026040850153602089015160418501528560418701850153600284604051610aa69190611e9c565b602060405180830381855afa158015610ac3573d6000803e3d6000fd5b5050506040513d601f19601f82011682018060405250810190610ae69190611eb8565b90508060408401528082188060208601525060036040850153602089015160418501528560418701850153600284604051610b219190611e9c565b602060405180830381855afa158015610b3e573d6000803e3d6000fd5b5050506040513d601f19601f82011682018060405250810190610b619190611eb8565b60608401525090979650505050505050565b60008060405160208152602080820152602060408201528360608201527f183227397098d014dc2822db40c0ac2ecbc0b548b438e5469e10460b6c3e7ea36080820152600080516020611ed283398151915260a082015260208160c08360056107d05a03fa90516001149250905080610c3d5760405162461bcd60e51b815260206004820152602660248201527f424c533a2069734e6f6e526573696475654650206d6f646578702063616c6c2060448201526519985a5b195960d21b606482015260840161028f565b5015919050565b60006102d382610c99565b600080610c5b836113e0565b915082600080516020611ed2833981519152838409149050915091565b60006a636f6e736f6c652e6c6f679050600080835160208501845afa505050565b6000600080516020611ed28339815191528083840991508083830981838209828283098385830984848309858484098684850997508684840987858409945087898a09985087898a09985087898a09985087898a09985087898a09985087878a09985087898a09985087898a09985087898a099850878a8a09985087898a09985087898a09985087898a09985087898a099850878a8a09985087898a09985087898a09985087898a09985087898a09985087898a09985087848a09985087898a09985087898a09985087898a09985087898a09985087898a09985087848a09985087898a09985087898a09985087898a099850878a8a09985087898a09985087898a09985087898a09985087898a09985087848a09985087898a09985087898a09985087898a09985087898a09985087898a099850878a8a09985087898a09985087898a09985087898a09985087898a09985087878a09985087898a09985087898a09985087898a09985087898a09985087898a09985087898a09985087898a09985087818a09985087898a09985087898a09985087898a09985087898a09985087898a09985087898a09985087898a09985087898a09985087898a09985087898a09985087868a09985087898a09985087898a09985087898a09985087898a09985087878a09985087898a09985087898a09985087898a09985087898a09985087848a09985087898a09985087898a09985087898a09985087898a09985087898a09985087898a09985087898a09985087868a09985087898a09985087898a09985087898a09985087898a09985087898a09985087898a099850878a8a09985087898a09985087898a09985087898a09985087898a09985087898a09985087898a09985087898a09985087828a09985087898a09985087898a09985087898a09985087898a09985087898a09985087818a09985087898a09985087898a09985087898a09985087868a09985087898a09985087898a09985087898a09985087898a09985087898a09985087898a09985087898a09985087898a09985087878a09985087898a09985087898a09985087898a09985087898a09985087898a09985087898a09985087898a09985087898a09985087898a09985087868a09985087898a09985087898a09985087898a09985087878a09985087898a09985087898a09985087898a09985087898a09985087898a09985087898a09985087898a09985087898a09985087828a09985087898a09985087898a09985087898a09985087898a09985087828a09985087898a09985087898a09985087898a09985087898a09985087898a09985087868a09985087898a09985087898a09985087898a09985087848a09985087898a09985087898a09985087898a09985087898a09985087898a09985087898a09985087898a09985087898a09985087898a09985087898a09985087828a09985087898a09985087898a09985087898a09985087898a09985087868a09985087898a09985087898a09985087898a09985087898a09985087898a09985087838a09985087898a09985087898a09985087898a09985087898a09985087898a09985087898a09985087898a09985087828a09985087898a09985087898a099850878a8a09985087898a09985087898a09985087898a09985087898a09985087898a09985087898a09985087898a09985087848a09985087898a09985087898a09985087898a09985087898a09985087898a09985087898a09985087848a09985087898a09985087898a09985087898a09985087898a09985087898a09985087868a09985087898a09985087898a099850878a8a09985087898a09985087898a09985087898a09985087898a09985087898a09985087898a09985087898a09985087818a09985050868889099750868889099750868889099750868889099750868889099750868889099750868489099750868889099750868889099750868889099750868889099750868889099750868989099750868889099750868889099750868889099750868889099750868889099750868889099750868989099750868889099750868889099750868889099750868889099750868889099750868689099750868889099750868889099750868889099750868889099750868889099750868889099750868889099750868889099750868889099750868189099750508587880996508587880996508587880996508585880996508587880996508587880996508587880996508585880996508587880996508587880996508587880996508587880996508587880996508587880996508587880996508587880996508583880996508587880996508587880996508587880996508587880996508581880996505050838586099450838586099450838586099450838586099450838186099450508284850993508284850993508284850993508281850993508284850993508284850993508285850993508284850993508284850993508284850993508284850993508284850993508284850993508281850995945050505050565b6000600080516020611ed28339815191528083840991508083830981838209828283098385830984848309858484098684850997508684840987858409945087898a09985087898a09985087898a09985087898a09985087898a09985087878a09985087898a09985087898a09985087898a099850878a8a09985087898a09985087898a09985087898a09985087898a099850878a8a09985087898a09985087898a09985087898a09985087898a09985087898a09985087848a09985087898a09985087898a09985087898a09985087898a09985087898a09985087848a09985087898a09985087898a09985087898a099850878a8a09985087898a09985087898a09985087898a09985087898a09985087848a09985087898a09985087898a09985087898a09985087898a09985087898a099850878a8a09985087898a09985087898a09985087898a09985087898a09985087878a09985087898a09985087898a09985087898a09985087898a09985087898a09985087898a09985087898a09985087818a09985087898a09985087898a09985087898a09985087898a09985087898a09985087898a09985087898a09985087898a09985087898a09985087898a09985087868a09985087898a09985087898a09985087898a09985087898a09985087878a09985087898a09985087898a09985087898a09985087898a09985087848a09985087898a09985087898a09985087898a09985087898a09985087898a09985087898a09985087898a09985087868a09985087898a09985087898a09985087898a09985087898a09985087898a09985087898a099850878a8a09985087898a09985087898a09985087898a09985087898a09985087898a09985087898a09985087898a09985087828a09985087898a09985087898a09985087898a09985087898a09985087898a09985087818a09985087898a09985087898a09985087898a09985087868a09985087898a09985087898a09985087898a09985087898a09985087898a09985087898a09985087898a09985087898a09985087878a09985087898a09985087898a09985087898a09985087898a09985087898a09985087898a09985087898a09985087898a09985087898a09985087868a09985087898a09985087898a09985087898a09985087878a09985087898a09985087898a09985087898a09985087898a09985087898a09985087898a09985087898a09985087898a09985087828a09985087898a09985087898a09985087898a09985087898a09985087828a09985087898a09985087898a09985087898a09985087898a09985087898a09985087868a09985087898a09985087898a09985087898a09985087848a09985087898a09985087898a09985087898a09985087898a09985087898a09985087898a09985087898a09985087898a09985087898a09985087898a09985087828a09985087898a09985087898a09985087898a09985087898a09985087868a09985087898a09985087898a09985087898a09985087898a09985087898a09985087838a09985087898a09985087898a09985087898a09985087898a09985087898a09985087898a09985087898a09985087828a09985087898a09985087898a099850878a8a09985087898a09985087898a09985087898a09985087898a09985087898a09985087898a09985087898a09985087848a09985087898a09985087898a09985087898a09985087898a09985087898a09985087898a09985087848a09985087898a09985087898a09985087898a09985087898a09985087898a09985087868a09985087898a09985087898a099850878a8a09985087898a09985087898a09985087898a09985087898a09985087898a09985087898a09985087898a09985087818a09985050868889099750868889099750868889099750868889099750868889099750868889099750868489099750868889099750868889099750868889099750868889099750868889099750868989099750868889099750868889099750868889099750868889099750868889099750868889099750868989099750868889099750868889099750868889099750868889099750868889099750868689099750868889099750868889099750868889099750868889099750868889099750868889099750868889099750868889099750868889099750868189099750508587880996508587880996508587880996508585880996508587880996508587880996508587880996508585880996508587880996508587880996508587880996508587880996508587880996508587880996508587880996508587880996508583880996508587880996508587880996508587880996508587880996508581880996508587880996508587880996508587880996508587880996508583880996508587880996508587880996508587880996508584880996508587880996508587880996508587880996508587880996508587880996508581880996505050505050808283099392505050565b60405180602001604052806001906020820280368337509192915050565b60405180604001604052806002906020820280368337509192915050565b60405180608001604052806004906020820280368337509192915050565b634e487b7160e01b600052604160045260246000fd5b600082601f830112611b9657600080fd5b6040516040810181811067ffffffffffffffff82111715611bb957611bb9611b6f565b8060405250806040840185811115611bd057600080fd5b845b81811015611bea578035835260209283019201611bd2565b509195945050505050565b60008060006101008486031215611c0b57600080fd5b611c158585611b85565b925084605f850112611c2657600080fd5b6040516080810181811067ffffffffffffffff82111715611c4957611c49611b6f565b6040528060c0860187811115611c5e57600080fd5b604087015b81811015611c7b578035835260209283019201611c63565b50829450611c898882611b85565b93505050509250925092565b600082601f830112611ca657600080fd5b813567ffffffffffffffff80821115611cc157611cc1611b6f565b604051601f8301601f19908116603f01168101908282118183101715611ce957611ce9611b6f565b81604052838152866020858801011115611d0257600080fd5b836020870160208301376000602085830101528094505050505092915050565b60008060408385031215611d3557600080fd5b823567ffffffffffffffff80821115611d4d57600080fd5b611d5986838701611c95565b93506020850135915080821115611d6f57600080fd5b50611d7c85828601611c95565b9150509250929050565b60408101818360005b6002811015611dae578151835260209283019290910190600101611d8f565b50505092915050565b634e487b7160e01b600052603260045260246000fd5b60005b83811015611de8578181015183820152602001611dd0565b50506000910152565b60008151808452611e09816020860160208601611dcd565b601f01601f19169290920160200192915050565b606081526000611e306060830186611df1565b8281036020840152611e428186611df1565b90508281036040840152611e568185611df1565b9695505050505050565b634e487b7160e01b600052601160045260246000fd5b818103818111156102d3576102d3611e60565b808201808211156102d3576102d3611e60565b60008251611eae818460208701611dcd565b9190910192915050565b600060208284031215611eca57600080fd5b505191905056fe30644e72e131a029b85045b68181585d97816a916871ca8d3c208c16d87cfd47a26469706673582212200c8d4805bbe43408dc25b6476ff669665be2b7d353513fbd4652dd6db86b011864736f6c63430008140033",
  "linkReferences": {},
  "deployedLinkReferences": {}
}