{
  "_format": "hh-sol-artifact-1",
  "contractName": "Vault",
  "sourceName": "contracts/Vault.sol",
  "abi": [
    {
      "inputs": [
        {
          "internalType": "uint256",
          "name": "chainId_",
          "type": "uint256"
        },
        {
          "internalType": "uint256[4]",
          "name": "publicKey_",
          "type": "uint256[4]"
        }
      ],
      "stateMutability": "nonpayable",
      "type": "constructor"
    },
    {
      "anonymous": false,
      "inputs": [
        {
          "indexed": true,
          "internalType": "address",
          "name": "vaultUser",
          "type": "address"
        },
        {
          "indexed": false,
          "internalType": "uint256",
          "name": "originatingChain",
          "type": "uint256"
        },
        {
          "indexed": true,
          "internalType": "address",
          "name": "originatingToken",
          "type": "address"
        },
        {
          "indexed": false,
          "internalType": "uint256",
          "name": "decimals",
          "type": "uint256"
        },
        {
          "indexed": false,
          "internalType": "uint256",
          "name": "toChainId",
          "type": "uint256"
        },
        {
          "indexed": false,
          "internalType": "uint256",
          "name": "amount",
          "type": "uint256"
        },
        {
          "indexed": false,
          "internalType": "uint256",
          "name": "depositCounter",
          "type": "uint256"
        }
      ],
      "name": "Deposited",
      "type": "event"
    },
    {
      "anonymous": false,
      "inputs": [
        {
          "indexed": false,
          "internalType": "uint256",
          "name": "amount",
          "type": "uint256"
        }
      ],
      "name": "Disbursed",
      "type": "event"
    },
    {
      "anonymous": false,
      "inputs": [
        {
          "indexed": false,
          "internalType": "uint256",
          "name": "amount",
          "type": "uint256"
        }
      ],
      "name": "Minted",
      "type": "event"
    },
    {
      "anonymous": false,
      "inputs": [
        {
          "indexed": true,
          "internalType": "address",
          "name": "vaultUser",
          "type": "address"
        },
        {
          "indexed": false,
          "internalType": "uint256",
          "name": "originatingChain",
          "type": "uint256"
        },
        {
          "indexed": true,
          "internalType": "address",
          "name": "originatingToken",
          "type": "address"
        },
        {
          "indexed": false,
          "internalType": "uint256",
          "name": "decimals",
          "type": "uint256"
        },
        {
          "indexed": false,
          "internalType": "uint256",
          "name": "toChainId",
          "type": "uint256"
        },
        {
          "indexed": false,
          "internalType": "uint256",
          "name": "amount",
          "type": "uint256"
        },
        {
          "indexed": false,
          "internalType": "uint256",
          "name": "withdrawCounter",
          "type": "uint256"
        }
      ],
      "name": "Withdrawn",
      "type": "event"
    },
    {
      "inputs": [],
      "name": "ETH",
      "outputs": [
        {
          "internalType": "address",
          "name": "",
          "type": "address"
        }
      ],
      "stateMutability": "view",
      "type": "function"
    },
    {
      "inputs": [
        {
          "internalType": "address",
          "name": "proxyToken",
          "type": "address"
        },
        {
          "internalType": "address",
          "name": "vaultUser",
          "type": "address"
        }
      ],
      "name": "balanceOf",
      "outputs": [
        {
          "internalType": "uint256",
          "name": "",
          "type": "uint256"
        }
      ],
      "stateMutability": "view",
      "type": "function"
    },
    {
      "inputs": [],
      "name": "chainId",
      "outputs": [
        {
          "internalType": "uint256",
          "name": "",
          "type": "uint256"
        }
      ],
      "stateMutability": "view",
      "type": "function"
    },
    {
      "inputs": [],
      "name": "depositCounter",
      "outputs": [
        {
          "internalType": "uint256",
          "name": "",
          "type": "uint256"
        }
      ],
      "stateMutability": "view",
      "type": "function"
    },
    {
      "inputs": [
        {
          "internalType": "uint256",
          "name": "toChainId",
          "type": "uint256"
        }
      ],
      "name": "depositEth",
      "outputs": [],
      "stateMutability": "payable",
      "type": "function"
    },
    {
      "inputs": [
        {
          "internalType": "uint256",
          "name": "toChainId",
          "type": "uint256"
        },
        {
          "internalType": "address",
          "name": "tokenAddress",
          "type": "address"
        },
        {
          "internalType": "uint256",
          "name": "tokenAmount",
          "type": "uint256"
        }
      ],
      "name": "depositToken",
      "outputs": [],
      "stateMutability": "nonpayable",
      "type": "function"
    },
    {
      "inputs": [
        {
          "internalType": "bytes32",
          "name": "",
          "type": "bytes32"
        }
      ],
      "name": "deposits",
      "outputs": [
        {
          "internalType": "bool",
          "name": "",
          "type": "bool"
        }
      ],
      "stateMutability": "view",
      "type": "function"
    },
    {
      "inputs": [
        {
          "internalType": "uint256[2]",
          "name": "signature",
          "type": "uint256[2]"
        },
        {
          "internalType": "uint256[4]",
          "name": "signerKey",
          "type": "uint256[4]"
        },
        {
          "internalType": "bytes",
          "name": "withdrawPayload",
          "type": "bytes"
        }
      ],
      "name": "disburse",
      "outputs": [],
      "stateMutability": "nonpayable",
      "type": "function"
    },
    {
      "inputs": [
        {
          "internalType": "bytes32",
          "name": "",
          "type": "bytes32"
        }
      ],
      "name": "disbursed",
      "outputs": [
        {
          "internalType": "bool",
          "name": "",
          "type": "bool"
        }
      ],
      "stateMutability": "view",
      "type": "function"
    },
    {
      "inputs": [
        {
          "internalType": "address",
          "name": "vaultUser",
          "type": "address"
        },
        {
          "internalType": "uint256",
          "name": "originatingChain",
          "type": "uint256"
        },
        {
          "internalType": "address",
          "name": "originatingToken",
          "type": "address"
        },
        {
          "internalType": "uint256",
          "name": "decimals",
          "type": "uint256"
        },
        {
          "internalType": "uint256",
          "name": "toChainId",
          "type": "uint256"
        },
        {
          "internalType": "uint256",
          "name": "amount",
          "type": "uint256"
        },
        {
          "internalType": "uint256",
          "name": "counter",
          "type": "uint256"
        }
      ],
      "name": "hashOf",
      "outputs": [
        {
          "internalType": "bytes32",
          "name": "",
          "type": "bytes32"
        }
      ],
      "stateMutability": "pure",
      "type": "function"
    },
    {
      "inputs": [
        {
          "internalType": "uint256[2]",
          "name": "signature",
          "type": "uint256[2]"
        },
        {
          "internalType": "uint256[4]",
          "name": "signerKey",
          "type": "uint256[4]"
        },
        {
          "internalType": "bytes",
          "name": "depositPayload",
          "type": "bytes"
        }
      ],
      "name": "mint",
      "outputs": [],
      "stateMutability": "nonpayable",
      "type": "function"
    },
    {
      "inputs": [
        {
          "internalType": "bytes32",
          "name": "",
          "type": "bytes32"
        }
      ],
      "name": "minted",
      "outputs": [
        {
          "internalType": "bool",
          "name": "",
          "type": "bool"
        }
      ],
      "stateMutability": "view",
      "type": "function"
    },
    {
      "inputs": [
        {
          "internalType": "address",
          "name": "",
          "type": "address"
        }
      ],
      "name": "pool",
      "outputs": [
        {
          "internalType": "uint256",
          "name": "",
          "type": "uint256"
        }
      ],
      "stateMutability": "view",
      "type": "function"
    },
    {
      "inputs": [
        {
          "internalType": "uint256",
          "name": "",
          "type": "uint256"
        },
        {
          "internalType": "address",
          "name": "",
          "type": "address"
        }
      ],
      "name": "proxyTokenMap",
      "outputs": [
        {
          "internalType": "address",
          "name": "",
          "type": "address"
        }
      ],
      "stateMutability": "view",
      "type": "function"
    },
    {
      "inputs": [
        {
          "internalType": "uint256",
          "name": "",
          "type": "uint256"
        }
      ],
      "name": "publicKey",
      "outputs": [
        {
          "internalType": "uint256",
          "name": "",
          "type": "uint256"
        }
      ],
      "stateMutability": "view",
      "type": "function"
    },
    {
      "inputs": [],
      "name": "withdrawCounter",
      "outputs": [
        {
          "internalType": "uint256",
          "name": "",
          "type": "uint256"
        }
      ],
      "stateMutability": "view",
      "type": "function"
    },
    {
      "inputs": [
        {
          "internalType": "uint256",
          "name": "toChainId",
          "type": "uint256"
        },
        {
          "internalType": "uint256",
          "name": "amount",
          "type": "uint256"
        }
      ],
      "name": "withdrawEth",
      "outputs": [],
      "stateMutability": "payable",
      "type": "function"
    },
    {
      "inputs": [
        {
          "internalType": "uint256",
          "name": "toChainId",
          "type": "uint256"
        },
        {
          "internalType": "address",
          "name": "tokenAddress",
          "type": "address"
        },
        {
          "internalType": "uint256",
          "name": "amount",
          "type": "uint256"
        }
      ],
      "name": "withdrawToken",
      "outputs": [],
      "stateMutability": "payable",
      "type": "function"
    },
    {
      "inputs": [
        {
          "internalType": "bytes32",
          "name": "",
          "type": "bytes32"
        }
      ],
      "name": "withdrawals",
      "outputs": [
        {
          "internalType": "bool",
          "name": "",
          "type": "bool"
        }
      ],
      "stateMutability": "view",
      "type": "function"
    }
  ],
  "bytecode": "0x60806040526000600b556000600c553480156200001b57600080fd5b50604051620052e1380380620052e18339810160408190526200003e9162000126565b6000829055620000526001826004620000a8565b506040516200006190620000eb565b604051809103906000f0801580156200007e573d6000803e3d6000fd5b50600d80546001600160a01b0319166001600160a01b039290921691909117905550620001b79050565b8260048101928215620000d9579160200282015b82811115620000d9578251825591602001919060010190620000bc565b50620000e7929150620000f9565b5090565b612195806200314c83390190565b5b80821115620000e75760008155600101620000fa565b634e487b7160e01b600052604160045260246000fd5b60008060a083850312156200013a57600080fd5b82519150602084603f8501126200015057600080fd5b604051608081016001600160401b038111828210171562000175576200017562000110565b6040528060a08601878111156200018b57600080fd5b8387015b81811015620001a857805183529184019184016200018f565b50505080925050509250929050565b612f8580620001c76000396000f3fe6080604052600436106200012b5760003560e01c80639a8a059211620000ad578063df251449116200006c578063df251449146200036d578063e07febdc14620003a1578063ecb3dc8814620003c6578063efbf64a714620003de578063f7888aec146200041257600080fd5b80639a8a059214620002bc5780639c99e2b914620002d4578063b8f3e1b714620002eb578063be5f1f9a1462000330578063ca16e3eb146200035557600080fd5b80633d4dff7b11620000fa5780633d4dff7b14620001d757806368a6773b146200021c5780638322fff214620002335780638940aebe14620002635780638ccc5f80146200028857600080fd5b80630a9306d714620001305780630f4d14e91462000157578063136518db146200016e578063156522a814620001a6575b600080fd5b3480156200013d57600080fd5b50620001556200014f366004620018ec565b62000437565b005b620001556200016836600462001927565b62000716565b3480156200017b57600080fd5b50620001936200018d36600462001941565b620007fe565b6040519081526020015b60405180910390f35b348015620001b357600080fd5b5062000193620001c5366004620019ab565b60056020526000908152604090205481565b348015620001e457600080fd5b506200020b620001f636600462001927565b60066020526000908152604090205460ff1681565b60405190151581526020016200019d565b620001556200022d366004620018ec565b62000870565b3480156200024057600080fd5b506200024a600081565b6040516001600160a01b0390911681526020016200019d565b3480156200027057600080fd5b50620001936200028236600462001927565b62000c36565b3480156200029557600080fd5b506200020b620002a736600462001927565b60086020526000908152604090205460ff1681565b348015620002c957600080fd5b506200019360005481565b62000155620002e5366004620019d2565b62000c4e565b348015620002f857600080fd5b506200024a6200030a366004620019f5565b600a6020908152600092835260408084209091529082529020546001600160a01b031681565b3480156200033d57600080fd5b50620001556200034f36600462001b24565b62000f09565b3480156200036257600080fd5b5062000193600c5481565b3480156200037a57600080fd5b506200020b6200038c36600462001927565b60096020526000908152604090205460ff1681565b348015620003ae57600080fd5b5062000155620003c036600462001b24565b62000fc7565b348015620003d357600080fd5b5062000193600b5481565b348015620003eb57600080fd5b506200020b620003fd36600462001927565b60076020526000908152604090205460ff1681565b3480156200041f57600080fd5b50620001936200043136600462001bdd565b62001085565b6040516370a0823160e01b8152336004820152829082906001600160a01b038316906370a0823190602401602060405180830381865afa15801562000480573d6000803e3d6000fd5b505050506040513d601f19601f82011682018060405250810190620004a6919062001c10565b1015620004f15760405162461bcd60e51b8152602060048201526014602482015273496e73756666696369656e742062616c616e636560601b60448201526064015b60405180910390fd5b6040516323b872dd60e01b8152336004820152306024820152604481018390526001600160a01b038216906323b872dd906064016020604051808303816000875af115801562000545573d6000803e3d6000fd5b505050506040513d601f19601f820116820180604052508101906200056b919062001c2a565b506001600160a01b038316600090815260056020526040812080548492906200059690849062001c64565b9091555050600b805460009182620005ae8362001c7a565b9190505590506000620006303360005487866001600160a01b031663313ce5676040518163ffffffff1660e01b8152600401602060405180830381865afa158015620005fe573d6000803e3d6000fd5b505050506040513d601f19601f8201168201806040525081019062000624919062001c96565b60ff168a8988620007fe565b6000818152600660209081526040808320805460ff191660011790559154825163313ce56760e01b815292519394506001600160a01b03808a169433947fb671f239220b3263f004d83c71276b9fcb99b5947d7ebed71cdc01736a74693094928a169263313ce567926004808401938290030181865afa158015620006b9573d6000803e3d6000fd5b505050506040513d601f19601f82011682018060405250810190620006df919062001c96565b6040805192835260ff909116602083015281018a9052606081018890526080810186905260a00160405180910390a3505050505050565b600080805260056020527f05b8ccbb9d4d8fb16ea74ce3c29a41f1b461fbdaff4714a0d9a8eb05499746bc80543492906200075390849062001c64565b9091555050600b8054600091826200076b8362001c7a565b9190505590506000620007883360005460006012873488620007fe565b6000818152600660209081526040808320805460ff19166001179055825481519081526012928101929092528101869052346060820152608081018590529192509033907fb671f239220b3263f004d83c71276b9fcb99b5947d7ebed71cdc01736a7469309060a00160405180910390a3505050565b6040516bffffffffffffffffffffffff19606089811b821660208401526034830189905287901b166054820152606881018590526088810184905260a8810183905260c8810182905260009060e801604051602081830303815290604052805190602001209050979650505050505050565b6000838152600a602090815260408083206001600160a01b0386811685529252918290205491516370a0823160e01b8152336004820152911690829082906370a0823190602401602060405180830381865afa158015620008d5573d6000803e3d6000fd5b505050506040513d601f19601f82011682018060405250810190620008fb919062001c10565b10156200094b5760405162461bcd60e51b815260206004820181905260248201527f496e73756666696369656e742070726f787920746f6b656e2062616c616e63656044820152606401620004e8565b600c8054600091826200095e8362001c7a565b90915550604051632770a7eb60e21b8152336004820152602481018590529091506001600160a01b03831690639dc29fac90604401600060405180830381600087803b158015620009ae57600080fd5b505af1158015620009c3573d6000803e3d6000fd5b50505050600062000ad733846001600160a01b0316632c4701d46040518163ffffffff1660e01b8152600401602060405180830381865afa15801562000a0d573d6000803e3d6000fd5b505050506040513d601f19601f8201168201806040525081019062000a33919062001c10565b856001600160a01b031663860d42886040518163ffffffff1660e01b8152600401602060405180830381865afa15801562000a72573d6000803e3d6000fd5b505050506040513d601f19601f8201168201806040525081019062000a98919062001cbb565b866001600160a01b031663313ce5676040518163ffffffff1660e01b8152600401602060405180830381865afa158015620005fe573d6000803e3d6000fd5b600081815260076020908152604091829020805460ff1916600117905581516310c1a85160e31b815291519293506001600160a01b0386169263860d42889260048082019392918290030181865afa15801562000b38573d6000803e3d6000fd5b505050506040513d601f19601f8201168201806040525081019062000b5e919062001cbb565b6001600160a01b0316336001600160a01b03167fb2857e3d4000687fff193d49357e9232d787454d475652309faf58b0b4ddd44e856001600160a01b0316632c4701d46040518163ffffffff1660e01b8152600401602060405180830381865afa15801562000bd1573d6000803e3d6000fd5b505050506040513d601f19601f8201168201806040525081019062000bf7919062001c10565b866001600160a01b031663313ce5676040518163ffffffff1660e01b8152600401602060405180830381865afa158015620006b9573d6000803e3d6000fd5b6001816004811062000c4757600080fd5b0154905081565b6000828152600a60209081526040808320838052909152908190205490516370a0823160e01b81523360048201526001600160a01b0390911690829082906370a0823190602401602060405180830381865afa15801562000cb3573d6000803e3d6000fd5b505050506040513d601f19601f8201168201806040525081019062000cd9919062001c10565b101562000d355760405162461bcd60e51b8152602060048201526024808201527f496e73756666696369656e74204554482070726f787920746f6b656e2062616c604482015263616e636560e01b6064820152608401620004e8565b600c80546000918262000d488362001c7a565b90915550604051632770a7eb60e21b8152336004820152602481018590529091506001600160a01b03831690639dc29fac90604401600060405180830381600087803b15801562000d9857600080fd5b505af115801562000dad573d6000803e3d6000fd5b50505050600062000e2a33846001600160a01b0316632c4701d46040518163ffffffff1660e01b8152600401602060405180830381865afa15801562000df7573d6000803e3d6000fd5b505050506040513d601f19601f8201168201806040525081019062000e1d919062001c10565b60006012898988620007fe565b6000818152600760209081526040808320805460ff191660011790558051630b11c07560e21b81529051939450919233927fb2857e3d4000687fff193d49357e9232d787454d475652309faf58b0b4ddd44e926001600160a01b03891692632c4701d49260048082019392918290030181865afa15801562000eb0573d6000803e3d6000fd5b505050506040513d601f19601f8201168201806040525081019062000ed6919062001c10565b60408051918252601260208301528101899052606081018890526080810186905260a00160405180910390a35050505050565b825160015414801562000f2157506020830151600254145b801562000f3357506040830151600354145b801562000f4557506060830151600454145b62000f885760405162461bcd60e51b8152602060048201526012602482015271496e76616c6964205075626c6963204b657960701b6044820152606401620004e8565b600062000f9a858585856000620010ff565b905062000fa88383620013ff565b6000908152600960205260409020805460ff1916600117905550505050565b825160015414801562000fdf57506020830151600254145b801562000ff157506040830151600354145b80156200100357506060830151600454145b620010465760405162461bcd60e51b8152602060048201526012602482015271496e76616c6964205075626c6963204b657960701b6044820152606401620004e8565b600062001058858585856001620010ff565b905062001066838362001571565b6000908152600860205260409020805460ff1916600117905550505050565b6040516370a0823160e01b81526001600160a01b038281166004830152600091908416906370a0823190602401602060405180830381865afa158015620010d0573d6000803e3d6000fd5b505050506040513d601f19601f82011682018060405250810190620010f6919062001c10565b90505b92915050565b6000806200114385858080601f016020809104026020016040519081016040528093929190818152602001838380828437600092019190915250620016cd92505050565b9050821515600103620011b75760008181526008602052604090205460ff1615620011b15760405162461bcd60e51b815260206004820152601f60248201527f416c7265616479206d696e74656420666f72206465706f7369742068617368006044820152606401620004e8565b62001226565b60008181526009602052604090205460ff1615620012265760405162461bcd60e51b815260206004820152602560248201527f416c72656164792064697362757273656420666f72207769746864726177616c604482015264040d0c2e6d60db1b6064820152608401620004e8565b600d54604080518082018252601181527010938c8d4d8b521054d21513d413d25395607a1b6020820152905163c68b378760e01b8152600481018490526000926001600160a01b0316916354894f5891839063c68b378790602401600060405180830381865afa1580156200129f573d6000803e3d6000fd5b505050506040513d6000823e601f3d908101601f19168201604052620012c9919081019062001d2c565b6040518363ffffffff1660e01b8152600401620012e892919062001de0565b6040805180830381865afa15801562001305573d6000803e3d6000fd5b505050506040513d601f19601f820116820180604052508101906200132b919062001e09565b600d54604051616b3760e51b81529192506000916001600160a01b0390911690620d66e09062001364908c908c90879060040162001e9b565b602060405180830381865afa15801562001382573d6000803e3d6000fd5b505050506040513d601f19601f82011682018060405250810190620013a8919062001c2a565b9050600181151514620013f25760405162461bcd60e51b8152602060048201526011602482015270496e76616c6964205369676e617475726560781b6044820152606401620004e8565b5090979650505050505050565b600080808080808062001415888a018a62001941565b965096509650965096509650965060005486036200143f576200143989896200171b565b62001566565b6000868152600a602090815260408083206001600160a01b038981168552925282205416620014e0578486886040516200147990620018c5565b620014879392919062001eef565b604051809103906000f080158015620014a4573d6000803e3d6000fd5b506000888152600a602090815260408083206001600160a01b038b81168552925290912080546001600160a01b03191691831691909117905590505b506000868152600a602090815260408083206001600160a01b0389811685529252918290205491516340c10f1960e01b815289821660048201526024810185905291169081906340c10f19906044015b600060405180830381600087803b1580156200154b57600080fd5b505af115801562001560573d6000803e3d6000fd5b50505050505b505050505050505050565b60008080808080808062001588898b018b62001fb7565b9850985050975050965096509650965060006001600160a01b0316600a60008881526020019081526020016000206000876001600160a01b03166001600160a01b0316815260200190815260200160002060009054906101000a90046001600160a01b03166001600160a01b031603620016785781818587896040516200160f90620018c5565b6200161f9594939291906200207c565b604051809103906000f0801580156200163c573d6000803e3d6000fd5b506000878152600a602090815260408083206001600160a01b038a81168552925290912080546001600160a01b03191691831691909117905597505b6000868152600a602090815260408083206001600160a01b0389811685529252918290205491516340c10f1960e01b81528982166004820152602481018690529116985088906340c10f199060440162001530565b60008060008060008060008088806020019051810190620016ef9190620020cf565b96509650965096509650965096506200170e87878787878787620007fe565b9998505050505050505050565b600080808080808062001731888a018a62001941565b96509650965096509650965096508160056000876001600160a01b03166001600160a01b0316815260200190815260200160002060008282546200177691906200213e565b90915550506001600160a01b038516620017c8576040516001600160a01b0388169083156108fc029084906000818181858888f19350505050158015620017c1573d6000803e3d6000fd5b5062001566565b60405163095ea7b360e01b8152306004820152602481018390526001600160a01b0386169063095ea7b3906044016020604051808303816000875af115801562001816573d6000803e3d6000fd5b505050506040513d601f19601f820116820180604052508101906200183c919062001c2a565b506040516323b872dd60e01b81523060048201526001600160a01b038881166024830152604482018490528616906323b872dd906064016020604051808303816000875af115801562001893573d6000803e3d6000fd5b505050506040513d601f19601f82011682018060405250810190620018b9919062001c2a565b50505050505050505050565b610dfb806200215583390190565b6001600160a01b0381168114620018e957600080fd5b50565b6000806000606084860312156200190257600080fd5b8335925060208401356200191681620018d3565b929592945050506040919091013590565b6000602082840312156200193a57600080fd5b5035919050565b600080600080600080600060e0888a0312156200195d57600080fd5b87356200196a81620018d3565b96506020880135955060408801356200198381620018d3565b969995985095966060810135965060808101359560a0820135955060c0909101359350915050565b600060208284031215620019be57600080fd5b8135620019cb81620018d3565b9392505050565b60008060408385031215620019e657600080fd5b50508035926020909101359150565b6000806040838503121562001a0957600080fd5b82359150602083013562001a1d81620018d3565b809150509250929050565b634e487b7160e01b600052604160045260246000fd5b6040805190810167ffffffffffffffff8111828210171562001a645762001a6462001a28565b60405290565b604051601f8201601f1916810167ffffffffffffffff8111828210171562001a965762001a9662001a28565b604052919050565b600062001aaa62001a3e565b905080604083018481111562001abf57600080fd5b835b8181101562001adb57803583526020928301920162001ac1565b50505092915050565b60006040516080810181811067ffffffffffffffff8211171562001b0c5762001b0c62001a28565b604052905080608083018481111562001abf57600080fd5b60008060008060e0858703121562001b3b57600080fd5b85601f86011262001b4b57600080fd5b62001b57868662001a9e565b935085605f86011262001b6957600080fd5b62001b78866040870162001ae4565b925060c085013567ffffffffffffffff8082111562001b9657600080fd5b818701915087601f83011262001bab57600080fd5b81358181111562001bbb57600080fd5b88602082850101111562001bce57600080fd5b95989497505060200194505050565b6000806040838503121562001bf157600080fd5b823562001bfe81620018d3565b9150602083013562001a1d81620018d3565b60006020828403121562001c2357600080fd5b5051919050565b60006020828403121562001c3d57600080fd5b81518015158114620019cb57600080fd5b634e487b7160e01b600052601160045260246000fd5b80820180821115620010f957620010f962001c4e565b60006001820162001c8f5762001c8f62001c4e565b5060010190565b60006020828403121562001ca957600080fd5b815160ff81168114620019cb57600080fd5b60006020828403121562001cce57600080fd5b8151620019cb81620018d3565b600067ffffffffffffffff82111562001cf85762001cf862001a28565b50601f01601f191660200190565b60005b8381101562001d2357818101518382015260200162001d09565b50506000910152565b60006020828403121562001d3f57600080fd5b815167ffffffffffffffff81111562001d5757600080fd5b8201601f8101841362001d6957600080fd5b805162001d8062001d7a8262001cdb565b62001a6a565b81815285602083850101111562001d9657600080fd5b62001da982602083016020860162001d06565b95945050505050565b6000815180845262001dcc81602086016020860162001d06565b601f01601f19169290920160200192915050565b60408152600062001df5604083018562001db2565b828103602084015262001da9818562001db2565b60006040828403121562001e1c57600080fd5b82601f83011262001e2c57600080fd5b62001e3662001a3e565b80604084018581111562001e4957600080fd5b845b8181101562001e6557805184526020938401930162001e4b565b509095945050505050565b8060005b600281101562001e9557815184526020938401939091019060010162001e74565b50505050565b610100810162001eac828662001e70565b604082018460005b600481101562001ed557815183526020928301929091019060010162001eb4565b50505062001ee760c083018462001e70565b949350505050565b60a08152600062001f1560a08301600581526450524f585960d81b602082015260400190565b828103602084015262001f3a81600581526450524f585960d81b602082015260400190565b60ff96909616604084015250506001600160a01b0392909216606083015260809091015290565b600082601f83011262001f7357600080fd5b813562001f8462001d7a8262001cdb565b81815284602083860101111562001f9a57600080fd5b816020850160208301376000918101602001919091529392505050565b60008060008060008060008060006101208a8c03121562001fd757600080fd5b893562001fe481620018d3565b985060208a0135975060408a013562001ffd81620018d3565b965060608a0135955060808a0135945060a08a0135935060c08a0135925060e08a013567ffffffffffffffff808211156200203757600080fd5b620020458d838e0162001f61565b93506101008c01359150808211156200205d57600080fd5b506200206c8c828d0162001f61565b9150509295985092959850929598565b60a0815260006200209160a083018862001db2565b8281036020840152620020a5818862001db2565b60ff96909616604084015250506001600160a01b0392909216606083015260809091015292915050565b600080600080600080600060e0888a031215620020eb57600080fd5b8751620020f881620018d3565b602089015160408a015191985096506200211281620018d3565b80955050606088015193506080880151925060a0880151915060c0880151905092959891949750929550565b81810381811115620010f957620010f962001c4e56fe60806040523480156200001157600080fd5b5060405162000dfb38038062000dfb833981016040819052620000349162000166565b84846003620000448382620002a5565b506004620000538282620002a5565b50506008805460ff90951660ff1990951694909417909355600580546001600160a01b039093166001600160a01b031993841617905560075560068054909116331790555062000371915050565b634e487b7160e01b600052604160045260246000fd5b600082601f830112620000c957600080fd5b81516001600160401b0380821115620000e657620000e6620000a1565b604051601f8301601f19908116603f01168101908282118183101715620001115762000111620000a1565b816040528381526020925086838588010111156200012e57600080fd5b600091505b8382101562000152578582018301518183018401529082019062000133565b600093810190920192909252949350505050565b600080600080600060a086880312156200017f57600080fd5b85516001600160401b03808211156200019757600080fd5b620001a589838a01620000b7565b96506020880151915080821115620001bc57600080fd5b50620001cb88828901620000b7565b945050604086015160ff81168114620001e357600080fd5b60608701519093506001600160a01b03811681146200020157600080fd5b80925050608086015190509295509295909350565b600181811c908216806200022b57607f821691505b6020821081036200024c57634e487b7160e01b600052602260045260246000fd5b50919050565b601f821115620002a057600081815260208120601f850160051c810160208610156200027b5750805b601f850160051c820191505b818110156200029c5782815560010162000287565b5050505b505050565b81516001600160401b03811115620002c157620002c1620000a1565b620002d981620002d2845462000216565b8462000252565b602080601f831160018114620003115760008415620002f85750858301515b600019600386901b1c1916600185901b1785556200029c565b600085815260208120601f198616915b82811015620003425788860151825594840194600190910190840162000321565b5085821015620003615787850151600019600388901b60f8161c191681555b5050505050600190811b01905550565b610a7a80620003816000396000f3fe608060405234801561001057600080fd5b50600436106100f55760003560e01c806340c10f191161009757806395d89b411161006657806395d89b41146102125780639dc29fac1461021a578063a9059cbb1461022d578063dd62ed3e1461024057600080fd5b806340c10f191461019657806370a08231146101ab578063860d4288146101d45780638da5cb5b146101ff57600080fd5b806323b872dd116100d357806323b872dd1461014d5780632c4701d414610160578063313ce56714610169578063370158ea1461017e57600080fd5b806306fdde03146100fa578063095ea7b31461011857806318160ddd1461013b575b600080fd5b610102610279565b60405161010f91906108b0565b60405180910390f35b61012b6101263660046108df565b61030b565b604051901515815260200161010f565b6002545b60405190815260200161010f565b61012b61015b366004610909565b610325565b61013f60075481565b60085460405160ff909116815260200161010f565b6101866103e5565b60405161010f9493929190610945565b6101a96101a43660046108df565b610417565b005b61013f6101b9366004610980565b6001600160a01b031660009081526020819052604090205490565b6005546101e7906001600160a01b031681565b6040516001600160a01b03909116815260200161010f565b6006546101e7906001600160a01b031681565b61010261046e565b6101a96102283660046108df565b61047d565b61012b61023b3660046108df565b6104d0565b61013f61024e36600461099b565b6001600160a01b03918216600090815260016020908152604080832093909416825291909152205490565b606060038054610288906109ce565b80601f01602080910402602001604051908101604052809291908181526020018280546102b4906109ce565b80156103015780601f106102d657610100808354040283529160200191610301565b820191906000526020600020905b8154815290600101906020018083116102e457829003601f168201915b5050505050905090565b6000336103198185856104ff565b60019150505b92915050565b600061ffff836001600160a01b0316111561034c57610345848484610511565b90506103de565b81610357853361024e565b10156103bb5760405162461bcd60e51b815260206004820152602860248201527f45524332303a207472616e7366657220616d6f756e74206578636565647320616044820152676c6c6f77616e636560c01b60648201526084015b60405180910390fd5b6103da8433846103cb883361024e565b6103d59190610a1e565b6104ff565b5060015b9392505050565b606060008060006103f461046e565b60085460ff1660055460075492979196506001600160a01b031694509092509050565b6006546001600160a01b031633146104605760405162461bcd60e51b815260206004820152600c60248201526b3737ba1030b71037bbb732b960a11b60448201526064016103b2565b61046a8282610535565b5050565b606060048054610288906109ce565b6006546001600160a01b031633146104c65760405162461bcd60e51b815260206004820152600c60248201526b3737ba1030b71037bbb732b960a11b60448201526064016103b2565b61046a828261056b565b600061ffff836001600160a01b031611156104f6576104ef83836105a1565b905061031f565b50600192915050565b61050c83838360016105af565b505050565b60003361051f858285610685565b61052a8585856106e5565b506001949350505050565b6001600160a01b03821661055f5760405163ec442f0560e01b8152600060048201526024016103b2565b61046a60008383610740565b6001600160a01b03821661059557604051634b637e8f60e11b8152600060048201526024016103b2565b61046a82600083610740565b6000336103198185856106e5565b6001600160a01b0384166105d95760405163e602df0560e01b8152600060048201526024016103b2565b6001600160a01b03831661060357604051634a1406b160e11b8152600060048201526024016103b2565b6001600160a01b038085166000908152600160209081526040808320938716835292905220829055801561067f57826001600160a01b0316846001600160a01b03167f8c5be1e5ebec7d5bd14f71427d1e84f3dd0314c0f7b2291e5b200ac8c7c3b9258460405161067691815260200190565b60405180910390a35b50505050565b6000610691848461024e565b9050600019811461067f57818110156106d657604051637dc7a0d960e11b81526001600160a01b038416600482015260248101829052604481018390526064016103b2565b61067f848484840360006105af565b6001600160a01b03831661070f57604051634b637e8f60e11b8152600060048201526024016103b2565b6001600160a01b0382166107395760405163ec442f0560e01b8152600060048201526024016103b2565b61050c8383835b6001600160a01b03831661076b5780600260008282546107609190610a31565b909155506107dd9050565b6001600160a01b038316600090815260208190526040902054818110156107be5760405163391434e360e21b81526001600160a01b038516600482015260248101829052604481018390526064016103b2565b6001600160a01b03841660009081526020819052604090209082900390555b6001600160a01b0382166107f957600280548290039055610818565b6001600160a01b03821660009081526020819052604090208054820190555b816001600160a01b0316836001600160a01b03167fddf252ad1be2c89b69c2b068fc378daa952ba7f163c4a11628f55a4df523b3ef8360405161085d91815260200190565b60405180910390a3505050565b6000815180845260005b8181101561089057602081850181015186830182015201610874565b506000602082860101526020601f19601f83011685010191505092915050565b6020815260006103de602083018461086a565b80356001600160a01b03811681146108da57600080fd5b919050565b600080604083850312156108f257600080fd5b6108fb836108c3565b946020939093013593505050565b60008060006060848603121561091e57600080fd5b610927846108c3565b9250610935602085016108c3565b9150604084013590509250925092565b608081526000610958608083018761086a565b60ff959095166020830152506001600160a01b03929092166040830152606090910152919050565b60006020828403121561099257600080fd5b6103de826108c3565b600080604083850312156109ae57600080fd5b6109b7836108c3565b91506109c5602084016108c3565b90509250929050565b600181811c908216806109e257607f821691505b602082108103610a0257634e487b7160e01b600052602260045260246000fd5b50919050565b634e487b7160e01b600052601160045260246000fd5b8181038181111561031f5761031f610a08565b8082018082111561031f5761031f610a0856fea26469706673582212204129bcd22afa903b6b5974c7a65f406496f783fcbb31a6de0b78b540870c435664736f6c63430008140033a2646970667358221220e4deed18a96166c35c62516fc6a8118753df73eccb2ec4964330b724f750aa6664736f6c63430008140033608060405234801561001057600080fd5b50612175806100206000396000f3fe608060405234801561001057600080fd5b506004361061004b5760003560e01c80620d66e014610050578063145dad8b1461007857806354894f581461008b578063c68b3787146100ab575b600080fd5b61006361005e366004611de0565b6100cb565b60405190151581526020015b60405180910390f35b610063610086366004611f0d565b6102d0565b61009e610099366004611f0d565b610304565b60405161006f9190611f71565b6100be6100b9366004611fa2565b6103b4565b60405161006f919061200b565b600080604051806101800160405280866000600281106100ed576100ed612025565b602002015181526020018660016002811061010a5761010a612025565b602002015181526020017f198e9393920d483a7260bfb731fb5d25f1aa493335a9e71297e485b7aef312c281526020017f1800deef121f1e76426a00665e5c4479674322d4f75edadd46debd5cd992f6ed81526020017f275dc4a288d1afb3cbb1ac09187524c7db36395df7be3b99e673b13a075a65ec81526020017f1d9befcd05a5323e6da4d435f3b617cdb3af83285c2df711ef39c01571827f9d8152602001846000600281106101bf576101bf612025565b60200201518152602001846001600281106101dc576101dc612025565b60200201518152602001856001600481106101f9576101f9612025565b602002015181526020018560006004811061021657610216612025565b602002015181526020018560036004811061023357610233612025565b602002015181526020018560026004811061025057610250612025565b602002015190529050610261611d00565b60006020826101808560086107d05a03fa9050808061027c57fe5b50806102c35760405162461bcd60e51b8152602060048201526011602482015270696e76616c6964207369676e617475726560781b60448201526064015b60405180910390fd5b5051151595945050505050565b60006102fa60405180604001604052806005815260200164257320257360d81b8152508484610574565b5060015b92915050565b61030c611d1e565b600061031884846105c0565b9050600061032c82825b602002015161067b565b9050600061033b836001610322565b9050610345611d3c565b825181526020808401518282015282516040808401919091529083015160608301526000908460808460066107d05a03fa9050808061038057fe5b50806103a85760405162461bcd60e51b815260206004820152600060248201526044016102ba565b50919695505050505050565b604080516042808252608082019092526060916000919060208201818036833701905050905060006040518060400160405280601081526020016f181899199a1a9b1b9c1cb0b131b232b360811b8152509050600360fc1b8260008151811061041f5761041f612025565b60200101906001600160f81b031916908160001a905350600f60fb1b8260018151811061044e5761044e612025565b60200101906001600160f81b031916908160001a90535060005b602081101561056b57600085826020811061048557610485612025565b845191901a91508390600483901c60ff169081106104a5576104a5612025565b01602001516001600160f81b031916846104c0846002612051565b6104cb906002612068565b815181106104db576104db612025565b60200101906001600160f81b031916908160001a9053508281600f1660ff168151811061050a5761050a612025565b01602001516001600160f81b03191684610525846002612051565b610530906003612068565b8151811061054057610540612025565b60200101906001600160f81b031916908160001a9053505080806105639061207b565b915050610468565b50909392505050565b6105bb83838360405160240161058c93929190612094565b60408051601f198184030181529190526020810180516001600160e01b0316632ced7cef60e01b179052610a46565b505050565b6105c8611d1e565b60006105d48484610a52565b9050600080600080601885016001600160c01b0381511693506030860190506001600160c01b03815116945060008051602061212083398151915285600080516020612120833981519152600160c01b870908604887015160608801516001600160c01b039081169750169450925060008051602061212083398151915290508481600160c01b860908604080518082019091529283526020830152509695505050505050565b610683611d1e565b60008051602061212083398151915282106106ec5760405162461bcd60e51b815260206004820152602360248201527f6d6170546f506f696e7446543a20696e76616c6964206669656c6420656c656d604482015262195b9d60ea1b60648201526084016102ba565b8160006106f882610d5e565b905060006000805160206121208339815191528384099050600080516020612120833981519152600482089050600060008051602061212083398151915277b3c4d79d41a91759a9e4c7e359b6b89eaec68e62effffffd850990506000600080516020612120833981519152838309905061077281610e2f565b90506000805160206121208339815191528283099150600080516020612120833981519152818309915060008051602061212083398151915282860991506000805160206121208339815191526107d7836000805160206121208339815191526120d7565b7759e26bcea0d48bacd4f263f1acdb5c4f5763473177fffffe08945060008051602061212083398151915285860991506000805160206121208339815191528583099150600080516020612120833981519152600383089150600061083b83610e3a565b9093509050801561088457841561086757610864836000805160206121208339815191526120d7565b92505b505060408051808201909152938452602084015250909392505050565b600080516020612120833981519152600187086108af906000805160206121208339815191526120d7565b9550600080516020612120833981519152868709925060008051602061212083398151915286840992506000805160206121208339815191526003840892506108f783610e3a565b9093509050801561092057841561086757610864836000805160206121208339815191526120d7565b6000805160206121208339815191528485099550600080516020612120833981519152868709955060008051602061212083398151915282870995506000805160206121208339815191528287099550600080516020612120833981519152600187089550600080516020612120833981519152868709925060008051602061212083398151915286840992506000805160206121208339815191526003840892506109cb83610e3a565b909350905080610a285760405162461bcd60e51b815260206004820152602260248201527f424c533a20626164206674206d617070696e6720696d706c656d656e7461746960448201526137b760f11b60648201526084016102ba565b841561086757610864836000805160206121208339815191526120d7565b610a4f81610e63565b50565b81516060906101008110610aa85760405162461bcd60e51b815260206004820152601a60248201527f424c533a20696e76616c696420646f6d61696e206c656e67746800000000000060448201526064016102ba565b82516000610ab68284612068565b610ac1906040612068565b610acc906004612068565b67ffffffffffffffff811115610ae457610ae4611d5a565b6040519080825280601f01601f191660200182016040528015610b0e576020820181803683370190505b5060408051606080825260808201909252919250600091906020820181803683370190505090506060820160005b84811015610b565760208189018101518383015201610b3c565b508301600081536001016060815360010160008153600181019050602088015181528481019050848153506000600283604051610b9391906120ea565b602060405180830381855afa158015610bb0573d6000803e3d6000fd5b5050506040513d601f19601f82011682018060405250810190610bd39190612106565b90506000610be2866022612068565b945084845281602085015260016040850153602089015160418501528560418701850153600284604051610c1691906120ea565b602060405180830381855afa158015610c33573d6000803e3d6000fd5b5050506040513d601f19601f82011682018060405250810190610c569190612106565b90508060208401528082188060208601525060026040850153602089015160418501528560418701850153600284604051610c9191906120ea565b602060405180830381855afa158015610cae573d6000803e3d6000fd5b5050506040513d601f19601f82011682018060405250810190610cd19190612106565b90508060408401528082188060208601525060036040850153602089015160418501528560418701850153600284604051610d0c91906120ea565b602060405180830381855afa158015610d29573d6000803e3d6000fd5b5050506040513d601f19601f82011682018060405250810190610d4c9190612106565b60608401525090979650505050505050565b60008060405160208152602080820152602060408201528360608201527f183227397098d014dc2822db40c0ac2ecbc0b548b438e5469e10460b6c3e7ea3608082015260008051602061212083398151915260a082015260208160c08360056107d05a03fa90516001149250905080610e285760405162461bcd60e51b815260206004820152602660248201527f424c533a2069734e6f6e526573696475654650206d6f646578702063616c6c2060448201526519985a5b195960d21b60648201526084016102ba565b5015919050565b60006102fe82610e84565b600080610e46836115cb565b915082600080516020612120833981519152838409149050915091565b60006a636f6e736f6c652e6c6f679050600080835160208501845afa505050565b60006000805160206121208339815191528083840991508083830981838209828283098385830984848309858484098684850997508684840987858409945087898a09985087898a09985087898a09985087898a09985087898a09985087878a09985087898a09985087898a09985087898a099850878a8a09985087898a09985087898a09985087898a09985087898a099850878a8a09985087898a09985087898a09985087898a09985087898a09985087898a09985087848a09985087898a09985087898a09985087898a09985087898a09985087898a09985087848a09985087898a09985087898a09985087898a099850878a8a09985087898a09985087898a09985087898a09985087898a09985087848a09985087898a09985087898a09985087898a09985087898a09985087898a099850878a8a09985087898a09985087898a09985087898a09985087898a09985087878a09985087898a09985087898a09985087898a09985087898a09985087898a09985087898a09985087898a09985087818a09985087898a09985087898a09985087898a09985087898a09985087898a09985087898a09985087898a09985087898a09985087898a09985087898a09985087868a09985087898a09985087898a09985087898a09985087898a09985087878a09985087898a09985087898a09985087898a09985087898a09985087848a09985087898a09985087898a09985087898a09985087898a09985087898a09985087898a09985087898a09985087868a09985087898a09985087898a09985087898a09985087898a09985087898a09985087898a099850878a8a09985087898a09985087898a09985087898a09985087898a09985087898a09985087898a09985087898a09985087828a09985087898a09985087898a09985087898a09985087898a09985087898a09985087818a09985087898a09985087898a09985087898a09985087868a09985087898a09985087898a09985087898a09985087898a09985087898a09985087898a09985087898a09985087898a09985087878a09985087898a09985087898a09985087898a09985087898a09985087898a09985087898a09985087898a09985087898a09985087898a09985087868a09985087898a09985087898a09985087898a09985087878a09985087898a09985087898a09985087898a09985087898a09985087898a09985087898a09985087898a09985087898a09985087828a09985087898a09985087898a09985087898a09985087898a09985087828a09985087898a09985087898a09985087898a09985087898a09985087898a09985087868a09985087898a09985087898a09985087898a09985087848a09985087898a09985087898a09985087898a09985087898a09985087898a09985087898a09985087898a09985087898a09985087898a09985087898a09985087828a09985087898a09985087898a09985087898a09985087898a09985087868a09985087898a09985087898a09985087898a09985087898a09985087898a09985087838a09985087898a09985087898a09985087898a09985087898a09985087898a09985087898a09985087898a09985087828a09985087898a09985087898a099850878a8a09985087898a09985087898a09985087898a09985087898a09985087898a09985087898a09985087898a09985087848a09985087898a09985087898a09985087898a09985087898a09985087898a09985087898a09985087848a09985087898a09985087898a09985087898a09985087898a09985087898a09985087868a09985087898a09985087898a099850878a8a09985087898a09985087898a09985087898a09985087898a09985087898a09985087898a09985087898a09985087818a09985050868889099750868889099750868889099750868889099750868889099750868889099750868489099750868889099750868889099750868889099750868889099750868889099750868989099750868889099750868889099750868889099750868889099750868889099750868889099750868989099750868889099750868889099750868889099750868889099750868889099750868689099750868889099750868889099750868889099750868889099750868889099750868889099750868889099750868889099750868889099750868189099750508587880996508587880996508587880996508585880996508587880996508587880996508587880996508585880996508587880996508587880996508587880996508587880996508587880996508587880996508587880996508587880996508583880996508587880996508587880996508587880996508587880996508581880996505050838586099450838586099450838586099450838586099450838186099450508284850993508284850993508284850993508281850993508284850993508284850993508285850993508284850993508284850993508284850993508284850993508284850993508284850993508281850995945050505050565b60006000805160206121208339815191528083840991508083830981838209828283098385830984848309858484098684850997508684840987858409945087898a09985087898a09985087898a09985087898a09985087898a09985087878a09985087898a09985087898a09985087898a099850878a8a09985087898a09985087898a09985087898a09985087898a099850878a8a09985087898a09985087898a09985087898a09985087898a09985087898a09985087848a09985087898a09985087898a09985087898a09985087898a09985087898a09985087848a09985087898a09985087898a09985087898a099850878a8a09985087898a09985087898a09985087898a09985087898a09985087848a09985087898a09985087898a09985087898a09985087898a09985087898a099850878a8a09985087898a09985087898a09985087898a09985087898a09985087878a09985087898a09985087898a09985087898a09985087898a09985087898a09985087898a09985087898a09985087818a09985087898a09985087898a09985087898a09985087898a09985087898a09985087898a09985087898a09985087898a09985087898a09985087898a09985087868a09985087898a09985087898a09985087898a09985087898a09985087878a09985087898a09985087898a09985087898a09985087898a09985087848a09985087898a09985087898a09985087898a09985087898a09985087898a09985087898a09985087898a09985087868a09985087898a09985087898a09985087898a09985087898a09985087898a09985087898a099850878a8a09985087898a09985087898a09985087898a09985087898a09985087898a09985087898a09985087898a09985087828a09985087898a09985087898a09985087898a09985087898a09985087898a09985087818a09985087898a09985087898a09985087898a09985087868a09985087898a09985087898a09985087898a09985087898a09985087898a09985087898a09985087898a09985087898a09985087878a09985087898a09985087898a09985087898a09985087898a09985087898a09985087898a09985087898a09985087898a09985087898a09985087868a09985087898a09985087898a09985087898a09985087878a09985087898a09985087898a09985087898a09985087898a09985087898a09985087898a09985087898a09985087898a09985087828a09985087898a09985087898a09985087898a09985087898a09985087828a09985087898a09985087898a09985087898a09985087898a09985087898a09985087868a09985087898a09985087898a09985087898a09985087848a09985087898a09985087898a09985087898a09985087898a09985087898a09985087898a09985087898a09985087898a09985087898a09985087898a09985087828a09985087898a09985087898a09985087898a09985087898a09985087868a09985087898a09985087898a09985087898a09985087898a09985087898a09985087838a09985087898a09985087898a09985087898a09985087898a09985087898a09985087898a09985087898a09985087828a09985087898a09985087898a099850878a8a09985087898a09985087898a09985087898a09985087898a09985087898a09985087898a09985087898a09985087848a09985087898a09985087898a09985087898a09985087898a09985087898a09985087898a09985087848a09985087898a09985087898a09985087898a09985087898a09985087898a09985087868a09985087898a09985087898a099850878a8a09985087898a09985087898a09985087898a09985087898a09985087898a09985087898a09985087898a09985087818a09985050868889099750868889099750868889099750868889099750868889099750868889099750868489099750868889099750868889099750868889099750868889099750868889099750868989099750868889099750868889099750868889099750868889099750868889099750868889099750868989099750868889099750868889099750868889099750868889099750868889099750868689099750868889099750868889099750868889099750868889099750868889099750868889099750868889099750868889099750868889099750868189099750508587880996508587880996508587880996508585880996508587880996508587880996508587880996508585880996508587880996508587880996508587880996508587880996508587880996508587880996508587880996508587880996508583880996508587880996508587880996508587880996508587880996508581880996508587880996508587880996508587880996508587880996508583880996508587880996508587880996508587880996508584880996508587880996508587880996508587880996508587880996508587880996508581880996505050505050808283099392505050565b60405180602001604052806001906020820280368337509192915050565b60405180604001604052806002906020820280368337509192915050565b60405180608001604052806004906020820280368337509192915050565b634e487b7160e01b600052604160045260246000fd5b600082601f830112611d8157600080fd5b6040516040810181811067ffffffffffffffff82111715611da457611da4611d5a565b8060405250806040840185811115611dbb57600080fd5b845b81811015611dd5578035835260209283019201611dbd565b509195945050505050565b60008060006101008486031215611df657600080fd5b611e008585611d70565b925084605f850112611e1157600080fd5b6040516080810181811067ffffffffffffffff82111715611e3457611e34611d5a565b6040528060c0860187811115611e4957600080fd5b604087015b81811015611e66578035835260209283019201611e4e565b50829450611e748882611d70565b93505050509250925092565b600082601f830112611e9157600080fd5b813567ffffffffffffffff80821115611eac57611eac611d5a565b604051601f8301601f19908116603f01168101908282118183101715611ed457611ed4611d5a565b81604052838152866020858801011115611eed57600080fd5b836020870160208301376000602085830101528094505050505092915050565b60008060408385031215611f2057600080fd5b823567ffffffffffffffff80821115611f3857600080fd5b611f4486838701611e80565b93506020850135915080821115611f5a57600080fd5b50611f6785828601611e80565b9150509250929050565b60408101818360005b6002811015611f99578151835260209283019290910190600101611f7a565b50505092915050565b600060208284031215611fb457600080fd5b5035919050565b60005b83811015611fd6578181015183820152602001611fbe565b50506000910152565b60008151808452611ff7816020860160208601611fbb565b601f01601f19169290920160200192915050565b60208152600061201e6020830184611fdf565b9392505050565b634e487b7160e01b600052603260045260246000fd5b634e487b7160e01b600052601160045260246000fd5b80820281158282048414176102fe576102fe61203b565b808201808211156102fe576102fe61203b565b60006001820161208d5761208d61203b565b5060010190565b6060815260006120a76060830186611fdf565b82810360208401526120b98186611fdf565b905082810360408401526120cd8185611fdf565b9695505050505050565b818103818111156102fe576102fe61203b565b600082516120fc818460208701611fbb565b9190910192915050565b60006020828403121561211857600080fd5b505191905056fe30644e72e131a029b85045b68181585d97816a916871ca8d3c208c16d87cfd47a2646970667358221220bfb4b1bd991c85b4d1e0d02621ed2d044ebac5ff819b1c539e6811459562633964736f6c63430008140033",
  "linkReferences": {},
  "deployedLinkReferences": {}
}