{
  "_format": "hh-sol-artifact-1",
  "contractName": "Vault",
  "sourceName": "contracts/Vault.sol",
  "abi": [
    {
      "inputs": [
        {
          "internalType": "uint256[4]",
          "name": "publicKey_",
          "type": "uint256[4]"
        }
      ],
      "stateMutability": "nonpayable",
      "type": "constructor"
    },
    {
      "anonymous": false,
      "inputs": [
        {
          "indexed": true,
          "internalType": "address",
          "name": "depositor",
          "type": "address"
        },
        {
          "indexed": true,
          "internalType": "address",
          "name": "tokenAddress",
          "type": "address"
        },
        {
          "indexed": false,
          "internalType": "uint256",
          "name": "decimals",
          "type": "uint256"
        },
        {
          "indexed": false,
          "internalType": "uint256",
          "name": "toChainId",
          "type": "uint256"
        },
        {
          "indexed": false,
          "internalType": "uint256",
          "name": "amount",
          "type": "uint256"
        },
        {
          "indexed": false,
          "internalType": "uint256",
          "name": "depositCounter",
          "type": "uint256"
        }
      ],
      "name": "Deposited",
      "type": "event"
    },
    {
      "anonymous": false,
      "inputs": [
        {
          "indexed": false,
          "internalType": "uint256",
          "name": "amount",
          "type": "uint256"
        }
      ],
      "name": "Disbursed",
      "type": "event"
    },
    {
      "anonymous": false,
      "inputs": [
        {
          "indexed": false,
          "internalType": "uint256",
          "name": "amount",
          "type": "uint256"
        }
      ],
      "name": "Minted",
      "type": "event"
    },
    {
      "anonymous": false,
      "inputs": [
        {
          "indexed": false,
          "internalType": "address",
          "name": "depositor",
          "type": "address"
        },
        {
          "indexed": false,
          "internalType": "uint256",
          "name": "amount",
          "type": "uint256"
        }
      ],
      "name": "Withdrawn",
      "type": "event"
    },
    {
      "inputs": [],
      "name": "ETH",
      "outputs": [
        {
          "internalType": "address",
          "name": "",
          "type": "address"
        }
      ],
      "stateMutability": "view",
      "type": "function"
    },
    {
      "inputs": [
        {
          "internalType": "address",
          "name": "proxyToken",
          "type": "address"
        },
        {
          "internalType": "address",
          "name": "depositor",
          "type": "address"
        }
      ],
      "name": "balanceOf",
      "outputs": [
        {
          "internalType": "uint256",
          "name": "",
          "type": "uint256"
        }
      ],
      "stateMutability": "view",
      "type": "function"
    },
    {
      "inputs": [],
      "name": "depositCounter",
      "outputs": [
        {
          "internalType": "uint256",
          "name": "",
          "type": "uint256"
        }
      ],
      "stateMutability": "view",
      "type": "function"
    },
    {
      "inputs": [
        {
          "internalType": "uint256",
          "name": "toChainId",
          "type": "uint256"
        }
      ],
      "name": "depositEth",
      "outputs": [],
      "stateMutability": "payable",
      "type": "function"
    },
    {
      "inputs": [
        {
          "internalType": "uint256",
          "name": "toChainId",
          "type": "uint256"
        },
        {
          "internalType": "address",
          "name": "tokenAddress",
          "type": "address"
        },
        {
          "internalType": "uint256",
          "name": "tokenAmount",
          "type": "uint256"
        }
      ],
      "name": "depositToken",
      "outputs": [],
      "stateMutability": "nonpayable",
      "type": "function"
    },
    {
      "inputs": [
        {
          "internalType": "uint256",
          "name": "amount",
          "type": "uint256"
        }
      ],
      "name": "depositToken",
      "outputs": [],
      "stateMutability": "nonpayable",
      "type": "function"
    },
    {
      "inputs": [
        {
          "internalType": "bytes32",
          "name": "",
          "type": "bytes32"
        }
      ],
      "name": "deposits",
      "outputs": [
        {
          "internalType": "bool",
          "name": "",
          "type": "bool"
        }
      ],
      "stateMutability": "view",
      "type": "function"
    },
    {
      "inputs": [
        {
          "internalType": "uint256",
          "name": "amount",
          "type": "uint256"
        }
      ],
      "name": "disburse",
      "outputs": [],
      "stateMutability": "nonpayable",
      "type": "function"
    },
    {
      "inputs": [
        {
          "internalType": "address",
          "name": "depositor",
          "type": "address"
        },
        {
          "internalType": "address",
          "name": "token",
          "type": "address"
        },
        {
          "internalType": "uint256",
          "name": "decimals",
          "type": "uint256"
        },
        {
          "internalType": "uint256",
          "name": "toChainId",
          "type": "uint256"
        },
        {
          "internalType": "uint256",
          "name": "amount",
          "type": "uint256"
        },
        {
          "internalType": "uint256",
          "name": "counter",
          "type": "uint256"
        }
      ],
      "name": "hashOf",
      "outputs": [
        {
          "internalType": "bytes32",
          "name": "",
          "type": "bytes32"
        }
      ],
      "stateMutability": "pure",
      "type": "function"
    },
    {
      "inputs": [
        {
          "internalType": "uint256",
          "name": "amount",
          "type": "uint256"
        }
      ],
      "name": "mint",
      "outputs": [],
      "stateMutability": "nonpayable",
      "type": "function"
    },
    {
      "inputs": [
        {
          "internalType": "uint256[2]",
          "name": "signature",
          "type": "uint256[2]"
        },
        {
          "internalType": "uint256[4]",
          "name": "signerKey",
          "type": "uint256[4]"
        },
        {
          "internalType": "bytes",
          "name": "depositPayload",
          "type": "bytes"
        }
      ],
      "name": "mint",
      "outputs": [],
      "stateMutability": "nonpayable",
      "type": "function"
    },
    {
      "inputs": [
        {
          "internalType": "bytes32",
          "name": "",
          "type": "bytes32"
        }
      ],
      "name": "mintedForDepositHash",
      "outputs": [
        {
          "internalType": "bool",
          "name": "",
          "type": "bool"
        }
      ],
      "stateMutability": "view",
      "type": "function"
    },
    {
      "inputs": [
        {
          "internalType": "address",
          "name": "",
          "type": "address"
        }
      ],
      "name": "pool",
      "outputs": [
        {
          "internalType": "uint256",
          "name": "",
          "type": "uint256"
        }
      ],
      "stateMutability": "view",
      "type": "function"
    },
    {
      "inputs": [
        {
          "internalType": "uint256",
          "name": "",
          "type": "uint256"
        },
        {
          "internalType": "address",
          "name": "",
          "type": "address"
        }
      ],
      "name": "proxyTokenMap",
      "outputs": [
        {
          "internalType": "address",
          "name": "",
          "type": "address"
        }
      ],
      "stateMutability": "view",
      "type": "function"
    },
    {
      "inputs": [
        {
          "internalType": "uint256",
          "name": "",
          "type": "uint256"
        }
      ],
      "name": "publicKey",
      "outputs": [
        {
          "internalType": "uint256",
          "name": "",
          "type": "uint256"
        }
      ],
      "stateMutability": "view",
      "type": "function"
    },
    {
      "inputs": [
        {
          "internalType": "uint256",
          "name": "amount",
          "type": "uint256"
        }
      ],
      "name": "withdraw",
      "outputs": [],
      "stateMutability": "nonpayable",
      "type": "function"
    }
  ],
  "bytecode": "0x608060405260006008553480156200001657600080fd5b506040516200456138038062004561833981016040819052620000399162000104565b6200004860008260046200009c565b506040516200005790620000df565b604051809103906000f08015801562000074573d6000803e3d6000fd5b50600980546001600160a01b0319166001600160a01b03929092169190911790555062000195565b8260048101928215620000cd579160200282015b82811115620000cd578251825591602001919060010190620000b0565b50620000db929150620000ed565b5090565b611f47806200261a83390190565b5b80821115620000db5760008155600101620000ee565b6000608082840312156200011757600080fd5b82601f8301126200012757600080fd5b604051608081016001600160401b03811182821017156200015857634e487b7160e01b600052604160045260246000fd5b6040528060808401858111156200016e57600080fd5b845b818110156200018a57805183526020928301920162000170565b509195945050505050565b61247580620001a56000396000f3fe608060405260043610620001075760003560e01c80638940aebe1162000095578063be082c731162000060578063be082c73146200030d578063e07febdc1462000332578063ecb3dc881462000357578063f7888aec146200036f57600080fd5b80638940aebe146200027e578063a0712d68146200022c578063b8f3e1b714620002a3578063bd77ac2c14620002e857600080fd5b80633d4dff7b11620000d65780633d4dff7b14620001b35780634024e83a14620001f85780636215be77146200022c5780638322fff2146200024e57600080fd5b80630a9306d7146200010c5780630f4d14e91462000133578063156522a8146200014a5780632e1a7d4d146200018e575b600080fd5b3480156200011957600080fd5b50620001316200012b36600462000f3c565b62000394565b005b620001316200014436600462000f77565b62000669565b3480156200015757600080fd5b506200017b6200016936600462000f91565b60046020526000908152604090205481565b6040519081526020015b60405180910390f35b3480156200019b57600080fd5b5062000131620001ad36600462000f77565b62000744565b348015620001c057600080fd5b50620001e7620001d236600462000f77565b60056020526000908152604090205460ff1681565b604051901515815260200162000185565b3480156200020557600080fd5b50620001e76200021736600462000f77565b60066020526000908152604090205460ff1681565b3480156200023957600080fd5b50620001316200024b36600462000f77565b50565b3480156200025b57600080fd5b5062000265600081565b6040516001600160a01b03909116815260200162000185565b3480156200028b57600080fd5b506200017b6200029d36600462000f77565b62000781565b348015620002b057600080fd5b5062000265620002c236600462000fb8565b60076020908152600092835260408084209091529082529020546001600160a01b031681565b348015620002f557600080fd5b50620001316200030736600462000f77565b62000799565b3480156200031a57600080fd5b506200017b6200032c36600462000feb565b620007d1565b3480156200033f57600080fd5b50620001316200035136600462001111565b6200083b565b3480156200036457600080fd5b506200017b60085481565b3480156200037c57600080fd5b506200017b6200038e366004620011ca565b620008f7565b6040516370a0823160e01b8152336004820152829082906001600160a01b038316906370a0823190602401602060405180830381865afa158015620003dd573d6000803e3d6000fd5b505050506040513d601f19601f82011682018060405250810190620004039190620011fd565b10156200044e5760405162461bcd60e51b8152602060048201526014602482015273496e73756666696369656e742062616c616e636560601b60448201526064015b60405180910390fd5b6040516323b872dd60e01b8152336004820152306024820152604481018390526001600160a01b038216906323b872dd906064016020604051808303816000875af1158015620004a2573d6000803e3d6000fd5b505050506040513d601f19601f82011682018060405250810190620004c8919062001217565b506001600160a01b03831660009081526004602052604081208054849290620004f390849062001251565b909155505060088054600091826200050b8362001267565b91905055905060006200058a3386856001600160a01b031663313ce5676040518163ffffffff1660e01b8152600401602060405180830381865afa15801562000558573d6000803e3d6000fd5b505050506040513d601f19601f820116820180604052508101906200057e919062001283565b60ff16898887620007d1565b600081815260056020908152604091829020805460ff19166001179055815163313ce56760e01b815291519293506001600160a01b038089169333937ff3b2a76575670b4eff5a4ad3639d40d32f7ca987adac169e6f9b89a3ab857d27939289169263313ce567926004808401938290030181865afa15801562000612573d6000803e3d6000fd5b505050506040513d601f19601f8201168201806040525081019062000638919062001283565b6040805160ff9092168252602082018b905281018890526060810186905260800160405180910390a3505050505050565b600080805260046020527f17ef568e3e12ab5b9c7254a8d58478811de00f9e6eb34345acd53bf8fd09d3ec8054349290620006a690849062001251565b90915550506008805460009182620006be8362001267565b9190505590506000620006d83360006012863487620007d1565b6000818152600560209081526040808320805460ff191660011790558051601281529182018790523490820152606081018590529192509033907ff3b2a76575670b4eff5a4ad3639d40d32f7ca987adac169e6f9b89a3ab857d279060800160405180910390a3505050565b60408051338152602081018390527f7084f5476618d8e60b11ef0d7d3f06914655adb8793e28ff7f018d4c76d505d591015b60405180910390a150565b600081600481106200079257600080fd5b0154905081565b6040805160008152602081018390527f7084f5476618d8e60b11ef0d7d3f06914655adb8793e28ff7f018d4c76d505d5910162000776565b6040516bffffffffffffffffffffffff19606088811b8216602084015287901b16603482015260488101859052606881018490526088810183905260a8810182905260009060c8016040516020818303038152906040528051906020012090509695505050505050565b82516000541480156200085357506020830151600154145b80156200086557506040830151600254145b80156200087757506060830151600354145b620008ba5760405162461bcd60e51b8152602060048201526012602482015271496e76616c6964205075626c6963204b657960701b604482015260640162000445565b6000620008ca8585858562000971565b9050620008d8838362000ba1565b6000908152600660205260409020805460ff1916600117905550505050565b6040516370a0823160e01b81526001600160a01b038281166004830152600091908416906370a0823190602401602060405180830381865afa15801562000942573d6000803e3d6000fd5b505050506040513d601f19601f82011682018060405250810190620009689190620011fd565b90505b92915050565b600080808080808062000987888a018a620012be565b965096509650509550955095506000620009a6878787878787620007d1565b60008181526006602052604090205490915060ff161562000a0a5760405162461bcd60e51b815260206004820152601f60248201527f416c7265616479206d696e74656420666f72206465706f736974206861736800604482015260640162000445565b60095460408051808201909152601181527010938c8d4d8b521054d21513d413d25395607a1b60208201526000916001600160a01b0316906354894f589062000a538562000d37565b6040518363ffffffff1660e01b815260040162000a729291906200136d565b6040805180830381865afa15801562000a8f573d6000803e3d6000fd5b505050506040513d601f19601f8201168201806040525081019062000ab591906200139f565b90506000600960009054906101000a90046001600160a01b03166001600160a01b0316620d66e08f8f856040518463ffffffff1660e01b815260040162000aff9392919062001431565b602060405180830381865afa15801562000b1d573d6000803e3d6000fd5b505050506040513d601f19601f8201168201806040525081019062000b43919062001217565b905060018115151462000b8d5760405162461bcd60e51b8152602060048201526011602482015270496e76616c6964205369676e617475726560781b604482015260640162000445565b50909750505050505050505b949350505050565b60008080808080808062000bb8898b018b62001512565b9850985050975050965096509650965060006001600160a01b0316600760008681526020019081526020016000206000886001600160a01b03166001600160a01b0316815260200190815260200160002060009054906101000a90046001600160a01b03166001600160a01b03160362000ca857818186888760405162000c3f9062000f18565b62000c4f959493929190620015d7565b604051809103906000f08015801562000c6c573d6000803e3d6000fd5b5060008581526007602090815260408083206001600160a01b038b81168552925290912080546001600160a01b03191691831691909117905597505b60008481526007602090815260408083206001600160a01b038a811685529252918290205491516340c10f1960e01b81528982166004820152602481018690529116985088906340c10f1990604401600060405180830381600087803b15801562000d1257600080fd5b505af115801562000d27573d6000803e3d6000fd5b5050505050505050505050505050565b604080516042808252608082019092526060916000919060208201818036833701905050905060006040518060400160405280601081526020016f181899199a1a9b1b9c1cb0b131b232b360811b8152509050600360fc1b8260008151811062000da55762000da5620012a8565b60200101906001600160f81b031916908160001a905350600f60fb1b8260018151811062000dd75762000dd7620012a8565b60200101906001600160f81b031916908160001a90535060005b602081101562000f0f57600085826020811062000e125762000e12620012a8565b845191901a91508390600483901c60ff1690811062000e355762000e35620012a8565b01602001516001600160f81b0319168462000e528460026200162a565b62000e5f90600262001251565b8151811062000e725762000e72620012a8565b60200101906001600160f81b031916908160001a9053508281600f1660ff168151811062000ea45762000ea4620012a8565b01602001516001600160f81b0319168462000ec18460026200162a565b62000ece90600362001251565b8151811062000ee15762000ee1620012a8565b60200101906001600160f81b031916908160001a90535050808062000f069062001267565b91505062000df1565b50909392505050565b610dfb806200164583390190565b6001600160a01b03811681146200024b57600080fd5b60008060006060848603121562000f5257600080fd5b83359250602084013562000f668162000f26565b929592945050506040919091013590565b60006020828403121562000f8a57600080fd5b5035919050565b60006020828403121562000fa457600080fd5b813562000fb18162000f26565b9392505050565b6000806040838503121562000fcc57600080fd5b82359150602083013562000fe08162000f26565b809150509250929050565b60008060008060008060c087890312156200100557600080fd5b8635620010128162000f26565b95506020870135620010248162000f26565b95989597505050506040840135936060810135936080820135935060a0909101359150565b634e487b7160e01b600052604160045260246000fd5b6040805190810167ffffffffffffffff8111828210171562001085576200108562001049565b60405290565b6000620010976200105f565b9050806040830184811115620010ac57600080fd5b835b81811015620010c8578035835260209283019201620010ae565b50505092915050565b60006040516080810181811067ffffffffffffffff82111715620010f957620010f962001049565b6040529050806080830184811115620010ac57600080fd5b60008060008060e085870312156200112857600080fd5b85601f8601126200113857600080fd5b6200114486866200108b565b935085605f8601126200115657600080fd5b620011658660408701620010d1565b925060c085013567ffffffffffffffff808211156200118357600080fd5b818701915087601f8301126200119857600080fd5b813581811115620011a857600080fd5b886020828501011115620011bb57600080fd5b95989497505060200194505050565b60008060408385031215620011de57600080fd5b8235620011eb8162000f26565b9150602083013562000fe08162000f26565b6000602082840312156200121057600080fd5b5051919050565b6000602082840312156200122a57600080fd5b8151801515811462000fb157600080fd5b634e487b7160e01b600052601160045260246000fd5b808201808211156200096b576200096b6200123b565b6000600182016200127c576200127c6200123b565b5060010190565b6000602082840312156200129657600080fd5b815160ff8116811462000fb157600080fd5b634e487b7160e01b600052603260045260246000fd5b600080600080600080600060e0888a031215620012da57600080fd5b8735620012e78162000f26565b96506020880135620012f98162000f26565b96999698505050506040850135946060810135946080820135945060a0820135935060c0909101359150565b6000815180845260005b818110156200134d576020818501810151868301820152016200132f565b506000602082860101526020601f19601f83011685010191505092915050565b60408152600062001382604083018562001325565b828103602084015262001396818562001325565b95945050505050565b600060408284031215620013b257600080fd5b82601f830112620013c257600080fd5b620013cc6200105f565b806040840185811115620013df57600080fd5b845b81811015620013fb578051845260209384019301620013e1565b509095945050505050565b8060005b60028110156200142b5781518452602093840193909101906001016200140a565b50505050565b610100810162001442828662001406565b604082018460005b60048110156200146b5781518352602092830192909101906001016200144a565b50505062000b9960c083018462001406565b600082601f8301126200148f57600080fd5b813567ffffffffffffffff80821115620014ad57620014ad62001049565b604051601f8301601f19908116603f01168101908282118183101715620014d857620014d862001049565b81604052838152866020858801011115620014f257600080fd5b836020870160208301376000602085830101528094505050505092915050565b60008060008060008060008060006101208a8c0312156200153257600080fd5b89356200153f8162000f26565b985060208a0135620015518162000f26565b975060408a0135965060608a0135955060808a0135945060a08a0135935060c08a0135925060e08a013567ffffffffffffffff808211156200159257600080fd5b620015a08d838e016200147d565b93506101008c0135915080821115620015b857600080fd5b50620015c78c828d016200147d565b9150509295985092959850929598565b60a081526000620015ec60a083018862001325565b828103602084015262001600818862001325565b60ff96909616604084015250506001600160a01b0392909216606083015260809091015292915050565b80820281158282048414176200096b576200096b6200123b56fe60806040523480156200001157600080fd5b5060405162000dfb38038062000dfb833981016040819052620000349162000166565b84846003620000448382620002a5565b506004620000538282620002a5565b50506008805460ff90951660ff1990951694909417909355600580546001600160a01b039093166001600160a01b031993841617905560075560068054909116331790555062000371915050565b634e487b7160e01b600052604160045260246000fd5b600082601f830112620000c957600080fd5b81516001600160401b0380821115620000e657620000e6620000a1565b604051601f8301601f19908116603f01168101908282118183101715620001115762000111620000a1565b816040528381526020925086838588010111156200012e57600080fd5b600091505b8382101562000152578582018301518183018401529082019062000133565b600093810190920192909252949350505050565b600080600080600060a086880312156200017f57600080fd5b85516001600160401b03808211156200019757600080fd5b620001a589838a01620000b7565b96506020880151915080821115620001bc57600080fd5b50620001cb88828901620000b7565b945050604086015160ff81168114620001e357600080fd5b60608701519093506001600160a01b03811681146200020157600080fd5b80925050608086015190509295509295909350565b600181811c908216806200022b57607f821691505b6020821081036200024c57634e487b7160e01b600052602260045260246000fd5b50919050565b601f821115620002a057600081815260208120601f850160051c810160208610156200027b5750805b601f850160051c820191505b818110156200029c5782815560010162000287565b5050505b505050565b81516001600160401b03811115620002c157620002c1620000a1565b620002d981620002d2845462000216565b8462000252565b602080601f831160018114620003115760008415620002f85750858301515b600019600386901b1c1916600185901b1785556200029c565b600085815260208120601f198616915b82811015620003425788860151825594840194600190910190840162000321565b5085821015620003615787850151600019600388901b60f8161c191681555b5050505050600190811b01905550565b610a7a80620003816000396000f3fe608060405234801561001057600080fd5b50600436106100f55760003560e01c80636739afca116100975780639dc29fac116100665780639dc29fac14610207578063a9059cbb1461021a578063dd62ed3e1461022d578063dffc94881461026657600080fd5b80636739afca146101a257806370a08231146101ab5780638da5cb5b146101d457806395d89b41146101ff57600080fd5b806323b872dd116100d357806323b872dd1461014d578063313ce56714610160578063370158ea1461017557806340c10f191461018d57600080fd5b806306fdde03146100fa578063095ea7b31461011857806318160ddd1461013b575b600080fd5b610102610279565b60405161010f91906108b0565b60405180910390f35b61012b6101263660046108df565b61030b565b604051901515815260200161010f565b6002545b60405190815260200161010f565b61012b61015b366004610909565b610325565b60085460405160ff909116815260200161010f565b61017d6103e5565b60405161010f9493929190610945565b6101a061019b3660046108df565b610417565b005b61013f60075481565b61013f6101b9366004610980565b6001600160a01b031660009081526020819052604090205490565b6006546101e7906001600160a01b031681565b6040516001600160a01b03909116815260200161010f565b61010261046e565b6101a06102153660046108df565b61047d565b61012b6102283660046108df565b6104d0565b61013f61023b36600461099b565b6001600160a01b03918216600090815260016020908152604080832093909416825291909152205490565b6005546101e7906001600160a01b031681565b606060038054610288906109ce565b80601f01602080910402602001604051908101604052809291908181526020018280546102b4906109ce565b80156103015780601f106102d657610100808354040283529160200191610301565b820191906000526020600020905b8154815290600101906020018083116102e457829003601f168201915b5050505050905090565b6000336103198185856104ff565b60019150505b92915050565b600061ffff836001600160a01b0316111561034c57610345848484610511565b90506103de565b81610357853361023b565b10156103bb5760405162461bcd60e51b815260206004820152602860248201527f45524332303a207472616e7366657220616d6f756e74206578636565647320616044820152676c6c6f77616e636560c01b60648201526084015b60405180910390fd5b6103da8433846103cb883361023b565b6103d59190610a1e565b6104ff565b5060015b9392505050565b606060008060006103f461046e565b60085460ff1660055460075492979196506001600160a01b031694509092509050565b6006546001600160a01b031633146104605760405162461bcd60e51b815260206004820152600c60248201526b3737ba1030b71037bbb732b960a11b60448201526064016103b2565b61046a8282610535565b5050565b606060048054610288906109ce565b6006546001600160a01b031633146104c65760405162461bcd60e51b815260206004820152600c60248201526b3737ba1030b71037bbb732b960a11b60448201526064016103b2565b61046a828261056b565b600061ffff836001600160a01b031611156104f6576104ef83836105a1565b905061031f565b50600192915050565b61050c83838360016105af565b505050565b60003361051f858285610685565b61052a8585856106e5565b506001949350505050565b6001600160a01b03821661055f5760405163ec442f0560e01b8152600060048201526024016103b2565b61046a60008383610740565b6001600160a01b03821661059557604051634b637e8f60e11b8152600060048201526024016103b2565b61046a82600083610740565b6000336103198185856106e5565b6001600160a01b0384166105d95760405163e602df0560e01b8152600060048201526024016103b2565b6001600160a01b03831661060357604051634a1406b160e11b8152600060048201526024016103b2565b6001600160a01b038085166000908152600160209081526040808320938716835292905220829055801561067f57826001600160a01b0316846001600160a01b03167f8c5be1e5ebec7d5bd14f71427d1e84f3dd0314c0f7b2291e5b200ac8c7c3b9258460405161067691815260200190565b60405180910390a35b50505050565b6000610691848461023b565b9050600019811461067f57818110156106d657604051637dc7a0d960e11b81526001600160a01b038416600482015260248101829052604481018390526064016103b2565b61067f848484840360006105af565b6001600160a01b03831661070f57604051634b637e8f60e11b8152600060048201526024016103b2565b6001600160a01b0382166107395760405163ec442f0560e01b8152600060048201526024016103b2565b61050c8383835b6001600160a01b03831661076b5780600260008282546107609190610a31565b909155506107dd9050565b6001600160a01b038316600090815260208190526040902054818110156107be5760405163391434e360e21b81526001600160a01b038516600482015260248101829052604481018390526064016103b2565b6001600160a01b03841660009081526020819052604090209082900390555b6001600160a01b0382166107f957600280548290039055610818565b6001600160a01b03821660009081526020819052604090208054820190555b816001600160a01b0316836001600160a01b03167fddf252ad1be2c89b69c2b068fc378daa952ba7f163c4a11628f55a4df523b3ef8360405161085d91815260200190565b60405180910390a3505050565b6000815180845260005b8181101561089057602081850181015186830182015201610874565b506000602082860101526020601f19601f83011685010191505092915050565b6020815260006103de602083018461086a565b80356001600160a01b03811681146108da57600080fd5b919050565b600080604083850312156108f257600080fd5b6108fb836108c3565b946020939093013593505050565b60008060006060848603121561091e57600080fd5b610927846108c3565b9250610935602085016108c3565b9150604084013590509250925092565b608081526000610958608083018761086a565b60ff959095166020830152506001600160a01b03929092166040830152606090910152919050565b60006020828403121561099257600080fd5b6103de826108c3565b600080604083850312156109ae57600080fd5b6109b7836108c3565b91506109c5602084016108c3565b90509250929050565b600181811c908216806109e257607f821691505b602082108103610a0257634e487b7160e01b600052602260045260246000fd5b50919050565b634e487b7160e01b600052601160045260246000fd5b8181038181111561031f5761031f610a08565b8082018082111561031f5761031f610a0856fea2646970667358221220333a0f80e6cd51eca400a671b9f8f81310bb57229d43ce9ebb53255b7f834f0f64736f6c63430008140033a26469706673582212202f827ac36a99d56edf2151b200e664d863b74d1fc44b91d27d1a917103d0581e64736f6c63430008140033608060405234801561001057600080fd5b50611f27806100206000396000f3fe608060405234801561001057600080fd5b50600436106100405760003560e01c80620d66e014610045578063145dad8b1461006d57806354894f5814610080575b600080fd5b610058610053366004611bf5565b6100a0565b60405190151581526020015b60405180910390f35b61005861007b366004611d22565b6102a5565b61009361008e366004611d22565b6102d9565b6040516100649190611d86565b600080604051806101800160405280866000600281106100c2576100c2611db7565b60200201518152602001866001600281106100df576100df611db7565b602002015181526020017f198e9393920d483a7260bfb731fb5d25f1aa493335a9e71297e485b7aef312c281526020017f1800deef121f1e76426a00665e5c4479674322d4f75edadd46debd5cd992f6ed81526020017f275dc4a288d1afb3cbb1ac09187524c7db36395df7be3b99e673b13a075a65ec81526020017f1d9befcd05a5323e6da4d435f3b617cdb3af83285c2df711ef39c01571827f9d81526020018460006002811061019457610194611db7565b60200201518152602001846001600281106101b1576101b1611db7565b60200201518152602001856001600481106101ce576101ce611db7565b60200201518152602001856000600481106101eb576101eb611db7565b602002015181526020018560036004811061020857610208611db7565b602002015181526020018560026004811061022557610225611db7565b602002015190529050610236611b15565b60006020826101808560086107d05a03fa9050808061025157fe5b50806102985760405162461bcd60e51b8152602060048201526011602482015270696e76616c6964207369676e617475726560781b60448201526064015b60405180910390fd5b5051151595945050505050565b60006102cf60405180604001604052806005815260200164257320257360d81b8152508484610389565b5060015b92915050565b6102e1611b33565b60006102ed84846103d5565b9050600061030182825b6020020151610490565b905060006103108360016102f7565b905061031a611b51565b825181526020808401518282015282516040808401919091529083015160608301526000908460808460066107d05a03fa9050808061035557fe5b508061037d5760405162461bcd60e51b8152602060048201526000602482015260440161028f565b50919695505050505050565b6103d08383836040516024016103a193929190611e1d565b60408051601f198184030181529190526020810180516001600160e01b0316632ced7cef60e01b17905261085b565b505050565b6103dd611b33565b60006103e98484610867565b9050600080600080601885016001600160c01b0381511693506030860190506001600160c01b038151169450600080516020611ed283398151915285600080516020611ed2833981519152600160c01b870908604887015160608801516001600160c01b0390811697501694509250600080516020611ed283398151915290508481600160c01b860908604080518082019091529283526020830152509695505050505050565b610498611b33565b600080516020611ed283398151915282106105015760405162461bcd60e51b815260206004820152602360248201527f6d6170546f506f696e7446543a20696e76616c6964206669656c6420656c656d604482015262195b9d60ea1b606482015260840161028f565b81600061050d82610b73565b90506000600080516020611ed28339815191528384099050600080516020611ed28339815191526004820890506000600080516020611ed283398151915277b3c4d79d41a91759a9e4c7e359b6b89eaec68e62effffffd850990506000600080516020611ed2833981519152838309905061058781610c44565b9050600080516020611ed28339815191528283099150600080516020611ed28339815191528183099150600080516020611ed28339815191528286099150600080516020611ed28339815191526105ec83600080516020611ed2833981519152611e76565b7759e26bcea0d48bacd4f263f1acdb5c4f5763473177fffffe089450600080516020611ed28339815191528586099150600080516020611ed28339815191528583099150600080516020611ed2833981519152600383089150600061065083610c4f565b9093509050801561069957841561067c5761067983600080516020611ed2833981519152611e76565b92505b505060408051808201909152938452602084015250909392505050565b600080516020611ed2833981519152600187086106c490600080516020611ed2833981519152611e76565b9550600080516020611ed28339815191528687099250600080516020611ed28339815191528684099250600080516020611ed283398151915260038408925061070c83610c4f565b9093509050801561073557841561067c5761067983600080516020611ed2833981519152611e76565b600080516020611ed28339815191528485099550600080516020611ed28339815191528687099550600080516020611ed28339815191528287099550600080516020611ed28339815191528287099550600080516020611ed2833981519152600187089550600080516020611ed28339815191528687099250600080516020611ed28339815191528684099250600080516020611ed28339815191526003840892506107e083610c4f565b90935090508061083d5760405162461bcd60e51b815260206004820152602260248201527f424c533a20626164206674206d617070696e6720696d706c656d656e7461746960448201526137b760f11b606482015260840161028f565b841561067c5761067983600080516020611ed2833981519152611e76565b61086481610c78565b50565b815160609061010081106108bd5760405162461bcd60e51b815260206004820152601a60248201527f424c533a20696e76616c696420646f6d61696e206c656e677468000000000000604482015260640161028f565b825160006108cb8284611e89565b6108d6906040611e89565b6108e1906004611e89565b67ffffffffffffffff8111156108f9576108f9611b6f565b6040519080825280601f01601f191660200182016040528015610923576020820181803683370190505b5060408051606080825260808201909252919250600091906020820181803683370190505090506060820160005b8481101561096b5760208189018101518383015201610951565b5083016000815360010160608153600101600081536001810190506020880151815284810190508481535060006002836040516109a89190611e9c565b602060405180830381855afa1580156109c5573d6000803e3d6000fd5b5050506040513d601f19601f820116820180604052508101906109e89190611eb8565b905060006109f7866022611e89565b945084845281602085015260016040850153602089015160418501528560418701850153600284604051610a2b9190611e9c565b602060405180830381855afa158015610a48573d6000803e3d6000fd5b5050506040513d601f19601f82011682018060405250810190610a6b9190611eb8565b90508060208401528082188060208601525060026040850153602089015160418501528560418701850153600284604051610aa69190611e9c565b602060405180830381855afa158015610ac3573d6000803e3d6000fd5b5050506040513d601f19601f82011682018060405250810190610ae69190611eb8565b90508060408401528082188060208601525060036040850153602089015160418501528560418701850153600284604051610b219190611e9c565b602060405180830381855afa158015610b3e573d6000803e3d6000fd5b5050506040513d601f19601f82011682018060405250810190610b619190611eb8565b60608401525090979650505050505050565b60008060405160208152602080820152602060408201528360608201527f183227397098d014dc2822db40c0ac2ecbc0b548b438e5469e10460b6c3e7ea36080820152600080516020611ed283398151915260a082015260208160c08360056107d05a03fa90516001149250905080610c3d5760405162461bcd60e51b815260206004820152602660248201527f424c533a2069734e6f6e526573696475654650206d6f646578702063616c6c2060448201526519985a5b195960d21b606482015260840161028f565b5015919050565b60006102d382610c99565b600080610c5b836113e0565b915082600080516020611ed2833981519152838409149050915091565b60006a636f6e736f6c652e6c6f679050600080835160208501845afa505050565b6000600080516020611ed28339815191528083840991508083830981838209828283098385830984848309858484098684850997508684840987858409945087898a09985087898a09985087898a09985087898a09985087898a09985087878a09985087898a09985087898a09985087898a099850878a8a09985087898a09985087898a09985087898a09985087898a099850878a8a09985087898a09985087898a09985087898a09985087898a09985087898a09985087848a09985087898a09985087898a09985087898a09985087898a09985087898a09985087848a09985087898a09985087898a09985087898a099850878a8a09985087898a09985087898a09985087898a09985087898a09985087848a09985087898a09985087898a09985087898a09985087898a09985087898a099850878a8a09985087898a09985087898a09985087898a09985087898a09985087878a09985087898a09985087898a09985087898a09985087898a09985087898a09985087898a09985087898a09985087818a09985087898a09985087898a09985087898a09985087898a09985087898a09985087898a09985087898a09985087898a09985087898a09985087898a09985087868a09985087898a09985087898a09985087898a09985087898a09985087878a09985087898a09985087898a09985087898a09985087898a09985087848a09985087898a09985087898a09985087898a09985087898a09985087898a09985087898a09985087898a09985087868a09985087898a09985087898a09985087898a09985087898a09985087898a09985087898a099850878a8a09985087898a09985087898a09985087898a09985087898a09985087898a09985087898a09985087898a09985087828a09985087898a09985087898a09985087898a09985087898a09985087898a09985087818a09985087898a09985087898a09985087898a09985087868a09985087898a09985087898a09985087898a09985087898a09985087898a09985087898a09985087898a09985087898a09985087878a09985087898a09985087898a09985087898a09985087898a09985087898a09985087898a09985087898a09985087898a09985087898a09985087868a09985087898a09985087898a09985087898a09985087878a09985087898a09985087898a09985087898a09985087898a09985087898a09985087898a09985087898a09985087898a09985087828a09985087898a09985087898a09985087898a09985087898a09985087828a09985087898a09985087898a09985087898a09985087898a09985087898a09985087868a09985087898a09985087898a09985087898a09985087848a09985087898a09985087898a09985087898a09985087898a09985087898a09985087898a09985087898a09985087898a09985087898a09985087898a09985087828a09985087898a09985087898a09985087898a09985087898a09985087868a09985087898a09985087898a09985087898a09985087898a09985087898a09985087838a09985087898a09985087898a09985087898a09985087898a09985087898a09985087898a09985087898a09985087828a09985087898a09985087898a099850878a8a09985087898a09985087898a09985087898a09985087898a09985087898a09985087898a09985087898a09985087848a09985087898a09985087898a09985087898a09985087898a09985087898a09985087898a09985087848a09985087898a09985087898a09985087898a09985087898a09985087898a09985087868a09985087898a09985087898a099850878a8a09985087898a09985087898a09985087898a09985087898a09985087898a09985087898a09985087898a09985087818a09985050868889099750868889099750868889099750868889099750868889099750868889099750868489099750868889099750868889099750868889099750868889099750868889099750868989099750868889099750868889099750868889099750868889099750868889099750868889099750868989099750868889099750868889099750868889099750868889099750868889099750868689099750868889099750868889099750868889099750868889099750868889099750868889099750868889099750868889099750868889099750868189099750508587880996508587880996508587880996508585880996508587880996508587880996508587880996508585880996508587880996508587880996508587880996508587880996508587880996508587880996508587880996508587880996508583880996508587880996508587880996508587880996508587880996508581880996505050838586099450838586099450838586099450838586099450838186099450508284850993508284850993508284850993508281850993508284850993508284850993508285850993508284850993508284850993508284850993508284850993508284850993508284850993508281850995945050505050565b6000600080516020611ed28339815191528083840991508083830981838209828283098385830984848309858484098684850997508684840987858409945087898a09985087898a09985087898a09985087898a09985087898a09985087878a09985087898a09985087898a09985087898a099850878a8a09985087898a09985087898a09985087898a09985087898a099850878a8a09985087898a09985087898a09985087898a09985087898a09985087898a09985087848a09985087898a09985087898a09985087898a09985087898a09985087898a09985087848a09985087898a09985087898a09985087898a099850878a8a09985087898a09985087898a09985087898a09985087898a09985087848a09985087898a09985087898a09985087898a09985087898a09985087898a099850878a8a09985087898a09985087898a09985087898a09985087898a09985087878a09985087898a09985087898a09985087898a09985087898a09985087898a09985087898a09985087898a09985087818a09985087898a09985087898a09985087898a09985087898a09985087898a09985087898a09985087898a09985087898a09985087898a09985087898a09985087868a09985087898a09985087898a09985087898a09985087898a09985087878a09985087898a09985087898a09985087898a09985087898a09985087848a09985087898a09985087898a09985087898a09985087898a09985087898a09985087898a09985087898a09985087868a09985087898a09985087898a09985087898a09985087898a09985087898a09985087898a099850878a8a09985087898a09985087898a09985087898a09985087898a09985087898a09985087898a09985087898a09985087828a09985087898a09985087898a09985087898a09985087898a09985087898a09985087818a09985087898a09985087898a09985087898a09985087868a09985087898a09985087898a09985087898a09985087898a09985087898a09985087898a09985087898a09985087898a09985087878a09985087898a09985087898a09985087898a09985087898a09985087898a09985087898a09985087898a09985087898a09985087898a09985087868a09985087898a09985087898a09985087898a09985087878a09985087898a09985087898a09985087898a09985087898a09985087898a09985087898a09985087898a09985087898a09985087828a09985087898a09985087898a09985087898a09985087898a09985087828a09985087898a09985087898a09985087898a09985087898a09985087898a09985087868a09985087898a09985087898a09985087898a09985087848a09985087898a09985087898a09985087898a09985087898a09985087898a09985087898a09985087898a09985087898a09985087898a09985087898a09985087828a09985087898a09985087898a09985087898a09985087898a09985087868a09985087898a09985087898a09985087898a09985087898a09985087898a09985087838a09985087898a09985087898a09985087898a09985087898a09985087898a09985087898a09985087898a09985087828a09985087898a09985087898a099850878a8a09985087898a09985087898a09985087898a09985087898a09985087898a09985087898a09985087898a09985087848a09985087898a09985087898a09985087898a09985087898a09985087898a09985087898a09985087848a09985087898a09985087898a09985087898a09985087898a09985087898a09985087868a09985087898a09985087898a099850878a8a09985087898a09985087898a09985087898a09985087898a09985087898a09985087898a09985087898a09985087818a09985050868889099750868889099750868889099750868889099750868889099750868889099750868489099750868889099750868889099750868889099750868889099750868889099750868989099750868889099750868889099750868889099750868889099750868889099750868889099750868989099750868889099750868889099750868889099750868889099750868889099750868689099750868889099750868889099750868889099750868889099750868889099750868889099750868889099750868889099750868889099750868189099750508587880996508587880996508587880996508585880996508587880996508587880996508587880996508585880996508587880996508587880996508587880996508587880996508587880996508587880996508587880996508587880996508583880996508587880996508587880996508587880996508587880996508581880996508587880996508587880996508587880996508587880996508583880996508587880996508587880996508587880996508584880996508587880996508587880996508587880996508587880996508587880996508581880996505050505050808283099392505050565b60405180602001604052806001906020820280368337509192915050565b60405180604001604052806002906020820280368337509192915050565b60405180608001604052806004906020820280368337509192915050565b634e487b7160e01b600052604160045260246000fd5b600082601f830112611b9657600080fd5b6040516040810181811067ffffffffffffffff82111715611bb957611bb9611b6f565b8060405250806040840185811115611bd057600080fd5b845b81811015611bea578035835260209283019201611bd2565b509195945050505050565b60008060006101008486031215611c0b57600080fd5b611c158585611b85565b925084605f850112611c2657600080fd5b6040516080810181811067ffffffffffffffff82111715611c4957611c49611b6f565b6040528060c0860187811115611c5e57600080fd5b604087015b81811015611c7b578035835260209283019201611c63565b50829450611c898882611b85565b93505050509250925092565b600082601f830112611ca657600080fd5b813567ffffffffffffffff80821115611cc157611cc1611b6f565b604051601f8301601f19908116603f01168101908282118183101715611ce957611ce9611b6f565b81604052838152866020858801011115611d0257600080fd5b836020870160208301376000602085830101528094505050505092915050565b60008060408385031215611d3557600080fd5b823567ffffffffffffffff80821115611d4d57600080fd5b611d5986838701611c95565b93506020850135915080821115611d6f57600080fd5b50611d7c85828601611c95565b9150509250929050565b60408101818360005b6002811015611dae578151835260209283019290910190600101611d8f565b50505092915050565b634e487b7160e01b600052603260045260246000fd5b60005b83811015611de8578181015183820152602001611dd0565b50506000910152565b60008151808452611e09816020860160208601611dcd565b601f01601f19169290920160200192915050565b606081526000611e306060830186611df1565b8281036020840152611e428186611df1565b90508281036040840152611e568185611df1565b9695505050505050565b634e487b7160e01b600052601160045260246000fd5b818103818111156102d3576102d3611e60565b808201808211156102d3576102d3611e60565b60008251611eae818460208701611dcd565b9190910192915050565b600060208284031215611eca57600080fd5b505191905056fe30644e72e131a029b85045b68181585d97816a916871ca8d3c208c16d87cfd47a26469706673582212200c8d4805bbe43408dc25b6476ff669665be2b7d353513fbd4652dd6db86b011864736f6c63430008140033",
  "linkReferences": {},
  "deployedLinkReferences": {}
}