{
  "_format": "hh-sol-artifact-1",
  "contractName": "Vault",
  "sourceName": "contracts/Vault.sol",
  "abi": [
    {
      "inputs": [],
      "stateMutability": "nonpayable",
      "type": "constructor"
    },
    {
      "anonymous": false,
      "inputs": [
        {
          "indexed": true,
          "internalType": "address",
          "name": "depositor",
          "type": "address"
        },
        {
          "indexed": true,
          "internalType": "address",
          "name": "tokenAddress",
          "type": "address"
        },
        {
          "indexed": false,
          "internalType": "uint256",
          "name": "toChainId",
          "type": "uint256"
        },
        {
          "indexed": false,
          "internalType": "uint256",
          "name": "amount",
          "type": "uint256"
        },
        {
          "indexed": false,
          "internalType": "uint256",
          "name": "depositCounter",
          "type": "uint256"
        }
      ],
      "name": "Deposited",
      "type": "event"
    },
    {
      "anonymous": false,
      "inputs": [
        {
          "indexed": false,
          "internalType": "uint256",
          "name": "amount",
          "type": "uint256"
        }
      ],
      "name": "Disbursed",
      "type": "event"
    },
    {
      "anonymous": false,
      "inputs": [
        {
          "indexed": false,
          "internalType": "uint256",
          "name": "amount",
          "type": "uint256"
        }
      ],
      "name": "Minted",
      "type": "event"
    },
    {
      "anonymous": false,
      "inputs": [
        {
          "indexed": false,
          "internalType": "address",
          "name": "depositor",
          "type": "address"
        },
        {
          "indexed": false,
          "internalType": "uint256",
          "name": "amount",
          "type": "uint256"
        }
      ],
      "name": "Withdrawn",
      "type": "event"
    },
    {
      "inputs": [],
      "name": "ETH",
      "outputs": [
        {
          "internalType": "address",
          "name": "",
          "type": "address"
        }
      ],
      "stateMutability": "view",
      "type": "function"
    },
    {
      "inputs": [],
      "name": "depositCounter",
      "outputs": [
        {
          "internalType": "uint256",
          "name": "",
          "type": "uint256"
        }
      ],
      "stateMutability": "view",
      "type": "function"
    },
    {
      "inputs": [
        {
          "internalType": "uint256",
          "name": "toChainId",
          "type": "uint256"
        }
      ],
      "name": "depositEth",
      "outputs": [],
      "stateMutability": "payable",
      "type": "function"
    },
    {
      "inputs": [
        {
          "internalType": "uint256",
          "name": "amount",
          "type": "uint256"
        }
      ],
      "name": "depositToken",
      "outputs": [],
      "stateMutability": "nonpayable",
      "type": "function"
    },
    {
      "inputs": [
        {
          "internalType": "bytes32",
          "name": "",
          "type": "bytes32"
        }
      ],
      "name": "deposited",
      "outputs": [
        {
          "internalType": "bool",
          "name": "",
          "type": "bool"
        }
      ],
      "stateMutability": "view",
      "type": "function"
    },
    {
      "inputs": [
        {
          "internalType": "uint256",
          "name": "amount",
          "type": "uint256"
        }
      ],
      "name": "disburse",
      "outputs": [],
      "stateMutability": "nonpayable",
      "type": "function"
    },
    {
      "inputs": [
        {
          "internalType": "address",
          "name": "depositor",
          "type": "address"
        },
        {
          "internalType": "address",
          "name": "token",
          "type": "address"
        },
        {
          "internalType": "uint256",
          "name": "toChainId",
          "type": "uint256"
        },
        {
          "internalType": "uint256",
          "name": "amount",
          "type": "uint256"
        },
        {
          "internalType": "uint256",
          "name": "counter",
          "type": "uint256"
        }
      ],
      "name": "isDeposited",
      "outputs": [
        {
          "internalType": "bool",
          "name": "",
          "type": "bool"
        }
      ],
      "stateMutability": "view",
      "type": "function"
    },
    {
      "inputs": [
        {
          "internalType": "uint256",
          "name": "amount",
          "type": "uint256"
        }
      ],
      "name": "mint",
      "outputs": [],
      "stateMutability": "nonpayable",
      "type": "function"
    },
    {
      "inputs": [
        {
          "internalType": "address",
          "name": "",
          "type": "address"
        }
      ],
      "name": "pool",
      "outputs": [
        {
          "internalType": "uint256",
          "name": "",
          "type": "uint256"
        }
      ],
      "stateMutability": "view",
      "type": "function"
    },
    {
      "inputs": [
        {
          "internalType": "uint256",
          "name": "",
          "type": "uint256"
        }
      ],
      "name": "pubkey",
      "outputs": [
        {
          "internalType": "uint256",
          "name": "",
          "type": "uint256"
        }
      ],
      "stateMutability": "view",
      "type": "function"
    },
    {
      "inputs": [
        {
          "internalType": "uint256",
          "name": "amount",
          "type": "uint256"
        }
      ],
      "name": "withdraw",
      "outputs": [],
      "stateMutability": "nonpayable",
      "type": "function"
    }
  ],
  "bytecode": "0x6080604052600060065534801561001557600080fd5b50610539806100256000396000f3fe60806040526004361061009c5760003560e01c80632e1a7d4d116100645780632e1a7d4d146101765780636215be77146101965780638322fff2146101b4578063a0712d6814610196578063bd77ac2c146101e1578063ecb3dc881461020157600080fd5b80630a352539146100a15780630f4d14e9146100d6578063156522a8146100eb5780631f36edcd146101265780632cdfb6ae14610156575b600080fd5b3480156100ad57600080fd5b506100c16100bc3660046103f8565b610217565b60405190151581526020015b60405180910390f35b6100e96100e4366004610445565b610266565b005b3480156100f757600080fd5b5061011861010636600461045e565b60046020526000908152604090205481565b6040519081526020016100cd565b34801561013257600080fd5b506100c1610141366004610445565b60056020526000908152604090205460ff1681565b34801561016257600080fd5b50610118610171366004610445565b610351565b34801561018257600080fd5b506100e9610191366004610445565b610368565b3480156101a257600080fd5b506100e96101b1366004610445565b50565b3480156101c057600080fd5b506101c9600081565b6040516001600160a01b0390911681526020016100cd565b3480156101ed57600080fd5b506100e96101fc366004610445565b6103a5565b34801561020d57600080fd5b5061011860065481565b6000808686868686604051602001610233959493929190610480565b60408051808303601f1901815291815281516020928301206000908152600590925290205460ff16979650505050505050565b600080805260046020527f17ef568e3e12ab5b9c7254a8d58478811de00f9e6eb34345acd53bf8fd09d3ec80543492906102a19084906104d1565b909155505060068054600091826102b7836104ea565b91905055905060003360008434856040516020016102d9959493929190610480565b60408051601f198184030181528282528051602091820120600081815260058352838120805460ff1916600117905587855234928501929092529183018590529092509033907f8bab6aed5a508937051a144e61d6e61336834a66aaee250a00613ae6f744c4229060600160405180910390a3505050565b6000816004811061036157600080fd5b0154905081565b60408051338152602081018390527f7084f5476618d8e60b11ef0d7d3f06914655adb8793e28ff7f018d4c76d505d591015b60405180910390a150565b6040805160008152602081018390527f7084f5476618d8e60b11ef0d7d3f06914655adb8793e28ff7f018d4c76d505d5910161039a565b80356001600160a01b03811681146103f357600080fd5b919050565b600080600080600060a0868803121561041057600080fd5b610419866103dc565b9450610427602087016103dc565b94979496505050506040830135926060810135926080909101359150565b60006020828403121561045757600080fd5b5035919050565b60006020828403121561047057600080fd5b610479826103dc565b9392505050565b6bffffffffffffffffffffffff19606096871b811682529490951b909316601485015260288401919091526048830152606882015260880190565b634e487b7160e01b600052601160045260246000fd5b808201808211156104e4576104e46104bb565b92915050565b6000600182016104fc576104fc6104bb565b506001019056fea2646970667358221220480988b3aa8269800d76b428dea1101c4482a23879efb9eb90279e6ed814768a64736f6c63430008140033",
  "linkReferences": {},
  "deployedLinkReferences": {}
}