{
  "_format": "hh-sol-artifact-1",
  "contractName": "Vault",
  "sourceName": "contracts/Vault.sol",
  "abi": [
    {
      "inputs": [
        {
          "internalType": "uint256",
          "name": "chainId_",
          "type": "uint256"
        },
        {
          "internalType": "uint256[4]",
          "name": "publicKey_",
          "type": "uint256[4]"
        }
      ],
      "stateMutability": "nonpayable",
      "type": "constructor"
    },
    {
      "anonymous": false,
      "inputs": [
        {
          "indexed": true,
          "internalType": "uint256",
          "name": "originatingChain",
          "type": "uint256"
        },
        {
          "indexed": true,
          "internalType": "address",
          "name": "originatingToken",
          "type": "address"
        },
        {
          "indexed": false,
          "internalType": "string",
          "name": "originatingName",
          "type": "string"
        },
        {
          "indexed": false,
          "internalType": "string",
          "name": "originatingSymbol",
          "type": "string"
        },
        {
          "indexed": false,
          "internalType": "uint256",
          "name": "decimals",
          "type": "uint256"
        },
        {
          "indexed": false,
          "internalType": "uint256",
          "name": "amount",
          "type": "uint256"
        },
        {
          "indexed": true,
          "internalType": "address",
          "name": "vaultUser",
          "type": "address"
        },
        {
          "indexed": false,
          "internalType": "uint256",
          "name": "fromChain",
          "type": "uint256"
        },
        {
          "indexed": false,
          "internalType": "uint256",
          "name": "toChain",
          "type": "uint256"
        },
        {
          "indexed": false,
          "internalType": "uint256",
          "name": "sendCounter",
          "type": "uint256"
        }
      ],
      "name": "TokenSent",
      "type": "event"
    },
    {
      "inputs": [],
      "name": "NATIVE",
      "outputs": [
        {
          "internalType": "address",
          "name": "",
          "type": "address"
        }
      ],
      "stateMutability": "view",
      "type": "function"
    },
    {
      "inputs": [],
      "name": "chainId",
      "outputs": [
        {
          "internalType": "uint256",
          "name": "",
          "type": "uint256"
        }
      ],
      "stateMutability": "view",
      "type": "function"
    },
    {
      "inputs": [
        {
          "internalType": "address",
          "name": "",
          "type": "address"
        }
      ],
      "name": "isProxyToken",
      "outputs": [
        {
          "internalType": "bool",
          "name": "",
          "type": "bool"
        }
      ],
      "stateMutability": "view",
      "type": "function"
    },
    {
      "inputs": [
        {
          "internalType": "uint256",
          "name": "originatingChain",
          "type": "uint256"
        },
        {
          "internalType": "address",
          "name": "originatingToken",
          "type": "address"
        },
        {
          "internalType": "uint256",
          "name": "decimals",
          "type": "uint256"
        },
        {
          "internalType": "uint256",
          "name": "amount",
          "type": "uint256"
        },
        {
          "internalType": "address",
          "name": "vaultUser",
          "type": "address"
        },
        {
          "internalType": "uint256",
          "name": "fromChain",
          "type": "uint256"
        },
        {
          "internalType": "uint256",
          "name": "toChain",
          "type": "uint256"
        },
        {
          "internalType": "uint256",
          "name": "counter",
          "type": "uint256"
        }
      ],
      "name": "payloadHash",
      "outputs": [
        {
          "internalType": "bytes32",
          "name": "",
          "type": "bytes32"
        }
      ],
      "stateMutability": "pure",
      "type": "function"
    },
    {
      "inputs": [
        {
          "internalType": "address",
          "name": "",
          "type": "address"
        }
      ],
      "name": "pool",
      "outputs": [
        {
          "internalType": "uint256",
          "name": "",
          "type": "uint256"
        }
      ],
      "stateMutability": "view",
      "type": "function"
    },
    {
      "inputs": [
        {
          "internalType": "uint256",
          "name": "",
          "type": "uint256"
        },
        {
          "internalType": "address",
          "name": "",
          "type": "address"
        }
      ],
      "name": "proxyTokenMap",
      "outputs": [
        {
          "internalType": "address",
          "name": "",
          "type": "address"
        }
      ],
      "stateMutability": "view",
      "type": "function"
    },
    {
      "inputs": [
        {
          "internalType": "uint256",
          "name": "",
          "type": "uint256"
        }
      ],
      "name": "publicKey",
      "outputs": [
        {
          "internalType": "uint256",
          "name": "",
          "type": "uint256"
        }
      ],
      "stateMutability": "view",
      "type": "function"
    },
    {
      "inputs": [],
      "name": "sendCounter",
      "outputs": [
        {
          "internalType": "uint256",
          "name": "",
          "type": "uint256"
        }
      ],
      "stateMutability": "view",
      "type": "function"
    },
    {
      "inputs": [
        {
          "internalType": "uint256",
          "name": "toChainId",
          "type": "uint256"
        }
      ],
      "name": "sendNative",
      "outputs": [],
      "stateMutability": "payable",
      "type": "function"
    },
    {
      "inputs": [
        {
          "internalType": "uint256",
          "name": "toChainId",
          "type": "uint256"
        },
        {
          "internalType": "address",
          "name": "tokenAddress",
          "type": "address"
        },
        {
          "internalType": "uint256",
          "name": "tokenAmount",
          "type": "uint256"
        }
      ],
      "name": "sendToken",
      "outputs": [],
      "stateMutability": "nonpayable",
      "type": "function"
    },
    {
      "inputs": [
        {
          "internalType": "uint256[2]",
          "name": "signature",
          "type": "uint256[2]"
        },
        {
          "internalType": "uint256[4]",
          "name": "signerKey",
          "type": "uint256[4]"
        },
        {
          "internalType": "bytes",
          "name": "tokenSendPayload",
          "type": "bytes"
        },
        {
          "internalType": "string",
          "name": "name",
          "type": "string"
        },
        {
          "internalType": "string",
          "name": "symbol",
          "type": "string"
        }
      ],
      "name": "tokenArrival",
      "outputs": [],
      "stateMutability": "nonpayable",
      "type": "function"
    },
    {
      "inputs": [
        {
          "internalType": "bytes32",
          "name": "",
          "type": "bytes32"
        }
      ],
      "name": "tokenArrived",
      "outputs": [
        {
          "internalType": "bool",
          "name": "",
          "type": "bool"
        }
      ],
      "stateMutability": "view",
      "type": "function"
    },
    {
      "inputs": [
        {
          "internalType": "bytes32",
          "name": "",
          "type": "bytes32"
        }
      ],
      "name": "tokenSent",
      "outputs": [
        {
          "internalType": "bool",
          "name": "",
          "type": "bool"
        }
      ],
      "stateMutability": "view",
      "type": "function"
    },
    {
      "inputs": [],
      "name": "verifier",
      "outputs": [
        {
          "internalType": "contract BlsVerify",
          "name": "",
          "type": "address"
        }
      ],
      "stateMutability": "view",
      "type": "function"
    }
  ],
  "bytecode": "0x60806040526000600a553480156200001657600080fd5b5060405162004b1738038062004b17833981016040819052620000399162000121565b60008290556200004d6001826004620000a3565b506040516200005c90620000e6565b604051809103906000f08015801562000079573d6000803e3d6000fd5b50600b80546001600160a01b0319166001600160a01b039290921691909117905550620001b29050565b8260048101928215620000d4579160200282015b82811115620000d4578251825591602001919060010190620000b7565b50620000e2929150620000f4565b5090565b61221880620028ff83390190565b5b80821115620000e25760008155600101620000f5565b634e487b7160e01b600052604160045260246000fd5b60008060a083850312156200013557600080fd5b82519150602084603f8501126200014b57600080fd5b604051608081016001600160401b03811182821017156200017057620001706200010b565b6040528060a08601878111156200018657600080fd5b8387015b81811015620001a357805183529184019184016200018a565b50505080925050509250929050565b61273d80620001c26000396000f3fe608060405260043610620000ef5760003560e01c80639a8a05921162000089578063b8f3e1b71162000060578063b8f3e1b71462000296578063bca49b7d14620002db578063c7fbad431462000300578063cc24fa1b146200032557600080fd5b80639a8a059214620002505780639e80dc1f1462000268578063a0cf0aea146200027f57600080fd5b80631c642f2c11620000ca5780631c642f2c14620001a45780632b7ac3f314620001bc57806364f0b77214620001f75780638940aebe146200022b57600080fd5b80630195bc4914620000f457806307776a4c146200013d578063156522a81462000164575b600080fd5b3480156200010157600080fd5b50620001286200011336600462001254565b60076020526000908152604090205460ff1681565b60405190151581526020015b60405180910390f35b3480156200014a57600080fd5b50620001626200015c366004620012ba565b62000359565b005b3480156200017157600080fd5b506200019562000183366004620013a7565b60056020526000908152604090205481565b60405190815260200162000134565b348015620001b157600080fd5b5062000195600a5481565b348015620001c957600080fd5b50600b54620001de906001600160a01b031681565b6040516001600160a01b03909116815260200162000134565b3480156200020457600080fd5b506200012862000216366004620013a7565b60096020526000908152604090205460ff1681565b3480156200023857600080fd5b50620001956200024a36600462001254565b62000467565b3480156200025d57600080fd5b506200019560005481565b620001626200027936600462001254565b6200047f565b3480156200028c57600080fd5b50620001de600081565b348015620002a357600080fd5b50620001de620002b5366004620013ce565b60086020908152600092835260408084209091529082529020546001600160a01b031681565b348015620002e857600080fd5b5062000195620002fa36600462001401565b620005aa565b3480156200030d57600080fd5b50620001626200031f36600462001475565b62000610565b3480156200033257600080fd5b50620001286200034436600462001254565b60066020526000908152604090205460ff1681565b600086866040516200036d929190620014b0565b604080519182900390912060008181526007602052919091205490915060ff1615620003e05760405162461bcd60e51b815260206004820152601f60248201527f546f6b656e204172726976616c20616c72656164792070726f6365737365640060448201526064015b60405180910390fd5b60408051808201825262000434918b9060029083908390808284376000920191909152505060408051608081810190925291508b906004908390839080828437600092019190915250859150620009049050565b6200044487878787878762000b2f565b6000908152600760205260409020805460ff191660011790555050505050505050565b600181600481106200047857600080fd5b0154905081565b600080805260056020527f05b8ccbb9d4d8fb16ea74ce3c29a41f1b461fbdaff4714a0d9a8eb05499746bc8054349290620004bc908490620014d6565b9091555050600a805460009182620004d483620014f2565b9190505590506000620004f46000546000601234336000548989620005aa565b6000818152600660209081526040808320805460ff191660011790558254815160e08082526005908201526422aa2422a960d91b6101008201526101209381018490526003938101939093526208aa8960eb1b6101408401526012918301919091523460608301526080820181905260a0820187905260c082018690529293503392907f7de319335b0d847898705ba3c425976749af5816f4679e17883c70af43b54322906101600160405180910390a4505050565b6040805160208082019a909a526001600160a01b0398891681830152606081019790975260808701959095529290951660a085015260c084015260e083019390935261010080830193909352805180830390930183526101209091019052805191012090565b6001600160a01b0382166000908152600960205260408120548190819060ff1615620007df576000859050806001600160a01b0316632c4701d46040518163ffffffff1660e01b8152600401602060405180830381865afa1580156200067a573d6000803e3d6000fd5b505050506040513d601f19601f82011682018060405250810190620006a091906200150e565b9350806001600160a01b031663860d42886040518163ffffffff1660e01b8152600401602060405180830381865afa158015620006e1573d6000803e3d6000fd5b505050506040513d601f19601f8201168201806040525081019062000707919062001528565b9250806001600160a01b031663313ce5676040518163ffffffff1660e01b8152600401602060405180830381865afa15801562000748573d6000803e3d6000fd5b505050506040513d601f19601f820116820180604052508101906200076e919062001548565b604051632770a7eb60e21b81523360048201526024810187905260ff9190911692506001600160a01b03821690639dc29fac90604401600060405180830381600087803b158015620007bf57600080fd5b505af1158015620007d4573d6000803e3d6000fd5b505050505062000895565b60005492508491506000859050806001600160a01b031663313ce5676040518163ffffffff1660e01b8152600401602060405180830381865afa1580156200082b573d6000803e3d6000fd5b505050506040513d601f19601f8201168201806040525081019062000851919062001548565b60ff169150620008648633308862000bef565b6001600160a01b038616600090815260056020526040812080548792906200088e908490620014d6565b9091555050505b600a805460009182620008a883620014f2565b9190505590506000620008c485858589336000548e89620005aa565b6000818152600660205260408120805460ff1916600117905554909150620008fa9088908790879087908b9033908f8a62000e7c565b5050505050505050565b81516001541480156200091c57506020820151600254145b80156200092e57506040820151600354145b80156200094057506060820151600454145b620009835760405162461bcd60e51b8152602060048201526012602482015271496e76616c6964205075626c6963204b657960701b6044820152606401620003d7565b600b5460405163c68b378760e01b8152600481018390526000916001600160a01b031690633033cc5190829063c68b378790602401600060405180830381865afa158015620009d6573d6000803e3d6000fd5b505050506040513d6000823e601f3d908101601f1916820160405262000a009190810190620015a9565b6040518263ffffffff1660e01b815260040162000a1e919062001690565b6040805180830381865afa15801562000a3b573d6000803e3d6000fd5b505050506040513d601f19601f8201168201806040525081019062000a619190620016a5565b600b54604051616b3760e51b81529192506000916001600160a01b0390911690620d66e09062000a9a9088908890879060040162001752565b602060405180830381865afa15801562000ab8573d6000803e3d6000fd5b505050506040513d601f19601f8201168201806040525081019062000ade9190620017a6565b905060018115151462000b285760405162461bcd60e51b8152602060048201526011602482015270496e76616c6964205369676e617475726560781b6044820152606401620003d7565b5050505050565b600080808062000b42898b018b62001401565b505050945094505093509350836000540362000b9c576001600160a01b0383166000908152600560205260408120805484929062000b82908490620017ca565b9091555062000b9690508330838562000bef565b62000be3565b62000be38a8a8080601f0160208091040260200160405190810160405280939291908181526020018383808284376000920191909152508c92508b91508a905089620010c9565b50505050505050505050565b6001600160a01b03841662000c3c576040516001600160a01b0383169082156108fc029083906000818181858888f1935050505015801562000c35573d6000803e3d6000fd5b5062000e76565b6040516370a0823160e01b81526001600160a01b038381166004830152600091908616906370a0823190602401602060405180830381865afa15801562000c87573d6000803e3d6000fd5b505050506040513d601f19601f8201168201806040525081019062000cad91906200150e565b90506001600160a01b038416301462000d44576040516323b872dd60e01b81526001600160a01b0385811660048301528481166024830152604482018490528616906323b872dd906064016020604051808303816000875af115801562000d18573d6000803e3d6000fd5b505050506040513d601f19601f8201168201806040525081019062000d3e9190620017a6565b62000dba565b60405163a9059cbb60e01b81526001600160a01b0384811660048301526024820184905286169063a9059cbb906044016020604051808303816000875af115801562000d94573d6000803e3d6000fd5b505050506040513d601f19601f8201168201806040525081019062000dba9190620017a6565b5062000dc78282620014d6565b6040516370a0823160e01b81526001600160a01b0385811660048301528716906370a0823190602401602060405180830381865afa15801562000e0e573d6000803e3d6000fd5b505050506040513d601f19601f8201168201806040525081019062000e3491906200150e565b1462000b285760405162461bcd60e51b815260206004820152601060248201526f24b73b30b634b2103a3930b739b332b960811b6044820152606401620003d7565b50505050565b6001600160a01b038916600090815260096020526040902054606090819060ff161562000f855760008b9050806001600160a01b0316635428c4516040518163ffffffff1660e01b8152600401600060405180830381865afa15801562000ee7573d6000803e3d6000fd5b505050506040513d6000823e601f3d908101601f1916820160405262000f119190810190620015a9565b9250806001600160a01b031663709347846040518163ffffffff1660e01b8152600401600060405180830381865afa15801562000f52573d6000803e3d6000fd5b505050506040513d6000823e601f3d908101601f1916820160405262000f7c9190810190620015a9565b91505062001062565b60008b9050806001600160a01b03166306fdde036040518163ffffffff1660e01b8152600401600060405180830381865afa15801562000fc9573d6000803e3d6000fd5b505050506040513d6000823e601f3d908101601f1916820160405262000ff39190810190620015a9565b9250806001600160a01b03166395d89b416040518163ffffffff1660e01b8152600401600060405180830381865afa15801562001034573d6000803e3d6000fd5b505050506040513d6000823e601f3d908101601f191682016040526200105e9190810190620015a9565b9150505b856001600160a01b0316896001600160a01b03168b7f7de319335b0d847898705ba3c425976749af5816f4679e17883c70af43b5432285858d8d8c8c8c604051620010b49796959493929190620017e0565b60405180910390a45050505050505050505050565b6000806000806000808a806020019051810190620010e8919062001834565b50505060008581526008602090815260408083206001600160a01b038089168552925290912054959a509398509196509450925016620011b6578989898986888a604051620011379062001246565b620011499796959493929190620018d5565b604051809103906000f08015801562001166573d6000803e3d6000fd5b5060008681526008602090815260408083206001600160a01b03898116855290835281842080546001600160a01b0319169186169182179055835260099091529020805460ff1916600117905595505b60008581526008602090815260408083206001600160a01b0388811685529252918290205491516340c10f1960e01b81528382166004820152602481018590529116965086906340c10f1990604401600060405180830381600087803b1580156200122057600080fd5b505af115801562001235573d6000803e3d6000fd5b505050505050505050505050505050565b610ddb806200192d83390190565b6000602082840312156200126757600080fd5b5035919050565b60008083601f8401126200128157600080fd5b50813567ffffffffffffffff8111156200129a57600080fd5b602083019150836020828501011115620012b357600080fd5b9250929050565b600080600080600080600080610120898b031215620012d857600080fd5b604089018a811115620012ea57600080fd5b89985060c08a018b811115620012ff57600080fd5b9097503567ffffffffffffffff808211156200131a57600080fd5b620013288c838d016200126e565b909850965060e08b01359150808211156200134257600080fd5b620013508c838d016200126e565b90965094506101008b01359150808211156200136b57600080fd5b506200137a8b828c016200126e565b999c989b5096995094979396929594505050565b6001600160a01b0381168114620013a457600080fd5b50565b600060208284031215620013ba57600080fd5b8135620013c7816200138e565b9392505050565b60008060408385031215620013e257600080fd5b823591506020830135620013f6816200138e565b809150509250929050565b600080600080600080600080610100898b0312156200141f57600080fd5b88359750602089013562001433816200138e565b96506040890135955060608901359450608089013562001453816200138e565b979a969950949793969560a0850135955060c08501359460e001359350915050565b6000806000606084860312156200148b57600080fd5b8335925060208401356200149f816200138e565b929592945050506040919091013590565b8183823760009101908152919050565b634e487b7160e01b600052601160045260246000fd5b80820180821115620014ec57620014ec620014c0565b92915050565b600060018201620015075762001507620014c0565b5060010190565b6000602082840312156200152157600080fd5b5051919050565b6000602082840312156200153b57600080fd5b8151620013c7816200138e565b6000602082840312156200155b57600080fd5b815160ff81168114620013c757600080fd5b634e487b7160e01b600052604160045260246000fd5b60005b83811015620015a057818101518382015260200162001586565b50506000910152565b600060208284031215620015bc57600080fd5b815167ffffffffffffffff80821115620015d557600080fd5b818401915084601f830112620015ea57600080fd5b815181811115620015ff57620015ff6200156d565b604051601f8201601f19908116603f011681019083821181831017156200162a576200162a6200156d565b816040528281528760208487010111156200164457600080fd5b6200165783602083016020880162001583565b979650505050505050565b600081518084526200167c81602086016020860162001583565b601f01601f19169290920160200192915050565b602081526000620013c7602083018462001662565b600060408284031215620016b857600080fd5b82601f830112620016c857600080fd5b6040516040810181811067ffffffffffffffff82111715620016ee57620016ee6200156d565b80604052508060408401858111156200170657600080fd5b845b818110156200172257805183526020928301920162001708565b509195945050505050565b8060005b600281101562000e7657815184526020938401939091019060010162001731565b61010081016200176382866200172d565b604082018460005b60048110156200178c5781518352602092830192909101906001016200176b565b5050506200179e60c08301846200172d565b949350505050565b600060208284031215620017b957600080fd5b81518015158114620013c757600080fd5b81810381811115620014ec57620014ec620014c0565b60e081526000620017f560e083018a62001662565b828103602084015262001809818a62001662565b604084019890985250506060810194909452608084019290925260a083015260c09091015292915050565b600080600080600080600080610100898b0312156200185257600080fd5b88519750602089015162001866816200138e565b809750506040890151955060608901519450608089015162001888816200138e565b60a08a015160c08b015160e0909b0151999c989b5096999598909790945092505050565b81835281816020850137506000828201602090810191909152601f909101601f19169091010190565b60a081526000620018eb60a08301898b620018ac565b82810360208401526200190081888a620018ac565b60ff96909616604084015250506001600160a01b0392909216606083015260809091015294935050505056fe60806040523480156200001157600080fd5b5060405162000ddb38038062000ddb833981016040819052620000349162000183565b84846003620000448382620002c2565b506004620000538282620002c2565b50506008805460ff861660ff1990911617905550600580546001600160a01b0384166001600160a01b031991821617909155600782905560068054909116331790556009620000a38682620002c2565b50600a620000b28582620002c2565b5050505050506200038e565b634e487b7160e01b600052604160045260246000fd5b600082601f830112620000e657600080fd5b81516001600160401b0380821115620001035762000103620000be565b604051601f8301601f19908116603f011681019082821181831017156200012e576200012e620000be565b816040528381526020925086838588010111156200014b57600080fd5b600091505b838210156200016f578582018301518183018401529082019062000150565b600093810190920192909252949350505050565b600080600080600060a086880312156200019c57600080fd5b85516001600160401b0380821115620001b457600080fd5b620001c289838a01620000d4565b96506020880151915080821115620001d957600080fd5b50620001e888828901620000d4565b945050604086015160ff811681146200020057600080fd5b60608701519093506001600160a01b03811681146200021e57600080fd5b80925050608086015190509295509295909350565b600181811c908216806200024857607f821691505b6020821081036200026957634e487b7160e01b600052602260045260246000fd5b50919050565b601f821115620002bd57600081815260208120601f850160051c81016020861015620002985750805b601f850160051c820191505b81811015620002b957828155600101620002a4565b5050505b505050565b81516001600160401b03811115620002de57620002de620000be565b620002f681620002ef845462000233565b846200026f565b602080601f8311600181146200032e5760008415620003155750858301515b600019600386901b1c1916600185901b178555620002b9565b600085815260208120601f198616915b828110156200035f578886015182559484019460019091019084016200033e565b50858210156200037e5787850151600019600388901b60f8161c191681555b5050505050600190811b01905550565b610a3d806200039e6000396000f3fe608060405234801561001057600080fd5b50600436106101005760003560e01c8063709347841161009757806395d89b411161006657806395d89b41146102155780639dc29fac1461021d578063a9059cbb14610230578063dd62ed3e1461024357600080fd5b806370934784146101a657806370a08231146101ae578063860d4288146101d75780638da5cb5b1461020257600080fd5b80632c4701d4116100d35780632c4701d41461016b578063313ce5671461017457806340c10f19146101895780635428c4511461019e57600080fd5b806306fdde0314610105578063095ea7b31461012357806318160ddd1461014657806323b872dd14610158575b600080fd5b61010d61027c565b60405161011a91906107a8565b60405180910390f35b610136610131366004610812565b6102a4565b604051901515815260200161011a565b6002545b60405190815260200161011a565b61013661016636600461083c565b6102be565b61014a60075481565b60085460405160ff909116815260200161011a565b61019c610197366004610812565b6102e2565b005b61010d61033e565b61010d6103cc565b61014a6101bc366004610878565b6001600160a01b031660009081526020819052604090205490565b6005546101ea906001600160a01b031681565b6040516001600160a01b03909116815260200161011a565b6006546101ea906001600160a01b031681565b61010d6103d9565b61019c61022b366004610812565b6103ed565b61013661023e366004610812565b610440565b61014a61025136600461089a565b6001600160a01b03918216600090815260016020908152604080832093909416825291909152205490565b6060600960405160200161029091906109a4565b604051602081830303815290604052905090565b6000336102b281858561044e565b60019150505b92915050565b6000336102cc858285610460565b6102d78585856104de565b506001949350505050565b6006546001600160a01b031633146103305760405162461bcd60e51b815260206004820152600c60248201526b3737ba1030b71037bbb732b960a11b60448201526064015b60405180910390fd5b61033a828261053d565b5050565b6009805461034b906108cd565b80601f0160208091040260200160405190810160405280929190818152602001828054610377906108cd565b80156103c45780601f10610399576101008083540402835291602001916103c4565b820191906000526020600020905b8154815290600101906020018083116103a757829003601f168201915b505050505081565b600a805461034b906108cd565b6060600a60405160200161029091906109c8565b6006546001600160a01b031633146104365760405162461bcd60e51b815260206004820152600c60248201526b3737ba1030b71037bbb732b960a11b6044820152606401610327565b61033a8282610573565b6000336102b28185856104de565b61045b83838360016105a9565b505050565b6001600160a01b0383811660009081526001602090815260408083209386168352929052205460001981146104d857818110156104c957604051637dc7a0d960e11b81526001600160a01b03841660048201526024810182905260448101839052606401610327565b6104d8848484840360006105a9565b50505050565b6001600160a01b03831661050857604051634b637e8f60e11b815260006004820152602401610327565b6001600160a01b0382166105325760405163ec442f0560e01b815260006004820152602401610327565b61045b83838361067e565b6001600160a01b0382166105675760405163ec442f0560e01b815260006004820152602401610327565b61033a6000838361067e565b6001600160a01b03821661059d57604051634b637e8f60e11b815260006004820152602401610327565b61033a8260008361067e565b6001600160a01b0384166105d35760405163e602df0560e01b815260006004820152602401610327565b6001600160a01b0383166105fd57604051634a1406b160e11b815260006004820152602401610327565b6001600160a01b03808516600090815260016020908152604080832093871683529290522082905580156104d857826001600160a01b0316846001600160a01b03167f8c5be1e5ebec7d5bd14f71427d1e84f3dd0314c0f7b2291e5b200ac8c7c3b9258460405161067091815260200190565b60405180910390a350505050565b6001600160a01b0383166106a957806002600082825461069e91906109e6565b9091555061071b9050565b6001600160a01b038316600090815260208190526040902054818110156106fc5760405163391434e360e21b81526001600160a01b03851660048201526024810182905260448101839052606401610327565b6001600160a01b03841660009081526020819052604090209082900390555b6001600160a01b03821661073757600280548290039055610756565b6001600160a01b03821660009081526020819052604090208054820190555b816001600160a01b0316836001600160a01b03167fddf252ad1be2c89b69c2b068fc378daa952ba7f163c4a11628f55a4df523b3ef8360405161079b91815260200190565b60405180910390a3505050565b600060208083528351808285015260005b818110156107d5578581018301518582016040015282016107b9565b506000604082860101526040601f19601f8301168501019250505092915050565b80356001600160a01b038116811461080d57600080fd5b919050565b6000806040838503121561082557600080fd5b61082e836107f6565b946020939093013593505050565b60008060006060848603121561085157600080fd5b61085a846107f6565b9250610868602085016107f6565b9150604084013590509250925092565b60006020828403121561088a57600080fd5b610893826107f6565b9392505050565b600080604083850312156108ad57600080fd5b6108b6836107f6565b91506108c4602084016107f6565b90509250929050565b600181811c908216806108e157607f821691505b60208210810361090157634e487b7160e01b600052602260045260246000fd5b50919050565b8054600090600181811c908083168061092157607f831692505b6020808410820361094257634e487b7160e01b600052602260045260246000fd5b818015610956576001811461096b57610998565b60ff1986168952841515850289019650610998565b60008881526020902060005b868110156109905781548b820152908501908301610977565b505084890196505b50505050505092915050565b60006109b08284610907565b672fa922a0a1aa27a960c11b81526008019392505050565b60006109d48284610907565b612fa960f11b81526002019392505050565b808201808211156102b857634e487b7160e01b600052601160045260246000fdfea264697066735822122017e59e5fd15d23b66c54499526df59ecf344cdde2c6d1d15c81ee16467558b9f64736f6c63430008140033a2646970667358221220ae1932f9d87b4ae56a3f09c9397164f19b90ae988e1cbac622cc4acff5120a3c64736f6c63430008140033608060405234801561001057600080fd5b506121f8806100206000396000f3fe608060405234801561001057600080fd5b506004361061004b5760003560e01c80620d66e014610050578063145dad8b146100785780633033cc511461008b578063c68b3787146100ab575b600080fd5b61006361005e366004611e09565b6100cb565b60405190151581526020015b60405180910390f35b610063610086366004611f46565b6102d0565b61009e610099366004611faa565b610304565b60405161006f9190611ffb565b6100be6100b936600461202c565b6103e8565b60405161006f9190612095565b600080604051806101800160405280866000600281106100ed576100ed6120a8565b602002015181526020018660016002811061010a5761010a6120a8565b602002015181526020017f198e9393920d483a7260bfb731fb5d25f1aa493335a9e71297e485b7aef312c281526020017f1800deef121f1e76426a00665e5c4479674322d4f75edadd46debd5cd992f6ed81526020017f275dc4a288d1afb3cbb1ac09187524c7db36395df7be3b99e673b13a075a65ec81526020017f1d9befcd05a5323e6da4d435f3b617cdb3af83285c2df711ef39c01571827f9d8152602001846000600281106101bf576101bf6120a8565b60200201518152602001846001600281106101dc576101dc6120a8565b60200201518152602001856001600481106101f9576101f96120a8565b6020020151815260200185600060048110610216576102166120a8565b6020020151815260200185600360048110610233576102336120a8565b6020020151815260200185600260048110610250576102506120a8565b602002015190529050610261611d34565b60006020826101808560086107d05a03fa9050808061027c57fe5b50806102c35760405162461bcd60e51b8152602060048201526011602482015270696e76616c6964207369676e617475726560781b60448201526064015b60405180910390fd5b5051151595945050505050565b60006102fa60405180604001604052806005815260200164257320257360d81b81525084846105a8565b5060015b92915050565b61030c611d52565b600061034d6040518060400160405280601f81526020017f424e535f5349475f424e533235365f584d443a5348412d3235365f5353575500815250846105f4565b9050600061036182825b60200201516106af565b90506000610370836001610357565b905061037a611d70565b825181526020808401518282015282516040808401919091529083015160608301526000908460808460066107d05a03fa905080806103b557fe5b50806103dd5760405162461bcd60e51b815260206004820152600060248201526044016102ba565b509195945050505050565b604080516042808252608082019092526060916000919060208201818036833701905050905060006040518060400160405280601081526020016f181899199a1a9b1b9c1cb0b131b232b360811b8152509050600360fc1b82600081518110610453576104536120a8565b60200101906001600160f81b031916908160001a905350600f60fb1b82600181518110610482576104826120a8565b60200101906001600160f81b031916908160001a90535060005b602081101561059f5760008582602081106104b9576104b96120a8565b845191901a91508390600483901c60ff169081106104d9576104d96120a8565b01602001516001600160f81b031916846104f48460026120d4565b6104ff9060026120eb565b8151811061050f5761050f6120a8565b60200101906001600160f81b031916908160001a9053508281600f1660ff168151811061053e5761053e6120a8565b01602001516001600160f81b031916846105598460026120d4565b6105649060036120eb565b81518110610574576105746120a8565b60200101906001600160f81b031916908160001a905350508080610597906120fe565b91505061049c565b50909392505050565b6105ef8383836040516024016105c093929190612117565b60408051601f198184030181529190526020810180516001600160e01b0316632ced7cef60e01b179052610a7a565b505050565b6105fc611d52565b60006106088484610a86565b9050600080600080601885016001600160c01b0381511693506030860190506001600160c01b0381511694506000805160206121a3833981519152856000805160206121a3833981519152600160c01b870908604887015160608801516001600160c01b03908116975016945092506000805160206121a383398151915290508481600160c01b860908604080518082019091529283526020830152509695505050505050565b6106b7611d52565b6000805160206121a383398151915282106107205760405162461bcd60e51b815260206004820152602360248201527f6d6170546f506f696e7446543a20696e76616c6964206669656c6420656c656d604482015262195b9d60ea1b60648201526084016102ba565b81600061072c82610d92565b905060006000805160206121a383398151915283840990506000805160206121a383398151915260048208905060006000805160206121a383398151915277b3c4d79d41a91759a9e4c7e359b6b89eaec68e62effffffd8509905060006000805160206121a383398151915283830990506107a681610e63565b90506000805160206121a383398151915282830991506000805160206121a383398151915281830991506000805160206121a383398151915282860991506000805160206121a383398151915261080b836000805160206121a383398151915261215a565b7759e26bcea0d48bacd4f263f1acdb5c4f5763473177fffffe0894506000805160206121a383398151915285860991506000805160206121a383398151915285830991506000805160206121a3833981519152600383089150600061086f83610e6e565b909350905080156108b857841561089b57610898836000805160206121a383398151915261215a565b92505b505060408051808201909152938452602084015250909392505050565b6000805160206121a3833981519152600187086108e3906000805160206121a383398151915261215a565b95506000805160206121a383398151915286870992506000805160206121a383398151915286840992506000805160206121a383398151915260038408925061092b83610e6e565b9093509050801561095457841561089b57610898836000805160206121a383398151915261215a565b6000805160206121a383398151915284850995506000805160206121a383398151915286870995506000805160206121a383398151915282870995506000805160206121a383398151915282870995506000805160206121a38339815191526001870895506000805160206121a383398151915286870992506000805160206121a383398151915286840992506000805160206121a38339815191526003840892506109ff83610e6e565b909350905080610a5c5760405162461bcd60e51b815260206004820152602260248201527f424c533a20626164206674206d617070696e6720696d706c656d656e7461746960448201526137b760f11b60648201526084016102ba565b841561089b57610898836000805160206121a383398151915261215a565b610a8381610e97565b50565b81516060906101008110610adc5760405162461bcd60e51b815260206004820152601a60248201527f424c533a20696e76616c696420646f6d61696e206c656e67746800000000000060448201526064016102ba565b82516000610aea82846120eb565b610af59060406120eb565b610b009060046120eb565b67ffffffffffffffff811115610b1857610b18611d8e565b6040519080825280601f01601f191660200182016040528015610b42576020820181803683370190505b5060408051606080825260808201909252919250600091906020820181803683370190505090506060820160005b84811015610b8a5760208189018101518383015201610b70565b508301600081536001016060815360010160008153600181019050602088015181528481019050848153506000600283604051610bc7919061216d565b602060405180830381855afa158015610be4573d6000803e3d6000fd5b5050506040513d601f19601f82011682018060405250810190610c079190612189565b90506000610c168660226120eb565b945084845281602085015260016040850153602089015160418501528560418701850153600284604051610c4a919061216d565b602060405180830381855afa158015610c67573d6000803e3d6000fd5b5050506040513d601f19601f82011682018060405250810190610c8a9190612189565b90508060208401528082188060208601525060026040850153602089015160418501528560418701850153600284604051610cc5919061216d565b602060405180830381855afa158015610ce2573d6000803e3d6000fd5b5050506040513d601f19601f82011682018060405250810190610d059190612189565b90508060408401528082188060208601525060036040850153602089015160418501528560418701850153600284604051610d40919061216d565b602060405180830381855afa158015610d5d573d6000803e3d6000fd5b5050506040513d601f19601f82011682018060405250810190610d809190612189565b60608401525090979650505050505050565b60008060405160208152602080820152602060408201528360608201527f183227397098d014dc2822db40c0ac2ecbc0b548b438e5469e10460b6c3e7ea360808201526000805160206121a383398151915260a082015260208160c08360056107d05a03fa90516001149250905080610e5c5760405162461bcd60e51b815260206004820152602660248201527f424c533a2069734e6f6e526573696475654650206d6f646578702063616c6c2060448201526519985a5b195960d21b60648201526084016102ba565b5015919050565b60006102fe82610eb8565b600080610e7a836115ff565b9150826000805160206121a3833981519152838409149050915091565b60006a636f6e736f6c652e6c6f679050600080835160208501845afa505050565b60006000805160206121a38339815191528083840991508083830981838209828283098385830984848309858484098684850997508684840987858409945087898a09985087898a09985087898a09985087898a09985087898a09985087878a09985087898a09985087898a09985087898a099850878a8a09985087898a09985087898a09985087898a09985087898a099850878a8a09985087898a09985087898a09985087898a09985087898a09985087898a09985087848a09985087898a09985087898a09985087898a09985087898a09985087898a09985087848a09985087898a09985087898a09985087898a099850878a8a09985087898a09985087898a09985087898a09985087898a09985087848a09985087898a09985087898a09985087898a09985087898a09985087898a099850878a8a09985087898a09985087898a09985087898a09985087898a09985087878a09985087898a09985087898a09985087898a09985087898a09985087898a09985087898a09985087898a09985087818a09985087898a09985087898a09985087898a09985087898a09985087898a09985087898a09985087898a09985087898a09985087898a09985087898a09985087868a09985087898a09985087898a09985087898a09985087898a09985087878a09985087898a09985087898a09985087898a09985087898a09985087848a09985087898a09985087898a09985087898a09985087898a09985087898a09985087898a09985087898a09985087868a09985087898a09985087898a09985087898a09985087898a09985087898a09985087898a099850878a8a09985087898a09985087898a09985087898a09985087898a09985087898a09985087898a09985087898a09985087828a09985087898a09985087898a09985087898a09985087898a09985087898a09985087818a09985087898a09985087898a09985087898a09985087868a09985087898a09985087898a09985087898a09985087898a09985087898a09985087898a09985087898a09985087898a09985087878a09985087898a09985087898a09985087898a09985087898a09985087898a09985087898a09985087898a09985087898a09985087898a09985087868a09985087898a09985087898a09985087898a09985087878a09985087898a09985087898a09985087898a09985087898a09985087898a09985087898a09985087898a09985087898a09985087828a09985087898a09985087898a09985087898a09985087898a09985087828a09985087898a09985087898a09985087898a09985087898a09985087898a09985087868a09985087898a09985087898a09985087898a09985087848a09985087898a09985087898a09985087898a09985087898a09985087898a09985087898a09985087898a09985087898a09985087898a09985087898a09985087828a09985087898a09985087898a09985087898a09985087898a09985087868a09985087898a09985087898a09985087898a09985087898a09985087898a09985087838a09985087898a09985087898a09985087898a09985087898a09985087898a09985087898a09985087898a09985087828a09985087898a09985087898a099850878a8a09985087898a09985087898a09985087898a09985087898a09985087898a09985087898a09985087898a09985087848a09985087898a09985087898a09985087898a09985087898a09985087898a09985087898a09985087848a09985087898a09985087898a09985087898a09985087898a09985087898a09985087868a09985087898a09985087898a099850878a8a09985087898a09985087898a09985087898a09985087898a09985087898a09985087898a09985087898a09985087818a09985050868889099750868889099750868889099750868889099750868889099750868889099750868489099750868889099750868889099750868889099750868889099750868889099750868989099750868889099750868889099750868889099750868889099750868889099750868889099750868989099750868889099750868889099750868889099750868889099750868889099750868689099750868889099750868889099750868889099750868889099750868889099750868889099750868889099750868889099750868889099750868189099750508587880996508587880996508587880996508585880996508587880996508587880996508587880996508585880996508587880996508587880996508587880996508587880996508587880996508587880996508587880996508587880996508583880996508587880996508587880996508587880996508587880996508581880996505050838586099450838586099450838586099450838586099450838186099450508284850993508284850993508284850993508281850993508284850993508284850993508285850993508284850993508284850993508284850993508284850993508284850993508284850993508281850995945050505050565b60006000805160206121a38339815191528083840991508083830981838209828283098385830984848309858484098684850997508684840987858409945087898a09985087898a09985087898a09985087898a09985087898a09985087878a09985087898a09985087898a09985087898a099850878a8a09985087898a09985087898a09985087898a09985087898a099850878a8a09985087898a09985087898a09985087898a09985087898a09985087898a09985087848a09985087898a09985087898a09985087898a09985087898a09985087898a09985087848a09985087898a09985087898a09985087898a099850878a8a09985087898a09985087898a09985087898a09985087898a09985087848a09985087898a09985087898a09985087898a09985087898a09985087898a099850878a8a09985087898a09985087898a09985087898a09985087898a09985087878a09985087898a09985087898a09985087898a09985087898a09985087898a09985087898a09985087898a09985087818a09985087898a09985087898a09985087898a09985087898a09985087898a09985087898a09985087898a09985087898a09985087898a09985087898a09985087868a09985087898a09985087898a09985087898a09985087898a09985087878a09985087898a09985087898a09985087898a09985087898a09985087848a09985087898a09985087898a09985087898a09985087898a09985087898a09985087898a09985087898a09985087868a09985087898a09985087898a09985087898a09985087898a09985087898a09985087898a099850878a8a09985087898a09985087898a09985087898a09985087898a09985087898a09985087898a09985087898a09985087828a09985087898a09985087898a09985087898a09985087898a09985087898a09985087818a09985087898a09985087898a09985087898a09985087868a09985087898a09985087898a09985087898a09985087898a09985087898a09985087898a09985087898a09985087898a09985087878a09985087898a09985087898a09985087898a09985087898a09985087898a09985087898a09985087898a09985087898a09985087898a09985087868a09985087898a09985087898a09985087898a09985087878a09985087898a09985087898a09985087898a09985087898a09985087898a09985087898a09985087898a09985087898a09985087828a09985087898a09985087898a09985087898a09985087898a09985087828a09985087898a09985087898a09985087898a09985087898a09985087898a09985087868a09985087898a09985087898a09985087898a09985087848a09985087898a09985087898a09985087898a09985087898a09985087898a09985087898a09985087898a09985087898a09985087898a09985087898a09985087828a09985087898a09985087898a09985087898a09985087898a09985087868a09985087898a09985087898a09985087898a09985087898a09985087898a09985087838a09985087898a09985087898a09985087898a09985087898a09985087898a09985087898a09985087898a09985087828a09985087898a09985087898a099850878a8a09985087898a09985087898a09985087898a09985087898a09985087898a09985087898a09985087898a09985087848a09985087898a09985087898a09985087898a09985087898a09985087898a09985087898a09985087848a09985087898a09985087898a09985087898a09985087898a09985087898a09985087868a09985087898a09985087898a099850878a8a09985087898a09985087898a09985087898a09985087898a09985087898a09985087898a09985087898a09985087818a09985050868889099750868889099750868889099750868889099750868889099750868889099750868489099750868889099750868889099750868889099750868889099750868889099750868989099750868889099750868889099750868889099750868889099750868889099750868889099750868989099750868889099750868889099750868889099750868889099750868889099750868689099750868889099750868889099750868889099750868889099750868889099750868889099750868889099750868889099750868889099750868189099750508587880996508587880996508587880996508585880996508587880996508587880996508587880996508585880996508587880996508587880996508587880996508587880996508587880996508587880996508587880996508587880996508583880996508587880996508587880996508587880996508587880996508581880996508587880996508587880996508587880996508587880996508583880996508587880996508587880996508587880996508584880996508587880996508587880996508587880996508587880996508587880996508581880996505050505050808283099392505050565b60405180602001604052806001906020820280368337509192915050565b60405180604001604052806002906020820280368337509192915050565b60405180608001604052806004906020820280368337509192915050565b634e487b7160e01b600052604160045260246000fd5b600082601f830112611db557600080fd5b6040516040810181811067ffffffffffffffff82111715611dd857611dd8611d8e565b8060405250806040840185811115611def57600080fd5b845b818110156103dd578035835260209283019201611df1565b60008060006101008486031215611e1f57600080fd5b611e298585611da4565b925084605f850112611e3a57600080fd5b6040516080810181811067ffffffffffffffff82111715611e5d57611e5d611d8e565b6040528060c0860187811115611e7257600080fd5b604087015b81811015611e8f578035835260209283019201611e77565b50829450611e9d8882611da4565b93505050509250925092565b600067ffffffffffffffff80841115611ec457611ec4611d8e565b604051601f8501601f19908116603f01168101908282118183101715611eec57611eec611d8e565b81604052809350858152868686011115611f0557600080fd5b858560208301376000602087830101525050509392505050565b600082601f830112611f3057600080fd5b611f3f83833560208501611ea9565b9392505050565b60008060408385031215611f5957600080fd5b823567ffffffffffffffff80821115611f7157600080fd5b611f7d86838701611f1f565b93506020850135915080821115611f9357600080fd5b50611fa085828601611f1f565b9150509250929050565b600060208284031215611fbc57600080fd5b813567ffffffffffffffff811115611fd357600080fd5b8201601f81018413611fe457600080fd5b611ff384823560208401611ea9565b949350505050565b60408101818360005b6002811015612023578151835260209283019290910190600101612004565b50505092915050565b60006020828403121561203e57600080fd5b5035919050565b60005b83811015612060578181015183820152602001612048565b50506000910152565b60008151808452612081816020860160208601612045565b601f01601f19169290920160200192915050565b602081526000611f3f6020830184612069565b634e487b7160e01b600052603260045260246000fd5b634e487b7160e01b600052601160045260246000fd5b80820281158282048414176102fe576102fe6120be565b808201808211156102fe576102fe6120be565b600060018201612110576121106120be565b5060010190565b60608152600061212a6060830186612069565b828103602084015261213c8186612069565b905082810360408401526121508185612069565b9695505050505050565b818103818111156102fe576102fe6120be565b6000825161217f818460208701612045565b9190910192915050565b60006020828403121561219b57600080fd5b505191905056fe30644e72e131a029b85045b68181585d97816a916871ca8d3c208c16d87cfd47a2646970667358221220d1ab89904811c9fafd73497cdf327cf2e34a12170e49d0135339c43dcdfdb53464736f6c63430008140033",
  "linkReferences": {},
  "deployedLinkReferences": {}
}