{
  "_format": "hh-sol-artifact-1",
  "contractName": "Vault",
  "sourceName": "contracts/Vault.sol",
  "abi": [
    {
      "inputs": [
        {
          "internalType": "uint256[4]",
          "name": "publicKey_",
          "type": "uint256[4]"
        }
      ],
      "stateMutability": "nonpayable",
      "type": "constructor"
    },
    {
      "anonymous": false,
      "inputs": [
        {
          "indexed": true,
          "internalType": "address",
          "name": "depositor",
          "type": "address"
        },
        {
          "indexed": true,
          "internalType": "address",
          "name": "tokenAddress",
          "type": "address"
        },
        {
          "indexed": false,
          "internalType": "uint256",
          "name": "decimals",
          "type": "uint256"
        },
        {
          "indexed": false,
          "internalType": "uint256",
          "name": "toChainId",
          "type": "uint256"
        },
        {
          "indexed": false,
          "internalType": "uint256",
          "name": "amount",
          "type": "uint256"
        },
        {
          "indexed": false,
          "internalType": "uint256",
          "name": "depositCounter",
          "type": "uint256"
        }
      ],
      "name": "Deposited",
      "type": "event"
    },
    {
      "anonymous": false,
      "inputs": [
        {
          "indexed": false,
          "internalType": "uint256",
          "name": "amount",
          "type": "uint256"
        }
      ],
      "name": "Disbursed",
      "type": "event"
    },
    {
      "anonymous": false,
      "inputs": [
        {
          "indexed": false,
          "internalType": "uint256",
          "name": "amount",
          "type": "uint256"
        }
      ],
      "name": "Minted",
      "type": "event"
    },
    {
      "anonymous": false,
      "inputs": [
        {
          "indexed": true,
          "internalType": "address",
          "name": "depositor",
          "type": "address"
        },
        {
          "indexed": true,
          "internalType": "address",
          "name": "tokenAddress",
          "type": "address"
        },
        {
          "indexed": false,
          "internalType": "uint256",
          "name": "decimals",
          "type": "uint256"
        },
        {
          "indexed": false,
          "internalType": "uint256",
          "name": "toChainId",
          "type": "uint256"
        },
        {
          "indexed": false,
          "internalType": "uint256",
          "name": "amount",
          "type": "uint256"
        },
        {
          "indexed": false,
          "internalType": "uint256",
          "name": "withdrawCounter",
          "type": "uint256"
        }
      ],
      "name": "Withdrawn",
      "type": "event"
    },
    {
      "inputs": [],
      "name": "ETH",
      "outputs": [
        {
          "internalType": "address",
          "name": "",
          "type": "address"
        }
      ],
      "stateMutability": "view",
      "type": "function"
    },
    {
      "inputs": [
        {
          "internalType": "address",
          "name": "proxyToken",
          "type": "address"
        },
        {
          "internalType": "address",
          "name": "depositor",
          "type": "address"
        }
      ],
      "name": "balanceOf",
      "outputs": [
        {
          "internalType": "uint256",
          "name": "",
          "type": "uint256"
        }
      ],
      "stateMutability": "view",
      "type": "function"
    },
    {
      "inputs": [],
      "name": "depositCounter",
      "outputs": [
        {
          "internalType": "uint256",
          "name": "",
          "type": "uint256"
        }
      ],
      "stateMutability": "view",
      "type": "function"
    },
    {
      "inputs": [
        {
          "internalType": "uint256",
          "name": "toChainId",
          "type": "uint256"
        }
      ],
      "name": "depositEth",
      "outputs": [],
      "stateMutability": "payable",
      "type": "function"
    },
    {
      "inputs": [
        {
          "internalType": "uint256",
          "name": "toChainId",
          "type": "uint256"
        },
        {
          "internalType": "address",
          "name": "tokenAddress",
          "type": "address"
        },
        {
          "internalType": "uint256",
          "name": "tokenAmount",
          "type": "uint256"
        }
      ],
      "name": "depositToken",
      "outputs": [],
      "stateMutability": "nonpayable",
      "type": "function"
    },
    {
      "inputs": [
        {
          "internalType": "bytes32",
          "name": "",
          "type": "bytes32"
        }
      ],
      "name": "deposits",
      "outputs": [
        {
          "internalType": "bool",
          "name": "",
          "type": "bool"
        }
      ],
      "stateMutability": "view",
      "type": "function"
    },
    {
      "inputs": [
        {
          "internalType": "uint256[2]",
          "name": "signature",
          "type": "uint256[2]"
        },
        {
          "internalType": "uint256[4]",
          "name": "signerKey",
          "type": "uint256[4]"
        },
        {
          "internalType": "bytes",
          "name": "withdrawPayload",
          "type": "bytes"
        }
      ],
      "name": "disburse",
      "outputs": [],
      "stateMutability": "nonpayable",
      "type": "function"
    },
    {
      "inputs": [
        {
          "internalType": "bytes32",
          "name": "",
          "type": "bytes32"
        }
      ],
      "name": "disbursed",
      "outputs": [
        {
          "internalType": "bool",
          "name": "",
          "type": "bool"
        }
      ],
      "stateMutability": "view",
      "type": "function"
    },
    {
      "inputs": [
        {
          "internalType": "address",
          "name": "depositor",
          "type": "address"
        },
        {
          "internalType": "address",
          "name": "token",
          "type": "address"
        },
        {
          "internalType": "uint256",
          "name": "decimals",
          "type": "uint256"
        },
        {
          "internalType": "uint256",
          "name": "toChainId",
          "type": "uint256"
        },
        {
          "internalType": "uint256",
          "name": "amount",
          "type": "uint256"
        },
        {
          "internalType": "uint256",
          "name": "counter",
          "type": "uint256"
        }
      ],
      "name": "hashOf",
      "outputs": [
        {
          "internalType": "bytes32",
          "name": "",
          "type": "bytes32"
        }
      ],
      "stateMutability": "pure",
      "type": "function"
    },
    {
      "inputs": [
        {
          "internalType": "uint256[2]",
          "name": "signature",
          "type": "uint256[2]"
        },
        {
          "internalType": "uint256[4]",
          "name": "signerKey",
          "type": "uint256[4]"
        },
        {
          "internalType": "bytes",
          "name": "depositPayload",
          "type": "bytes"
        }
      ],
      "name": "mint",
      "outputs": [],
      "stateMutability": "nonpayable",
      "type": "function"
    },
    {
      "inputs": [
        {
          "internalType": "bytes32",
          "name": "",
          "type": "bytes32"
        }
      ],
      "name": "minted",
      "outputs": [
        {
          "internalType": "bool",
          "name": "",
          "type": "bool"
        }
      ],
      "stateMutability": "view",
      "type": "function"
    },
    {
      "inputs": [
        {
          "internalType": "address",
          "name": "",
          "type": "address"
        }
      ],
      "name": "pool",
      "outputs": [
        {
          "internalType": "uint256",
          "name": "",
          "type": "uint256"
        }
      ],
      "stateMutability": "view",
      "type": "function"
    },
    {
      "inputs": [
        {
          "internalType": "uint256",
          "name": "",
          "type": "uint256"
        },
        {
          "internalType": "address",
          "name": "",
          "type": "address"
        }
      ],
      "name": "proxyTokenMap",
      "outputs": [
        {
          "internalType": "address",
          "name": "",
          "type": "address"
        }
      ],
      "stateMutability": "view",
      "type": "function"
    },
    {
      "inputs": [
        {
          "internalType": "uint256",
          "name": "",
          "type": "uint256"
        }
      ],
      "name": "publicKey",
      "outputs": [
        {
          "internalType": "uint256",
          "name": "",
          "type": "uint256"
        }
      ],
      "stateMutability": "view",
      "type": "function"
    },
    {
      "inputs": [],
      "name": "withdrawCounter",
      "outputs": [
        {
          "internalType": "uint256",
          "name": "",
          "type": "uint256"
        }
      ],
      "stateMutability": "view",
      "type": "function"
    },
    {
      "inputs": [
        {
          "internalType": "uint256",
          "name": "toChainId",
          "type": "uint256"
        },
        {
          "internalType": "uint256",
          "name": "amount",
          "type": "uint256"
        }
      ],
      "name": "withdrawEth",
      "outputs": [],
      "stateMutability": "payable",
      "type": "function"
    },
    {
      "inputs": [
        {
          "internalType": "bytes32",
          "name": "",
          "type": "bytes32"
        }
      ],
      "name": "withdrawals",
      "outputs": [
        {
          "internalType": "bool",
          "name": "",
          "type": "bool"
        }
      ],
      "stateMutability": "view",
      "type": "function"
    }
  ],
  "bytecode": "0x60806040526000600a556000600b553480156200001b57600080fd5b5060405162004ad338038062004ad38339810160408190526200003e9162000109565b6200004d6000826004620000a1565b506040516200005c90620000e4565b604051809103906000f08015801562000079573d6000803e3d6000fd5b50600c80546001600160a01b0319166001600160a01b0392909216919091179055506200019a565b8260048101928215620000d2579160200282015b82811115620000d2578251825591602001919060010190620000b5565b50620000e0929150620000f2565b5090565b612195806200293e83390190565b5b80821115620000e05760008155600101620000f3565b6000608082840312156200011c57600080fd5b82601f8301126200012c57600080fd5b604051608081016001600160401b03811182821017156200015d57634e487b7160e01b600052604160045260246000fd5b6040528060808401858111156200017357600080fd5b845b818110156200018f57805183526020928301920162000175565b509195945050505050565b61279480620001aa6000396000f3fe608060405260043610620001135760003560e01c8063b8f3e1b711620000a1578063df251449116200006c578063df2514491462000326578063e07febdc146200035a578063ecb3dc88146200037f578063efbf64a71462000397578063f7888aec14620003cb57600080fd5b8063b8f3e1b7146200027f578063be082c7314620002c4578063be5f1f9a14620002e9578063ca16e3eb146200030e57600080fd5b80638322fff211620000e25780638322fff214620001df5780638940aebe146200020f5780638ccc5f8014620002345780639c99e2b9146200026857600080fd5b80630a9306d714620001185780630f4d14e9146200013f578063156522a814620001565780633d4dff7b146200019a575b600080fd5b3480156200012557600080fd5b506200013d620001373660046200119d565b620003f0565b005b6200013d62000150366004620011d8565b620006c5565b3480156200016357600080fd5b506200018762000175366004620011f2565b60046020526000908152604090205481565b6040519081526020015b60405180910390f35b348015620001a757600080fd5b50620001ce620001b9366004620011d8565b60056020526000908152604090205460ff1681565b604051901515815260200162000191565b348015620001ec57600080fd5b50620001f6600081565b6040516001600160a01b03909116815260200162000191565b3480156200021c57600080fd5b50620001876200022e366004620011d8565b620007a0565b3480156200024157600080fd5b50620001ce62000253366004620011d8565b60076020526000908152604090205460ff1681565b6200013d6200027936600462001219565b620007b8565b3480156200028c57600080fd5b50620001f66200029e3660046200123c565b60096020908152600092835260408084209091529082529020546001600160a01b031681565b348015620002d157600080fd5b5062000187620002e33660046200126f565b6200099d565b348015620002f657600080fd5b506200013d62000308366004620013c9565b62000a07565b3480156200031b57600080fd5b5062000187600b5481565b3480156200033357600080fd5b50620001ce62000345366004620011d8565b60086020526000908152604090205460ff1681565b3480156200036757600080fd5b506200013d62000379366004620013c9565b62000af1565b3480156200038c57600080fd5b5062000187600a5481565b348015620003a457600080fd5b50620001ce620003b6366004620011d8565b60066020526000908152604090205460ff1681565b348015620003d857600080fd5b5062000187620003ea36600462001482565b62000baf565b6040516370a0823160e01b8152336004820152829082906001600160a01b038316906370a0823190602401602060405180830381865afa15801562000439573d6000803e3d6000fd5b505050506040513d601f19601f820116820180604052508101906200045f9190620014b5565b1015620004aa5760405162461bcd60e51b8152602060048201526014602482015273496e73756666696369656e742062616c616e636560601b60448201526064015b60405180910390fd5b6040516323b872dd60e01b8152336004820152306024820152604481018390526001600160a01b038216906323b872dd906064016020604051808303816000875af1158015620004fe573d6000803e3d6000fd5b505050506040513d601f19601f82011682018060405250810190620005249190620014cf565b506001600160a01b038316600090815260046020526040812080548492906200054f90849062001509565b9091555050600a80546000918262000567836200151f565b9190505590506000620005e63386856001600160a01b031663313ce5676040518163ffffffff1660e01b8152600401602060405180830381865afa158015620005b4573d6000803e3d6000fd5b505050506040513d601f19601f82011682018060405250810190620005da91906200153b565b60ff168988876200099d565b600081815260056020908152604091829020805460ff19166001179055815163313ce56760e01b815291519293506001600160a01b038089169333937ff3b2a76575670b4eff5a4ad3639d40d32f7ca987adac169e6f9b89a3ab857d27939289169263313ce567926004808401938290030181865afa1580156200066e573d6000803e3d6000fd5b505050506040513d601f19601f820116820180604052508101906200069491906200153b565b6040805160ff9092168252602082018b905281018890526060810186905260800160405180910390a3505050505050565b600080805260046020527f17ef568e3e12ab5b9c7254a8d58478811de00f9e6eb34345acd53bf8fd09d3ec80543492906200070290849062001509565b9091555050600a8054600091826200071a836200151f565b91905055905060006200073433600060128634876200099d565b6000818152600560209081526040808320805460ff191660011790558051601281529182018790523490820152606081018590529192509033907ff3b2a76575670b4eff5a4ad3639d40d32f7ca987adac169e6f9b89a3ab857d279060800160405180910390a3505050565b60008160048110620007b157600080fd5b0154905081565b6000828152600960209081526040808320838052909152908190205490516370a0823160e01b81523360048201526001600160a01b0390911690829082906370a0823190602401602060405180830381865afa1580156200081d573d6000803e3d6000fd5b505050506040513d601f19601f82011682018060405250810190620008439190620014b5565b10156200089f5760405162461bcd60e51b8152602060048201526024808201527f496e73756666696369656e74204554482070726f787920746f6b656e2062616c604482015263616e636560e01b6064820152608401620004a1565b600b805460009182620008b2836200151f565b90915550604051632770a7eb60e21b8152336004820152602481018590529091506001600160a01b03831690639dc29fac90604401600060405180830381600087803b1580156200090257600080fd5b505af115801562000917573d6000803e3d6000fd5b5050505060006200092f33600060128888876200099d565b6000818152600660209081526040808320805460ff191660011790558051601281529182018990528101879052606081018590529192509033907ffabb9e7afa4ef595f60e1ae9041b2b311b4acb27aeaed4b11b6f2abf689af10a9060800160405180910390a35050505050565b6040516bffffffffffffffffffffffff19606088811b8216602084015287901b16603482015260488101859052606881018490526088810183905260a8810182905260009060c8016040516020818303038152906040528051906020012090509695505050505050565b825160005414801562000a1f57506020830151600154145b801562000a3157506040830151600254145b801562000a4357506060830151600354145b62000a865760405162461bcd60e51b8152602060048201526012602482015271496e76616c6964205075626c6963204b657960701b6044820152606401620004a1565b600062000a9885858585600062000c29565b600081815260086020908152604091829020805460ff191660011790558151808301909252601382527215985d5b1d0b9cdbdb08111a5cd89d5c9cd959606a1b9082015290915062000aea9062000f29565b5050505050565b825160005414801562000b0957506020830151600154145b801562000b1b57506040830151600254145b801562000b2d57506060830151600354145b62000b705760405162461bcd60e51b8152602060048201526012602482015271496e76616c6964205075626c6963204b657960701b6044820152606401620004a1565b600062000b8285858585600162000c29565b905062000b90838362000f73565b6000908152600760205260409020805460ff1916600117905550505050565b6040516370a0823160e01b81526001600160a01b038281166004830152600091908416906370a0823190602401602060405180830381865afa15801562000bfa573d6000803e3d6000fd5b505050506040513d601f19601f8201168201806040525081019062000c209190620014b5565b90505b92915050565b60008062000c6d85858080601f0160208091040260200160405190810160405280939291908181526020018383808284376000920191909152506200110992505050565b905082151560010362000ce15760008181526007602052604090205460ff161562000cdb5760405162461bcd60e51b815260206004820152601f60248201527f416c7265616479206d696e74656420666f72206465706f7369742068617368006044820152606401620004a1565b62000d50565b60008181526008602052604090205460ff161562000d505760405162461bcd60e51b815260206004820152602560248201527f416c72656164792064697362757273656420666f72207769746864726177616c604482015264040d0c2e6d60db1b6064820152608401620004a1565b600c54604080518082018252601181527010938c8d4d8b521054d21513d413d25395607a1b6020820152905163c68b378760e01b8152600481018490526000926001600160a01b0316916354894f5891839063c68b378790602401600060405180830381865afa15801562000dc9573d6000803e3d6000fd5b505050506040513d6000823e601f3d908101601f1916820160405262000df39190810190620015b1565b6040518363ffffffff1660e01b815260040162000e1292919062001665565b6040805180830381865afa15801562000e2f573d6000803e3d6000fd5b505050506040513d601f19601f8201168201806040525081019062000e5591906200168e565b600c54604051616b3760e51b81529192506000916001600160a01b0390911690620d66e09062000e8e908c908c90879060040162001720565b602060405180830381865afa15801562000eac573d6000803e3d6000fd5b505050506040513d601f19601f8201168201806040525081019062000ed29190620014cf565b905060018115151462000f1c5760405162461bcd60e51b8152602060048201526011602482015270496e76616c6964205369676e617475726560781b6044820152606401620004a1565b5090979650505050505050565b62000f708160405160240162000f40919062001774565b60408051601f198184030181529190526020810180516001600160e01b031663104c13eb60e21b17905262001153565b50565b60008080808080808062000f8a898b018b620017df565b9850985050975050965096509650965060006001600160a01b0316600960008681526020019081526020016000206000886001600160a01b03166001600160a01b0316815260200190815260200160002060009054906101000a90046001600160a01b03166001600160a01b0316036200107a578181868887604051620010119062001179565b62001021959493929190620018a4565b604051809103906000f0801580156200103e573d6000803e3d6000fd5b5060008581526009602090815260408083206001600160a01b038b81168552925290912080546001600160a01b03191691831691909117905597505b60008481526009602090815260408083206001600160a01b038a811685529252918290205491516340c10f1960e01b81528982166004820152602481018690529116985088906340c10f1990604401600060405180830381600087803b158015620010e457600080fd5b505af1158015620010f9573d6000803e3d6000fd5b5050505050505050505050505050565b6000806000806000806000878060200190518101906200112a9190620018f7565b96509650965050955095509550620011478686868686866200099d565b98975050505050505050565b62000f708160006a636f6e736f6c652e6c6f679050600080835160208501845afa505050565b610dfb806200196483390190565b6001600160a01b038116811462000f7057600080fd5b600080600060608486031215620011b357600080fd5b833592506020840135620011c78162001187565b929592945050506040919091013590565b600060208284031215620011eb57600080fd5b5035919050565b6000602082840312156200120557600080fd5b8135620012128162001187565b9392505050565b600080604083850312156200122d57600080fd5b50508035926020909101359150565b600080604083850312156200125057600080fd5b823591506020830135620012648162001187565b809150509250929050565b60008060008060008060c087890312156200128957600080fd5b8635620012968162001187565b95506020870135620012a88162001187565b95989597505050506040840135936060810135936080820135935060a0909101359150565b634e487b7160e01b600052604160045260246000fd5b6040805190810167ffffffffffffffff81118282101715620013095762001309620012cd565b60405290565b604051601f8201601f1916810167ffffffffffffffff811182821017156200133b576200133b620012cd565b604052919050565b60006200134f620012e3565b90508060408301848111156200136457600080fd5b835b818110156200138057803583526020928301920162001366565b50505092915050565b60006040516080810181811067ffffffffffffffff82111715620013b157620013b1620012cd565b60405290508060808301848111156200136457600080fd5b60008060008060e08587031215620013e057600080fd5b85601f860112620013f057600080fd5b620013fc868662001343565b935085605f8601126200140e57600080fd5b6200141d866040870162001389565b925060c085013567ffffffffffffffff808211156200143b57600080fd5b818701915087601f8301126200145057600080fd5b8135818111156200146057600080fd5b8860208285010111156200147357600080fd5b95989497505060200194505050565b600080604083850312156200149657600080fd5b8235620014a38162001187565b91506020830135620012648162001187565b600060208284031215620014c857600080fd5b5051919050565b600060208284031215620014e257600080fd5b815180151581146200121257600080fd5b634e487b7160e01b600052601160045260246000fd5b8082018082111562000c235762000c23620014f3565b600060018201620015345762001534620014f3565b5060010190565b6000602082840312156200154e57600080fd5b815160ff811681146200121257600080fd5b600067ffffffffffffffff8211156200157d576200157d620012cd565b50601f01601f191660200190565b60005b83811015620015a85781810151838201526020016200158e565b50506000910152565b600060208284031215620015c457600080fd5b815167ffffffffffffffff811115620015dc57600080fd5b8201601f81018413620015ee57600080fd5b805162001605620015ff8262001560565b6200130f565b8181528560208385010111156200161b57600080fd5b6200162e8260208301602086016200158b565b95945050505050565b60008151808452620016518160208601602086016200158b565b601f01601f19169290920160200192915050565b6040815260006200167a604083018562001637565b82810360208401526200162e818562001637565b600060408284031215620016a157600080fd5b82601f830112620016b157600080fd5b620016bb620012e3565b806040840185811115620016ce57600080fd5b845b81811015620016ea578051845260209384019301620016d0565b509095945050505050565b8060005b60028110156200171a578151845260209384019390910190600101620016f9565b50505050565b6101008101620017318286620016f5565b604082018460005b60048110156200175a57815183526020928301929091019060010162001739565b5050506200176c60c0830184620016f5565b949350505050565b60208152600062000c20602083018462001637565b600082601f8301126200179b57600080fd5b8135620017ac620015ff8262001560565b818152846020838601011115620017c257600080fd5b816020850160208301376000918101602001919091529392505050565b60008060008060008060008060006101208a8c031215620017ff57600080fd5b89356200180c8162001187565b985060208a01356200181e8162001187565b975060408a0135965060608a0135955060808a0135945060a08a0135935060c08a0135925060e08a013567ffffffffffffffff808211156200185f57600080fd5b6200186d8d838e0162001789565b93506101008c01359150808211156200188557600080fd5b50620018948c828d0162001789565b9150509295985092959850929598565b60a081526000620018b960a083018862001637565b8281036020840152620018cd818862001637565b60ff96909616604084015250506001600160a01b0392909216606083015260809091015292915050565b600080600080600080600060e0888a0312156200191357600080fd5b8751620019208162001187565b6020890151909750620019338162001187565b604089015160608a015160808b015160a08c015160c0909c01519a9d939c50919a9099919850965094509250505056fe60806040523480156200001157600080fd5b5060405162000dfb38038062000dfb833981016040819052620000349162000166565b84846003620000448382620002a5565b506004620000538282620002a5565b50506008805460ff90951660ff1990951694909417909355600580546001600160a01b039093166001600160a01b031993841617905560075560068054909116331790555062000371915050565b634e487b7160e01b600052604160045260246000fd5b600082601f830112620000c957600080fd5b81516001600160401b0380821115620000e657620000e6620000a1565b604051601f8301601f19908116603f01168101908282118183101715620001115762000111620000a1565b816040528381526020925086838588010111156200012e57600080fd5b600091505b8382101562000152578582018301518183018401529082019062000133565b600093810190920192909252949350505050565b600080600080600060a086880312156200017f57600080fd5b85516001600160401b03808211156200019757600080fd5b620001a589838a01620000b7565b96506020880151915080821115620001bc57600080fd5b50620001cb88828901620000b7565b945050604086015160ff81168114620001e357600080fd5b60608701519093506001600160a01b03811681146200020157600080fd5b80925050608086015190509295509295909350565b600181811c908216806200022b57607f821691505b6020821081036200024c57634e487b7160e01b600052602260045260246000fd5b50919050565b601f821115620002a057600081815260208120601f850160051c810160208610156200027b5750805b601f850160051c820191505b818110156200029c5782815560010162000287565b5050505b505050565b81516001600160401b03811115620002c157620002c1620000a1565b620002d981620002d2845462000216565b8462000252565b602080601f831160018114620003115760008415620002f85750858301515b600019600386901b1c1916600185901b1785556200029c565b600085815260208120601f198616915b82811015620003425788860151825594840194600190910190840162000321565b5085821015620003615787850151600019600388901b60f8161c191681555b5050505050600190811b01905550565b610a7a80620003816000396000f3fe608060405234801561001057600080fd5b50600436106100f55760003560e01c80636739afca116100975780639dc29fac116100665780639dc29fac14610207578063a9059cbb1461021a578063dd62ed3e1461022d578063dffc94881461026657600080fd5b80636739afca146101a257806370a08231146101ab5780638da5cb5b146101d457806395d89b41146101ff57600080fd5b806323b872dd116100d357806323b872dd1461014d578063313ce56714610160578063370158ea1461017557806340c10f191461018d57600080fd5b806306fdde03146100fa578063095ea7b31461011857806318160ddd1461013b575b600080fd5b610102610279565b60405161010f91906108b0565b60405180910390f35b61012b6101263660046108df565b61030b565b604051901515815260200161010f565b6002545b60405190815260200161010f565b61012b61015b366004610909565b610325565b60085460405160ff909116815260200161010f565b61017d6103e5565b60405161010f9493929190610945565b6101a061019b3660046108df565b610417565b005b61013f60075481565b61013f6101b9366004610980565b6001600160a01b031660009081526020819052604090205490565b6006546101e7906001600160a01b031681565b6040516001600160a01b03909116815260200161010f565b61010261046e565b6101a06102153660046108df565b61047d565b61012b6102283660046108df565b6104d0565b61013f61023b36600461099b565b6001600160a01b03918216600090815260016020908152604080832093909416825291909152205490565b6005546101e7906001600160a01b031681565b606060038054610288906109ce565b80601f01602080910402602001604051908101604052809291908181526020018280546102b4906109ce565b80156103015780601f106102d657610100808354040283529160200191610301565b820191906000526020600020905b8154815290600101906020018083116102e457829003601f168201915b5050505050905090565b6000336103198185856104ff565b60019150505b92915050565b600061ffff836001600160a01b0316111561034c57610345848484610511565b90506103de565b81610357853361023b565b10156103bb5760405162461bcd60e51b815260206004820152602860248201527f45524332303a207472616e7366657220616d6f756e74206578636565647320616044820152676c6c6f77616e636560c01b60648201526084015b60405180910390fd5b6103da8433846103cb883361023b565b6103d59190610a1e565b6104ff565b5060015b9392505050565b606060008060006103f461046e565b60085460ff1660055460075492979196506001600160a01b031694509092509050565b6006546001600160a01b031633146104605760405162461bcd60e51b815260206004820152600c60248201526b3737ba1030b71037bbb732b960a11b60448201526064016103b2565b61046a8282610535565b5050565b606060048054610288906109ce565b6006546001600160a01b031633146104c65760405162461bcd60e51b815260206004820152600c60248201526b3737ba1030b71037bbb732b960a11b60448201526064016103b2565b61046a828261056b565b600061ffff836001600160a01b031611156104f6576104ef83836105a1565b905061031f565b50600192915050565b61050c83838360016105af565b505050565b60003361051f858285610685565b61052a8585856106e5565b506001949350505050565b6001600160a01b03821661055f5760405163ec442f0560e01b8152600060048201526024016103b2565b61046a60008383610740565b6001600160a01b03821661059557604051634b637e8f60e11b8152600060048201526024016103b2565b61046a82600083610740565b6000336103198185856106e5565b6001600160a01b0384166105d95760405163e602df0560e01b8152600060048201526024016103b2565b6001600160a01b03831661060357604051634a1406b160e11b8152600060048201526024016103b2565b6001600160a01b038085166000908152600160209081526040808320938716835292905220829055801561067f57826001600160a01b0316846001600160a01b03167f8c5be1e5ebec7d5bd14f71427d1e84f3dd0314c0f7b2291e5b200ac8c7c3b9258460405161067691815260200190565b60405180910390a35b50505050565b6000610691848461023b565b9050600019811461067f57818110156106d657604051637dc7a0d960e11b81526001600160a01b038416600482015260248101829052604481018390526064016103b2565b61067f848484840360006105af565b6001600160a01b03831661070f57604051634b637e8f60e11b8152600060048201526024016103b2565b6001600160a01b0382166107395760405163ec442f0560e01b8152600060048201526024016103b2565b61050c8383835b6001600160a01b03831661076b5780600260008282546107609190610a31565b909155506107dd9050565b6001600160a01b038316600090815260208190526040902054818110156107be5760405163391434e360e21b81526001600160a01b038516600482015260248101829052604481018390526064016103b2565b6001600160a01b03841660009081526020819052604090209082900390555b6001600160a01b0382166107f957600280548290039055610818565b6001600160a01b03821660009081526020819052604090208054820190555b816001600160a01b0316836001600160a01b03167fddf252ad1be2c89b69c2b068fc378daa952ba7f163c4a11628f55a4df523b3ef8360405161085d91815260200190565b60405180910390a3505050565b6000815180845260005b8181101561089057602081850181015186830182015201610874565b506000602082860101526020601f19601f83011685010191505092915050565b6020815260006103de602083018461086a565b80356001600160a01b03811681146108da57600080fd5b919050565b600080604083850312156108f257600080fd5b6108fb836108c3565b946020939093013593505050565b60008060006060848603121561091e57600080fd5b610927846108c3565b9250610935602085016108c3565b9150604084013590509250925092565b608081526000610958608083018761086a565b60ff959095166020830152506001600160a01b03929092166040830152606090910152919050565b60006020828403121561099257600080fd5b6103de826108c3565b600080604083850312156109ae57600080fd5b6109b7836108c3565b91506109c5602084016108c3565b90509250929050565b600181811c908216806109e257607f821691505b602082108103610a0257634e487b7160e01b600052602260045260246000fd5b50919050565b634e487b7160e01b600052601160045260246000fd5b8181038181111561031f5761031f610a08565b8082018082111561031f5761031f610a0856fea2646970667358221220333a0f80e6cd51eca400a671b9f8f81310bb57229d43ce9ebb53255b7f834f0f64736f6c63430008140033a26469706673582212204599fbca6cd3585fd56f9101be24df17cb6981bf73ff08d4e112514d0b8c820b64736f6c63430008140033608060405234801561001057600080fd5b50612175806100206000396000f3fe608060405234801561001057600080fd5b506004361061004b5760003560e01c80620d66e014610050578063145dad8b1461007857806354894f581461008b578063c68b3787146100ab575b600080fd5b61006361005e366004611de0565b6100cb565b60405190151581526020015b60405180910390f35b610063610086366004611f0d565b6102d0565b61009e610099366004611f0d565b610304565b60405161006f9190611f71565b6100be6100b9366004611fa2565b6103b4565b60405161006f919061200b565b600080604051806101800160405280866000600281106100ed576100ed612025565b602002015181526020018660016002811061010a5761010a612025565b602002015181526020017f198e9393920d483a7260bfb731fb5d25f1aa493335a9e71297e485b7aef312c281526020017f1800deef121f1e76426a00665e5c4479674322d4f75edadd46debd5cd992f6ed81526020017f275dc4a288d1afb3cbb1ac09187524c7db36395df7be3b99e673b13a075a65ec81526020017f1d9befcd05a5323e6da4d435f3b617cdb3af83285c2df711ef39c01571827f9d8152602001846000600281106101bf576101bf612025565b60200201518152602001846001600281106101dc576101dc612025565b60200201518152602001856001600481106101f9576101f9612025565b602002015181526020018560006004811061021657610216612025565b602002015181526020018560036004811061023357610233612025565b602002015181526020018560026004811061025057610250612025565b602002015190529050610261611d00565b60006020826101808560086107d05a03fa9050808061027c57fe5b50806102c35760405162461bcd60e51b8152602060048201526011602482015270696e76616c6964207369676e617475726560781b60448201526064015b60405180910390fd5b5051151595945050505050565b60006102fa60405180604001604052806005815260200164257320257360d81b8152508484610574565b5060015b92915050565b61030c611d1e565b600061031884846105c0565b9050600061032c82825b602002015161067b565b9050600061033b836001610322565b9050610345611d3c565b825181526020808401518282015282516040808401919091529083015160608301526000908460808460066107d05a03fa9050808061038057fe5b50806103a85760405162461bcd60e51b815260206004820152600060248201526044016102ba565b50919695505050505050565b604080516042808252608082019092526060916000919060208201818036833701905050905060006040518060400160405280601081526020016f181899199a1a9b1b9c1cb0b131b232b360811b8152509050600360fc1b8260008151811061041f5761041f612025565b60200101906001600160f81b031916908160001a905350600f60fb1b8260018151811061044e5761044e612025565b60200101906001600160f81b031916908160001a90535060005b602081101561056b57600085826020811061048557610485612025565b845191901a91508390600483901c60ff169081106104a5576104a5612025565b01602001516001600160f81b031916846104c0846002612051565b6104cb906002612068565b815181106104db576104db612025565b60200101906001600160f81b031916908160001a9053508281600f1660ff168151811061050a5761050a612025565b01602001516001600160f81b03191684610525846002612051565b610530906003612068565b8151811061054057610540612025565b60200101906001600160f81b031916908160001a9053505080806105639061207b565b915050610468565b50909392505050565b6105bb83838360405160240161058c93929190612094565b60408051601f198184030181529190526020810180516001600160e01b0316632ced7cef60e01b179052610a46565b505050565b6105c8611d1e565b60006105d48484610a52565b9050600080600080601885016001600160c01b0381511693506030860190506001600160c01b03815116945060008051602061212083398151915285600080516020612120833981519152600160c01b870908604887015160608801516001600160c01b039081169750169450925060008051602061212083398151915290508481600160c01b860908604080518082019091529283526020830152509695505050505050565b610683611d1e565b60008051602061212083398151915282106106ec5760405162461bcd60e51b815260206004820152602360248201527f6d6170546f506f696e7446543a20696e76616c6964206669656c6420656c656d604482015262195b9d60ea1b60648201526084016102ba565b8160006106f882610d5e565b905060006000805160206121208339815191528384099050600080516020612120833981519152600482089050600060008051602061212083398151915277b3c4d79d41a91759a9e4c7e359b6b89eaec68e62effffffd850990506000600080516020612120833981519152838309905061077281610e2f565b90506000805160206121208339815191528283099150600080516020612120833981519152818309915060008051602061212083398151915282860991506000805160206121208339815191526107d7836000805160206121208339815191526120d7565b7759e26bcea0d48bacd4f263f1acdb5c4f5763473177fffffe08945060008051602061212083398151915285860991506000805160206121208339815191528583099150600080516020612120833981519152600383089150600061083b83610e3a565b9093509050801561088457841561086757610864836000805160206121208339815191526120d7565b92505b505060408051808201909152938452602084015250909392505050565b600080516020612120833981519152600187086108af906000805160206121208339815191526120d7565b9550600080516020612120833981519152868709925060008051602061212083398151915286840992506000805160206121208339815191526003840892506108f783610e3a565b9093509050801561092057841561086757610864836000805160206121208339815191526120d7565b6000805160206121208339815191528485099550600080516020612120833981519152868709955060008051602061212083398151915282870995506000805160206121208339815191528287099550600080516020612120833981519152600187089550600080516020612120833981519152868709925060008051602061212083398151915286840992506000805160206121208339815191526003840892506109cb83610e3a565b909350905080610a285760405162461bcd60e51b815260206004820152602260248201527f424c533a20626164206674206d617070696e6720696d706c656d656e7461746960448201526137b760f11b60648201526084016102ba565b841561086757610864836000805160206121208339815191526120d7565b610a4f81610e63565b50565b81516060906101008110610aa85760405162461bcd60e51b815260206004820152601a60248201527f424c533a20696e76616c696420646f6d61696e206c656e67746800000000000060448201526064016102ba565b82516000610ab68284612068565b610ac1906040612068565b610acc906004612068565b67ffffffffffffffff811115610ae457610ae4611d5a565b6040519080825280601f01601f191660200182016040528015610b0e576020820181803683370190505b5060408051606080825260808201909252919250600091906020820181803683370190505090506060820160005b84811015610b565760208189018101518383015201610b3c565b508301600081536001016060815360010160008153600181019050602088015181528481019050848153506000600283604051610b9391906120ea565b602060405180830381855afa158015610bb0573d6000803e3d6000fd5b5050506040513d601f19601f82011682018060405250810190610bd39190612106565b90506000610be2866022612068565b945084845281602085015260016040850153602089015160418501528560418701850153600284604051610c1691906120ea565b602060405180830381855afa158015610c33573d6000803e3d6000fd5b5050506040513d601f19601f82011682018060405250810190610c569190612106565b90508060208401528082188060208601525060026040850153602089015160418501528560418701850153600284604051610c9191906120ea565b602060405180830381855afa158015610cae573d6000803e3d6000fd5b5050506040513d601f19601f82011682018060405250810190610cd19190612106565b90508060408401528082188060208601525060036040850153602089015160418501528560418701850153600284604051610d0c91906120ea565b602060405180830381855afa158015610d29573d6000803e3d6000fd5b5050506040513d601f19601f82011682018060405250810190610d4c9190612106565b60608401525090979650505050505050565b60008060405160208152602080820152602060408201528360608201527f183227397098d014dc2822db40c0ac2ecbc0b548b438e5469e10460b6c3e7ea3608082015260008051602061212083398151915260a082015260208160c08360056107d05a03fa90516001149250905080610e285760405162461bcd60e51b815260206004820152602660248201527f424c533a2069734e6f6e526573696475654650206d6f646578702063616c6c2060448201526519985a5b195960d21b60648201526084016102ba565b5015919050565b60006102fe82610e84565b600080610e46836115cb565b915082600080516020612120833981519152838409149050915091565b60006a636f6e736f6c652e6c6f679050600080835160208501845afa505050565b60006000805160206121208339815191528083840991508083830981838209828283098385830984848309858484098684850997508684840987858409945087898a09985087898a09985087898a09985087898a09985087898a09985087878a09985087898a09985087898a09985087898a099850878a8a09985087898a09985087898a09985087898a09985087898a099850878a8a09985087898a09985087898a09985087898a09985087898a09985087898a09985087848a09985087898a09985087898a09985087898a09985087898a09985087898a09985087848a09985087898a09985087898a09985087898a099850878a8a09985087898a09985087898a09985087898a09985087898a09985087848a09985087898a09985087898a09985087898a09985087898a09985087898a099850878a8a09985087898a09985087898a09985087898a09985087898a09985087878a09985087898a09985087898a09985087898a09985087898a09985087898a09985087898a09985087898a09985087818a09985087898a09985087898a09985087898a09985087898a09985087898a09985087898a09985087898a09985087898a09985087898a09985087898a09985087868a09985087898a09985087898a09985087898a09985087898a09985087878a09985087898a09985087898a09985087898a09985087898a09985087848a09985087898a09985087898a09985087898a09985087898a09985087898a09985087898a09985087898a09985087868a09985087898a09985087898a09985087898a09985087898a09985087898a09985087898a099850878a8a09985087898a09985087898a09985087898a09985087898a09985087898a09985087898a09985087898a09985087828a09985087898a09985087898a09985087898a09985087898a09985087898a09985087818a09985087898a09985087898a09985087898a09985087868a09985087898a09985087898a09985087898a09985087898a09985087898a09985087898a09985087898a09985087898a09985087878a09985087898a09985087898a09985087898a09985087898a09985087898a09985087898a09985087898a09985087898a09985087898a09985087868a09985087898a09985087898a09985087898a09985087878a09985087898a09985087898a09985087898a09985087898a09985087898a09985087898a09985087898a09985087898a09985087828a09985087898a09985087898a09985087898a09985087898a09985087828a09985087898a09985087898a09985087898a09985087898a09985087898a09985087868a09985087898a09985087898a09985087898a09985087848a09985087898a09985087898a09985087898a09985087898a09985087898a09985087898a09985087898a09985087898a09985087898a09985087898a09985087828a09985087898a09985087898a09985087898a09985087898a09985087868a09985087898a09985087898a09985087898a09985087898a09985087898a09985087838a09985087898a09985087898a09985087898a09985087898a09985087898a09985087898a09985087898a09985087828a09985087898a09985087898a099850878a8a09985087898a09985087898a09985087898a09985087898a09985087898a09985087898a09985087898a09985087848a09985087898a09985087898a09985087898a09985087898a09985087898a09985087898a09985087848a09985087898a09985087898a09985087898a09985087898a09985087898a09985087868a09985087898a09985087898a099850878a8a09985087898a09985087898a09985087898a09985087898a09985087898a09985087898a09985087898a09985087818a09985050868889099750868889099750868889099750868889099750868889099750868889099750868489099750868889099750868889099750868889099750868889099750868889099750868989099750868889099750868889099750868889099750868889099750868889099750868889099750868989099750868889099750868889099750868889099750868889099750868889099750868689099750868889099750868889099750868889099750868889099750868889099750868889099750868889099750868889099750868889099750868189099750508587880996508587880996508587880996508585880996508587880996508587880996508587880996508585880996508587880996508587880996508587880996508587880996508587880996508587880996508587880996508587880996508583880996508587880996508587880996508587880996508587880996508581880996505050838586099450838586099450838586099450838586099450838186099450508284850993508284850993508284850993508281850993508284850993508284850993508285850993508284850993508284850993508284850993508284850993508284850993508284850993508281850995945050505050565b60006000805160206121208339815191528083840991508083830981838209828283098385830984848309858484098684850997508684840987858409945087898a09985087898a09985087898a09985087898a09985087898a09985087878a09985087898a09985087898a09985087898a099850878a8a09985087898a09985087898a09985087898a09985087898a099850878a8a09985087898a09985087898a09985087898a09985087898a09985087898a09985087848a09985087898a09985087898a09985087898a09985087898a09985087898a09985087848a09985087898a09985087898a09985087898a099850878a8a09985087898a09985087898a09985087898a09985087898a09985087848a09985087898a09985087898a09985087898a09985087898a09985087898a099850878a8a09985087898a09985087898a09985087898a09985087898a09985087878a09985087898a09985087898a09985087898a09985087898a09985087898a09985087898a09985087898a09985087818a09985087898a09985087898a09985087898a09985087898a09985087898a09985087898a09985087898a09985087898a09985087898a09985087898a09985087868a09985087898a09985087898a09985087898a09985087898a09985087878a09985087898a09985087898a09985087898a09985087898a09985087848a09985087898a09985087898a09985087898a09985087898a09985087898a09985087898a09985087898a09985087868a09985087898a09985087898a09985087898a09985087898a09985087898a09985087898a099850878a8a09985087898a09985087898a09985087898a09985087898a09985087898a09985087898a09985087898a09985087828a09985087898a09985087898a09985087898a09985087898a09985087898a09985087818a09985087898a09985087898a09985087898a09985087868a09985087898a09985087898a09985087898a09985087898a09985087898a09985087898a09985087898a09985087898a09985087878a09985087898a09985087898a09985087898a09985087898a09985087898a09985087898a09985087898a09985087898a09985087898a09985087868a09985087898a09985087898a09985087898a09985087878a09985087898a09985087898a09985087898a09985087898a09985087898a09985087898a09985087898a09985087898a09985087828a09985087898a09985087898a09985087898a09985087898a09985087828a09985087898a09985087898a09985087898a09985087898a09985087898a09985087868a09985087898a09985087898a09985087898a09985087848a09985087898a09985087898a09985087898a09985087898a09985087898a09985087898a09985087898a09985087898a09985087898a09985087898a09985087828a09985087898a09985087898a09985087898a09985087898a09985087868a09985087898a09985087898a09985087898a09985087898a09985087898a09985087838a09985087898a09985087898a09985087898a09985087898a09985087898a09985087898a09985087898a09985087828a09985087898a09985087898a099850878a8a09985087898a09985087898a09985087898a09985087898a09985087898a09985087898a09985087898a09985087848a09985087898a09985087898a09985087898a09985087898a09985087898a09985087898a09985087848a09985087898a09985087898a09985087898a09985087898a09985087898a09985087868a09985087898a09985087898a099850878a8a09985087898a09985087898a09985087898a09985087898a09985087898a09985087898a09985087898a09985087818a09985050868889099750868889099750868889099750868889099750868889099750868889099750868489099750868889099750868889099750868889099750868889099750868889099750868989099750868889099750868889099750868889099750868889099750868889099750868889099750868989099750868889099750868889099750868889099750868889099750868889099750868689099750868889099750868889099750868889099750868889099750868889099750868889099750868889099750868889099750868889099750868189099750508587880996508587880996508587880996508585880996508587880996508587880996508587880996508585880996508587880996508587880996508587880996508587880996508587880996508587880996508587880996508587880996508583880996508587880996508587880996508587880996508587880996508581880996508587880996508587880996508587880996508587880996508583880996508587880996508587880996508587880996508584880996508587880996508587880996508587880996508587880996508587880996508581880996505050505050808283099392505050565b60405180602001604052806001906020820280368337509192915050565b60405180604001604052806002906020820280368337509192915050565b60405180608001604052806004906020820280368337509192915050565b634e487b7160e01b600052604160045260246000fd5b600082601f830112611d8157600080fd5b6040516040810181811067ffffffffffffffff82111715611da457611da4611d5a565b8060405250806040840185811115611dbb57600080fd5b845b81811015611dd5578035835260209283019201611dbd565b509195945050505050565b60008060006101008486031215611df657600080fd5b611e008585611d70565b925084605f850112611e1157600080fd5b6040516080810181811067ffffffffffffffff82111715611e3457611e34611d5a565b6040528060c0860187811115611e4957600080fd5b604087015b81811015611e66578035835260209283019201611e4e565b50829450611e748882611d70565b93505050509250925092565b600082601f830112611e9157600080fd5b813567ffffffffffffffff80821115611eac57611eac611d5a565b604051601f8301601f19908116603f01168101908282118183101715611ed457611ed4611d5a565b81604052838152866020858801011115611eed57600080fd5b836020870160208301376000602085830101528094505050505092915050565b60008060408385031215611f2057600080fd5b823567ffffffffffffffff80821115611f3857600080fd5b611f4486838701611e80565b93506020850135915080821115611f5a57600080fd5b50611f6785828601611e80565b9150509250929050565b60408101818360005b6002811015611f99578151835260209283019290910190600101611f7a565b50505092915050565b600060208284031215611fb457600080fd5b5035919050565b60005b83811015611fd6578181015183820152602001611fbe565b50506000910152565b60008151808452611ff7816020860160208601611fbb565b601f01601f19169290920160200192915050565b60208152600061201e6020830184611fdf565b9392505050565b634e487b7160e01b600052603260045260246000fd5b634e487b7160e01b600052601160045260246000fd5b80820281158282048414176102fe576102fe61203b565b808201808211156102fe576102fe61203b565b60006001820161208d5761208d61203b565b5060010190565b6060815260006120a76060830186611fdf565b82810360208401526120b98186611fdf565b905082810360408401526120cd8185611fdf565b9695505050505050565b818103818111156102fe576102fe61203b565b600082516120fc818460208701611fbb565b9190910192915050565b60006020828403121561211857600080fd5b505191905056fe30644e72e131a029b85045b68181585d97816a916871ca8d3c208c16d87cfd47a2646970667358221220bfb4b1bd991c85b4d1e0d02621ed2d044ebac5ff819b1c539e6811459562633964736f6c63430008140033",
  "linkReferences": {},
  "deployedLinkReferences": {}
}