{
  "_format": "hh-sol-artifact-1",
  "contractName": "Vault",
  "sourceName": "contracts/Vault.sol",
  "abi": [
    {
      "inputs": [
        {
          "internalType": "uint256[4]",
          "name": "publicKey_",
          "type": "uint256[4]"
        }
      ],
      "stateMutability": "nonpayable",
      "type": "constructor"
    },
    {
      "anonymous": false,
      "inputs": [
        {
          "indexed": true,
          "internalType": "address",
          "name": "depositor",
          "type": "address"
        },
        {
          "indexed": true,
          "internalType": "address",
          "name": "tokenAddress",
          "type": "address"
        },
        {
          "indexed": false,
          "internalType": "uint256",
          "name": "toChainId",
          "type": "uint256"
        },
        {
          "indexed": false,
          "internalType": "uint256",
          "name": "amount",
          "type": "uint256"
        },
        {
          "indexed": false,
          "internalType": "uint256",
          "name": "depositCounter",
          "type": "uint256"
        }
      ],
      "name": "Deposited",
      "type": "event"
    },
    {
      "anonymous": false,
      "inputs": [
        {
          "indexed": false,
          "internalType": "uint256",
          "name": "amount",
          "type": "uint256"
        }
      ],
      "name": "Disbursed",
      "type": "event"
    },
    {
      "anonymous": false,
      "inputs": [
        {
          "indexed": false,
          "internalType": "uint256",
          "name": "amount",
          "type": "uint256"
        }
      ],
      "name": "Minted",
      "type": "event"
    },
    {
      "anonymous": false,
      "inputs": [
        {
          "indexed": false,
          "internalType": "address",
          "name": "depositor",
          "type": "address"
        },
        {
          "indexed": false,
          "internalType": "uint256",
          "name": "amount",
          "type": "uint256"
        }
      ],
      "name": "Withdrawn",
      "type": "event"
    },
    {
      "inputs": [],
      "name": "ETH",
      "outputs": [
        {
          "internalType": "address",
          "name": "",
          "type": "address"
        }
      ],
      "stateMutability": "view",
      "type": "function"
    },
    {
      "inputs": [],
      "name": "depositCounter",
      "outputs": [
        {
          "internalType": "uint256",
          "name": "",
          "type": "uint256"
        }
      ],
      "stateMutability": "view",
      "type": "function"
    },
    {
      "inputs": [
        {
          "internalType": "uint256",
          "name": "toChainId",
          "type": "uint256"
        }
      ],
      "name": "depositEth",
      "outputs": [],
      "stateMutability": "payable",
      "type": "function"
    },
    {
      "inputs": [
        {
          "internalType": "uint256",
          "name": "amount",
          "type": "uint256"
        }
      ],
      "name": "depositToken",
      "outputs": [],
      "stateMutability": "nonpayable",
      "type": "function"
    },
    {
      "inputs": [
        {
          "internalType": "bytes32",
          "name": "",
          "type": "bytes32"
        }
      ],
      "name": "deposited",
      "outputs": [
        {
          "internalType": "bool",
          "name": "",
          "type": "bool"
        }
      ],
      "stateMutability": "view",
      "type": "function"
    },
    {
      "inputs": [
        {
          "internalType": "uint256",
          "name": "amount",
          "type": "uint256"
        }
      ],
      "name": "disburse",
      "outputs": [],
      "stateMutability": "nonpayable",
      "type": "function"
    },
    {
      "inputs": [
        {
          "internalType": "address",
          "name": "depositor",
          "type": "address"
        },
        {
          "internalType": "address",
          "name": "token",
          "type": "address"
        },
        {
          "internalType": "uint256",
          "name": "toChainId",
          "type": "uint256"
        },
        {
          "internalType": "uint256",
          "name": "amount",
          "type": "uint256"
        },
        {
          "internalType": "uint256",
          "name": "counter",
          "type": "uint256"
        }
      ],
      "name": "hashOf",
      "outputs": [
        {
          "internalType": "bytes32",
          "name": "",
          "type": "bytes32"
        }
      ],
      "stateMutability": "pure",
      "type": "function"
    },
    {
      "inputs": [
        {
          "internalType": "address",
          "name": "depositor",
          "type": "address"
        },
        {
          "internalType": "address",
          "name": "token",
          "type": "address"
        },
        {
          "internalType": "uint256",
          "name": "toChainId",
          "type": "uint256"
        },
        {
          "internalType": "uint256",
          "name": "amount",
          "type": "uint256"
        },
        {
          "internalType": "uint256",
          "name": "counter",
          "type": "uint256"
        }
      ],
      "name": "isDeposited",
      "outputs": [
        {
          "internalType": "bool",
          "name": "",
          "type": "bool"
        }
      ],
      "stateMutability": "view",
      "type": "function"
    },
    {
      "inputs": [
        {
          "internalType": "uint256[2]",
          "name": "signature",
          "type": "uint256[2]"
        },
        {
          "internalType": "uint256[4]",
          "name": "signerKey",
          "type": "uint256[4]"
        },
        {
          "internalType": "address",
          "name": "depositor",
          "type": "address"
        },
        {
          "internalType": "address",
          "name": "token",
          "type": "address"
        },
        {
          "internalType": "uint256",
          "name": "toChainId",
          "type": "uint256"
        },
        {
          "internalType": "uint256",
          "name": "amount",
          "type": "uint256"
        },
        {
          "internalType": "uint256",
          "name": "counter",
          "type": "uint256"
        }
      ],
      "name": "mint",
      "outputs": [
        {
          "internalType": "bool",
          "name": "",
          "type": "bool"
        }
      ],
      "stateMutability": "view",
      "type": "function"
    },
    {
      "inputs": [
        {
          "internalType": "uint256",
          "name": "amount",
          "type": "uint256"
        }
      ],
      "name": "mint",
      "outputs": [],
      "stateMutability": "nonpayable",
      "type": "function"
    },
    {
      "inputs": [
        {
          "internalType": "address",
          "name": "",
          "type": "address"
        }
      ],
      "name": "pool",
      "outputs": [
        {
          "internalType": "uint256",
          "name": "",
          "type": "uint256"
        }
      ],
      "stateMutability": "view",
      "type": "function"
    },
    {
      "inputs": [
        {
          "internalType": "uint256",
          "name": "",
          "type": "uint256"
        }
      ],
      "name": "publicKey",
      "outputs": [
        {
          "internalType": "uint256",
          "name": "",
          "type": "uint256"
        }
      ],
      "stateMutability": "view",
      "type": "function"
    },
    {
      "inputs": [
        {
          "internalType": "uint256",
          "name": "amount",
          "type": "uint256"
        }
      ],
      "name": "withdraw",
      "outputs": [],
      "stateMutability": "nonpayable",
      "type": "function"
    }
  ],
  "bytecode": "0x608060405260006006553480156200001657600080fd5b5060405162002e3138038062002e31833981016040819052620000399162000104565b6200004860008260046200009c565b506040516200005790620000df565b604051809103906000f08015801562000074573d6000803e3d6000fd5b50600780546001600160a01b0319166001600160a01b03929092169190911790555062000195565b8260048101928215620000cd579160200282015b82811115620000cd578251825591602001919060010190620000b0565b50620000db929150620000ed565b5090565b611f478062000eea83390190565b5b80821115620000db5760008155600101620000ee565b6000608082840312156200011757600080fd5b82601f8301126200012757600080fd5b604051608081016001600160401b03811182821017156200015857634e487b7160e01b600052604160045260246000fd5b6040528060808401858111156200016e57600080fd5b845b818110156200018a57805183526020928301920162000170565b509195945050505050565b610d4580620001a56000396000f3fe6080604052600436106100c25760003560e01c80636215be771161007f578063a0712d6811610059578063a0712d68146101bc578063b7c3687514610227578063bd77ac2c14610247578063ecb3dc881461026757600080fd5b80636215be77146101bc5780638322fff2146101da5780638940aebe1461020757600080fd5b80630a352539146100c75780630f4d14e9146100fc578063156522a8146101115780631f36edcd1461014c5780632e1a7d4d1461017c5780634d519f3b1461019c575b600080fd5b3480156100d357600080fd5b506100e76100e2366004610931565b61027d565b60405190151581526020015b60405180910390f35b61010f61010a36600461097e565b6102aa565b005b34801561011d57600080fd5b5061013e61012c366004610997565b60046020526000908152604090205481565b6040519081526020016100f3565b34801561015857600080fd5b506100e761016736600461097e565b60056020526000908152604090205460ff1681565b34801561018857600080fd5b5061010f61019736600461097e565b6103ab565b3480156101a857600080fd5b506100e76101b7366004610a5c565b6103e8565b3480156101c857600080fd5b5061010f6101d736600461097e565b50565b3480156101e657600080fd5b506101ef600081565b6040516001600160a01b0390911681526020016100f3565b34801561021357600080fd5b5061013e61022236600461097e565b6105f8565b34801561023357600080fd5b5061013e610242366004610931565b61060f565b34801561025357600080fd5b5061010f61026236600461097e565b610671565b34801561027357600080fd5b5061013e60065481565b60008061028d878787878761060f565b60009081526005602052604090205460ff16979650505050505050565b600080805260046020527f17ef568e3e12ab5b9c7254a8d58478811de00f9e6eb34345acd53bf8fd09d3ec80543492906102e5908490610b31565b909155505060068054600091826102fb83610b4a565b919050559050600061031133600085348661060f565b600081815260056020908152604091829020805460ff191660011790558151808301909252600a8252690c8cae0dee6d2e88ae8d60b31b90820152909150610358906106a8565b610361816106eb565b6040805184815234602082015290810183905260009033907f8bab6aed5a508937051a144e61d6e61336834a66aaee250a00613ae6f744c4229060600160405180910390a3505050565b60408051338152602081018390527f7084f5476618d8e60b11ef0d7d3f06914655adb8793e28ff7f018d4c76d505d591015b60405180910390a150565b60006103f8565b60405180910390fd5b865160005414801561040f57506020870151600154145b801561042057506040870151600254145b801561043157506060870151600354145b6104725760405162461bcd60e51b8152602060048201526012602482015271496e76616c6964205075626c6963204b657960701b60448201526064016103ef565b6000610481878787878761060f565b60075460408051808201909152601181527010938c8d4d8b521054d21513d413d25395607a1b60208201529192506000916001600160a01b03909116906354894f58906104cd85610730565b6040518363ffffffff1660e01b81526004016104ea929190610bbe565b6040805180830381865afa158015610506573d6000803e3d6000fd5b505050506040513d601f19601f8201168201806040525081019061052a9190610bec565b600754604051616b3760e51b81529192506000916001600160a01b0390911690620d66e090610561908e908e908790600401610c75565b602060405180830381865afa15801561057e573d6000803e3d6000fd5b505050506040513d601f19601f820116820180604052508101906105a29190610cc3565b90506001811515146105ea5760405162461bcd60e51b8152602060048201526011602482015270496e76616c6964205369676e617475726560781b60448201526064016103ef565b9a9950505050505050505050565b6000816004811061060857600080fd5b0154905081565b6040516bffffffffffffffffffffffff19606087811b8216602084015286901b16603482015260488101849052606881018390526088810182905260009060a80160405160208183030381529060405280519060200120905095945050505050565b6040805160008152602081018390527f7084f5476618d8e60b11ef0d7d3f06914655adb8793e28ff7f018d4c76d505d591016103dd565b6101d7816040516024016106bc9190610ce5565b60408051601f198184030181529190526020810180516001600160e01b031663104c13eb60e21b1790526108f0565b6101d78160405160240161070191815260200190565b60408051601f198184030181529190526020810180516001600160e01b03166327b7cf8560e01b1790526108f0565b604080516042808252608082019092526060916000919060208201818036833701905050905060006040518060400160405280601081526020016f181899199a1a9b1b9c1cb0b131b232b360811b8152509050600360fc1b8260008151811061079b5761079b610b63565b60200101906001600160f81b031916908160001a905350600f60fb1b826001815181106107ca576107ca610b63565b60200101906001600160f81b031916908160001a90535060005b60208110156108e757600085826020811061080157610801610b63565b845191901a91508390600483901c60ff1690811061082157610821610b63565b01602001516001600160f81b0319168461083c846002610cf8565b610847906002610b31565b8151811061085757610857610b63565b60200101906001600160f81b031916908160001a9053508281600f1660ff168151811061088657610886610b63565b01602001516001600160f81b031916846108a1846002610cf8565b6108ac906003610b31565b815181106108bc576108bc610b63565b60200101906001600160f81b031916908160001a9053505080806108df90610b4a565b9150506107e4565b50909392505050565b6101d78160006a636f6e736f6c652e6c6f679050600080835160208501845afa505050565b80356001600160a01b038116811461092c57600080fd5b919050565b600080600080600060a0868803121561094957600080fd5b61095286610915565b945061096060208701610915565b94979496505050506040830135926060810135926080909101359150565b60006020828403121561099057600080fd5b5035919050565b6000602082840312156109a957600080fd5b6109b282610915565b9392505050565b634e487b7160e01b600052604160045260246000fd5b6040516080810167ffffffffffffffff811182821017156109f2576109f26109b9565b60405290565b6040805190810167ffffffffffffffff811182821017156109f2576109f26109b9565b6000610a256109cf565b9050806080830184811115610a3957600080fd5b835b81811015610a53578035835260209283019201610a3b565b50505092915050565b6000806000806000806000610160888a031215610a7857600080fd5b88601f890112610a8757600080fd5b610a8f6109f8565b8060408a018b811115610aa157600080fd5b8a5b81811015610abb578035845260209384019301610aa3565b508199508b605f8c0112610ace57600080fd5b610ad88c82610a1b565b9850505050610ae960c08901610915565b9450610af760e08901610915565b96999598509396610100810135956101208201359550610140909101359350915050565b634e487b7160e01b600052601160045260246000fd5b80820180821115610b4457610b44610b1b565b92915050565b600060018201610b5c57610b5c610b1b565b5060010190565b634e487b7160e01b600052603260045260246000fd5b60008151808452602060005b82811015610ba0578481018201518682018301528101610b85565b506000858301820152601f909101601f191690930190920192915050565b604081526000610bd16040830185610b79565b8281036020840152610be38185610b79565b95945050505050565b600060408284031215610bfe57600080fd5b82601f830112610c0d57600080fd5b610c156109f8565b806040840185811115610c2757600080fd5b845b81811015610c41578051845260209384019301610c29565b509095945050505050565b8060005b6002811015610c6f578151845260209384019390910190600101610c50565b50505050565b6101008101610c848286610c4c565b604082018460005b6004811015610cab578151835260209283019290910190600101610c8c565b505050610cbb60c0830184610c4c565b949350505050565b600060208284031215610cd557600080fd5b815180151581146109b257600080fd5b6020815260006109b26020830184610b79565b8082028115828204841417610b4457610b44610b1b56fea2646970667358221220952f38be33dfe1bdf0ce562230302bb14d8aa1f675b03d8fb8aab78045d9a30164736f6c63430008140033608060405234801561001057600080fd5b50611f27806100206000396000f3fe608060405234801561001057600080fd5b50600436106100405760003560e01c80620d66e014610045578063145dad8b1461006d57806354894f5814610080575b600080fd5b610058610053366004611bf5565b6100a0565b60405190151581526020015b60405180910390f35b61005861007b366004611d22565b6102a5565b61009361008e366004611d22565b6102d9565b6040516100649190611d86565b600080604051806101800160405280866000600281106100c2576100c2611db7565b60200201518152602001866001600281106100df576100df611db7565b602002015181526020017f198e9393920d483a7260bfb731fb5d25f1aa493335a9e71297e485b7aef312c281526020017f1800deef121f1e76426a00665e5c4479674322d4f75edadd46debd5cd992f6ed81526020017f275dc4a288d1afb3cbb1ac09187524c7db36395df7be3b99e673b13a075a65ec81526020017f1d9befcd05a5323e6da4d435f3b617cdb3af83285c2df711ef39c01571827f9d81526020018460006002811061019457610194611db7565b60200201518152602001846001600281106101b1576101b1611db7565b60200201518152602001856001600481106101ce576101ce611db7565b60200201518152602001856000600481106101eb576101eb611db7565b602002015181526020018560036004811061020857610208611db7565b602002015181526020018560026004811061022557610225611db7565b602002015190529050610236611b15565b60006020826101808560086107d05a03fa9050808061025157fe5b50806102985760405162461bcd60e51b8152602060048201526011602482015270696e76616c6964207369676e617475726560781b60448201526064015b60405180910390fd5b5051151595945050505050565b60006102cf60405180604001604052806005815260200164257320257360d81b8152508484610389565b5060015b92915050565b6102e1611b33565b60006102ed84846103d5565b9050600061030182825b6020020151610490565b905060006103108360016102f7565b905061031a611b51565b825181526020808401518282015282516040808401919091529083015160608301526000908460808460066107d05a03fa9050808061035557fe5b508061037d5760405162461bcd60e51b8152602060048201526000602482015260440161028f565b50919695505050505050565b6103d08383836040516024016103a193929190611e1d565b60408051601f198184030181529190526020810180516001600160e01b0316632ced7cef60e01b17905261085b565b505050565b6103dd611b33565b60006103e98484610867565b9050600080600080601885016001600160c01b0381511693506030860190506001600160c01b038151169450600080516020611ed283398151915285600080516020611ed2833981519152600160c01b870908604887015160608801516001600160c01b0390811697501694509250600080516020611ed283398151915290508481600160c01b860908604080518082019091529283526020830152509695505050505050565b610498611b33565b600080516020611ed283398151915282106105015760405162461bcd60e51b815260206004820152602360248201527f6d6170546f506f696e7446543a20696e76616c6964206669656c6420656c656d604482015262195b9d60ea1b606482015260840161028f565b81600061050d82610b73565b90506000600080516020611ed28339815191528384099050600080516020611ed28339815191526004820890506000600080516020611ed283398151915277b3c4d79d41a91759a9e4c7e359b6b89eaec68e62effffffd850990506000600080516020611ed2833981519152838309905061058781610c44565b9050600080516020611ed28339815191528283099150600080516020611ed28339815191528183099150600080516020611ed28339815191528286099150600080516020611ed28339815191526105ec83600080516020611ed2833981519152611e76565b7759e26bcea0d48bacd4f263f1acdb5c4f5763473177fffffe089450600080516020611ed28339815191528586099150600080516020611ed28339815191528583099150600080516020611ed2833981519152600383089150600061065083610c4f565b9093509050801561069957841561067c5761067983600080516020611ed2833981519152611e76565b92505b505060408051808201909152938452602084015250909392505050565b600080516020611ed2833981519152600187086106c490600080516020611ed2833981519152611e76565b9550600080516020611ed28339815191528687099250600080516020611ed28339815191528684099250600080516020611ed283398151915260038408925061070c83610c4f565b9093509050801561073557841561067c5761067983600080516020611ed2833981519152611e76565b600080516020611ed28339815191528485099550600080516020611ed28339815191528687099550600080516020611ed28339815191528287099550600080516020611ed28339815191528287099550600080516020611ed2833981519152600187089550600080516020611ed28339815191528687099250600080516020611ed28339815191528684099250600080516020611ed28339815191526003840892506107e083610c4f565b90935090508061083d5760405162461bcd60e51b815260206004820152602260248201527f424c533a20626164206674206d617070696e6720696d706c656d656e7461746960448201526137b760f11b606482015260840161028f565b841561067c5761067983600080516020611ed2833981519152611e76565b61086481610c78565b50565b815160609061010081106108bd5760405162461bcd60e51b815260206004820152601a60248201527f424c533a20696e76616c696420646f6d61696e206c656e677468000000000000604482015260640161028f565b825160006108cb8284611e89565b6108d6906040611e89565b6108e1906004611e89565b67ffffffffffffffff8111156108f9576108f9611b6f565b6040519080825280601f01601f191660200182016040528015610923576020820181803683370190505b5060408051606080825260808201909252919250600091906020820181803683370190505090506060820160005b8481101561096b5760208189018101518383015201610951565b5083016000815360010160608153600101600081536001810190506020880151815284810190508481535060006002836040516109a89190611e9c565b602060405180830381855afa1580156109c5573d6000803e3d6000fd5b5050506040513d601f19601f820116820180604052508101906109e89190611eb8565b905060006109f7866022611e89565b945084845281602085015260016040850153602089015160418501528560418701850153600284604051610a2b9190611e9c565b602060405180830381855afa158015610a48573d6000803e3d6000fd5b5050506040513d601f19601f82011682018060405250810190610a6b9190611eb8565b90508060208401528082188060208601525060026040850153602089015160418501528560418701850153600284604051610aa69190611e9c565b602060405180830381855afa158015610ac3573d6000803e3d6000fd5b5050506040513d601f19601f82011682018060405250810190610ae69190611eb8565b90508060408401528082188060208601525060036040850153602089015160418501528560418701850153600284604051610b219190611e9c565b602060405180830381855afa158015610b3e573d6000803e3d6000fd5b5050506040513d601f19601f82011682018060405250810190610b619190611eb8565b60608401525090979650505050505050565b60008060405160208152602080820152602060408201528360608201527f183227397098d014dc2822db40c0ac2ecbc0b548b438e5469e10460b6c3e7ea36080820152600080516020611ed283398151915260a082015260208160c08360056107d05a03fa90516001149250905080610c3d5760405162461bcd60e51b815260206004820152602660248201527f424c533a2069734e6f6e526573696475654650206d6f646578702063616c6c2060448201526519985a5b195960d21b606482015260840161028f565b5015919050565b60006102d382610c99565b600080610c5b836113e0565b915082600080516020611ed2833981519152838409149050915091565b60006a636f6e736f6c652e6c6f679050600080835160208501845afa505050565b6000600080516020611ed28339815191528083840991508083830981838209828283098385830984848309858484098684850997508684840987858409945087898a09985087898a09985087898a09985087898a09985087898a09985087878a09985087898a09985087898a09985087898a099850878a8a09985087898a09985087898a09985087898a09985087898a099850878a8a09985087898a09985087898a09985087898a09985087898a09985087898a09985087848a09985087898a09985087898a09985087898a09985087898a09985087898a09985087848a09985087898a09985087898a09985087898a099850878a8a09985087898a09985087898a09985087898a09985087898a09985087848a09985087898a09985087898a09985087898a09985087898a09985087898a099850878a8a09985087898a09985087898a09985087898a09985087898a09985087878a09985087898a09985087898a09985087898a09985087898a09985087898a09985087898a09985087898a09985087818a09985087898a09985087898a09985087898a09985087898a09985087898a09985087898a09985087898a09985087898a09985087898a09985087898a09985087868a09985087898a09985087898a09985087898a09985087898a09985087878a09985087898a09985087898a09985087898a09985087898a09985087848a09985087898a09985087898a09985087898a09985087898a09985087898a09985087898a09985087898a09985087868a09985087898a09985087898a09985087898a09985087898a09985087898a09985087898a099850878a8a09985087898a09985087898a09985087898a09985087898a09985087898a09985087898a09985087898a09985087828a09985087898a09985087898a09985087898a09985087898a09985087898a09985087818a09985087898a09985087898a09985087898a09985087868a09985087898a09985087898a09985087898a09985087898a09985087898a09985087898a09985087898a09985087898a09985087878a09985087898a09985087898a09985087898a09985087898a09985087898a09985087898a09985087898a09985087898a09985087898a09985087868a09985087898a09985087898a09985087898a09985087878a09985087898a09985087898a09985087898a09985087898a09985087898a09985087898a09985087898a09985087898a09985087828a09985087898a09985087898a09985087898a09985087898a09985087828a09985087898a09985087898a09985087898a09985087898a09985087898a09985087868a09985087898a09985087898a09985087898a09985087848a09985087898a09985087898a09985087898a09985087898a09985087898a09985087898a09985087898a09985087898a09985087898a09985087898a09985087828a09985087898a09985087898a09985087898a09985087898a09985087868a09985087898a09985087898a09985087898a09985087898a09985087898a09985087838a09985087898a09985087898a09985087898a09985087898a09985087898a09985087898a09985087898a09985087828a09985087898a09985087898a099850878a8a09985087898a09985087898a09985087898a09985087898a09985087898a09985087898a09985087898a09985087848a09985087898a09985087898a09985087898a09985087898a09985087898a09985087898a09985087848a09985087898a09985087898a09985087898a09985087898a09985087898a09985087868a09985087898a09985087898a099850878a8a09985087898a09985087898a09985087898a09985087898a09985087898a09985087898a09985087898a09985087818a09985050868889099750868889099750868889099750868889099750868889099750868889099750868489099750868889099750868889099750868889099750868889099750868889099750868989099750868889099750868889099750868889099750868889099750868889099750868889099750868989099750868889099750868889099750868889099750868889099750868889099750868689099750868889099750868889099750868889099750868889099750868889099750868889099750868889099750868889099750868889099750868189099750508587880996508587880996508587880996508585880996508587880996508587880996508587880996508585880996508587880996508587880996508587880996508587880996508587880996508587880996508587880996508587880996508583880996508587880996508587880996508587880996508587880996508581880996505050838586099450838586099450838586099450838586099450838186099450508284850993508284850993508284850993508281850993508284850993508284850993508285850993508284850993508284850993508284850993508284850993508284850993508284850993508281850995945050505050565b6000600080516020611ed28339815191528083840991508083830981838209828283098385830984848309858484098684850997508684840987858409945087898a09985087898a09985087898a09985087898a09985087898a09985087878a09985087898a09985087898a09985087898a099850878a8a09985087898a09985087898a09985087898a09985087898a099850878a8a09985087898a09985087898a09985087898a09985087898a09985087898a09985087848a09985087898a09985087898a09985087898a09985087898a09985087898a09985087848a09985087898a09985087898a09985087898a099850878a8a09985087898a09985087898a09985087898a09985087898a09985087848a09985087898a09985087898a09985087898a09985087898a09985087898a099850878a8a09985087898a09985087898a09985087898a09985087898a09985087878a09985087898a09985087898a09985087898a09985087898a09985087898a09985087898a09985087898a09985087818a09985087898a09985087898a09985087898a09985087898a09985087898a09985087898a09985087898a09985087898a09985087898a09985087898a09985087868a09985087898a09985087898a09985087898a09985087898a09985087878a09985087898a09985087898a09985087898a09985087898a09985087848a09985087898a09985087898a09985087898a09985087898a09985087898a09985087898a09985087898a09985087868a09985087898a09985087898a09985087898a09985087898a09985087898a09985087898a099850878a8a09985087898a09985087898a09985087898a09985087898a09985087898a09985087898a09985087898a09985087828a09985087898a09985087898a09985087898a09985087898a09985087898a09985087818a09985087898a09985087898a09985087898a09985087868a09985087898a09985087898a09985087898a09985087898a09985087898a09985087898a09985087898a09985087898a09985087878a09985087898a09985087898a09985087898a09985087898a09985087898a09985087898a09985087898a09985087898a09985087898a09985087868a09985087898a09985087898a09985087898a09985087878a09985087898a09985087898a09985087898a09985087898a09985087898a09985087898a09985087898a09985087898a09985087828a09985087898a09985087898a09985087898a09985087898a09985087828a09985087898a09985087898a09985087898a09985087898a09985087898a09985087868a09985087898a09985087898a09985087898a09985087848a09985087898a09985087898a09985087898a09985087898a09985087898a09985087898a09985087898a09985087898a09985087898a09985087898a09985087828a09985087898a09985087898a09985087898a09985087898a09985087868a09985087898a09985087898a09985087898a09985087898a09985087898a09985087838a09985087898a09985087898a09985087898a09985087898a09985087898a09985087898a09985087898a09985087828a09985087898a09985087898a099850878a8a09985087898a09985087898a09985087898a09985087898a09985087898a09985087898a09985087898a09985087848a09985087898a09985087898a09985087898a09985087898a09985087898a09985087898a09985087848a09985087898a09985087898a09985087898a09985087898a09985087898a09985087868a09985087898a09985087898a099850878a8a09985087898a09985087898a09985087898a09985087898a09985087898a09985087898a09985087898a09985087818a09985050868889099750868889099750868889099750868889099750868889099750868889099750868489099750868889099750868889099750868889099750868889099750868889099750868989099750868889099750868889099750868889099750868889099750868889099750868889099750868989099750868889099750868889099750868889099750868889099750868889099750868689099750868889099750868889099750868889099750868889099750868889099750868889099750868889099750868889099750868889099750868189099750508587880996508587880996508587880996508585880996508587880996508587880996508587880996508585880996508587880996508587880996508587880996508587880996508587880996508587880996508587880996508587880996508583880996508587880996508587880996508587880996508587880996508581880996508587880996508587880996508587880996508587880996508583880996508587880996508587880996508587880996508584880996508587880996508587880996508587880996508587880996508587880996508581880996505050505050808283099392505050565b60405180602001604052806001906020820280368337509192915050565b60405180604001604052806002906020820280368337509192915050565b60405180608001604052806004906020820280368337509192915050565b634e487b7160e01b600052604160045260246000fd5b600082601f830112611b9657600080fd5b6040516040810181811067ffffffffffffffff82111715611bb957611bb9611b6f565b8060405250806040840185811115611bd057600080fd5b845b81811015611bea578035835260209283019201611bd2565b509195945050505050565b60008060006101008486031215611c0b57600080fd5b611c158585611b85565b925084605f850112611c2657600080fd5b6040516080810181811067ffffffffffffffff82111715611c4957611c49611b6f565b6040528060c0860187811115611c5e57600080fd5b604087015b81811015611c7b578035835260209283019201611c63565b50829450611c898882611b85565b93505050509250925092565b600082601f830112611ca657600080fd5b813567ffffffffffffffff80821115611cc157611cc1611b6f565b604051601f8301601f19908116603f01168101908282118183101715611ce957611ce9611b6f565b81604052838152866020858801011115611d0257600080fd5b836020870160208301376000602085830101528094505050505092915050565b60008060408385031215611d3557600080fd5b823567ffffffffffffffff80821115611d4d57600080fd5b611d5986838701611c95565b93506020850135915080821115611d6f57600080fd5b50611d7c85828601611c95565b9150509250929050565b60408101818360005b6002811015611dae578151835260209283019290910190600101611d8f565b50505092915050565b634e487b7160e01b600052603260045260246000fd5b60005b83811015611de8578181015183820152602001611dd0565b50506000910152565b60008151808452611e09816020860160208601611dcd565b601f01601f19169290920160200192915050565b606081526000611e306060830186611df1565b8281036020840152611e428186611df1565b90508281036040840152611e568185611df1565b9695505050505050565b634e487b7160e01b600052601160045260246000fd5b818103818111156102d3576102d3611e60565b808201808211156102d3576102d3611e60565b60008251611eae818460208701611dcd565b9190910192915050565b600060208284031215611eca57600080fd5b505191905056fe30644e72e131a029b85045b68181585d97816a916871ca8d3c208c16d87cfd47a26469706673582212200c8d4805bbe43408dc25b6476ff669665be2b7d353513fbd4652dd6db86b011864736f6c63430008140033",
  "linkReferences": {},
  "deployedLinkReferences": {}
}