{
  "_format": "hh-sol-artifact-1",
  "contractName": "Vault",
  "sourceName": "contracts/Vault.sol",
  "abi": [
    {
      "inputs": [
        {
          "internalType": "uint256",
          "name": "chainId_",
          "type": "uint256"
        },
        {
          "internalType": "uint256[4]",
          "name": "publicKey_",
          "type": "uint256[4]"
        }
      ],
      "stateMutability": "nonpayable",
      "type": "constructor"
    },
    {
      "anonymous": false,
      "inputs": [
        {
          "indexed": true,
          "internalType": "uint256",
          "name": "originatingChain",
          "type": "uint256"
        },
        {
          "indexed": true,
          "internalType": "address",
          "name": "originatingToken",
          "type": "address"
        },
        {
          "indexed": false,
          "internalType": "uint256",
          "name": "decimals",
          "type": "uint256"
        },
        {
          "indexed": false,
          "internalType": "uint256",
          "name": "amount",
          "type": "uint256"
        },
        {
          "indexed": true,
          "internalType": "address",
          "name": "vaultUser",
          "type": "address"
        },
        {
          "indexed": false,
          "internalType": "uint256",
          "name": "fromChain",
          "type": "uint256"
        },
        {
          "indexed": false,
          "internalType": "uint256",
          "name": "toChain",
          "type": "uint256"
        },
        {
          "indexed": false,
          "internalType": "uint256",
          "name": "sendCounter",
          "type": "uint256"
        }
      ],
      "name": "TokenSent",
      "type": "event"
    },
    {
      "inputs": [],
      "name": "ETH",
      "outputs": [
        {
          "internalType": "address",
          "name": "",
          "type": "address"
        }
      ],
      "stateMutability": "view",
      "type": "function"
    },
    {
      "inputs": [
        {
          "internalType": "bytes32",
          "name": "",
          "type": "bytes32"
        }
      ],
      "name": "arrivalProcessed",
      "outputs": [
        {
          "internalType": "bool",
          "name": "",
          "type": "bool"
        }
      ],
      "stateMutability": "view",
      "type": "function"
    },
    {
      "inputs": [
        {
          "internalType": "address",
          "name": "proxyToken",
          "type": "address"
        },
        {
          "internalType": "address",
          "name": "vaultUser",
          "type": "address"
        }
      ],
      "name": "balanceOf",
      "outputs": [
        {
          "internalType": "uint256",
          "name": "",
          "type": "uint256"
        }
      ],
      "stateMutability": "view",
      "type": "function"
    },
    {
      "inputs": [],
      "name": "chainId",
      "outputs": [
        {
          "internalType": "uint256",
          "name": "",
          "type": "uint256"
        }
      ],
      "stateMutability": "view",
      "type": "function"
    },
    {
      "inputs": [
        {
          "internalType": "address",
          "name": "",
          "type": "address"
        }
      ],
      "name": "isProxyToken",
      "outputs": [
        {
          "internalType": "bool",
          "name": "",
          "type": "bool"
        }
      ],
      "stateMutability": "view",
      "type": "function"
    },
    {
      "inputs": [
        {
          "internalType": "uint256",
          "name": "originatingChain",
          "type": "uint256"
        },
        {
          "internalType": "address",
          "name": "originatingToken",
          "type": "address"
        },
        {
          "internalType": "uint256",
          "name": "decimals",
          "type": "uint256"
        },
        {
          "internalType": "uint256",
          "name": "amount",
          "type": "uint256"
        },
        {
          "internalType": "address",
          "name": "vaultUser",
          "type": "address"
        },
        {
          "internalType": "uint256",
          "name": "fromChain",
          "type": "uint256"
        },
        {
          "internalType": "uint256",
          "name": "toChain",
          "type": "uint256"
        },
        {
          "internalType": "uint256",
          "name": "counter",
          "type": "uint256"
        }
      ],
      "name": "payloadHash",
      "outputs": [
        {
          "internalType": "bytes32",
          "name": "",
          "type": "bytes32"
        }
      ],
      "stateMutability": "pure",
      "type": "function"
    },
    {
      "inputs": [
        {
          "internalType": "address",
          "name": "",
          "type": "address"
        }
      ],
      "name": "pool",
      "outputs": [
        {
          "internalType": "uint256",
          "name": "",
          "type": "uint256"
        }
      ],
      "stateMutability": "view",
      "type": "function"
    },
    {
      "inputs": [
        {
          "internalType": "uint256",
          "name": "",
          "type": "uint256"
        },
        {
          "internalType": "address",
          "name": "",
          "type": "address"
        }
      ],
      "name": "proxyTokenMap",
      "outputs": [
        {
          "internalType": "address",
          "name": "",
          "type": "address"
        }
      ],
      "stateMutability": "view",
      "type": "function"
    },
    {
      "inputs": [
        {
          "internalType": "uint256",
          "name": "",
          "type": "uint256"
        }
      ],
      "name": "publicKey",
      "outputs": [
        {
          "internalType": "uint256",
          "name": "",
          "type": "uint256"
        }
      ],
      "stateMutability": "view",
      "type": "function"
    },
    {
      "inputs": [],
      "name": "sendCounter",
      "outputs": [
        {
          "internalType": "uint256",
          "name": "",
          "type": "uint256"
        }
      ],
      "stateMutability": "view",
      "type": "function"
    },
    {
      "inputs": [
        {
          "internalType": "uint256",
          "name": "toChainId",
          "type": "uint256"
        }
      ],
      "name": "sendEth",
      "outputs": [],
      "stateMutability": "payable",
      "type": "function"
    },
    {
      "inputs": [
        {
          "internalType": "uint256",
          "name": "toChainId",
          "type": "uint256"
        },
        {
          "internalType": "address",
          "name": "tokenAddress",
          "type": "address"
        },
        {
          "internalType": "uint256",
          "name": "tokenAmount",
          "type": "uint256"
        }
      ],
      "name": "sendToken",
      "outputs": [],
      "stateMutability": "nonpayable",
      "type": "function"
    },
    {
      "inputs": [
        {
          "internalType": "uint256[2]",
          "name": "signature",
          "type": "uint256[2]"
        },
        {
          "internalType": "uint256[4]",
          "name": "signerKey",
          "type": "uint256[4]"
        },
        {
          "internalType": "bytes",
          "name": "tokenSendPayload",
          "type": "bytes"
        }
      ],
      "name": "tokenArrival",
      "outputs": [],
      "stateMutability": "nonpayable",
      "type": "function"
    },
    {
      "inputs": [
        {
          "internalType": "bytes32",
          "name": "",
          "type": "bytes32"
        }
      ],
      "name": "tokenSent",
      "outputs": [
        {
          "internalType": "bool",
          "name": "",
          "type": "bool"
        }
      ],
      "stateMutability": "view",
      "type": "function"
    }
  ],
  "bytecode": "0x60806040526000600a5534801561001557600080fd5b5060405161473a38038061473a8339810160408190526100349161010e565b60008290556100466001826004610098565b50604051610053906100d6565b604051809103906000f08015801561006f573d6000803e3d6000fd5b50600b80546001600160a01b0319166001600160a01b0392909216919091179055506101969050565b82600481019282156100c6579160200282015b828111156100c65782518255916020019190600101906100ab565b506100d29291506100e3565b5090565b612160806125da83390190565b5b808211156100d257600081556001016100e4565b634e487b7160e01b600052604160045260246000fd5b60008060a0838503121561012157600080fd5b82519150603f8301841361013457600080fd5b604051608081016001600160401b0381118282101715610156576101566100f8565b6040528060a085018681111561016b57600080fd5b602086015b81811015610188578051835260209283019201610170565b505050809150509250929050565b612435806101a56000396000f3fe6080604052600436106100dd5760003560e01c8063b947113f1161007f578063c7fbad4311610059578063c7fbad431461028e578063cc24fa1b146102ae578063cfc54848146102de578063f7888aec146102f157600080fd5b8063b947113f1461021c578063bca49b7d1461023e578063c11954fb1461025e57600080fd5b80638322fff2116100bb5780638322fff2146101785780638940aebe146101a55780639a8a0592146101c5578063b8f3e1b7146101db57600080fd5b8063156522a8146100e25780631c642f2c1461012257806364f0b77214610138575b600080fd5b3480156100ee57600080fd5b5061010f6100fd366004611004565b60056020526000908152604090205481565b6040519081526020015b60405180910390f35b34801561012e57600080fd5b5061010f600a5481565b34801561014457600080fd5b50610168610153366004611004565b60096020526000908152604090205460ff1681565b6040519015158152602001610119565b34801561018457600080fd5b5061018d600081565b6040516001600160a01b039091168152602001610119565b3480156101b157600080fd5b5061010f6101c0366004611028565b610311565b3480156101d157600080fd5b5061010f60005481565b3480156101e757600080fd5b5061018d6101f6366004611041565b60086020908152600092835260408084209091529082529020546001600160a01b031681565b34801561022857600080fd5b5061023c61023736600461111b565b610328565b005b34801561024a57600080fd5b5061010f6102593660046111cc565b6103e0565b34801561026a57600080fd5b50610168610279366004611028565b60076020526000908152604090205460ff1681565b34801561029a57600080fd5b5061023c6102a936600461123b565b610450565b3480156102ba57600080fd5b506101686102c9366004611028565b60066020526000908152604090205460ff1681565b61023c6102ec366004611028565b61088c565b3480156102fd57600080fd5b5061010f61030c366004611273565b610973565b6001816004811061032157600080fd5b0154905081565b825160015414801561033f57506020830151600254145b801561035057506040830151600354145b801561036157506060830151600454145b6103a75760405162461bcd60e51b8152602060048201526012602482015271496e76616c6964205075626c6963204b657960701b60448201526064015b60405180910390fd5b60006103b5858585856109ea565b90506103c18383610c59565b6000908152600760205260409020805460ff1916600117905550505050565b6040805160208082019a909a526bffffffffffffffffffffffff196060998a1b811682840152605482019890985260748101969096529390961b909416609484015260a883015260c882019290925260e88082019390935281518082039093018352610108019052805191012090565b6001600160a01b0382166000908152600960205260408120548190819060ff1615610612576000859050806001600160a01b0316632c4701d46040518163ffffffff1660e01b8152600401602060405180830381865afa1580156104b8573d6000803e3d6000fd5b505050506040513d601f19601f820116820180604052508101906104dc91906112a1565b9350806001600160a01b031663860d42886040518163ffffffff1660e01b8152600401602060405180830381865afa15801561051c573d6000803e3d6000fd5b505050506040513d601f19601f8201168201806040525081019061054091906112ba565b9250806001600160a01b031663313ce5676040518163ffffffff1660e01b8152600401602060405180830381865afa158015610580573d6000803e3d6000fd5b505050506040513d601f19601f820116820180604052508101906105a491906112d7565b604051632770a7eb60e21b81523360048201526024810187905260ff9190911692506001600160a01b03821690639dc29fac90604401600060405180830381600087803b1580156105f457600080fd5b505af1158015610608573d6000803e3d6000fd5b50505050506107dd565b6000546040516370a0823160e01b8152336004820152909350859250829085906001600160a01b038316906370a0823190602401602060405180830381865afa158015610663573d6000803e3d6000fd5b505050506040513d601f19601f8201168201806040525081019061068791906112a1565b10156106cc5760405162461bcd60e51b8152602060048201526014602482015273496e73756666696369656e742062616c616e636560601b604482015260640161039e565b806001600160a01b031663313ce5676040518163ffffffff1660e01b8152600401602060405180830381865afa15801561070a573d6000803e3d6000fd5b505050506040513d601f19601f8201168201806040525081019061072e91906112d7565b6040516323b872dd60e01b81523360048201523060248201526044810187905260ff9190911692506001600160a01b038216906323b872dd906064016020604051808303816000875af1158015610789573d6000803e3d6000fd5b505050506040513d601f19601f820116820180604052508101906107ad91906112fa565b506001600160a01b038616600090815260056020526040812080548792906107d6908490611332565b9091555050505b600a8054600091826107ee83611345565b919050559050600061080885858589336000548e896103e0565b6000818152600660209081526040808320805460ff19166001179055915482518781529182018a905281830152606081018b905260808101859052905191925033916001600160a01b0387169188917f670bb9eaa101089847b54d487cebfab096298a70fd3e2f2dc6be01e6346488679160a0908290030190a45050505050505050565b600080805260056020527f05b8ccbb9d4d8fb16ea74ce3c29a41f1b461fbdaff4714a0d9a8eb05499746bc80543492906108c7908490611332565b9091555050600a8054600091826108dd83611345565b91905055905060006108fb60005460006012343360005489896103e0565b6000818152600660209081526040808320805460ff191660011790558254815160128152349381019390935290820181905260608201879052608082018690529293503392907f670bb9eaa101089847b54d487cebfab096298a70fd3e2f2dc6be01e6346488679060a00160405180910390a4505050565b6040516370a0823160e01b81526001600160a01b038281166004830152600091908416906370a0823190602401602060405180830381865afa1580156109bd573d6000803e3d6000fd5b505050506040513d601f19601f820116820180604052508101906109e191906112a1565b90505b92915050565b600080610a2c84848080601f016020809104026020016040519081016040528093929190818152602001838380828437600092019190915250610e2892505050565b60008181526007602052604090205490915060ff1615610a8e5760405162461bcd60e51b815260206004820152601f60248201527f546f6b656e204172726976616c20616c72656164792070726f63657373656400604482015260640161039e565b600b54604080518082018252601181527010938c8d4d8b521054d21513d413d25395607a1b6020820152905163c68b378760e01b8152600481018490526000926001600160a01b0316916354894f5891839063c68b378790602401600060405180830381865afa158015610b06573d6000803e3d6000fd5b505050506040513d6000823e601f3d908101601f19168201604052610b2e9190810190611382565b6040518363ffffffff1660e01b8152600401610b4b929190611444565b6040805180830381865afa158015610b67573d6000803e3d6000fd5b505050506040513d601f19601f82011682018060405250810190610b8b9190611469565b600b54604051616b3760e51b81529192506000916001600160a01b0390911690620d66e090610bc2908b908b9087906004016114f4565b602060405180830381865afa158015610bdf573d6000803e3d6000fd5b505050506040513d601f19601f82011682018060405250810190610c0391906112fa565b9050600181151514610c4b5760405162461bcd60e51b8152602060048201526011602482015270496e76616c6964205369676e617475726560781b604482015260640161039e565b50909150505b949350505050565b6000808080610c6a858701876111cc565b5050509450945050935093508360005403610de1576001600160a01b03831660009081526005602052604081208054849290610ca790849061153a565b90915550506001600160a01b038316610cf6576040516001600160a01b0382169083156108fc029084906000818181858888f19350505050158015610cf0573d6000803e3d6000fd5b50610e20565b60405163095ea7b360e01b8152306004820152602481018390526001600160a01b0384169063095ea7b3906044016020604051808303816000875af1158015610d43573d6000803e3d6000fd5b505050506040513d601f19601f82011682018060405250810190610d6791906112fa565b506040516323b872dd60e01b81523060048201526001600160a01b038281166024830152604482018490528416906323b872dd906064016020604051808303816000875af1158015610dbd573d6000803e3d6000fd5b505050506040513d601f19601f82011682018060405250810190610cf091906112fa565b610e2086868080601f016020809104026020016040519081016040528093929190818152602001838380828437600092019190915250610e7892505050565b505050505050565b600080600080600080600080600089806020019051810190610e4a919061154d565b97509750975097509750975097509750610e6a88888888888888886103e0565b9a9950505050505050505050565b60008060008060008086806020019051810190610e95919061154d565b50505060008581526008602090815260408083206001600160a01b038089168552925290912054959a509398509196509450925016610f5557828486604051610edd90610fdf565b610ee9939291906115c1565b604051809103906000f080158015610f05573d6000803e3d6000fd5b5060008681526008602090815260408083206001600160a01b03898116855290835281842080546001600160a01b0319169186169182179055835260099091529020805460ff1916600117905595505b60008581526008602090815260408083206001600160a01b0388811685529252918290205491516340c10f1960e01b81528382166004820152602481018590529116965086906340c10f1990604401600060405180830381600087803b158015610fbe57600080fd5b505af1158015610fd2573d6000803e3d6000fd5b5050505050505050505050565b610dce8061163283390190565b6001600160a01b038116811461100157600080fd5b50565b60006020828403121561101657600080fd5b813561102181610fec565b9392505050565b60006020828403121561103a57600080fd5b5035919050565b6000806040838503121561105457600080fd5b82359150602083013561106681610fec565b809150509250929050565b634e487b7160e01b600052604160045260246000fd5b604051601f8201601f1916810167ffffffffffffffff811182821017156110b0576110b0611071565b604052919050565b60006110c46040611087565b90508060408301848111156110d857600080fd5b835b818110156110f25780358352602092830192016110da565b50505092915050565b60006111076080611087565b90508060808301848111156110d857600080fd5b60008060008060e0858703121561113157600080fd5b85601f86011261114057600080fd5b61114a86866110b8565b935085605f86011261115b57600080fd5b61116886604087016110fb565b925060c085013567ffffffffffffffff81111561118457600080fd5b8501601f8101871361119557600080fd5b803567ffffffffffffffff8111156111ac57600080fd5b8760208284010111156111be57600080fd5b949793965060200194505050565b600080600080600080600080610100898b0312156111e957600080fd5b8835975060208901356111fb81610fec565b96506040890135955060608901359450608089013561121981610fec565b979a969950949793969560a0850135955060c08501359460e001359350915050565b60008060006060848603121561125057600080fd5b83359250602084013561126281610fec565b929592945050506040919091013590565b6000806040838503121561128657600080fd5b823561129181610fec565b9150602083013561106681610fec565b6000602082840312156112b357600080fd5b5051919050565b6000602082840312156112cc57600080fd5b815161102181610fec565b6000602082840312156112e957600080fd5b815160ff8116811461102157600080fd5b60006020828403121561130c57600080fd5b8151801515811461102157600080fd5b634e487b7160e01b600052601160045260246000fd5b808201808211156109e4576109e461131c565b6000600182016113575761135761131c565b5060010190565b60005b83811015611379578181015183820152602001611361565b50506000910152565b60006020828403121561139457600080fd5b815167ffffffffffffffff8111156113ab57600080fd5b8201601f810184136113bc57600080fd5b805167ffffffffffffffff8111156113d6576113d6611071565b6113e9601f8201601f1916602001611087565b8181528560208385010111156113fe57600080fd5b61140f82602083016020860161135e565b95945050505050565b6000815180845261143081602086016020860161135e565b601f01601f19169290920160200192915050565b6040815260006114576040830185611418565b828103602084015261140f8185611418565b60006040828403121561147b57600080fd5b82601f83011261148a57600080fd5b6114946040611087565b8060408401858111156114a657600080fd5b845b818110156114c05780518452602093840193016114a8565b509095945050505050565b8060005b60028110156114ee5781518452602093840193909101906001016114cf565b50505050565b610100810161150382866114cb565b604082018460005b600481101561152a57815183526020928301929091019060010161150b565b505050610c5160c08301846114cb565b818103818111156109e4576109e461131c565b600080600080600080600080610100898b03121561156a57600080fd5b885160208a015190985061157d81610fec565b60408a015160608b015160808c0151929950909750955061159d81610fec565b60a08a015160c08b015160e0909b0151999c989b5096999598909790945092505050565b60a0815260006115e660a08301600581526450524f585960d81b602082015260400190565b828103602084015261160a81600581526450524f585960d81b602082015260400190565b60ff96909616604084015250506001600160a01b039290921660608301526080909101529056fe608060405234801561001057600080fd5b50604051610dce380380610dce83398101604081905261002f91610150565b8484600361003d8382610286565b50600461004a8282610286565b50506008805460ff90951660ff1990951694909417909355600580546001600160a01b039093166001600160a01b0319938416179055600755600680549091163317905550610344915050565b634e487b7160e01b600052604160045260246000fd5b600082601f8301126100be57600080fd5b81516001600160401b038111156100d7576100d7610097565b604051601f8201601f19908116603f011681016001600160401b038111828210171561010557610105610097565b60405281815283820160200185101561011d57600080fd5b60005b8281101561013c57602081860181015183830182015201610120565b506000918101602001919091529392505050565b600080600080600060a0868803121561016857600080fd5b85516001600160401b0381111561017e57600080fd5b61018a888289016100ad565b602088015190965090506001600160401b038111156101a857600080fd5b6101b4888289016100ad565b945050604086015160ff811681146101cb57600080fd5b60608701519093506001600160a01b03811681146101e857600080fd5b60809690960151949793965091949392915050565b600181811c9082168061021157607f821691505b60208210810361023157634e487b7160e01b600052602260045260246000fd5b50919050565b601f82111561028157806000526020600020601f840160051c8101602085101561025e5750805b601f840160051c820191505b8181101561027e576000815560010161026a565b50505b505050565b81516001600160401b0381111561029f5761029f610097565b6102b3816102ad84546101fd565b84610237565b6020601f8211600181146102e757600083156102cf5750848201515b600019600385901b1c1916600184901b17845561027e565b600084815260208120601f198516915b8281101561031757878501518255602094850194600190920191016102f7565b50848210156103355786840151600019600387901b60f8161c191681555b50505050600190811b01905550565b610a7b806103536000396000f3fe608060405234801561001057600080fd5b50600436106100f55760003560e01c806340c10f191161009757806395d89b411161006657806395d89b41146102125780639dc29fac1461021a578063a9059cbb1461022d578063dd62ed3e1461024057600080fd5b806340c10f191461019657806370a08231146101ab578063860d4288146101d45780638da5cb5b146101ff57600080fd5b806323b872dd116100d357806323b872dd1461014d5780632c4701d414610160578063313ce56714610169578063370158ea1461017e57600080fd5b806306fdde03146100fa578063095ea7b31461011857806318160ddd1461013b575b600080fd5b610102610279565b60405161010f91906108b0565b60405180910390f35b61012b6101263660046108df565b61030b565b604051901515815260200161010f565b6002545b60405190815260200161010f565b61012b61015b366004610909565b610325565b61013f60075481565b60085460405160ff909116815260200161010f565b6101866103e5565b60405161010f9493929190610946565b6101a96101a43660046108df565b610417565b005b61013f6101b9366004610981565b6001600160a01b031660009081526020819052604090205490565b6005546101e7906001600160a01b031681565b6040516001600160a01b03909116815260200161010f565b6006546101e7906001600160a01b031681565b61010261046e565b6101a96102283660046108df565b61047d565b61012b61023b3660046108df565b6104d0565b61013f61024e36600461099c565b6001600160a01b03918216600090815260016020908152604080832093909416825291909152205490565b606060038054610288906109cf565b80601f01602080910402602001604051908101604052809291908181526020018280546102b4906109cf565b80156103015780601f106102d657610100808354040283529160200191610301565b820191906000526020600020905b8154815290600101906020018083116102e457829003601f168201915b5050505050905090565b6000336103198185856104ff565b60019150505b92915050565b600061ffff836001600160a01b0316111561034c57610345848484610511565b90506103de565b81610357853361024e565b10156103bb5760405162461bcd60e51b815260206004820152602860248201527f45524332303a207472616e7366657220616d6f756e74206578636565647320616044820152676c6c6f77616e636560c01b60648201526084015b60405180910390fd5b6103da8433846103cb883361024e565b6103d59190610a1f565b6104ff565b5060015b9392505050565b606060008060006103f461046e565b60085460ff1660055460075492979196506001600160a01b031694509092509050565b6006546001600160a01b031633146104605760405162461bcd60e51b815260206004820152600c60248201526b3737ba1030b71037bbb732b960a11b60448201526064016103b2565b61046a8282610535565b5050565b606060048054610288906109cf565b6006546001600160a01b031633146104c65760405162461bcd60e51b815260206004820152600c60248201526b3737ba1030b71037bbb732b960a11b60448201526064016103b2565b61046a828261056b565b600061ffff836001600160a01b031611156104f6576104ef83836105a1565b905061031f565b50600192915050565b61050c83838360016105af565b505050565b60003361051f858285610685565b61052a8585856106e5565b506001949350505050565b6001600160a01b03821661055f5760405163ec442f0560e01b8152600060048201526024016103b2565b61046a60008383610740565b6001600160a01b03821661059557604051634b637e8f60e11b8152600060048201526024016103b2565b61046a82600083610740565b6000336103198185856106e5565b6001600160a01b0384166105d95760405163e602df0560e01b8152600060048201526024016103b2565b6001600160a01b03831661060357604051634a1406b160e11b8152600060048201526024016103b2565b6001600160a01b038085166000908152600160209081526040808320938716835292905220829055801561067f57826001600160a01b0316846001600160a01b03167f8c5be1e5ebec7d5bd14f71427d1e84f3dd0314c0f7b2291e5b200ac8c7c3b9258460405161067691815260200190565b60405180910390a35b50505050565b6000610691848461024e565b9050600019811461067f57818110156106d657604051637dc7a0d960e11b81526001600160a01b038416600482015260248101829052604481018390526064016103b2565b61067f848484840360006105af565b6001600160a01b03831661070f57604051634b637e8f60e11b8152600060048201526024016103b2565b6001600160a01b0382166107395760405163ec442f0560e01b8152600060048201526024016103b2565b61050c8383835b6001600160a01b03831661076b5780600260008282546107609190610a32565b909155506107dd9050565b6001600160a01b038316600090815260208190526040902054818110156107be5760405163391434e360e21b81526001600160a01b038516600482015260248101829052604481018390526064016103b2565b6001600160a01b03841660009081526020819052604090209082900390555b6001600160a01b0382166107f957600280548290039055610818565b6001600160a01b03821660009081526020819052604090208054820190555b816001600160a01b0316836001600160a01b03167fddf252ad1be2c89b69c2b068fc378daa952ba7f163c4a11628f55a4df523b3ef8360405161085d91815260200190565b60405180910390a3505050565b6000815180845260005b8181101561089057602081850181015186830182015201610874565b506000602082860101526020601f19601f83011685010191505092915050565b6020815260006103de602083018461086a565b80356001600160a01b03811681146108da57600080fd5b919050565b600080604083850312156108f257600080fd5b6108fb836108c3565b946020939093013593505050565b60008060006060848603121561091e57600080fd5b610927846108c3565b9250610935602085016108c3565b929592945050506040919091013590565b608081526000610959608083018761086a565b60ff959095166020830152506001600160a01b03929092166040830152606090910152919050565b60006020828403121561099357600080fd5b6103de826108c3565b600080604083850312156109af57600080fd5b6109b8836108c3565b91506109c6602084016108c3565b90509250929050565b600181811c908216806109e357607f821691505b602082108103610a0357634e487b7160e01b600052602260045260246000fd5b50919050565b634e487b7160e01b600052601160045260246000fd5b8181038181111561031f5761031f610a09565b8082018082111561031f5761031f610a0956fea26469706673582212204ea09a07fa11004fd79f4280f06ea54938bd78d1bb6c1e14384a59051f661a1764736f6c634300081a0033a264697066735822122070f98a34e1f76c99f465127e4a7f347561a2474653777a98796505e94a23524764736f6c634300081a00336080604052348015600f57600080fd5b506121418061001f6000396000f3fe608060405234801561001057600080fd5b506004361061004b5760003560e01c80620d66e014610050578063145dad8b1461007857806354894f581461008b578063c68b3787146100ab575b600080fd5b61006361005e366004611dec565b6100cb565b60405190151581526020015b60405180910390f35b610063610086366004611eed565b6102d0565b61009e610099366004611eed565b610304565b60405161006f9190611f56565b6100be6100b9366004611f87565b6103b4565b60405161006f9190611ff0565b600080604051806101800160405280866000600281106100ed576100ed61200a565b602002015181526020018660016002811061010a5761010a61200a565b602002015181526020017f198e9393920d483a7260bfb731fb5d25f1aa493335a9e71297e485b7aef312c281526020017f1800deef121f1e76426a00665e5c4479674322d4f75edadd46debd5cd992f6ed81526020017f275dc4a288d1afb3cbb1ac09187524c7db36395df7be3b99e673b13a075a65ec81526020017f1d9befcd05a5323e6da4d435f3b617cdb3af83285c2df711ef39c01571827f9d8152602001846000600281106101bf576101bf61200a565b60200201518152602001846001600281106101dc576101dc61200a565b60200201518152602001856001600481106101f9576101f961200a565b60200201518152602001856000600481106102165761021661200a565b60200201518152602001856003600481106102335761023361200a565b60200201518152602001856002600481106102505761025061200a565b602002015190529050610261611cf5565b60006020826101808560086107d05a03fa9050808061027c57fe5b50806102c35760405162461bcd60e51b8152602060048201526011602482015270696e76616c6964207369676e617475726560781b60448201526064015b60405180910390fd5b5051151595945050505050565b60006102fa60405180604001604052806005815260200164257320257360d81b8152508484610569565b5060015b92915050565b61030c611d13565b600061031884846105b5565b9050600061032c82825b6020020151610670565b9050600061033b836001610322565b9050610345611d31565b825181526020808401518282015282516040808401919091529083015160608301526000908460808460066107d05a03fa9050808061038057fe5b50806103a85760405162461bcd60e51b815260206004820152600060248201526044016102ba565b50919695505050505050565b604080516042808252608082019092526060916000919060208201818036833701905050905060006040518060400160405280601081526020016f181899199a1a9b1b9c1cb0b131b232b360811b8152509050600360fc1b8260008151811061041f5761041f61200a565b60200101906001600160f81b031916908160001a905350600f60fb1b8260018151811061044e5761044e61200a565b60200101906001600160f81b031916908160001a90535060005b60208110156105605760008582602081106104855761048561200a565b845191901a91508390600483901c60ff169081106104a5576104a561200a565b01602001516001600160f81b031916846104c0846002612036565b6104cb90600261204d565b815181106104db576104db61200a565b60200101906001600160f81b031916908160001a9053508281600f1660ff168151811061050a5761050a61200a565b01602001516001600160f81b03191684610525846002612036565b61053090600361204d565b815181106105405761054061200a565b60200101906001600160f81b031916908160001a90535050600101610468565b50909392505050565b6105b083838360405160240161058193929190612060565b60408051601f198184030181529190526020810180516001600160e01b0316632ced7cef60e01b179052610a3b565b505050565b6105bd611d13565b60006105c98484610a47565b9050600080600080601885016001600160c01b0381511693506030860190506001600160c01b0381511694506000805160206120ec833981519152856000805160206120ec833981519152600160c01b870908604887015160608801516001600160c01b03908116975016945092506000805160206120ec83398151915290508481600160c01b860908604080518082019091529283526020830152509695505050505050565b610678611d13565b6000805160206120ec83398151915282106106e15760405162461bcd60e51b815260206004820152602360248201527f6d6170546f506f696e7446543a20696e76616c6964206669656c6420656c656d604482015262195b9d60ea1b60648201526084016102ba565b8160006106ed82610d53565b905060006000805160206120ec83398151915283840990506000805160206120ec83398151915260048208905060006000805160206120ec83398151915277b3c4d79d41a91759a9e4c7e359b6b89eaec68e62effffffd8509905060006000805160206120ec833981519152838309905061076781610e24565b90506000805160206120ec83398151915282830991506000805160206120ec83398151915281830991506000805160206120ec83398151915282860991506000805160206120ec8339815191526107cc836000805160206120ec8339815191526120a3565b7759e26bcea0d48bacd4f263f1acdb5c4f5763473177fffffe0894506000805160206120ec83398151915285860991506000805160206120ec83398151915285830991506000805160206120ec833981519152600383089150600061083083610e2f565b9093509050801561087957841561085c57610859836000805160206120ec8339815191526120a3565b92505b505060408051808201909152938452602084015250909392505050565b6000805160206120ec833981519152600187086108a4906000805160206120ec8339815191526120a3565b95506000805160206120ec83398151915286870992506000805160206120ec83398151915286840992506000805160206120ec8339815191526003840892506108ec83610e2f565b9093509050801561091557841561085c57610859836000805160206120ec8339815191526120a3565b6000805160206120ec83398151915284850995506000805160206120ec83398151915286870995506000805160206120ec83398151915282870995506000805160206120ec83398151915282870995506000805160206120ec8339815191526001870895506000805160206120ec83398151915286870992506000805160206120ec83398151915286840992506000805160206120ec8339815191526003840892506109c083610e2f565b909350905080610a1d5760405162461bcd60e51b815260206004820152602260248201527f424c533a20626164206674206d617070696e6720696d706c656d656e7461746960448201526137b760f11b60648201526084016102ba565b841561085c57610859836000805160206120ec8339815191526120a3565b610a4481610e58565b50565b81516060906101008110610a9d5760405162461bcd60e51b815260206004820152601a60248201527f424c533a20696e76616c696420646f6d61696e206c656e67746800000000000060448201526064016102ba565b82516000610aab828461204d565b610ab690604061204d565b610ac190600461204d565b67ffffffffffffffff811115610ad957610ad9611d4f565b6040519080825280601f01601f191660200182016040528015610b03576020820181803683370190505b5060408051606080825260808201909252919250600091906020820181803683370190505090506060820160005b84811015610b4b5760208189018101518383015201610b31565b508301600081536001016060815360010160008153600181019050602088015181528481019050848153506000600283604051610b8891906120b6565b602060405180830381855afa158015610ba5573d6000803e3d6000fd5b5050506040513d601f19601f82011682018060405250810190610bc891906120d2565b90506000610bd786602261204d565b945084845281602085015260016040850153602089015160418501528560418701850153600284604051610c0b91906120b6565b602060405180830381855afa158015610c28573d6000803e3d6000fd5b5050506040513d601f19601f82011682018060405250810190610c4b91906120d2565b90508060208401528082188060208601525060026040850153602089015160418501528560418701850153600284604051610c8691906120b6565b602060405180830381855afa158015610ca3573d6000803e3d6000fd5b5050506040513d601f19601f82011682018060405250810190610cc691906120d2565b90508060408401528082188060208601525060036040850153602089015160418501528560418701850153600284604051610d0191906120b6565b602060405180830381855afa158015610d1e573d6000803e3d6000fd5b5050506040513d601f19601f82011682018060405250810190610d4191906120d2565b60608401525090979650505050505050565b60008060405160208152602080820152602060408201528360608201527f183227397098d014dc2822db40c0ac2ecbc0b548b438e5469e10460b6c3e7ea360808201526000805160206120ec83398151915260a082015260208160c08360056107d05a03fa90516001149250905080610e1d5760405162461bcd60e51b815260206004820152602660248201527f424c533a2069734e6f6e526573696475654650206d6f646578702063616c6c2060448201526519985a5b195960d21b60648201526084016102ba565b5015919050565b60006102fe82610e79565b600080610e3b836115c0565b9150826000805160206120ec833981519152838409149050915091565b60006a636f6e736f6c652e6c6f679050600080835160208501845afa505050565b60006000805160206120ec8339815191528083840991508083830981838209828283098385830984848309858484098684850997508684840987858409945087898a09985087898a09985087898a09985087898a09985087898a09985087878a09985087898a09985087898a09985087898a099850878a8a09985087898a09985087898a09985087898a09985087898a099850878a8a09985087898a09985087898a09985087898a09985087898a09985087898a09985087848a09985087898a09985087898a09985087898a09985087898a09985087898a09985087848a09985087898a09985087898a09985087898a099850878a8a09985087898a09985087898a09985087898a09985087898a09985087848a09985087898a09985087898a09985087898a09985087898a09985087898a099850878a8a09985087898a09985087898a09985087898a09985087898a09985087878a09985087898a09985087898a09985087898a09985087898a09985087898a09985087898a09985087898a09985087818a09985087898a09985087898a09985087898a09985087898a09985087898a09985087898a09985087898a09985087898a09985087898a09985087898a09985087868a09985087898a09985087898a09985087898a09985087898a09985087878a09985087898a09985087898a09985087898a09985087898a09985087848a09985087898a09985087898a09985087898a09985087898a09985087898a09985087898a09985087898a09985087868a09985087898a09985087898a09985087898a09985087898a09985087898a09985087898a099850878a8a09985087898a09985087898a09985087898a09985087898a09985087898a09985087898a09985087898a09985087828a09985087898a09985087898a09985087898a09985087898a09985087898a09985087818a09985087898a09985087898a09985087898a09985087868a09985087898a09985087898a09985087898a09985087898a09985087898a09985087898a09985087898a09985087898a09985087878a09985087898a09985087898a09985087898a09985087898a09985087898a09985087898a09985087898a09985087898a09985087898a09985087868a09985087898a09985087898a09985087898a09985087878a09985087898a09985087898a09985087898a09985087898a09985087898a09985087898a09985087898a09985087898a09985087828a09985087898a09985087898a09985087898a09985087898a09985087828a09985087898a09985087898a09985087898a09985087898a09985087898a09985087868a09985087898a09985087898a09985087898a09985087848a09985087898a09985087898a09985087898a09985087898a09985087898a09985087898a09985087898a09985087898a09985087898a09985087898a09985087828a09985087898a09985087898a09985087898a09985087898a09985087868a09985087898a09985087898a09985087898a09985087898a09985087898a09985087838a09985087898a09985087898a09985087898a09985087898a09985087898a09985087898a09985087898a09985087828a09985087898a09985087898a099850878a8a09985087898a09985087898a09985087898a09985087898a09985087898a09985087898a09985087898a09985087848a09985087898a09985087898a09985087898a09985087898a09985087898a09985087898a09985087848a09985087898a09985087898a09985087898a09985087898a09985087898a09985087868a09985087898a09985087898a099850878a8a09985087898a09985087898a09985087898a09985087898a09985087898a09985087898a09985087898a09985087818a09985050868889099750868889099750868889099750868889099750868889099750868889099750868489099750868889099750868889099750868889099750868889099750868889099750868989099750868889099750868889099750868889099750868889099750868889099750868889099750868989099750868889099750868889099750868889099750868889099750868889099750868689099750868889099750868889099750868889099750868889099750868889099750868889099750868889099750868889099750868889099750868189099750508587880996508587880996508587880996508585880996508587880996508587880996508587880996508585880996508587880996508587880996508587880996508587880996508587880996508587880996508587880996508587880996508583880996508587880996508587880996508587880996508587880996508581880996505050838586099450838586099450838586099450838586099450838186099450508284850993508284850993508284850993508281850993508284850993508284850993508285850993508284850993508284850993508284850993508284850993508284850993508284850993508281850995945050505050565b60006000805160206120ec8339815191528083840991508083830981838209828283098385830984848309858484098684850997508684840987858409945087898a09985087898a09985087898a09985087898a09985087898a09985087878a09985087898a09985087898a09985087898a099850878a8a09985087898a09985087898a09985087898a09985087898a099850878a8a09985087898a09985087898a09985087898a09985087898a09985087898a09985087848a09985087898a09985087898a09985087898a09985087898a09985087898a09985087848a09985087898a09985087898a09985087898a099850878a8a09985087898a09985087898a09985087898a09985087898a09985087848a09985087898a09985087898a09985087898a09985087898a09985087898a099850878a8a09985087898a09985087898a09985087898a09985087898a09985087878a09985087898a09985087898a09985087898a09985087898a09985087898a09985087898a09985087898a09985087818a09985087898a09985087898a09985087898a09985087898a09985087898a09985087898a09985087898a09985087898a09985087898a09985087898a09985087868a09985087898a09985087898a09985087898a09985087898a09985087878a09985087898a09985087898a09985087898a09985087898a09985087848a09985087898a09985087898a09985087898a09985087898a09985087898a09985087898a09985087898a09985087868a09985087898a09985087898a09985087898a09985087898a09985087898a09985087898a099850878a8a09985087898a09985087898a09985087898a09985087898a09985087898a09985087898a09985087898a09985087828a09985087898a09985087898a09985087898a09985087898a09985087898a09985087818a09985087898a09985087898a09985087898a09985087868a09985087898a09985087898a09985087898a09985087898a09985087898a09985087898a09985087898a09985087898a09985087878a09985087898a09985087898a09985087898a09985087898a09985087898a09985087898a09985087898a09985087898a09985087898a09985087868a09985087898a09985087898a09985087898a09985087878a09985087898a09985087898a09985087898a09985087898a09985087898a09985087898a09985087898a09985087898a09985087828a09985087898a09985087898a09985087898a09985087898a09985087828a09985087898a09985087898a09985087898a09985087898a09985087898a09985087868a09985087898a09985087898a09985087898a09985087848a09985087898a09985087898a09985087898a09985087898a09985087898a09985087898a09985087898a09985087898a09985087898a09985087898a09985087828a09985087898a09985087898a09985087898a09985087898a09985087868a09985087898a09985087898a09985087898a09985087898a09985087898a09985087838a09985087898a09985087898a09985087898a09985087898a09985087898a09985087898a09985087898a09985087828a09985087898a09985087898a099850878a8a09985087898a09985087898a09985087898a09985087898a09985087898a09985087898a09985087898a09985087848a09985087898a09985087898a09985087898a09985087898a09985087898a09985087898a09985087848a09985087898a09985087898a09985087898a09985087898a09985087898a09985087868a09985087898a09985087898a099850878a8a09985087898a09985087898a09985087898a09985087898a09985087898a09985087898a09985087898a09985087818a09985050868889099750868889099750868889099750868889099750868889099750868889099750868489099750868889099750868889099750868889099750868889099750868889099750868989099750868889099750868889099750868889099750868889099750868889099750868889099750868989099750868889099750868889099750868889099750868889099750868889099750868689099750868889099750868889099750868889099750868889099750868889099750868889099750868889099750868889099750868889099750868189099750508587880996508587880996508587880996508585880996508587880996508587880996508587880996508585880996508587880996508587880996508587880996508587880996508587880996508587880996508587880996508587880996508583880996508587880996508587880996508587880996508587880996508581880996508587880996508587880996508587880996508587880996508583880996508587880996508587880996508587880996508584880996508587880996508587880996508587880996508587880996508587880996508581880996505050505050808283099392505050565b60405180602001604052806001906020820280368337509192915050565b60405180604001604052806002906020820280368337509192915050565b60405180608001604052806004906020820280368337509192915050565b634e487b7160e01b600052604160045260246000fd5b604051601f8201601f1916810167ffffffffffffffff81118282101715611d8e57611d8e611d4f565b604052919050565b600082601f830112611da757600080fd5b6000611db36040611d65565b9050806040840185811115611dc757600080fd5b845b81811015611de1578035835260209283019201611dc9565b509195945050505050565b60008060006101008486031215611e0257600080fd5b611e0c8585611d96565b9250600085605f860112611e1e578081fd5b80611e296080611d65565b905080915060c0860187811115611e3f57600080fd5b604087015b81811015611e5c578035845260209384019301611e44565b50819450611e6a8882611d96565b93505050509250925092565b600082601f830112611e8757600080fd5b81356020830160008067ffffffffffffffff841115611ea857611ea8611d4f565b50601f8301601f1916602001611ebd81611d65565b915050828152858383011115611ed257600080fd5b82826020830137600092810160200192909252509392505050565b60008060408385031215611f0057600080fd5b823567ffffffffffffffff811115611f1757600080fd5b611f2385828601611e76565b925050602083013567ffffffffffffffff811115611f4057600080fd5b611f4c85828601611e76565b9150509250929050565b60408101818360005b6002811015611f7e578151835260209283019290910190600101611f5f565b50505092915050565b600060208284031215611f9957600080fd5b5035919050565b60005b83811015611fbb578181015183820152602001611fa3565b50506000910152565b60008151808452611fdc816020860160208601611fa0565b601f01601f19169290920160200192915050565b6020815260006120036020830184611fc4565b9392505050565b634e487b7160e01b600052603260045260246000fd5b634e487b7160e01b600052601160045260246000fd5b80820281158282048414176102fe576102fe612020565b808201808211156102fe576102fe612020565b6060815260006120736060830186611fc4565b82810360208401526120858186611fc4565b905082810360408401526120998185611fc4565b9695505050505050565b818103818111156102fe576102fe612020565b600082516120c8818460208701611fa0565b9190910192915050565b6000602082840312156120e457600080fd5b505191905056fe30644e72e131a029b85045b68181585d97816a916871ca8d3c208c16d87cfd47a2646970667358221220304135c11cb87fce46b53f87bbc5487f70d7bb5edfabf3fcf223cf34689d785864736f6c634300081a0033",
  "linkReferences": {},
  "deployedLinkReferences": {}
}